:020000040800F2
:10000000000400203B020008490200084B020008DF
:100010004D0200084F0200085102000800000000D5
:100020000000000000000000000000005302000873
:10003000550200080000000057020008590200089D
:10004000EB2700085B0200085B020008A72F0008EE
:100050005B0200085B020008331600085B02000820
:10006000A9260008D1260008E72600085B02000840
:100070005B0200085B0200086F370008AF3700081A
:100080005B0200085B0200085B0200085B020008DC
:10009000C53C00085B0200085B020008D916000896
:1000A0005B0200085B0200085B0200085B020008BC
:1000B000DF440008112800085B0200085B0200080A
:1000C0005B0200085B0200085B0200085B0200089C
:1000D0005B020008352300085B0200085B02000891
:1000E0005B0200085B0200087D5600085B02000806
:1000F0005B0200085B0200085B0200085B0200086C
:100100005B0200085B0200085B0200085B0200085B
:100110005B0200085B020008C75E0008452B000870
:100120005B0200085B0200085B0200085B0200083B
:1001300000F002F800F06BF80AA090E8000C82448E
:100140008344AAF10107DA4501D100F060F8AFF26B
:10015000090EBAE80F0013F0010F18BFFB1A43F0A5
:1001600001031847F47C0000147D00000A444FF09E
:10017000000C10F8013B13F0070408BF10F8014B06
:100180001D1108BF10F8015B641E05D010F8016B4B
:10019000641E01F8016BF9D113F0080F1EBF10F8AF
:1001A000014BAD1C0C1B09D16D1E58BF01F801CBD2
:1001B000FAD505E014F8016B01F8016B6D1EF9D555
:1001C0009142D6D37047000000230024002500266A
:1001D000103A28BF78C1FBD8520728BF30C148BFAA
:1001E0000B607047642906F0E582752906F0E2820B
:1001F000782906F01B83632906F09F84732906F093
:10020000A484002070471FB51FBD10B510BD06F0B7
:10021000CFFC1146FFF7F7FF00F057F806F0EDFCB2
:1002200003B4FFF7F2FF03BC02F076F830BF72B6FA
:1002300062B680F30888704770470B4880470B49C7
:1002400081F308880A480047FEE7FEE7FEE7FEE77D
:10025000FEE7FEE7FEE7FEE7FEE7FEE705480649A4
:10026000044A064B7047000039020008682000204D
:10027000310100086818002068200020681800205C
:10028000FE49896941F00401FC4A916138B1FC4999
:10029000096889B221F00201F94A116014E0F849B5
:1002A000096889B241F00201F54A1160F54909680F
:1002B00021F47F21F34A11601146096841F44C3161
:1002C00011600021F04A1160704792B04FF00008B1
:1002D00000BF002401200B900A9000200990089094
:1002E00007900120069000BF00BF002004900590F9
:1002F00001F0B7FAE5480068E5490860E54800689C
:10030000E5490860E5480068E5490860E548006897
:10031000E549086000201090092001F0A2FF482064
:1003200001F030FE02F0D0F80120E04908604FF003
:100330000000DF49C1F8940101F0E3FC01F01FFD6A
:1003400002F0DCFE05F08DFB0020DA490870DA4986
:10035000087007980823042211460090012003F03A
:100360005FFAD649D648006807F036FB039007F0DD
:10037000B3FAD449088001F0B7B8D348007801280F
:1003800005D100200D9001200C90D0490870CA487A
:10039000007810F0010F4AD0C648007804280BD12D
:1003A0000020C4490870C448007820F00100C24908
:1003B000087005F0FCFB3AE0BE480078012807D140
:1003C0000220BC490870C248006805F0D6FA2EE049
:1003D000B848007858B3902005F042FABD4908604B
:1003E0000021BC48006807F0C3FB07D2B948006889
:1003F000B94908600020B949087018E0B64800689B
:10040000B4490860B448006807F0BAF80022B44B59
:10041000CDE9000106F036FCCDE9020106F000FC52
:10042000AD490860AD480078401CAC490870A2484E
:10043000007810F0020F58D0AA48007810F0020F90
:1004400005D0022005F0E1FF012005F07AFFA64863
:10045000007804280ED1A5480078002845D1A2498B
:1004600008709548007820F002009349087005F064
:10047000C7FB3AE09C480078012807D102209A493E
:1004800008709B48006805F032FB2EE09648007823
:1004900058B3922005F0E4F9964908600021954888
:1004A000006807F065FB07D292480068924908602F
:1004B00000209249087018E08F4800688D49086054
:1004C0008D48006807F05CF80022854BCDE90001FB
:1004D00006F0D8FBCDE9020106F0A2FB86490860D0
:1004E00086480078401C854908708048007808B12B
:1004F00006F040F8099868B108980A2806DD00203F
:1005000008900990012006900A9003E00898401C8A
:10051000C0B208907A480078002856D00020784968
:10052000087078480078C0F303100B907548007885
:1005300000F00F010A9881423BD1002409E0724883
:10054000025D0698411CC9B2069170490A54601CAC
:1005500084B26F4800788442F1DBAA206B490870AE
:100560006848007800F00F010B9881420DD30020FD
:100570000990089001200A90032066490870664996
:1005800006980870012006901FE0012009900A9843
:10059000401CC0B20A9000208DF810005C48007822
:1005A0008DF8110002225748016804A803F0B9FB36
:1005B0000BE003208DF810000A988DF8110002223C
:1005C0005048016804A803F0ACFB524800780328A7
:1005D00040F03587504800785049087000204D4958
:1005E00008704D49087049484078102840D009DC0F
:1005F000012812D002280ED004283AD0082840F052
:100600001C87BDE1112835D0122834D0132833D0EF
:100610001428F4D1FEE300F011BF00200D903B48F8
:10062000C0782A49087001200C9038488078012849
:1006300002DA01200D9006E13448C07820380828FD
:100640001BD2DFE800F00490BBE6F3FCFCFB0020CB
:100650000D9082462D4890F805A0007940EA0A2ABC
:100660002A4800792E49087028484079487059E096
:1006700087E1EFE0E8E2F7E3F7E3E0E000100240B3
:10068000405C004004080140B0012142700200209B
:100690007400002058020020780000206002002032
:1006A0007C0000206802002080000020AC01244271
:1006B000008023422C0200202E0200200000C040B7
:1006C00060000020640000204B0000200400002097
:1006D0009402002098020020A0020020480200207E
:1006E0000000E03F3A0200202D02002049000020D7
:1006F000B8020020BC020020C402002049020020F1
:10070000CC000020D8000020CD00002018030020DD
:10071000DE000020BF000020BE00002003000020FB
:1007200094000020FE4880798870FD48C079C87028
:100730000868002107F080F812D000240BE0F94986
:10074000086807F0C9F8C4EBC401F74A02EB41019D
:100750000881601C84B2042CF1DB01F042FB01E053
:1007600006200D906EE000200D908246EC4890F837
:1007700005A0007940EA0A2AE9480079E9490870A9
:10078000E74840794870E64880798870E448C07945
:10079000C8700868002107F0EBF90CD2E14908683D
:1007A000E24907F0E5F806D2DE49086807F094F858
:1007B000DF49088001E007200D9043E000200D9004
:1007C0008246D74890F805A0007940EA0A2AD44822
:1007D0000079D4490870D24840794870D04880796F
:1007E0008870CF48C079C8700868002107F0C0F948
:1007F0000CD2CC490868CD4907F0BAF806D2C949ED
:10080000086807F069F8CB49088001E007200D90DF
:1008100018E000200D90C248067906F00100C64994
:100820000870C64908600DE008E0FFE700200D9061
:100830002420C349087001F0D4FA03E002E0052047
:100840000D9000BF00BFBE4A0121DDE90C3003F06E
:100850008BFAE0E600200D90B148C078B8490870E6
:1008600001200C90AE488078012802DA01200D901A
:100870007FE0AB48C0782038082876D2DFE800F067
:10088000041F3A755575756000200D902020AC4905
:100890000870A549088907F057F8A249086008467A
:1008A0000078A74948709F48407888709D488078B4
:1008B000C8709C48C078087105200C9058E0002052
:1008C0000D9021209E4908709948008807F03CF857
:1008D00094490860084600789949487091484078E2
:1008E000887090488078C8708E48C078087105205C
:1008F0000C903DE000200D902220914908708D4819
:10090000008807F021F887490860084600788C497C
:10091000487084484078887082488078C8708148E0
:10092000C078087105200C9022E000200D90022074
:100930000C9024208249087082480078487017E0A3
:1009400000200D9007200C9027207D490870112071
:100950004870012088700520C8701120087104209B
:1009600048710D20887103E0FFE705200D9000BF5E
:1009700000BF734A0421DDE90C3003F0F5F94AE6C3
:1009800049E600200D906648C0786D490870012046
:100990000C906348C0780B287AD2DFE800F0590643
:1009A00098F4E8E779797979E6005D480679407945
:1009B0005C4908705A48807948705948C0798870F5
:1009C0005748007AC870084600680E9000210E98BB
:1009D00007F0CEF839D25C490E9806F0C9FF34D240
:1009E0004F48457A90F80A90012E26D0022E28D141
:1009F0005648058000884FF6FF7101EA00205349F0
:100A000008800846008840EA0900088008460088F7
:100A100000EB40004FF6FF7101EA40004C490880AE
:100A20004C490E98086001204B4908704B480078EB
:100A300040F002004949087006E049490E980860F4
:100A400002E006200D9000BF01E006200D90F3E0CB
:100A50003348067900200D90012E02D0022E31D1AC
:100A600017E000203F4908703C48007820F0010062
:100A70003A49087005F09BF800203749087037485C
:100A8000007820F002003549087005F0B9F81CE044
:100A9000CFE00020334908703048007820F0010092
:100AA0002E49087005F083F800202B4908702B4868
:100AB000007820F002002949087005F0A1F801F043
:100AC00002FA02E006200D9000BF00BFB4E0144817
:100AD000067900200D9005200C90012E02D0022EE8
:100AE0000CD105E0902004F0BBFE0E4908600DE03B
:100AF000922004F0B5FE0B49086007E006200D9037
:100B000002200F49087001200C9000BF00BF0D9813
:100B100050BB02200A49087002480078487028E05B
:100B20001803002094000020E81400200000FA447C
:100B30004E000020500000205800002094812342E5
:100B4000040000206C000020000016433402002046
:100B500038020020B80200202D0200202E020020C2
:100B60004C0200202C0200200CE019E049E021E0BA
:100B700009E0FE4840788870FC488078C870FB48DF
:100B8000C078087158E0FA48067916F0020F02D0D2
:100B900001F0C8F803E006F0010001F0B8F84BE0FE
:100BA0000A20F449087001F0C4F8F24948700220A4
:100BB0000C9041E000200D90ED480079EB49087061
:100BC000EB4840794870EA4880798870E848C079F5
:100BD000C8700868002106F0CBFF0AD8E34908680E
:100BE000E54906F0C5FE04D2E0480068E349086024
:100BF00001E007200D900420DE49087001200C90D0
:100C00001AE000200D9005200C90DC480068D749C0
:100C100008600520D7490870D44800784870D34848
:100C200040788870D1488078C870D048C078087102
:100C300002E005200D9000BF00BFCE4A1021DDE983
:100C40000C3003F091F8F9E300200D9001200C9096
:100C5000C748C078C7490870C548C0780611022E39
:100C600002DB07200D90F8E0C148C07800F00F09C2
:100C7000BF488578B9F10A0F6FD2DFE809F0EA21A1
:100C8000396951EAEA94D20516B107200D9016E0B1
:100C9000042D02DA01200D9011E0B5480079B84921
:100CA0000870B34840794870B14880798870B0487E
:100CB000C079C87008460068B24948600860CBE057
:100CC000042D02DA01200D9011E0A9480079AC4909
:100CD0000870A74840794870A54880798870A44872
:100CE000C079C87008460068A74941F82600B3E0FB
:100CF000042D02DA01200D9011E09D480079A349EE
:100D000008709B4840794870994880798870984865
:100D1000C079C870084600689D4941F826009BE0EC
:100D2000042D02DA01200D9011E0914800799949D3
:100D300008708F48407948708D48807988708C4859
:100D4000C079C87008460068934941F8260083E0DE
:100D5000082D03DA01200D9024E07AE08448007920
:100D60008749087082484079487081488079887046
:100D70007F48C079C87008460068834941F826005A
:100D80007B48007A814908707948407A48707848F1
:100D9000807A88707648C07AC870084600687C49B6
:100DA00041F8260058E00C2D02DA01200D9037E0C2
:100DB0006F480079724908706D48407948706C48F6
:100DC000807988706A48C079C870084600686E49A2
:100DD00041F826006648007A6C4908706448407AF9
:100DE00048706348807A88706148C07AC870084645
:100DF0000068674941F826005D48007B6549087036
:100E00005B48407B48705A48807B88705848C07B5C
:100E1000C87000E039E2084600685F4941F82600E2
:100E20001AE0042D02DA01200D9011E050480079FB
:100E30005A4908704E48407948704D48807988700A
:100E40004B48C079C87008460068554941F82600EB
:100E500002E005200D9000BF00BF464A1121DDE9E8
:100E60000C3002F081FFE9E200E0CBE000200D90C1
:100E70003F48C0783F4908700220487041480068E8
:100E80003F490860084600783A4988703C484078F5
:100E9000C8703B48807808713948C0784871062787
:100EA0000024A2E0384850F824003549086008467C
:100EB00002783846791C8FB22E490A54304842785D
:100EC0003846791C8FB22B490A542D48827838460F
:100ED000791C8FB227490A542948C2783846791CB0
:100EE0008FB224490A542A4850F824002449086043
:100EF000084602783846791C8FB21E490A542048A9
:100F000042783846791C8FB21A490A541C488278B4
:100F10003846791C8FB217490A541948C2783846A6
:100F2000791C8FB213490A541B4850F82400144905
:100F30000860084602783846791C8FB20D490A5479
:100F40000F4842783846791C8FB20A490A540C4837
:100F500082783846791C8FB206490A540848C2780C
:100F60003846791C8FB203490A541BE094000020D4
:100F70001803002004000020000048425400002014
:100F80007800002078020020580200207C00002019
:100F90006002002080000020680200207400002011
:100FA00070020020FE4850F82400FE490860084600
:100FB00002783846791C8FB2FB490A54F9484278C6
:100FC0003846791C8FB2F8490A54F6488278384678
:100FD000791C8FB2F4490A54F248C2783846791C19
:100FE0008FB2F1490A54601C84B2022CFFF65AAF4A
:100FF000781CC0B20C90EC4A1221DDE90C3002F0F2
:10100000B3FE1BE2E94890F80390857800200D902C
:10101000E54880F8009001200C90A9F10300052814
:101020006FD2DFE800F0036FDBFEFD00DF484079A0
:10103000012803DBDD488079012802DA07200D90C2
:101040005EE0DA4890F806B0ABF10100D849C8700C
:10105000002433E004EB44004006050EE81DD349AC
:10106000085CD44901F8340005F10800CF49085C58
:10107000D04901EBC401487005F10900CB49085C77
:10108000CC4901EBC401887005F10A00C749085C2E
:10109000C84901EBC401C87005F10B00C349095CE4
:1010A000C44800EBC400417105F10C00BF49085C65
:1010B000C04901EBC4010871601C84B25C45C9DB06
:1010C000BC49584600F0E4FB012802D007200D90EF
:1010D00012E00020B849087004F092FD012005F0EC
:1010E00030F9B64AB349584600F0F2FBB048C07830
:1010F000B149C87001200870AC48C078AA4908708E
:10110000BBE0B7E000200D90002433E004EB440086
:101110004006050EE81DA549085CA64901F8340003
:1011200005F10800A149085CA24901EBC40148701F
:1011300005F109009D49085C9E4901EBC4018870D6
:1011400005F10A009949085C9A4901EBC401C8708D
:1011500005F10B009549095C964800EBC40041710C
:1011600005F10C009149085C924901EBC40108713A
:10117000601C84B2022CC9DB8E49022000F088FB7F
:10118000012802D007200D9027E08D4A89490220CE
:1011900000F09EFB8548007901281ED18648007822
:1011A000012818D18748007868B100208649087066
:1011B000864908708649087004F0F9FC04F020FDA7
:1011C00000208049087079484079401E7A4948706B
:1011D00000F0B4FD01E008200D904EE000200D90DD
:1011E000724800797B4908707048407948706F48B0
:1011F000807988706D48C079C8700868002106F051
:10120000B7FC11D873480068734908607349724885
:10121000006806F0E1FB039006F05EFB704901E018
:1012200027E004E0088001E007200D9025E0002081
:101230000D905E480079674908705C4840794870B5
:101240005A48807988705948C079C8700868002168
:1012500006F08EFC0AD85F490868624906F088FBF0
:1012600004D25C4800686049086001E007200D90E6
:1012700003E002E005200D9000BF00BF4A4A1321A1
:10128000DDE90C3002F070FDD8E000200D904748F9
:10129000C07881464449087001200C90B9F1060FCE
:1012A00066D009DCB9F1010F0DD0B9F1020F18D0E9
:1012B000B9F1050F72D143E0B9F1070F6FD0B9F161
:1012C000150F6BD19DE001203749087000F041FCFB
:1012D0003549487000F043FC3349887003200C9076
:1012E000A3E00220304908703948007848703F4830
:1012F0000078022805D14FF0010B3D4800880F907F
:1013000004E04FF0000B3B4800880F902F48007816
:10131000000140EACB002C49097808432249887033
:101320003548B0F800A04FEA2A20C87081F804A020
:101330000F98001248710F98887107200C9074E084
:1013400000200D90244800682249086005201649B5
:1013500008702048007848701E48407888701D4802
:101360008078C8701B48C078087105200C905CE03C
:1013700000200D901C4800681649086006200A49A4
:1013800008701448007848701248407888701148F6
:101390008078C8700F48C07808712FE042E040E0C4
:1013A00070020020780000200400002018030020B4
:1013B0009C000020701500209800002020150020BF
:1013C000C0150020490000202D0200202C02002022
:1013D0002E02002094000020600000200000C04089
:1013E00064000020000048425C0000202F02002022
:1013F00034340140342C01403C08004005200C905E
:1014000013E000200D901520C0490870C0480078F6
:1014100008B1012000E00020BC49487002200C9077
:1014200003E002E005200D9000BF00BFB74A142181
:10143000DDE90C3002F098FC00E000BF00BF10981E
:10144000401CC0B210900A2000F0D3FD109805286F
:101450004AD108F1010000F0FF08B8F1000F07D1F0
:10146000AC48006808B9012000E00020A9490860E4
:10147000B8F1010F07D1A848006808B9012000E0C1
:101480000020A5490860B8F1020F07D1A348006801
:1014900008B9012000E00020A0490860B8F1030F5E
:1014A00007D19F48006808B9012000E000209C494E
:1014B0000860B8F1040F07D19A48006808B9012004
:1014C00000E0002097490860B8F1050F09D196485F
:1014D000006808B9012000E00020934908604FF03F
:1014E00000084FF000001090FEF747BF2DE9F047CD
:1014F0008046894692461F46AA208C4908700846B5
:1015000080F8018080F80290C7700425002407E06D
:101510001AF8040085494855601C84B2681C85B2DD
:10152000BC42F5DB0026012405E08048005D304424
:1015300086B2601C84B2681EA042F6DC172E01D170
:10154000701C86B279494E551721784AA81C11544F
:10155000681C115440224FF48C71744803F0BAFC9B
:101560004021022003F0BCFE022003F085FDBDE80F
:10157000F0872DE9F0478046894692461F46AA200B
:101580006B490870084680F8018080F80290C770A7
:101590000425002407E01AF8040065494855601C3A
:1015A000C4B2681CC5B2BC42F5DB0026012405E0CC
:1015B0005F48005D3044C6B2601CC4B2681EA042E1
:1015C000F6DC172E01D1701CC6B2594846551721BA
:1015D0000246A81C1154681C11540021E81C115427
:1015E000002406E05249085D524905F013FA601CD8
:1015F000C4B2402CF6DBBDE8F0872DE9F04104468B
:101600000F4615461E464C480078012806D0334642
:101610002A4604212046FFF7ACFF08E033462A465D
:1016200011212046FFF762FF002043490870BDE802
:10163000F08101204149086041490870704710B5A8
:1016400002460B460021012404E0105D0844C1B2AB
:10165000601CC4B2981EA042F7DC172901D1481CB7
:10166000C1B2D01810F8020C884201D1012010BD7F
:101670000020FCE7254908707047002031490870B8
:10168000704700B5FFF7F9FF01202F49087000BD32
:1016900000B500202C490870FFF7EFFF00BD2A4974
:1016A000097809B127490870704700B525480278C4
:1016B000FFF7E3FF104600BD10B5FFF7F6FF044645
:1016C00044B900BF402000F094FCFFF7EEFF044651
:1016D000002CF7D0204610BD1848006810F0400FCD
:1016E0000CD01648006840F04000144908601748C4
:1016F000007850B901201549087006E00F480068CD
:101700004FF6FF7108430D49086070470400002040
:1017100049000020A8012442AC012442B001244227
:10172000B4012442B8012442BC0124429A1700208B
:10173000A8140020C000002024020020140401404E
:10174000020000206E0000206F0000204B000020EF
:101750002DE9F04180460E4615461F46102D02DD4C
:101760000120BDE8F081B8F1020F20D0B8F1030FDD
:1017700006D0B8F1040F31D0B8F1050F3FD134E0F5
:101780000C2E11DA46F06000F6490870002404E0DF
:10179000395D601CF34A1154C4B2AC42F8DB691CD9
:1017A000C8B201F0ACFF01E00320DAE729E0062E21
:1017B00011DC46F04000EB490870002404E0395D7C
:1017C000601CE84A1154C4B2AC42F8DB691CC8B2D0
:1017D00001F095FF01E00320C3E712E08020E1491A
:1017E0000870012001F08BFF0BE0FF20DD4908703D
:1017F0001A2001F084FF1A2001F0EAFF01E0022024
:10180000AFE700BF0020ACE730B502460B46002032
:101810000DE0D54D441C295D4FF6FF7404EA01111B
:101820002C46245C214302F8011B841CE0B2984240
:10183000EFDB30BDCD48806940F48070CB498861D2
:10184000CB48006820F47060C94908600846006809
:1018500040F4407008600846C06840F00400C8606A
:1018600070470021C34A117051709170D1700020EF
:1018700008E00021C04A42F8301002EBC00291801B
:10188000411CC8B20A28F4DB0021BC4A1170704721
:1018900070B506460D46002416E055F83400B849E8
:1018A00006F066F805D355F83400B64906F060F93D
:1018B00001D2002070BD05EBC4008088012801DA48
:1018C0000020F7E7601CC4B2B442E6DB0120F1E778
:1018D00030B50346002B0FDD00200BE051F83040FF
:1018E00042F8304001EBC004A48802EBC005AC8094
:1018F000441CE0B29842F1DB30BDA349097811F0F5
:10190000020F02D0A049097801E000F001019E4ACF
:1019100011701146097801F001019C4A116070476D
:1019200070B504469A492068096806F05DF90546D5
:10193000984906F01DF909D395492068096806F011
:1019400053F90546944906F013F839D290492068B6
:10195000096806F049F905468E4906F009F907D2EB
:101960008E492068096805F037FE8949086009E05A
:101970008A492068096806F037F98549086001201E
:10198000FFF7BBFF864920680860A088854908806A
:101990000846008800EB40004FF6FF7101EA400066
:1019A000814908807F48008800EB40007F49098812
:1019B00001EB40007E49088000207E49087016E057
:1019C00077492068086072490860A08875490880D6
:1019D0000846008800EB40004FF6FF7101EA400026
:1019E00071490880724908800120724908700120FD
:1019F000714908707148007840F002006F49087022
:101A0000012004F09EFC00206D4908706D490870AB
:101A100070BD10B56C4908686049096805F0DCFDC7
:101A20005B490860684800685D49086066488088CE
:101A30005C4908800846008800EB40004FF6FF71C3
:101A400001EA4000584908805648008800EB4000F1
:101A50005649098801EB4000554908800120564944
:101A600008705648007840F0020054490870002081
:101A700050490870012004F064FC10BD10B54F48B7
:101A8000007820F002004D49087001204A49087092
:101A900004F057FC0020474908704B4880894149B1
:101AA00008800846008800EB40004FF6FF7101EA0D
:101AB00040003D4908803B48008800EB40003B491E
:101AC000098801EB40003A4908803F488068344962
:101AD00008603D4988682E49096806F085F8044683
:101AE0002C4906F045F80BD20020FFF706FF3649D7
:101AF00088682A49096805F06FFD2549086021E0DA
:101B0000314988682249096806F06EF8044622497E
:101B100005F02EFF0BD22C4988682049096806F091
:101B200063F81B4908600120FFF7E7FE0AE01C4844
:101B30000068174908601C4800881D49088001207A
:101B40001C4908701D48007840F002001B490870CD
:101B500010BD1C48007870471C4800787047184832
:101B600000787047E21600200A170020001002409B
:101B7000002001409800002020150020490000208E
:101B8000000010410000F042AF000020808121429F
:101B9000B80200200000A0400000A0C05C000020AF
:101BA000B000002034020020B400002064000020B7
:101BB000380200203F0200202D0200202E020020CB
:101BC000AC000020AD000020C0150020AE000020B9
:101BD000CA4908707047CA4908707047C9490870F7
:101BE0007047C6480078401CC44908707047C44814
:101BF0000078401CC24908707047C2480078401CF9
:101C0000C0490870704710B5BF48007820F0020046
:101C1000BD4908700120BD49087004F092FB002006
:101C2000BB490870BB48B749097800EBC100808800
:101C3000B94908800846008800EB40004FF6FF7164
:101C400001EA4000B5490880B348008800EB400035
:101C5000B349098801EB4000B2490880AD48A94961
:101C6000097850F83100B0490860AA49A54A1278AD
:101C700051F83200AD49096805F0B6FF0446AC4999
:101C800005F076FF0ED20020FFF737FEA1499D4AEE
:101C9000127851F83200A749096805F09DFCA34964
:101CA000086027E09B49974A127851F832009F4913
:101CB000096805F099FF04469F4905F059FE0ED2C8
:101CC0009449904A127851F832009A49096805F00F
:101CD0008BFF964908600120FFF70FFE0AE092484B
:101CE0000068924908608D4800888E49088001206C
:101CF000874908708448007840F0020082490870E3
:101D000010BD00208D4908608D490870704700F0B3
:101D1000010141F002018A4A117000F00101874A75
:101D2000116070478648007820F0020084490870EE
:101D300070478348007800F00300704710B5022018
:101D40008049087000206F4908706D4908706B4920
:101D5000087001207C4908707C4800687C49086054
:101D600001207C4908706848007840F0010066490D
:101D7000087001207849088004F0F8FB10BD70B5A8
:101D800000241EE00120C4EBC401744A02EB4101AF
:101D9000088173480078204110F0010F0FD0C4EB88
:101DA000C40102EB41010989880005F0B5FD054633
:101DB0006C480168284605F00FFC6A490860601C01
:101DC000C4B2042CDEDB0020674908606749086064
:101DD000A1F104010860A1F10401086064490870E0
:101DE00070BD70B5002433E05D480078204110F0EC
:101DF000010F2BD0C4EBC400584901EB400000890F
:101E00000A2810DDC4EBC401544A02EB41010889E1
:101E100005F09AFD054653480168284605F0DCFBAD
:101E20005049086012E0C4EBC4014C4A02EB410186
:101E3000098901EB4101880005F06EFD054649481E
:101E40000168284605F0C8FB46490860601CC4B21A
:101E5000042CC9DB4748008805F076FD054641485B
:101E60000168284605F0B8FB3E49086042493D48F4
:101E7000006805F0B1FB3B49086070BD3848007848
:101E800010F0010F02D001203C490860344800786E
:101E900010F0020F02D00120394908603048007864
:101EA00010F0040F02D00120304908602C4800785F
:101EB00010F0080F02D001202B4908604FF00200FB
:101EC0002B4908707047002027490860274908609F
:101ED0002B4908602949086025490870704700208F
:101EE00021490860214908602549086023490860A4
:101EF0004FF003001E49087070470000AD0000203D
:101F0000AE000020AC0000202E0200202D02002098
:101F10003F0200202015002034020020B4000020E1
:101F20006400002038020020B0000020B802002029
:101F30000000A0405C0000200000A0C08081214281
:101F4000AF00002098000020490000204C02002033
:101F5000940200202C02002036020020E814002009
:101F60006C0000204002002088812242B001224201
:101F7000800200204E0000200000F042A801224212
:101F8000AC0122424FF0E021096921F004014FF039
:101F9000E0221161C21700EB5272C2F3C702224B5A
:101FA0001A701946097801EB4102C2EBC1114FF6D4
:101FB000FF7202EAC1011D4A1180704701461A4AA8
:101FC00012784A434FF0E0235A6100229A610122BD
:101FD0001A6100BF4FF0E022106910F0010F02D02B
:101FE00010F4803FF6D000224FF0E0231A619A618E
:101FF000704701460D4A12884A434FF0E0235A6168
:1020000000229A6101221A6100BF4FF0E02210699C
:1020100010F0010F02D010F4803FF6D000224FF0F4
:10202000E0231A619A617047B6000020B8000020D2
:10203000AC4A0A400243AC4B1A6070470146072382
:1020400023EA01021202A84B1B1D18684FF6FF037A
:102050001840A64B18431043A34B1B1D1860704734
:102060002DE9F0478046894614461D462046E11773
:1020700004EB9171C1F3870AE11704EB91718910A8
:10208000A4EB8101CFB2042000EBC700C7B2284601
:10209000FFF7D4FFC5F1040008FA00F60F2028412D
:1020A00000EA0900064306F00F06202C0CDA9048DF
:1020B00001684FF0010000FA04F041EA00014FF01E
:1020C000E020C0F800110DE08A480068A4F120016A
:1020D0004FF0010202FA01F240EA02004FF0E02163
:1020E000C1F80401844850F82A0006FA07F140EAD2
:1020F0000100814941F82A00BDE8F08770B5044627
:102100000B46CE1701EB9676C6F38700CE1701EB90
:102110009676B610A1EB8606B606350E774B9B6910
:1021200043F00103754EB3614FEAB63353F82030E4
:102130000F26AE40B343724E46F82030334653F874
:10214000203004FA05F61E436D4B43F820606D4BBA
:102150001B6801268E4033436A4E336012F0010F34
:1021600008D0684B0C331B6801268E403343654E04
:102170000C36336012F0020F08D0624B08331E6831
:1021800001238B401E435F4B08331E6070BD00B5BA
:1021900000205A490861C860152048610020886104
:1021A000C8610846006840F00100086008464068C1
:1021B000554908405149486008460068534908405D
:1021C0004E4908600846006820F4802008600846F0
:1021D000406820F4FE0048600020886000214FF035
:1021E0000060FFF725FF00BD10B53F4808300068CC
:1021F00040F004003C49083108604048C06940F0A4
:1022000080503E49C8614248406840F4807040496F
:1022100048600846006840F004000860084600680E
:1022200040F002000860FEF701F810BD2F48001DC5
:102230002D49091D08607047014649062F4A9269D9
:1022400042F001022D4B9A612D4A083A526822F061
:10225000E0622B4B083B5A601A4652680A435A60A8
:10226000704730B504460025FFF791FF234800680A
:1022700040F480302149086000BF20480068400CCD
:10228000FBD04FF410501D494860A01EC4B2084650
:10229000406840EA844048600846406840F4803026
:1022A00048601C48006840F032001A490860134832
:1022B000006840F080701149086000BF0F48006856
:1022C000400EFBD00D48406840F002000B494860CA
:1022D00005E00A484068C0F3870505F00305022DB4
:1022E000F7D130BD80FFFF1F08ED00E00000FA05C8
:1022F00000E100E004E100E000E400E00010024042
:1023000008000140000401400000FFF8FFFFF6FE56
:102310000070004000200240014600BF704700BF2F
:10232000624A128812F0400FFAD0C2B25F4B1B1DF6
:102330001A8070475D49098811F0200F4AD05B4927
:10234000091D0988C8B25A49097851B90021594A6A
:102350001170AA283ED1584908700121544A1170C1
:1023600038E05349097801291FD152490978402999
:1023700015DA50490978491C4E4A11704E491278B5
:102380008854172802D10221494A11704949097815
:1023900005291FD147490978464A11701AE00021E2
:1023A000434A1170434A117014E0414909780229E7
:1023B00010D140490978491C3E4A11703E491278B3
:1023C0008854172803D10321394A117002E00121F2
:1023D000374A117070472DE9F05F05460E4630010F
:1023E00005F0B2FA8146354905FB01F005F0ACFA7B
:1023F0008246494605F05EF90746384605F06CFA14
:1024000084B2204605F0A0FA8346394605F0E1FB88
:1024100082464FF0834105F0DFFA814605F05CFA11
:1024200080464FF6FF7000EA041404EB080084B203
:102430002348806940F0040021498861084680698A
:1024400040F4804088611F48006820F47F601D4987
:1024500008600846006840F40B6008601848C068CF
:1024600040F480401649C8600846C06820F48040A7
:10247000C8600E4808300480001D008842F20C013C
:1024800008430A490C3108800846008840F48070EF
:1024900008800846008840F020000880022325229A
:1024A00003210846FFF7DCFDBDE8F09F003801403E
:1024B000BF000020BE000020D015002040420F00C9
:1024C00000100240040801406B48806940F0080099
:1024D000694988610846806940F0100088610846B3
:1024E000806940F0040088610846806940F040003F
:1024F00088610846806940F4807088610846806978
:1025000040F0800088615D48406820F470605B495D
:102510004860084640685A49084358494860084698
:10252000C06840F48060C8605648006820F47000BD
:10253000544908600846006840F44010086051485B
:102540000C30006840F020004E490C3108604E48C5
:10255000006820F470004C4908600846006840F4A8
:102560004010086048480C30006840F020004649A0
:102570000C31086041480068444908403F49086000
:1025800008460068424908433C49086008464068DC
:1025900020F00F0048600846406840F003004860A3
:1025A0000846C06840F00400C8600846C06820F0D3
:1025B0004000C8600846C06840F48070C860354874
:1025C000006820F47F00334908600846006840F442
:1025D0004C1008602F480C30006820F030002D4966
:1025E0000C3108602448806940F02000224988614D
:1025F0002948006820F47060274908600846006890
:1026000040F44070086024480C30006820F004005A
:1026100021490C3108601848806940F010001649C3
:1026200088611E4840681E4908401C4948600846A9
:1026300040681C490843194948600846C06820F4AE
:10264000E050C8600C48806940F008000A49886181
:102650000C48006820F00F000A490860084600682E
:1026600040F00300086007480C30006820F00100CB
:1026700004490C31086070470010024000200140FE
:1026800000333333000C014000180140FFF0FF001D
:1026900000030083001C01400014014000100140B1
:1026A000FF00F0FF0033030010B50A20FFF7A1FC84
:1026B0001D48006838B91D48006808B9012000E0CD
:1026C00000201A4908604FF004001949086010BD45
:1026D00010B50A20FFF78DFC164800684FF008007F
:1026E0001349086010BD10B50A20FFF782FC12489C
:1026F000006838B90D48006808B9012000E00020E2
:102700000A4908604FF010000949086010BD10B573
:10271000022200210846FFF7F1FC022306220321D2
:102720001846FFF79DFC10BD08012342A801244272
:10273000140401400C0123421001234245F255527A
:102740002F4B1A601A46506091604AF6AA221A600E
:102750004CF6CC421A6070474AF6AA202849086015
:10276000704770B506460C4615462648C06940F4C9
:1027700000602449C861244800783040224908702C
:102780002248006840EAC5102049086008460068F1
:102790004FF6807108401D490860084600682043D4
:1027A0000860081F00681849097808431749091F7D
:1027B00008600846006840F080000860022300229C
:1027C00003211846FFF74CFC00201049091D086042
:1027D000081F006840F40070091F086070BD00F019
:1027E0007F010A4A121F1160704700B50648007841
:1027F000FFF7F5FF00200549091D086000BD000036
:102800000030004000100240C4000020042C0040B2
:10281000D348008820F00100D1490880D04810300A
:10282000008820F00100CE4910310880CD48008892
:10283000002805DDCB480088401ECA49088002E018
:102840000020C8490880C7480088002811DDC64814
:102850000078C0EBC000C54901EB40004089C04989
:102860002C310880BE48008840F00100BC49088037
:1028700035E0BF480078022803D0BD48007808281A
:102880002AD1BC48017801208840BB490988084307
:10289000B9490880B7480078401CB6490870084616
:1028A00000780C2814DAB0480078C0EBC000AF49BB
:1028B00001EB40008089AA492C310880A8492431C5
:1028C0000880A748008840F00100A549088006E07C
:1028D0000020A849087002E00120A749088070473D
:1028E00070B504460D46A548C06940F00200A349F2
:1028F000C8619B482C300480001F058098480C302C
:10290000008840F0010096490C3108809448008806
:1029100040F080009249088091481030008820F0F3
:1029200001008F49103108808D48008840F0100068
:102930008B4908800846008840F0080008808848D5
:102940002430048002231D2203210120FFF788FB8D
:1029500070BD83492C31088081492431088070473B
:10296000864A926942F40062844B9A61844A1080DC
:10297000121F1180824A2C3A128842F08002804B4A
:102980002C3B1A807E4A1C3A128822F001027C4BB2
:102990001C3B1A807A4A2C3A128842F01002784B7B
:1029A0002C3B1A80764A083A10800822744B143B5C
:1029B0001A801A46128842F060021A80704A0C3A55
:1029C000128842F003026E4B0C3B1A8000226C4BC3
:1029D00008331A8070476A490880694908390880B5
:1029E0007047664A926942F40052644B9A61654AA4
:1029F0001080121F1180634A2C3A128842F0800224
:102A0000604B2C3B1A805F4A1C3A128822F001026C
:102A10005C4B1C3B1A805B4A2C3A128842F0100235
:102A2000584B2C3B1A80574A083A10800822554BC5
:102A3000143B1A801A46128842F060021A80514AEA
:102A40000C3A128842F003024E4B0C3B1A800022D3
:102A50004C4B08331A8070474A4908804949083965
:102A60000880704770B505460C464448C06940F080
:102A700010004249C861444885850485808940F03A
:102A80000100414988810846008840F080000880A4
:102A90000846008A20F00100088202233622032122
:102AA0000120FFF7DDFA70BD3749888588847047BB
:102AB00070B505460C463148C06940F020002F49EA
:102AC000C86132480580001F0480304820380088E3
:102AD00040F001002D49203908802C482C3800880E
:102AE00040F0800029492C39088028481C3800888B
:102AF00020F0010025491C390880022337220321D8
:102B00000120FFF7ADFA70BD204908801F49083940
:102B10000880704710B540F27F216420FFF7C8FF9E
:102B20001A482C38008840F0010018492C390880D8
:102B300010BD16482C38008820F0010013492C39AC
:102B40000880704711481C38008820F001000F49A8
:102B50001C3908800E480088401C0D4908807047C9
:102B600000040040AA00002044000020E8140020D7
:102B700070000020C500002000000020001002406E
:102B80002C2C01402C340140001000402C1400403B
:102B90004C000020F0B503460C461546642093FB1C
:102BA000F0F0C6B2642093FBF0F700FB1730C1B21F
:102BB000132E02DD01F16400C1B20846CF1701EB0C
:102BC000977701EBA707BAB2072092FBF0F700FB5B
:102BD000172082B25719601EDFF81CC41CF80000D1
:102BE000384482B2CF1701EB9777BF10B1EB87075C
:102BF00003D1032C01DA501E82B2072092FBF0F7BA
:102C000000FB1720C0B2F0BD0146CA1701EB92725B
:102C10009210B1EB820212D1642091FBF0F200FB22
:102C2000121050B94FF4C87091FBF0F200FB121073
:102C300008B9012070470020FCE70120FAE70020D6
:102C4000F8E770B5002600240025EC480688360415
:102C5000001D00880644EA48B6FBF0F4E948008805
:102C6000A0423CD0E7490C8040F2B27510E0284603
:102C7000FFF7CAFF40B1B4F5B77F02D3A4F5B7742C
:102C800004E0681C85B206E0A4F26D14681C85B2ED
:102C9000B4F5B67FEBD800BFDB488580002516E091
:102CA000D9498888FFF7B0FF30B1012D04D11D2C20
:102CB00001D31D3C09E00CE0D448405DA04203D89C
:102CC000D248405D241A00E003E0681C85B21C2C49
:102CD000E6D200BF681CCC498871601CC871C84826
:102CE000B6FBF0F100FB11644FF46160B4FBF0F04F
:102CF000C54908704FF46160B4FBF0F100FB11406E
:102D00003C21B0FBF1F0C04948704FF46160B4FB66
:102D1000F0F100FB11403C21B0FBF1F201FB12008D
:102D2000B94988700B46DA7999799888FFF732FFAC
:102D3000B5490872002070BD2DE9F04F06460F46D8
:102D400090469946DDE909AB002440F2B270864214
:102D500003DB40F63300864202DD0120BDE8F08F40
:102D600040F2B2750AE02846FFF74EFF10B1A848BE
:102D7000044401E0A7480444681C85B2B542F2DB74
:102D8000781EC7B2002510E0A048405D40F2A321A4
:102D9000484304EBC0143046FFF736FF18B1012D4D
:102DA00001D197480444681C85B2BD42ECDBA8F110
:102DB000010040F2A321484304EBC014C9EB4910C1
:102DC000C0EB092004EB0014CAEB0A1004EB8004EA
:102DD0005C449148C06940F080508F49C861084602
:102DE000C06940F00060C8618C48006840F48070A1
:102DF0008A49086081481438008840F010007F49F3
:102E0000143908807D49091D0C80200C091F088099
:102E10007A481438008820F0100078491439088066
:102E200000BF76481438008810F0200FF9D0FFF763
:102E300008FF002092E71CB5002479480088A0F51F
:102E4000A04150397ED07448C06940F0805072492A
:102E5000C8610846C06940F00060C8616F480068FA
:102E600040F480706D4908606B48006A40F480301F
:102E7000694908620846006A20F480300862084602
:102E8000006A40F00100086204E0601CC4B20A203D
:102E9000FFF7AFF86048006A10F0020F01D1FA2C7A
:102EA000F3DBFA2C01DB01201CBD5B48006A40F417
:102EB0008070594908620846006A40F40040086280
:102EC00000BF4E481438008810F0200FF9D000BF22
:102ED0004A481438008810F0080FF9D047481838CD
:102EE000008840F0010045491839088000BF434878
:102EF0001438008810F0200FF9D0404814380088AA
:102F000040F010003D49143908800020091D088058
:102F100047F6FF70091D0880372010210D23072276
:102F2000CDE90010092140F2DC70FFF705FF3348BE
:102F30001438008820F0100030491439088000BF90
:102F40002E4800E00CE01438008810F0200FF7D075
:102F500045F250003249088032A003F0CDFB18E062
:102F600000BF26481438008810F0080FF9D0234815
:102F70001838008840F0010020491839088000BF47
:102F80001E481438008810F0200FF9D028A003F054
:102F9000B3FB0223032200210846FFF761F8FFF785
:102FA00050FE002080E700B514481438008810F067
:102FB000010F01D0FFF745FE10481438008810F0CB
:102FC000020F07D00D481438008820F002000B498A
:102FD0001439088009481438008840F6FA7108400E
:102FE00006491439088000BF04481438008810F0DE
:102FF000200FF9D000BD0000D27C00081828004046
:1030000080510100C6000020D8160020DE7C000898
:103010000085E2018033E1010010024000700040B1
:10302000046C004046495253542054494D450A000F
:103030004F4B0A002C48806940F004002A498861FF
:103040000846C06940F00050C8612848006820F474
:103050007020264908600846006808602448006817
:1030600040F00100224908600846006840F0020074
:10307000086008460068086008460068086008465E
:103080000068086008460068086008460068086034
:10309000002017490831086070472DE9F0470446C1
:1030A000204604F051FC81461249484604F002FBD8
:1030B00081464FF08B41484604F08EFC824604F076
:1030C0005FFA07464FF066320B4B03F08FFE054662
:1030D00003F0A6FD8146484604F0FEFB0449083192
:1030E0000860BDE8F08700000010024000080140C1
:1030F0000074004000007A4466660A409248806985
:1031000040F00800904988619048006820F47F40B2
:103110008E4908600846006840F4EE4008608B481D
:103120000830006840F44060884908310860704702
:1031300010B54FF4006085490C31086040100860FC
:103140000420FEF73BFF8148001D006810F4006F6B
:1031500000D110BD4FF400607C491031086004209C
:10316000FEF72CFF7948001D006810F4006F00D0B6
:10317000EFE74FF480607549103108600420FEF7D6
:103180001DFF00BFE5E710B54FF480606F491031B7
:1031900008600420FEF712FF4FF400606B49103105
:1031A00008600420FEF70AFF4FF4806067490C3185
:1031B00008600420FEF702FF4FF4006063490C3101
:1031C00008600420FEF7FAFE10BD10B500244FF48D
:1031D00080605E49103108604000091F08600220CD
:1031E000FEF7ECFE4FF4806058490C310860042073
:1031F000FEF7E4FE05E0601CC4B2FA2C01DD0120FC
:1032000010BD5248001D006810F4006FF3D100207B
:10321000F6E710B54FF480604C491031086040006B
:1032200008600220FEF7CAFE4FF4806047490C3167
:1032300008600420FEF7C2FE4FF48060434910315D
:1032400008600420FEF7BAFE10BD10B54FF4806090
:103250003E49103108604000091F08600220FEF757
:10326000ADFE4FF4806039490C3108600420FEF750
:10327000A5FE4FF480603549103108600220FEF74A
:103280009DFE10BD70B504464FF480602F4910318B
:103290000860002524E014F0800F05D04FF4006092
:1032A0002A490C31086004E04FF4006027491031CE
:1032B00008606006040E0220FEF780FE4FF4806076
:1032C00022490C3108600420FEF778FE4FF480603C
:1032D0001E49103108600220FEF770FE681CC5B25E
:1032E000082DD8DB70BD70B5054600244FF4006092
:1032F00016490C31086000261BE04FF4806013492A
:10330000103108600420FEF759FE4FF480600F4929
:103310000C3108606006040E0C48001D006810F4B3
:10332000006F01D044F001040420FEF747FE701C3A
:10333000C6B2082EE1DB15B9FFF787FF01E0FFF702
:1033400068FF204670BD000000100240040C0140E0
:1033500010B5FFF7D3FE10BD70B504460026FFF789
:10336000E7FE2546E11704EB11610912A02202EBEA
:103370004101C8B2FFF786FFFFF727FFE11704EB13
:1033800011610912A4EB0121C8B2FFF77BFFFFF71F
:103390001CFFFFF7CDFEA120FFF774FFFFF715FF1D
:1033A0000020FFF7A0FF0646FFF7EDFE304670BD98
:1033B00070B504460E46FFF7BBFE2546E11704EB49
:1033C00011610912A02202EB4101C8B2FFF75AFFB6
:1033D000FFF7FBFEE11704EB11610912A4EB0121D9
:1033E000C8B2FFF74FFFFFF7F0FE3046FFF74AFF86
:1033F000FFF7EBFEFFF7C7FE0A20FEF7FAFD70BDF0
:103400002DE9F04105460E461746002409E0E2008A
:1034100026FA02F2D1B22A1990B2FFF7C9FF601C56
:10342000C4B2BC42F3DBBDE8F0812DE9F0410746B0
:103430000C460026002509E036023919491B491EB1
:1034400088B2FFF789FF0644681CC5B2A542F3DBCA
:103450003046BDE8F08110B5FF20FFF77DFF044640
:10346000552C01D1002010BD5521FF20FFF7A0FFF2
:10347000FF20FFF771FF0446552C01D10020F2E731
:103480000120F0E770B506460C46154608E03046C8
:10349000721C96B2FFF760FF04F8010B681E85B23C
:1034A000002DF4D170BD70B505460C46164606E0F9
:1034B00021782846FFF77CFF681C85B2641C300029
:1034C000A6F101018EB2F3D170BD000010B500204D
:1034D000C5490870C548406940F00100C3494861CA
:1034E0000520FEF786FDC148406940F00100BF4954
:1034F0004861BF48406C20F48040BD49486408469C
:10350000406C40F4005048640846406C20F4406031
:1035100048640846406C20F4407048640846406C9B
:1035200040F0800048640846406C20F04000486449
:103530000846406C20F0200048640846406C20F0AB
:10354000100048640846806C00208864A648007813
:103550008864A848C864A84808650846806D20F4B7
:10356000804088650846806D88650846806D20F437
:10357000406088650846806D20F440708865084684
:10358000806D40F0800088650846806D20F0400026
:1035900088650846806D20F0200088650846806DAB
:1035A00040F0100088650846C06D0020C8658E4850
:1035B0000078C8658F480866904848660846406CA1
:1035C00040F00200486402230E2203210846FEF761
:1035D00047FD10BD10B58548C06940F4804083495F
:1035E000C8610846806940F0080088610846806923
:1035F00040F0200088610846806940F4807088614E
:103600007F48006820F47F207D49086008460068F4
:1036100040F4403008607A480830006840F4805038
:103620007749083108607648006840F44050744992
:10363000086073480830006840F400607049083141
:1036400008607048006820F470606E4908600846A1
:10365000006840F4407008606A480C30006840F030
:10366000040068490C31086001206749086064481B
:103670000068C0F3130062490860084600686349A7
:1036800040EA01005E4908606148006840F460401B
:103690005F4908605F4800885E49088008460088E6
:1036A00040F4007008800846008840F4807008806C
:1036B0000846008840F0040008800846008808801A
:1036C0000846008808800846008808800846008868
:1036D00040F02000088008460088088001F10400BE
:1036E000008840F0030001F1040108804948008887
:1036F00040F0400047490880FFF7E8FE10BD00BFDA
:10370000454909780029FBD13949496C21F001016B
:10371000374A51641146896D21F0010191650121FB
:103720003D4A11703049087031498864C865314993
:103730002F4AD164304911652E4911662F495166CF
:103740000021314A11602A49496C41F00101284A9F
:1037500051641146896D41F00101916500BF2E4908
:1037600009780229FBD100212B4A117070472048AB
:10377000406840F440501E49486000BF1D48001F8B
:10378000008810F0800FF9D101201F4908604FF028
:103790000200214908701648406C20F001001449CD
:1037A00048640846806D20F0010088657047104825
:1037B000406840F440300E49486000BF0D48001F8B
:1037C000008810F0800FF9D101200F490860704780
:1037D0000146002005E0084A125C104B1A54421CB6
:1037E000D0B28842F7DB7047C800002000100240CA
:1037F000000002400C3800400A170020E2160020AA
:10380000040C014000140140B08121420000B0BB13
:103810000C0C014000380040C90000203217002085
:103820002DE9F04704460D4617461E46DDF8209068
:103830004FF0000814B10DB107B116B90120BDE871
:10384000F087601EC4B2681EC5B2781EC7B2701E73
:1038500086B2FE48806940F00400FC498861FC485B
:10386000006820F47F20FA4908600846006840F4A8
:1038700038200860F6480830006840F4C050F44929
:1038800008310860F148C06940F00070EF49C86134
:103890000020F04908600846006840F00100086018
:1038A00008E008F101001FFA80F8B8F1640F01DDAB
:1038B0000220C4E7E748001D006810F0010FF0D0B7
:1038C000E4480068E3490860084600680860084664
:1038D000006808600846006840F01000086008466C
:1038E000006808600846006808600020D9491C315B
:1038F00008600846006840EA897008600846006869
:1039000040EA046008600846006840EA0550086024
:103910000846006840EA07400860084600683043EF
:103920000860CC48006820F00100CA49086009E03E
:1039300008F101001FFA80F84FF6F070804501DDB4
:1039400003207CE7C348001D006810F0010FEFD191
:10395000C148006840F00100BF490860BE481C3003
:10396000006820F00100BC491C310860BA480C30E6
:10397000006840F00100B8490C310860B648001DED
:103980000068B549091D0860B34814300068B249A1
:10399000143108604FF00050AF49403108600146D3
:1039A000AE480160AE48006840F00100AC490860D4
:1039B000A94800684FF00000A7490860A9480068BE
:1039C00040F00200A74908604FF002034FF01402D4
:1039D0004FF000014FF00100FEF742FB00202EE700
:1039E000F0B505460E46059C9A480830006810F070
:1039F000806F01D0002111E096480830006810F077
:103A0000006F01D0012109E092480830006810F0F1
:103A1000805F01D0022101E0FF20F0BD00278E4829
:103A2000803800EB011007601EB9C5F30A056D056B
:103A300002E025F06045ED008748803800EB01107A
:103A400000682843844F803F07EB011738608248A5
:103A5000803800EB0110006840EA86077E48803815
:103A600000EB011007607C48803800EB0110006813
:103A700040EA42077848803800EB0110076003F005
:103A80000F037548803800EB0110406820F00F07E5
:103A90007148803800EB011047606F48803800EBB8
:103AA0000110406818436C4F803F07EB01177860A6
:103AB000E0790006A77940EA0740677940EA0727DE
:103AC000207907436448803800EB0110C760E07834
:103AD0000006A77840EA0740677840EA0720277881
:103AE00038435D4F803F07EB0117B8605A48803874
:103AF00000EB0110006840F001075748803800EBE8
:103B000001100760084688E70146002021B101291D
:103B100016D002293CD127E04E4A0832126802F042
:103B2000010210434B4A0832126802F002021043AD
:103B3000484A0832126802F0806240EA126029E0C6
:103B4000444A0832126802F001021043414A083226
:103B5000126802F0020210433E4A0832126802F074
:103B6000006240EA526015E03A4A0832126802F0F8
:103B700001021043374A0832126802F00202104371
:103B8000344A0832126802F0805240EA926001E042
:103B9000052000BF00BF7047014629B931480838E9
:103BA000006800F003007047012905D12D48001F6F
:103BB000006800F00300F6E70020F4E7F0B5DDE967
:103BC0000554254E503E06EB0016366806F00406F6
:103BD000167016783EB9204E503E06EB0016366839
:103BE000760D0E6006E01C4E503E06EB0016366861
:103BF000F6080E60184E503E06EB0016366806F0CA
:103C000002061E70144E503E06EB0016766806F053
:103C10000F062E70104E503E06EB0016B66826704A
:103C20000D4E503E06EB0016B668360A66700A4E18
:103C3000503E06EB0016B668360CA670064E503E97
:103C400006EB0016B668360EE6700DE00010024076
:103C500004080140006400400066004044660040E3
:103C60001C660040146400408C4E503E06EB00166B
:103C7000F6682671894E503E06EB0016F668360A45
:103C80006671864E503E06EB0016F668360CA6713D
:103C9000824E503E06EB0016F668360EE67130B9DD
:103CA0007F4E366846F020067D4F3E6009E00128D1
:103CB00007D17B4E361D366846F02006784F3F1DF3
:103CC0003E60F0BD0CB577487749784B784ACDE92E
:103CD000001078490020FFF771FF01207649087035
:103CE0000CBDF8B505460E460024334600221146A9
:103CF00012200095FFF774FE074601E0601C84B2B5
:103D00003846FFF701FF072803D040F6FF708442D2
:103D1000F4DB40F6FF70844201DB0120F8BD002097
:103D2000FCE72DE9F84105460E46174600243B46C0
:103D30000022114630460095FFF752FE804601E012
:103D4000601C84B24046FFF7DFFE072803D040F630
:103D5000FF708442F4DB40F6FF70844202DB0120F6
:103D6000BDE8F8810020FBE72DE9FF4F95B08346C1
:103D70001F464FF00009402102A802F04DFECA463E
:103D80008DF808B016988DF809008DF80A70002596
:103D900006E01798415D02AAE81C1154681CC5B2E0
:103DA000BD42F6DBF81CC4B22046E11704EB5171AA
:103DB000CE1008201290E11704EB5171C910B4EB3A
:103DC000C1010AD0701CC6B22046E11704EB517144
:103DD000C910A4EBC101C9B212914FEA06194FF004
:103DE0000008002534E029F00F09681C49EA0009A1
:103DF000701EA84201D1129800E00820139002A87A
:103E000040440090002211464846139BFFF7E8FD0E
:103E1000149008F1080000F0FF0803E00AF1010027
:103E20001FFA80FA1498FFF76FFE072803D040F6B8
:103E3000FF708245F2DB40F6FF70824503DB012014
:103E400019B0BDE8F08F0820FEF7D3F8681CC5B2A2
:103E5000B542C8DB0020F3E710B586B00446002069
:103E6000FFF79AFE10B9002006B010BD02A803AB00
:103E700004AA05A9CDE900040020FFF79FFE0598DC
:103E8000122805D19DF8100010B99DF80C0008B15A
:103E9000002002909DF80800E6E700000066004060
:103EA0000C640040CD000020DE000020DD0000207A
:103EB000DC000020D8000020CC00002010B58CB021
:103EC00004461E230BAA03A9204600F00DFE009015
:103ED000009810B101200CB010BD9DF82C000444D6
:103EE00000200B900EE05E489DF82C2050F8221028
:103EF00003A800F061FD00B908E09DF82C00401C0B
:103F0000C0B20B909DF82C000828ECDB00BF9DF898
:103F10002C00072879D2DFE800F00405395B8BA27A
:103F2000A10000BF4FA002F0E7FB4FA002F0E4FBAE
:103F30005DA002F0E1FB6CA002F0DEFB7AA002F0D3
:103F4000DBFB89A002F0D8FB97A002F0D5FBA4A070
:103F500002F0D2FBA9A002F0CFFBAEA002F0CCFB96
:103F6000B2A002F0C9FBB7A002F0C6FBBBA002F0F2
:103F7000C3FBC1A002F0C0FBCCA002F0BDFBD8A0E7
:103F800002F0BAFBE3A002F0B7FBA5E235A002F015
:103F9000B3FBF0A002F0B0FB00200B900EE0FD4858
:103FA00000689DF82C2000EBC2004168FAA002F0E6
:103FB000A3FB9DF82C00401CC0B20B90F548007D7F
:103FC0009DF82C108842EADC26A002F095FB83E2E3
:103FD00024A002F091FBF2A002F08EFB00200B90D7
:103FE0001CE0EC4909689DF82C2001EBC20101ABF3
:103FF00002AA486803A900F09DFDE64800689DF804
:104000002C1050F8312003A900E063E2F4A002F084
:1040100073FB9DF82C00401CC0B20B90DD48007D66
:104020009DF82C108842DCDC0EA002F065FB53E208
:104030000CA002F061FB0BAA03A9204600F056FE7B
:104040009DF82C0040B9694603A800F0E8FC0B90ED
:104050009DF82C0008B9CDE1DEE1D0E10DE2E1E10F
:10406000E00000200D0A00002D2D2D2D2D2D2D2DD1
:104070002D2D2D2D2D2D2D2D2D2D2D2D2D2D2D2D70
:1040800055534D4152542056322E382D2D2D2D2D65
:104090002D2D2D2D2D2D2D2D2D2D2D2D2D2D2D2D50
:1040A0002D2D2D200D0A00002020202055534D419C
:1040B0005254CAC7D3C9414C49454E54454BBFAA77
:1040C000B7A2B5C4D2BBB8F6C1E9C7C9B5C4B4AECE
:1040D000BFDAB5F7CAD4BBA5BDBBD7E9BCFE2CCDB2
:1040E000A8B9FD200D0A0000CBFC2CC4E3BFC9D247
:1040F000D4CDA8B9FDB4AEBFDAD6FACAD6B5F7D3D7
:10410000C3B3CCD0F2C0EFC3E6B5C4C8CEBACEBA02
:10411000AFCAFD2CB2A2D6B4D0D02ED2F2B4CB2CE2
:10412000C4E3BFC90D0A0000D2D4CBE6D2E2B8FC8A
:10413000B8C4BAAFCAFDB5C4CAE4C8EBB2CECAFDB2
:1041400028D6A7B3D6CAFDD7D62831302F3136BDF1
:10415000F8D6C629A1A2D7D6B7FBB4AEA1A2BAAFF2
:10416000CAFDC8EB0D0A0000BFDAB5D8D6B7B5C88E
:10417000D7F7CEAAB2CECAFD292CB5A5B8F6BAAFEC
:10418000CAFDD7EEB6E0D6A7B3D63130B8F6CAE44A
:10419000C8EBB2CECAFD2CB2A2D6A7B3D6BAAFCA6C
:1041A000FDB7B5200D0A0000BBD8D6B5CFD4CABE26
:1041B0002ED0C2D4F6B2CECAFDCFD4CABEBDF8D678
:1041C000C6C9E8D6C3B9A6C4DC2CD0C2D4F6BDF8A3
:1041D000D6C6D7AABBBBB9A6C4DC2E0D0A00000008
:1041E000BCBCCAF5D6A7B3D63A7777772E6F706581
:1041F0006E6564762E636F6D0D0A000055534D4158
:104200005254D3D036B8F6CFB5CDB3C3FCC1EE3AD5
:104210000D0A00003F3A20202020BBF1C8A1B0EFDA
:10422000D6FAD0C5CFA20D0A0000000068656C70F8
:104230003A20BBF1C8A1B0EFD6FAD0C5CFA20D0A83
:10424000000000006C6973743A20BFC9D3C3B5C4C1
:10425000BAAFCAFDC1D0B1ED0D0A0A0069643A20B7
:104260002020BFC9D3C3BAAFCAFDB5C44944C1D029
:10427000B1ED0D0A0A0000006865783A2020B2CE40
:10428000CAFD3136BDF8D6C6CFD4CABE2CBAF3B8F3
:10429000FABFD5B8F12BCAFDD7D6BCB4D6B4D0D0AE
:1042A000BDF8D6C6D7AABBBB0D0A0A006465633A3F
:1042B0002020B2CECAFD3130BDF8D6C6CFD4CABE9A
:1042C0002CBAF3B8FABFD5B8F12BCAFDD7D6BCB417
:1042D000D6B4D0D0BDF8D6C6D7AABBBB0D0A0A004B
:1042E000C7EBB0B4D5D5B3CCD0F2B1E0D0B4B8F10F
:1042F000CABDCAE4C8EBBAAFCAFDC3FBBCB0B2CEFC
:10430000CAFDB2A2D2D4BBD8B3B5BCFCBDE1CAF8D9
:104310002E0D0A002D2D2D2D2D2D2D2D2D2D2D2D3C
:104320002D2D2D2D2D2D2D2D2D2D2D2D2D2D414C8A
:1043300049454E54454B2D2D2D2D2D2D2D2D2D2DFB
:104340002D2D2D2D2D2D2D2D2D2D2D2D2D2D2D20AA
:104350000D0A00002D2D2D2D2D2D2D2D2D2D2D2D2A
:104360002D2D2D2D2D2D2D2D2D2D2D2D2DBAAFCAD1
:10437000FDC7E5B5A52D2D2D2D2D2D2D2D2D2D2D4B
:104380002D2D2D2D2D2D2D2D2D2D2D2D2D2D2D2D5D
:10439000200D0A003801002025730D0A00000000DE
:1043A0002D2D2D2D2D2D2D2D2D2D2D2D2D2D2D2D3D
:1043B0002D2D2D2D2D2D2D2D2DBAAFCAFD2049448B
:1043C000202D2D2D2D2D2D2D2D2D2D2D2D2D2D2D2A
:1043D0002D2D2D2D2D2D2D2D2D2D2D2D200D0A008A
:1043E00025732069642069733A0D0A3058253038E6
:1043F000580D0A00F6A0009902F07EF90EE09DF833
:104400002C00042801D0022065E5F4A002F074F924
:104410000120F749C87501E002205CE5EEA002F03A
:104420006BF959E0ECA002F067F90BAA03A920464A
:1044300000F05CFC9DF82C00C8B9694603A800F0A8
:10444000EEFA0B909DF82C0020B9EAA0009902F03A
:1044500053F90EE09DF82C00042801D002203AE523
:10446000E7A002F049F90020E149C87501E0022007
:1044700031E5D9A002F040F92EE0D7A002F03CF9D6
:104480000BAA03A9204600F031FC9DF82C00D8B9F6
:10449000694603A800F0C3FA0B909DF82C0088B978
:1044A000D348C07D012806D1009801460268D9A0F2
:1044B00002F022F90AE0009801460268D9A002F051
:1044C0001BF903E0022006E5022004E5C2A002F089
:1044D00013F901E00120FEE400BF0020FBE410B569
:1044E0004FF08040008A10F0010F02D0C0490869E7
:1044F00080474FF08040008A20F001004FF080415B
:10450000088210BD70B505460C46C948C06940F028
:104510000100C749C861880485850485808940F009
:104520000100890488810846808940F04000888124
:104530000846008840F00100088002231C22032165
:104540000846FDF78DFD70BD10B5044604EBC400B0
:1045500000EB04100122C2EB800081B24FF47A70AC
:10456000FFF7D0FF0120A249C87510BD30B595B046
:10457000054613AB12AA09A9284600F0DBFA044647
:1045800014B1204615B030BD0020149026E09849A3
:1045900009689DF8502001EBC20113AB11AA4868CD
:1045A00001A900F0C7FA04460CB12046EAE709A9C0
:1045B00001A800F001FA60B99DF844009DF8481088
:1045C000884201DD0220DDE79DF8500088498875AA
:1045D0000AE09DF85000401CC0B214908448007D51
:1045E0009DF850108842D2DC00BF8148007D9DF8C4
:1045F0005010884201D10420C4E714A9284600F0D5
:10460000E0FB04460CB12046BCE79DF85000784919
:1046100048750020B6E7F0B59BB07548847D007DF5
:10462000A04201DC1BB0F0BD7149096801EBC40177
:1046300007AB08AA486809A900F07CFA09A97DA07F
:1046400002F05AF8002644E06948018B0120B0408E
:1046500001421BD0222179A002F04EF8304600F032
:10466000A3FB634924314718394675A002F044F88A
:10467000222172A002F040F8304600F095FB5C4920
:104680002431084411A941F8260018E0304600F012
:104690008BFB57492431085811A941F8260054488A
:1046A000C07D30B911A850F8261066A002F024F899
:1046B00005E011A850F8261063A002F01DF89DF83F
:1046C0002000401EB04202D061A002F015F8701C1C
:1046D000C6B29DF820008642B6DB5EA002F00CF860
:1046E0004348407D0B280DD2DFE800F0060D151E73
:1046F00027323F4E5FB6CB003D49096851F8340080
:1047000080470546D4E03A4A126852F834101198AE
:1047100088470546CCE0364B1B6853F83420DDE96A
:10472000110190470546C3E0314F3F6857F83430D8
:1047300011A807C898470546BAE0DFF8B4C0DCF80E
:1047400000C05CF8347011A80FC8B8470546AFE048
:104750001598DFF89CC00090DCF800C05CF834705D
:1047600011A80FC8B8470546A2E0DDE91501DFF83A
:1047700080C0CDE90001DCF800C05CF8347011A8FD
:104780000FC8B847054693E0DDE915121798DFF822
:1047900060C0CDE900120290DCF800C05CF8347013
:1047A00011A80FC8B847054682E0DDE91523DDE909
:1047B0001710DFF83CC0CDE90023CDE90210DCF88A
:1047C00000C05CF8347011A80FC8B84705466FE008
:1047D0004845583A305825580D0A00003136BDF882
:1047E000D6C6B2CECAFDCFD4CABE210D0A00000083
:1047F000380100204445433A256C750D0A0000003D
:104800003130BDF8D6C6B2CECAFDCFD4CABE210D56
:104810000A0000002A2830582558293D30582558CC
:104820000D0A00002A282564293D25640D0A000090
:10483000001002400D0A25732800000025630000C7
:1048400025730000256C75003058255800000000C5
:104850002C00000029000000DDE91623DDE9181016
:10486000CDE90123CDE903101598DFF8F4C00090DD
:10487000DCF800C05CF8347011A80FC8B8470546D2
:1048800016E0DDE9183217991A98CDE90332029142
:104890000590DDE91501DFF8C8C0CDE90001DCF8BD
:1048A00000C05CF8347011A80FC8B847054600BFB7
:1048B00000BF9DF81C0001280CD12948C07D20B9FB
:1048C000294628A001F018FF07E0294627A001F09B
:1048D00013FF02E024A001F00FFF00BFA2E670B5B5
:1048E0002548008810F4004F33D023480578002075
:1048F000224948551A4881682048884704461CB90F
:104900001749C868804721E01C48FFF7D7FA0546D9
:10491000012D00D02C46CCB1012C06D0022C08D0A1
:10492000032C0AD0042C10D10BE015A001F0E4FEFA
:104930000BE016A001F0E0FE07E017A001F0DCFE9E
:1049400003E018A001F0D8FE00BF00BF00200A4914
:10495000088070BD0146086870470160704700001C
:10496000380100203D256C753B0D0A003D3058256F
:10497000583B0D0A00000000BC000020101600206B
:10498000BAAFCAFDB4EDCEF3210D0A00B2CECAFD16
:10499000B4EDCEF3210D0A00B2CECAFDCCABB6E029
:1049A000210D0A00CEB4D5D2B5BDC6A5C5E4B5C4A7
:1049B000BAAFCAFD210D0A0002460AE010780B7852
:1049C000984201D001207047107800B902E0521CD3
:1049D000491CF3E700BF0020F5E706E002780A7003
:1049E000027802B902E0401C491CF7E700BF70479B
:1049F0000146002005E00A7802B903E0421CD0B26B
:104A0000491CF8E700BF704710B50246012000E0DE
:104A100050430B00A1F10104E1B2F9D110BD2DE921
:104A2000F04307460E4600254FF00A083C4600209A
:104A300030601FE02078392802DC207830280ADA3C
:104A40002078462802DC2078412804DA207858288B
:104A500009D1012D07D12078412801DB4FF0100842
:104A6000681CC5B205E0207800B904E00120BDE86B
:104A7000F083641CDEE700BF3C46B8F1100F0FD195
:104A8000032D01DA0220F2E72078302806D1607881
:104A9000582803D1A41CA81EC5B204E00320E6E7F1
:104AA0000DB90420E3E71BE00DB1681EC5B2207804
:104AB000392806DC2078302803DB2078A0F1300983
:104AC00002E02078A0F1370929464046FFF79CFF15
:104AD000316809FB00103060641C207800B900E0E8
:104AE000E2E700BF0020C2E710B5044600201070C6
:104AF0000BE020780870641C491C1078401C107072
:104B00001078984201DB012010BD2078202802D0C7
:104B100020780028EDD10020087000BFF4E701469E
:104B2000491C00E0491C0878202801D10029F9D14E
:104B3000087870472DE9FF4F85B0804689460027E9
:104B4000002004900390012002904FF0000B0025FC
:104B500044461DE02078202816D005F07F00052867
:104B600012DA0DB945F0800505F07F00042803D165
:104B700020782A2800D00EE0207805F07F010DF87B
:104B80000100681CC5B202E0852D00D103E0641C61
:104B900020780028DED100BF8DB1002005F07F0114
:104BA0000DF80100C8A16846FFF706FF18B90021FB
:104BB0000898017002E001210898017000254FF06B
:104BC000000A444614E0641C0AF1010000F0FF0AE8
:104BD0002078202802D020782A2809D12046FFF703
:104BE0009EFF0646282E03D02A2E01D0CDF810A015
:104BF0002078282802D020780028E4D14446049860
:104C000010B10498401C04444FF0000A002654E000
:104C1000207810B94FF0010A50E02078282803D1FD
:104C200016B9781CC7B213E02078292808D13EB9FC
:104C300017B1781EC7B201E04FF0010A47B93DE055
:104C40002078222804D10EB9012000E00020064679
:104C500047B9207820282FD0207889F8000009F162
:104C6000010929E020782C2804D101200290681C39
:104C7000C5B214E02078202811D0207828280ED042
:104C80004DB9BBF1050F06DA20780DF80B000BF1DA
:104C9000010000F0FF0B0298401CC0B20290012FEF
:104CA0000AD10298022807D10298401CC0B2029093
:104CB0000398401CC0B20390641CA9E700BF03988E
:104CC000012809D100200DF80B007FA16846FFF7ED
:104CD00073FE08B90020039007990398087000201C
:104CE00089F80000504609B0BDE8F08FF0B50346E2
:104CF000154600200022002600244FE01F782C2FAC
:104D000001D104B901221F78292F01D01F780FB9D2
:104D100004B944E0002E34D11F78302F02DB1F7815
:104D2000392F11DD1F78612F02DB1F78662F0BDD15
:104D30001F78412F02DB1F78462F05DD1F78582F83
:104D400002D01F78782F0CD102B128E01F78612F94
:104D500003DB1F78203F0F7001E01F780F70491CA4
:104D600019E01F78222F04D102B118E00126012496
:104D700011E01F78202F0ED01F782C2F0BD0FF268C
:104D80000DE01F78222F00D1002402B107E014B1FA
:104D90001F780F70491C471CF8B25B1CAEE700BFC0
:104DA00000270F702E70F0BD02460020002105E0A4
:104DB000474B5B5C0344D8B24B1CD9B29142F7DB42
:104DC00070472DE9F043B5B005460F460024002694
:104DD00004E000213E488155701CC6B20A2EF8DB63
:104DE00006E06D1C287818B9012035B0BDE8F083C5
:104DF00028782828F5D16D1C61E034AA6946284638
:104E0000FFF774FF064635449DF8D00020B1012815
:104E100027D0FF284CD149E09DF8000000B333A90A
:104E20006846FFF7FCFD06460EB10220DDE720468E
:104E3000FFF7BAFF26490A31339A0A50A1F124003C
:104E4000008B0121A140884321491A39088304219C
:104E50001F480155601CC4B20A2C01DD0320C4E7C1
:104E600026E06846FFF7C4FD401C00F0FF0820461E
:104E7000FFF79AFF16490A3100EB010949466846D7
:104E8000FFF7ABFD12481A38018B0120A040014307
:104E900088B20F491A3908830D4800F80480601C55
:104EA000C4B20A2C01DD03209FE701E002209CE749
:104EB00000BF2878292801D0287800B900E09CE7B5
:104EC00000BF3C70002090E7766F6964000000002E
:104ED00052010020F0B5144604F1010C4FEA6C07B2
:104EE000DFF848C00CEB41033D460AE00678401C61
:104EF00090F800C046EA0C2223F8022B9B1C401CB1
:104F00006D1E002DF2D1F0BDF0B5561C7510074E88
:104F100006EB41042B4605E034F8047B20F8017BC6
:104F2000401C5B1E002BF7D1F0BD0000006000406C
:104F3000F84908607047F748006880B27047F54943
:104F4000091D08607047F348001D006880B2704773
:104F5000F0480830006880B27047EE490C310860B4
:104F60007047EC480C30006880B270474FF6F8711B
:104F70000140E84A103211607047E648103000687E
:104F800080B27047E34A403A42F820107047014629
:104F9000E048403850F8210080B27047DD4A403A7E
:104FA00052F8202048F68F131A400A43D94B403B51
:104FB00043F8202070470146D648403850F8210079
:104FC00000F4C060704710B5D24B403B53F820301E
:104FD00048F6BF7403EA040211F0100F01D082F00A
:104FE000100211F0200F01D082F02002C94B403B8B
:104FF00043F8202010BD10B5C64B403B53F820307D
:105000004BF68F7403EA040211F4805F01D082F43E
:10501000805211F4005F01D082F40052BD4B403B3E
:1050200043F8202010BD10B502460B461046FFF78E
:10503000AEFF0446012B06D124F48050B549403917
:1050400041F8220007E0022B05D124F01000B149FD
:10505000403941F8220010BD0146AE48403850F8B2
:10506000210000F0300070470146AA48403850F84F
:10507000210000F440507047A64A403A52F82020E0
:1050800048F6BF7302EA030181F0100181F02001AC
:10509000A04A403A42F8201070479E4A403A52F8DF
:1050A00020204BF68F7302EA030181F4805181F4D2
:1050B0000051984A403A42F82010704795494039CB
:1050C00051F8201041F4807148F68F721140914AD6
:1050D000403A42F8201070478E49403951F820106C
:1050E00048F68F6211408B4A403A42F820107047D0
:1050F0008849403951F8201048F68F621140854A9E
:10510000403A42F8201070478249403951F8201047
:1051100041F4807148F68F7211407E4A403A42F85D
:10512000201070477B49403951F8201041F48071BC
:1051300048F68F721140774A403A42F82010704783
:105140007449403951F8201048F68F621140714A75
:10515000403A42F82010704701466E48403850F8F7
:10516000210000F03000102801D1012070470020FC
:10517000FCE701466748403850F8210000F44050F1
:10518000B0F5805F01D1012070470020FCE7614944
:10519000403951F82010C1F30E0148F68F721140CA
:1051A0005C4A403A42F8201070475A49403951F859
:1051B000201048F60F721140564A403A42F820102B
:1051C00070475449403951F8201048F68F72114009
:1051D00041F480414F4A403A42F8201070474D490F
:1051E000403951F8201048F68F72114041F04001CB
:1051F000484A403A42F8201070474649403951F831
:10520000201011F4804F0CD04249403951F8201041
:1052100048F68F72114041F480413E4A403A42F8CC
:10522000201070473B49403951F8201011F0400FD1
:105230000CD03849403951F8201048F68F7211408F
:1052400041F04001334A403A42F820107047314A59
:10525000403A52F8202048F68F731A400A432D4BEB
:10526000403B43F82020704701462A48403850F818
:10527000210000F00F00704710B54A105300254A76
:105280001032126892B202EBC002234C44F8123082
:1052900010BD10B54A1053001E4A1032126892B267
:1052A00002EBC002121D1C4C44F8123010BD014626
:1052B00018481030006880B200EBC100164A32F87E
:1052C000100080B27047014612481030006880B26A
:1052D00000EBC100001D104A32F8100080B2704788
:1052E0000C4A1032126892B202EBC002921C0A4BB6
:1052F00043F81210704702463E290FDD481111F0A5
:105300001F0F01D1431E98B24FF4004343EA80239C
:1053100013600BE0405C004000600040481011F05A
:10532000010F01D0431C98B283021360704710B57F
:105330000246D048006880B200EBC200801DCE4C0F
:1053400004EB40033E290BDD481111F01F0F01D182
:10535000441EA0B24FF4004444EA80241C6007E0DD
:10536000481011F0010F01D0441CA0B284021C604F
:1053700010BD0146BF48006880B200EBC100801C30
:10538000BD4A32F81000C0F3090070470146B94821
:10539000006880B200EBC100801DB74A32F81000EF
:1053A000C0F30900704730B54B105C00B14B1B686F
:1053B0009BB203EBC003B04D45F8134053105C00A3
:1053C000AC4B1B689BB203EBC0031B1D45F813409D
:1053D00030BD10B54A105300A64A126892B202EBD3
:1053E000C002A54C44F8123010BD10B54A1053004D
:1053F000A04A126892B202EBC002121D9E4C44F801
:10540000123010BD01469B48006880B200EBC1001D
:10541000994A32F8100080B27047014695480068FA
:1054200080B200EBC100001D934A32F8100080B238
:10543000704730B50B46012B1FD18E49096889B2E0
:1054400001EBC001891C8C4D05EB41043E2A0BDDAC
:10545000511112F01F0F01D14D1EA9B24FF400459A
:1054600045EA8125256007E0511012F0010F01D0B7
:105470004D1CA9B28D0225600AE0022B08D17D499E
:10548000096889B201EBC001891C7B4C44F81120EA
:10549000012B1FD17749096889B201EBC001891D31
:1054A000754D05EB41043E2A0BDD511112F01F0F23
:1054B00001D14D1EA9B24FF4004545EA8125256072
:1054C00007E0511012F0010F01D04D1CA9B28D025E
:1054D00025600AE0022B08D16649096889B201EB10
:1054E000C001891D644C44F8112030BD30B503461D
:1054F00001291FD15F48006880B200EBC300801C07
:105500005D4D05EB40043E2A0BDD501112F01F0FDC
:1055100001D1451EA8B24FF4004545EA802525601B
:1055200007E0501012F0010F01D0451CA8B285020F
:1055300025600AE0022908D14E48006880B200EBDD
:10554000C300801C4C4C44F8102030BD30B50346DD
:1055500001291FD14748006880B200EBC300801DBD
:10556000454D05EB40043E2A0BDD501112F01F0F94
:1055700001D1451EA8B24FF4004545EA80252560BB
:1055800007E0501012F0010F01D0451CA8B28502AF
:1055900025600AE0022908D13648006880B200EB95
:1055A000C300801D344C44F8102030BD0146314802
:1055B000006880B200EBC100801C2F4A32F8100056
:1055C000C0F30900704701462A48006880B200EB2A
:1055D000C100801D284A32F81000C0F3090070474E
:1055E00001462448006880B200EBC100801D224AB9
:1055F00032F8100010F47C4F01D0012070471D4894
:10560000006880B200EBC100801C1B4A32F8100019
:105610008005800D01D00220F0E70020EEE701298F
:105620000DD1144A503A52F8202048F68F731A4090
:1056300042F040020F4B503B43F820200EE002297D
:105640000CD10C4A503A52F8202048F68F731A4079
:1056500042F48042074B503B43F8202070470246FB
:1056600041EA022070470146CAB20B1243EA022007
:1056700070470000505C0040006000400348006834
:1056800040F4802001490860704700001404014084
:10569000FE4AD26942F00402FC4BDA61FC4A1080F7
:1056A000FB4A08321080121F1180F94A243A1288EE
:1056B00042F08002F64B243B1A80F54A143A1288D5
:1056C00022F00102F24B143B1A80F14A243A12886C
:1056D00042F01002EE4B243B1A800822EC4B083BB0
:1056E0001A801A46128842F060021A801A1D128827
:1056F00042F480721B1D1A800022E54B18331A8079
:10570000704730B9E349C96821F00201E14AD1602C
:1057100005E0E049C96841F00201DE4AD160DD4997
:10572000096821F0F001DB4A11601146096841F077
:1057300030011160704730B9D649C96821F00101C4
:10574000D44AD16005E0D349C96841F00101D14A8A
:10575000D160D049096821F00F01CE4A116011468D
:10576000096841F003011160704700B5CA4800881C
:1057700020F00100C8490880C848006820F00F00E8
:10578000C64908600846006840F003000860C34846
:105790000830006820F48070C0490831086000209B
:1057A000FFF7AFFF00BD00B5BD48008820F0010045
:1057B000BB490880B748006820F07060B5490860B0
:1057C0000846006840F0407008600846C06820F055
:1057D0004000C8600020FFF7AEFF00BD00B5FFF736
:1057E000E2FFAA48806940F00400A8498861AB48FC
:1057F000006820F00F00A94908600846006840F0E2
:105800000B0008600120FFF77CFF00BD00B5FFF72B
:10581000ACFF9E48806940F010009C4988619D481B
:10582000006820F070609B4908600846006840F0FE
:10583000306008600120FFF77EFF00BD10B5FFF764
:10584000CDFF472140F2F310FDF78AF810BD10B5E7
:10585000FFF7DCFF472140F2F310FDF7C2F810BD5F
:105860002DE9F05F81464FF0000A002400BFFDF7EC
:105870005FFC49F00100FDF705FDFDF7A6FC68B9E6
:105880000120FDF730FD874948700020FDF72BFD12
:1058900084490870FDF777FC002403E0601CC4B263
:1058A000FDF771FC0CB1052CE1DBBCB97D494978F1
:1058B00048B202F031F882467A490978081101F0BD
:1058C000EDFB07460022784B01F03CFC054601F059
:1058D000A7F98346514601F07FFE82467148007861
:1058E000802804DD6F480078401E6E4908705046DD
:1058F000BDE8F09F70B5002400256C48006801F0F9
:10590000EBFF84B24FF6FF7000EA04244FF08041B1
:105910006648006802F060F8064601F0DDFFC5B297
:1059200015F0010F01D044F00504204670BD00B50C
:105930005648806940F00800544988615C48006816
:1059400020F00F005A4908600846006840F00B003C
:105950000860472140F2F310FFF79AFE00BD10B532
:1059600041F61F4140F28260FDF77CF85148008803
:1059700040F001004F49088010BD10B504460020DA
:105980004D49C860C860486008600861FFF7CFFFF4
:105990004A4804609020FFF763FF494908600846C1
:1059A00001684648006802F01FF946490860002077
:1059B0004549086045490860012045490880454936
:1059C000088033482438008840F0010030492439E9
:1059D00008809020FFF744FF3F490860384908607D
:1059E00000203E490870364801683448006802F0DB
:1059F000FBF8344908603A490860002131480068E2
:105A000001F01AFF0AD03748007808B9FFF7A7FF5E
:105A10003448007840F001003249087010BD012878
:105A20000ED11D49098841F001011B4A11801A4914
:105A30004431098841F40041174A443211800FE093
:105A400002280DD11649098841F00101144A11803C
:105A500013494431098841F40041114A443211800C
:105A6000704700B50948806940F010000749886117
:105A70000846806940F004008861FFF776FE03481D
:105A8000806940F00800014988612DE00010024063
:105A90002408004000100140002C0140040801408F
:105AA00000340140290200200000B03F44020020E1
:105AB000040C014000100040DC170020940200207C
:105AC000980200209C0200208C0200208802002006
:105AD0009002002092020020A00200204802002034
