:020000040800F2
:10000000000400203B020008490200084B020008DF
:100010004D0200084F0200085102000800000000D5
:100020000000000000000000000000005302000873
:10003000550200080000000057020008590200089D
:100040000B4900085B0200085B02000843540008EB
:100050005B0200085B020008AB3800085B02000886
:10006000E1470008094800081F4800085B02000833
:100070005B0200085B020008975E0008CF5E000884
:100080005B0200085B0200085B0200089D86000816
:100090009F8600085B0200085B02000863380008C6
:1000A0005B020008FF4B00085B0200085B020008CF
:1000B0008B65000831490008D94A00085B02000836
:1000C0005B0200085B0200085B0200085B0200089C
:1000D0005B020008314300085B0200085B02000875
:1000E000BF3800085B020008A78600085B02000812
:1000F000614D00085B0200085B0200085B0200081B
:100100005B0200085B020008B73900085B020008C8
:100110005B0200085B020008554E0008034F000810
:100120005B0200085B0200085B0200085B0200083B
:1001300000F002F800F06BF80AA090E8000C82448E
:100140008344AAF10107DA4501D100F060F8AFF26B
:10015000090EBAE80F0013F0010F18BFFB1A43F0A5
:1001600001031847D8A00000F8A000000A444FF08F
:10017000000C10F8013B13F0070408BF10F8014B06
:100180001D1108BF10F8015B641E05D010F8016B4B
:10019000641E01F8016BF9D113F0080F1EBF10F8AF
:1001A000014BAD1C0C1B09D16D1E58BF01F801CBD2
:1001B000FAD505E014F8016B01F8016B6D1EF9D555
:1001C0009142D6D37047000000230024002500266A
:1001D000103A28BF78C1FBD8520728BF30C148BFAA
:1001E0000B607047642908F05785752908F054851D
:1001F000782908F08D85632908F0EA86732908F0CC
:10020000EF86002070471FB51FBD10B510BD08F068
:1002100019FF1146FFF7F7FF01F0C7FB08F037FFA2
:1002200003B4FFF7F2FF03BC04F074F830BF72B6FA
:1002300062B680F30888704770470B4880470B49C7
:1002400081F308880A480047FEE7FEE7FEE7FEE77D
:10025000FEE7FEE7FEE7FEE7FEE7FEE705480649A4
:10026000044A064B7047000039020008206600204F
:1002700031010008205E002020660020205E002062
:10028000FE49896941F00401FC4A916138B1FC4999
:10029000096889B221F00201F94A116014E0F849B5
:1002A000096889B241F00201F54A1160F54909680F
:1002B00021F47F21F34A11601146096841F44C3161
:1002C00011600021F04A1160704710B5022206212A
:1002D000052003F011FF02220721052003F00CFF87
:1002E00002220821052003F007FF02220921052030
:1002F00003F002FF022317220321184603F0AEFE8B
:1003000010BDE248006820F400004FF0E021C1F881
:100310000001DF48006820F47070DD490860704714
:100320002DE9F0478046894692461F46AA20D949C2
:100330000870084680F8018080F80290C770042594
:10034000002407E01AF80400D2494855601C84B222
:10035000681C85B2BC42F5DB0026012405E0CD48CF
:10036000005D304486B2601C84B2681EA042F6DC98
:10037000172E01D1701C86B2C6494E551721C54AA9
:10038000A81C1154681C115440224FF48C71C148B0
:1003900007F04EFD4021022007F050FF022007F039
:1003A00019FEBDE8F08710B50146002016E00122D5
:1003B00082400A4208D0B64A1268831D01249C403C
:1003C0002243B34B1A6007E0B14A1268831D01242F
:1003D0009C40A243AE4B1A60421CD0B20428E6DB1C
:1003E00010BDAB48006820F47070A94908607047E0
:1003F000A9490978A94A117000202CE08821C0EB96
:10040000C002A74B03F812100821C0EBC00203EB97
:10041000420251708821C0EBC00203EB420291708E
:10042000C0EBC00203EB4202D1700821C0EBC00256
:1004300003EB420211710021C0EBC00203EB420248
:1004400051710121C0EBC00203EB42021181954AB8
:100450001180411CC8B20428D0DB904909788E4A2B
:10046000117070479049098821F001018E4A11806E
:1004700000218E4A1170704700208C4909780429A8
:1004800000DD0120704710B5044600208749087040
:1004900041F61F41642004F0B4FC8348008840F01A
:1004A00001008149088010BD2DE9F04106460F4644
:1004B000904679480770002405E07D48005D7D493D
:1004C0000855601CC4B20B2CF7DB002432E0042C6E
:1004D00004D100BF784800880028FBD07548031974
:1004E00001223146032003F0B5FB032C20D16A49D9
:1004F0000978C1EBC1016A4A02EB4101488904F065
:10050000A2FA65480078C0EBC000654901EB4000E5
:100510000089401E80B26349088068490880002035
:10052000654908806648008840F0010064490880F9
:10053000601CC4B20A2CCADD5E4B002211460420A6
:1005400003F088FB00205F4908700320FFF79BFF42
:10055000002502E0FFF790FF05464F480178012093
:10056000884058490978084201D1002DF2D0012075
:10057000FFF778FF48480178012088405149097801
:1005800008420ED000204F4908704A4B0022114605
:10059000052003F05FFB00204B493F4A1278885446
:1005A00009E045B148483C490978405C401C46494F
:1005B000394A12788854BDE8F0812DE9F047804629
:1005C000802042490870002605E03948805D39499D
:1005D0008855701CC6B20B2EF7DB0027CDE03C48D7
:1005E000C45D2D48047017B1052003F000FD0025FF
:1005F000BEE0002608E02F48831901222946032087
:1006000003F028FB701CC6B2042EF4DB002D6ED163
:1006100034B1012C1FD0022C6CD0032C69D184E0A2
:10062000C4EBC4011E4A02EB4101488904F00BFAF5
:10063000C4EBC4001A4901EB40000089401E19496F
:1006400008801F48008840F001001D4908800020F4
:100650001949088085E0C4EBC401114A02EB41014D
:10066000488904F0C6FAC4EBC4000D4901EB400010
:100670000089401E1749088017482FE000100240EB
:10068000405C004004080140B001214200E100E06C
:1006900000040140805D0020620000206300002013
:1006A000B05A0020B8000020001000407F00002059
:1006B00010A0000868030020000000206E00002049
:1006C00000040040080000206600002074000020A4
:1006D0006A000020BA000020002C0140008840F091
:1006E0000100F64908800020F549088039E039E02A
:1006F00000E035E0C4EBC401F24A02EB4101488955
:1007000004F0E4F9C4EBC400EE4901EB40000089B9
:10071000401EED490880ED48008840F00100EB499B
:1007200008800020EA4908801BE0C4EBC401E54AC8
:1007300002EB4101488904F00DFBC4EBC400E14920
:1007400001EB40000089401EE2490880E248008831
:1007500040F00100E04908800020E049088000E006
:1007600000BF00BF4FF4C87003F026FC681CC5B280
:100770000C2DFFF63EAF781CC7B24745FFF62FAFF2
:100780000027E3E0D648C05DD6490870044600253E
:10079000D6E034B1012C0CD0022C12D0032C20D185
:1007A00017E000BF0120A840CF4909880842F9D0CE
:1007B00018E000BF0120A840C14909880842F9D0CB
:1007C00010E000BF0120A840C14909880842F9D0C3
:1007D00008E000BF0120A840C04909880842F9D0BC
:1007E00000E000BF00BF042608E0C04883190122D2
:1007F0002946032003F02EFA701CC6B20A2EF4DD3F
:100800000020BB490870B94B00222946042003F0A0
:1008100021FA0120FFF737FE4FF0000902E0FFF751
:100820002BFE81460120A040B1490978084202D13F
:10083000B9F1000FF3D00120FFF714FE0120A04012
:10084000AB49097808423BD00020A9490870A74B62
:1008500000221146052003F0FDF90020A5490855A6
:10086000002610E0A448815DC4EBC40000EB40000A
:10087000A24A02EB0010C5EBC50200EB8202B01CDD
:100880001154701CC6B21A2EECDB022040EA041090
:10089000C4EBC40101EB4101984A02EB0111C5EB25
:1008A000C50201F82200C4EBC40000EB40009349EC
:1008B00001EB0010C5EBC50100EB810045703DE088
:1008C000B9F1000F3AD08B48005D401C89490855AA
:1008D000002530E0022040EA0410C4EBC40101EB23
:1008E0004101864A02EB0111C5EBC50201F8220065
:1008F000F120C4EBC40101EB4101804A02EB01117C
:10090000C5EBC50201EB8201487000260FE0002113
:10091000C4EBC40000EB4000784A02EB0010C5EBCA
:10092000C50200EB8202B01C1154701CC6B21A2E14
:10093000EDDB681CC5B2182DCCDB04E0681CC5B229
:100940000C2DFFF626AF00BF781CC7B24745FFF657
:1009500019AFBDE8F0872DE9FC47804600200190E3
:100960000090002405E06648005D60490855601C61
:10097000C4B20B2CF7DB4FF00009A2E1614810F87C
:1009800009A0002526E05648405D564908700746F4
:1009900008460078C0EBC0004A4901EB40000079EE
:1009A0006AF303004F490978C1EBC101454A02EBE4
:1009B000410108714D49087501F1140301221146E6
:1009C000022003F047F900204A49C85501A9C8553B
:1009D000681CC5B24545D6DB4046FFF7EEFD002555
:1009E00010E03F48405D01A9085C3D49495D414A2E
:1009F000515C884204DA01203949495D0DF8010053
:100A0000681CC5B24545ECDBB9F1000F09D0B9F15E
:100A1000010F4BD0B9F1020F78D0B9F1030F76D1A5
:100A2000FEE000253FE02E48475D002637E0002429
:100A300031E0C7EBC70000EB4000304901EB00108C
:100A4000C6EBC60100EB8100022101EB4401405CD2
:100A50002D4901EB073101EBC611042202EB8402A0
:100A60008854C7EBC70000EB4000244901EB00109D
:100A7000C6EBC60100EB8100032101EB4401405CA1
:100A8000214901EB073101EBC611052202EB84027B
:100A90008854601CC4B20D2CCBDB701CC6B20C2E6B
:100AA000C5DB681CC5B24545BDDB05E1002569E035
:100AB0000B48475D002661E000245BE0002C01400C
:100AC00002000020B05A0020BC00002000080040B6
:100AD00004000020BE000020003401400600002079
:100AE0006A0000206200002000000020680300204F
:100AF0000800002066000020D25C002020150020A5
:100B000010A000081BA00008601A00203DE0D2E001
:100B1000C7EBC70000EB4000F84901EB0010C6EB43
:100B2000C60100EB8100022101EB4401405CF44965
:100B300001EB073101EBC611022202EB840288545B
:100B4000C7EBC70000EB4000EC4901EB0010C6EB1F
:100B5000C60100EB8100032101EB4401405CE84940
:100B600001EB073101EBC611032202EB840288542A
:100B7000601CC4B20D2CCBDB701CC6B20C2E9BDBF0
:100B8000681CC5B2454593DB96E0002545E0DD488D
:100B9000475D00263DE0002437E0C7EBC70000EBCF
:100BA0004000D64901EB0010C6EBC60100EB810006
:100BB000022101EB4401405CD14901EB07310122E4
:100BC00002EB460201EB8211042202EB84028854FC
:100BD000C7EBC70000EB4000C84901EB0010C6EBB3
:100BE000C60100EB8100032101EB4401405CC449D4
:100BF00001EB0731012202EB460201EB82110522D3
:100C000002EB84028854601CC4B20D2CC5DB701C3E
:100C1000C6B20C2EBFDB681CC5B24545B7DB4BE046
:100C2000002545E0B748475D00263DE0002437E059
:100C3000C7EBC70000EB4000B04901EB0010C6EB6A
:100C4000C60100EB8100022101EB4401405CAC498C
:100C500001EB0731012202EB460201EB8211022275
:100C600002EB84028854C7EBC70000EB4000A349A5
:100C700001EB0010C6EBC60100EB8100032101EB84
:100C80004401405C9E4901EB0731012202EB460220
:100C900001EB8211032202EB84028854601CC4B26F
:100CA0000D2CC5DB701CC6B20C2EBFDB681CC5B298
:100CB0004545B7DB00E000BF00BF09F1010000F0CF
:100CC000FF09B9F1040FFFF659AE002530E000240A
:100CD00016E08C48405D082141EA00108949495DD1
:100CE000874A02EB013101EB841108708548405DB1
:100CF000114601EB003000EB84104470601CC4B25C
:100D0000182CE6DB7F48405D1DF8000070B1002420
:100D10000AE0F1207B49495D794A02EB013101EBA0
:100D200084114870601CC4B2182CF2DB681CC5B278
:100D30004545CCDBBDE8FC872DE9F04106460F4672
:100D400071480670002405E07048005D7049085540
:100D5000601CC4B20B2CF7DB6B490978C1EBC101F5
:100D60006C4A02EB4101488903F06DFE6648007849
:100D7000C0EBC000674901EB40000089401E80B213
:100D80006549088065490880002518E0002408E0CE
:100D90005F48031901222946032002F05BFF601C13
:100DA000C4B2042CF4DB45B95D48008840F0010072
:100DB0005B49088000205B490880681CC5B20C2D87
:100DC000E4DB002578E000BF0120A84055490988F0
:100DD0000842F9D0042408E04D48031901222946AD
:100DE000032002F037FF601CC4B20A2CF4DD00209F
:100DF0004D490870464B00222946042002F02AFF84
:100E00000120FFF740FB4FF0000802E0FFF734FB42
:100E100080463D48017801208840434909780842CE
:100E200002D1B8F1000FF1D00120FFF71BFB3648CB
:100E30000178012088403C49097808422CD00020E4
:100E400039490870324B00221146052002F002FF9A
:100E5000002036492C4A1278885400240AE034488D
:100E6000015D274800EB063000EB8512A01C1154F1
:100E7000601CC4B21A2CF2DB022040EA06102049A2
:100E800001EB063101EB851108701D4800EB0630BF
:100E900000EB851045700DE0B8F1000F0AD0234833
:100EA00019490978405C401CC1B22048164A1278A2
:100EB000815403E0681CC5B20C2D84DB00BF17B958
:100EC00000201C490870BDE8F08110B502460B46B1
:100ED0000021012404E0105D0844C1B2601CC4B2CA
:100EE000981EA042F7DC172901D1481CC1B2D018C6
:100EF00010F8020C88421FD1012010BD20150020DF
:100F0000601A00206A0000206200002010A0000883
:100F100068030020B05A0020B80000206E000020B6
:100F200000040040000000200800002066000020AF
:100F3000D25C002050000020002010BD2DE9F047B9
:100F400006468946F84806700120F84908700027CF
:100F500003E1F74810F80780F3480078C0EBC000C1
:100F6000F44901EB4000007968F30300EE49097889
:100F7000C1EBC101EF4A02EB41010871EE4908756E
:100F800001F1140301221146022002F063FE002544
:100F9000DEE0C5F10B00C2B2E34801782846FFF756
:100FA00083FA00240AE0E548015DC5EBC500E44A88
:100FB00002EB8002A01C1154601CC4B21A2CF2DB9C
:100FC000D948067837B1012F2FD0022F58D0032FE0
:100FD0007DD188E0002425E0C5EBC500D84901EBB0
:100FE0008000022101EB4401405CD64901EB06314F
:100FF00001EBC511042202EB84028854C5EBC50045
:10100000CF4901EB8000032101EB4401405CCD4955
:1010100001EB063101EBC511052202EB8402885475
:10102000601CC4B20D2CD7DB8FE0002425E0C5EB9B
:10103000C500C34901EB8000022101EB4401405C83
:10104000C04901EB063101EBC511022202EB84021B
:101050008854C5EBC500BA4901EB8000032101EBC0
:101060004401405CB74901EB063101EBC511032295
:1010700002EB84028854601CC4B20D2CD7DB64E000
:1010800000242DE0C5EBC500AD4901EB8000022135
:1010900001EB4401405CAB4901EB0631012202EB5C
:1010A000450201EB8211042202EB84028854C5EB55
:1010B000C500A34901EB8000032101EB4401405C22
:1010C000A04901EB0631012202EB450200E03BE0C2
:1010D00001EB8211052202EB84028854601CC4B229
:1010E0000D2CCFDB31E000242BE0C5EBC50094498B
:1010F00001EB8000022101EB4401405C914901EBCE
:101100000631012202EB450201EB8211022202EBC1
:1011100084028854C5EBC500894901EB8000032196
:1011200001EB4401405C874901EB0631012202EBEF
:10113000450201EB8211032202EB84028854601CF9
:10114000C4B20D2CD1DB00E000BF00BF681CC5B2EB
:101150000C2DFFF61EAF781CC7B2042FFFF6F9AEB8
:10116000002410E0082040EA0610764901EB063121
:1011700001EB84110870734800EB063000EB84101B
:101180004470601CC4B2182CECDBBDE8F0872DE97C
:10119000F04107468846002405E06B48005D66493B
:1011A0000855601CC4B20B2CF7DB5F490978C1EB12
:1011B000C101604A02EB4101488903F044FC5A48EE
:1011C0000078C0EBC0005B4901EB40000089401E85
:1011D00080B25E4908805E49088000251CE000243A
:1011E00008E05548031901222946032002F032FD88
:1011F000601CC4B2042CF4DB45B95648008840F0AA
:101200000100544908800020534908804FF4C870F9
:1012100002F0D2FE681CC5B20C2DE0DB002576E0A2
:1012200000BF0120A8404C4909880842F9D0042495
:1012300008E04148031901222946032002F00AFD73
:10124000601CC4B20A2CF4DD3748017801208840C4
:1012500042490978814341480170374B00222946B1
:10126000042002F0F7FC0220FFF70DF9002602E04F
:10127000FFF702F906462C480178012088403749DB
:101280000978084201D1002EF2D00120FFF7EAF8D8
:1012900025480178012088403049097808421BD050
:1012A0000120FFF7DFF800202C490870224B0022B4
:1012B0002946052002F0CEFC00240AE01F48015D0B
:1012C000C5EBC5001E4A02EB8002A01C1154601C35
:1012D000C4B21A2CF2DB18E0BEB1214812490978D9
:1012E000405C401C1E49104A12788854002409E0D2
:1012F0000021C5EBC500124A02EB8002A01C11546C
:10130000601CC4B21A2CF3DB03E0681CC5B20C2DC0
:1013100086DB00BFBDE8F0812DE9F04707468A462D
:101320000148077000263BE16200002050000020C9
:101330001BA00008B05A002068030020D25C0020E7
:10134000D0030020601A002010A00008B800002080
:101350006E00002000040040000000200800002073
:1013600066000020FE4810F80680FE480078C0EBBA
:10137000C000FD4901EB4000007968F30300F94922
:101380000978C1EBC101F84A02EB41010871F74944
:10139000087501F1140301221146022002F05AFCE3
:1013A000F348F049097810F80190C6F10300C1B282
:1013B000EC480078FFF7EBFEED48EA490978405C1D
:1013C000484500DDEFE036B1012E39D0022E6CD059
:1013D000032E6ED1A5E000252FE0002429E0C5EB07
:1013E000C500E44901EB8000022101EB4401405CAF
:1013F000E149DC4A127801EB023101EBC51104220C
:1014000002EB84028854C5EBC500DA4901EB800089
:10141000032101EB4401405CD749D24A127801EB29
:10142000023101EBC511052202EB84028854601CD5
:10143000C4B20D2CD3DB681CC5B20C2DCDDBACE0E7
:1014400000252FE0002429E0C5EBC500C94901EBC8
:101450008000022101EB4401405CC749C14A127877
:1014600001EB023101EBC511022202EB8402885428
:10147000C5EBC500BF4901EB8000032101EB44012E
:10148000415CBD48B74A127800EB023000EBC51052
:10149000032202EB84028154601CC4B20D2CD3DB06
:1014A000681CC5B20C2DCDDB77E0002536E00024AA
:1014B00030E071E0C5EBC500AE4901EB80000221D0
:1014C00001EB4401405CAC49A64A127801EB0231C1
:1014D000012202EB450201EB8211042202EB84029D
:1014E0008854C5EBC500A34901EB8000032101EB43
:1014F0004401405CA0499B4A127801EB0231012271
:1015000002EB450201EB8211052202EB84028854B2
:10151000601CC4B20D2CCDDB681CC5B20C2DC6DB23
:101520003BE0002535E000242FE0C5EBC5009149E4
:1015300001EB8000022101EB4401405C8E49894AA5
:10154000127801EB0231012202EB450201EB82111C
:10155000022202EB84028854C5EBC500854901EBE9
:101560008000032101EB4401405C83497D4A1278ED
:1015700001EB0231012202EB450201EB8211032251
:1015800002EB84028854601CC4B20D2CCDDB681CB5
:10159000C5B20C2DC7DB00E000BF00BF701CC6B297
:1015A000042EFFF6DFAE00BF002416E06D48007881
:1015B000082141EA001070496A4A127801EB0231B1
:1015C00001EB841108706C486649097800EB013022
:1015D00000EB84104470601CC4B2182CE6DBBDE83C
:1015E000F0872DE9F04104460F465E480470012063
:1015F00062490870002530E05D485A49097810F8C2
:1016000001803A4621462846FEF74EFF5848554984
:101610000978405C404500DD21E0022040EA0410EA
:10162000554901EB043101EB85110870524800EB7C
:10163000043000EB8510457000260AE05048815DBB
:101640004D4800EB043000EB8512B01C1154701CA7
:10165000C6B21A2EF2DB681CC5B20C2DCCDB00BF63
:10166000BDE8F0812DE9F0478046802045490870AB
:10167000002605E04448805D3C498855701CC6B290
:101680000B2EF7DB0027C4E04048C45D35480470EA
:1016900017B1052002F0ABFC0025B5E0002608E0FC
:1016A0003248831901222946032002F0D3FA701C24
:1016B000C6B2042EF4DB002D51D134B1012C1FD061
:1016C000022C38D0032C73D17BE0C4EBC401264A32
:1016D00002EB4101488903F0B6F9C4EBC40022498A
:1016E00001EB40000089401E2949088029480088F4
:1016F00040F00100274908800020274908807CE04D
:10170000C4EBC401184A02EB4101488903F071FAA5
:10171000C4EBC400144901EB40000089401E1F497E
:1017200008801F48008840F001001D490880002003
:101730001C49088061E0C4EBC4010B4A02EB410183
:10174000488903F0C3F9C4EBC400074901EB40002A
:101750000089401E144908801448008829E04DE0A3
:101760001BA0000862000020B05A0020680300207F
:1017700066000020D0030020601A002050000020E6
:10178000D25C00207400002010A000086A00002035
:10179000B80000200004004000000020BA00002033
:1017A000002C014002000020BC0000200008004086
:1017B00022E040F00100FB4908800020FA4908803F
:1017C0001BE0C4EBC401F94A02EB4101488903F074
:1017D000C1FAC4EBC400F54901EB40000089401E8A
:1017E000F3490880F348008840F00100F14908807F
:1017F0000020F149088000E000BF00BF4FF4C8702E
:1018000002F0DAFB681CC5B20C2DFFF647AF781C5E
:10181000C7B24745FFF638AF0027C1E0E748C05DD3
:10182000E749087004460025B4E034B1012C0CD01F
:10183000022C12D0032C20D117E000BF0120A840B9
:10184000E04909880842F9D018E000BF0120A8400B
:10185000DD4909880842F9D010E000BF0120A84006
:10186000D14909880842F9D008E000BF0120A8400A
:10187000D14909880842F9D000E000BF00BF042622
:1018800008E0D248831901222946032002F0E2F938
:10189000701CC6B20A2EF4DD0020CD490870CB4B77
:1018A00000222946042002F0D5F90120FEF7EBFDC5
:1018B0004FF0000902E0FEF7DFFD81460120A04065
:1018C000C3490978084202D1B9F1000FF3D00120D1
:1018D000FEF7C8FD0120A040BD49097808422AD082
:1018E0000020BB490870B94B00221146052002F0C8
:1018F000B1F90020B749085500260AE0B648815DD5
:10190000B64800EB043000EB8512B01C1154701C7B
:10191000C6B21A2EF2DB022040EA0410AF4901EBF6
:10192000043101EB85110870AC4800EB043000EB8A
:10193000851045702CE0B9F1000F29D0A548005D55
:10194000401CA449085500251FE0022040EA04106D
:10195000A24901EB043101EB85110870F1209F4988
:1019600001EB043101EB85114870002609E00021EC
:101970009A4800EB043000EB8512B01C1154701C27
:10198000C6B21A2EF3DB681CC5B2182DDDDB04E0ED
:10199000681CC5B20C2DFFF648AF00BF781CC7B25B
:1019A0004745FFF63BAFBDE8F0878EB000200B90B7
:1019B00000BF07900D90092002F051FC482002F072
:1019C000DFFA04F051F9002414E02F20C4EBC40125
:1019D000764A02EB410188810120C4EBC40102EB8D
:1019E000410108816420C4EBC40102EB410148813C
:1019F000601C84B2042CE8DB0020794908706B4934
:101A0000488940F2CF2102F0E3FF6849488940F25B
:101A1000CF2103F0B2F86549488940F2CF2103F0A5
:101A200019F86249488940F2CF2103F039F90020C2
:101A3000644908806B48008840F0010069490880CB
:101A400000BF604800880028FBD000205D49088066
:101A50000120FEF718FD00BFFEF70EFD0028FBD0A9
:101A60000120FEF7FFFC03F033FDFEF7C1FC002070
:101A7000FEF706FC4FF4967002F0B9FA0120FEF76B
:101A8000FFFB06F0C4FD06F0A7FD05F0DDFF02F048
:101A900019FD02F051F900205349087053490870AC
:101AA0005349086053490860A1F104010860524994
:101AB00008604FF00100514908704FF00F00504985
:101AC00008704FF001004F490860A1F1040108605F
:101AD000A1F104010860A1F1040108604FF00000C9
:101AE0004949C1F8A0014FF00A0002F065FA01204F
:101AF0004549C1F8A001042002F0F6F902F0A9F965
:101B0000012002F08EF901F04ABE02F0A6F9074664
:101B100017F0010F0DD102F0D4F9A8B1012002F0A5
:101B20009FF90321084602F077F8012002F0DCF962
:101B30000AE017F0020F07D017F0040F04D002F0EC
:101B400088F9042002F0D0F93048007803281BD02F
:101B50002F48007888B100202D49087002F054F811
:101B60000B902C4800780B9908432A4908702748A5
:101B7000007810B901202549087024480078012810
:101B800003D1022021490870ADE2204800780228E4
:101B9000FAD103201D4908701E480778002500244B
:101BA00044E000000008004004000020B05A00207B
:101BB000BE00002000340140060000206A00002022
:101BC00062000020000000200200002068030020C6
:101BD0000800002066000020D25C0020601A00206F
:101BE000DB000020000400405B0000205A000020C1
:101BF0009C812242BC81224294812342B300002076
:101C0000B20000209801244200002442530000202A
:101C10005E0000205D0000200120A040384203D07B
:101C2000FA494C55681CC5B2601C84B2042CF3DB25
:101C3000002D75DD0020F649087008460078002860
:101C400070D0F4480078C0B117F0010F02D0012025
:101C5000F149086017F0020F02D00120EF49086037
:101C600017F0040F02D00120ED49086017F0080FAB
:101C700006D00120EB49086002E00120E649086037
:101C80004FF0080002F0B3F9E7480078A8B9022045
:101C9000E64908702846FFF7E5FC00240AE0DB4827
:101CA000015D01208840E24909780843E049087055
:101CB000601C84B2AC42F2DB14E00820DB490870FF
:101CC0002846FEF748FE00240AE0D048015D0120C6
:101CD0008840D84909780843D6490870601C84B206
:101CE000AC42F2DBD448007800F00100CA49086039
:101CF000C8480078002812D0CF48007800F00200D1
:101D0000C6490860CC48007800F00400CB49C1F80F
:101D1000B801C948007800F00800C2490860C4E171
:101D2000D2E1FFE7C0480078002872D100250CE11D
:101D30000120A84038426BD0B6480078C0B335B116
:101D4000012D10D0022D1AD0032D24D000BF012068
:101D5000B1490860B848007810F0010F02D108209E
:101D600002F045F923E00120AC490860B248007850
:101D700010F0020F02D1082002F039F917E001201B
:101D8000A7490860AC48007810F0040F02D1082081
:101D900002F02DF90BE00120A2490860A648007866
:101DA00010F0080F02D1082002F021F900BF07E06F
:101DB000FFE70120984908604FF0080002F017F98A
:101DC0009F48405D062825DD00261FE0022040EAEE
:101DD00005109C4901EB053101EB86110870F120DB
:101DE000984901EB053101EB86114870002409E0A8
:101DF0000021944800EB053000EB8612A01C115422
:101E0000601C84B21A2CF3DB701CC6B2182EDDDB0A
:101E10007CE09EE0022085490870C5EBC5008A4938
:101E200001EB400000890A2838DD854810F805805C
:101E3000681C47FA00F12846FEF77EFF8048405DA7
:101E4000404523DD00261FE0022040EA05107D49C1
:101E500001EB053101EB86110870F120794901EBA6
:101E6000053101EB86114870002409E00021754816
:101E700000EB053000EB8612A01C1154601C84B2EC
:101E80001A2CF3DB701CC6B2182EDDDB0120A84033
:101E90006749097808436649087037E0684810F8D0
:101EA0000580681C47FA00F12846FFF79AFB0120DD
:101EB000A8405F49097808435D4908706048405D63
:101EC000404523DD00261FE0022040EA05105D4961
:101ED00001EB053101EB86110870F120594901EB46
:101EE000053101EB86114870002409E000215548B6
:101EF00000EB053000EB8612A01C1154601C84B26C
:101F00001A2CF3DB701CC6B2182EDDDB4A480078B1
:101F100000F00100404908603E48007890B1464812
:101F2000007800F002003D4908604348007800F066
:101F300004004249C1F8B8013F48007800F00800A9
:101F40003849086005F10100C5B2042DFFF6F0AE76
:101F5000ABE00820354908700025A3E00120A84027
:101F6000384252D02B480078C0B335B1012D10D083
:101F7000022D1AD0032D24D000BF0120264908606D
:101F80002D48007810F0010F02D1082002F02FF840
:101F900023E00120214908602748007810F0020F53
:101FA00002D1082002F023F817E001201C49086044
:101FB0002148007810F0040F02D1082002F017F831
:101FC0000BE00120174908601B48007810F0080F4B
:101FD00002D1082002F00BF800BF07E0FFE7012064
:101FE0000D4908604FF0080002F001F8C5EBC5008C
:101FF000154901EB400000890A2827DD681C47FAD3
:1020000000F12846FFF788F926E048E06A00002042
:10201000740000205B000020948123429C812242B6
:10202000B8812242BC812242600000205000002082
:1020300064000020650000205A0000200080224239
:1020400066000020601A0020B05A0020681C47FA81
:1020500000F12846FEF772FF0120A840FD490978EB
:102060000843FC490870FC48007800F00100FB4977
:102070000860FB48007890B1F748007800F0020053
:10208000F8490860F448007800F00400F649C1F807
:10209000B801F148007800F00800F449086005F143
:1020A0000100C5B2042DFFF659AF0020F0490870B9
:1020B000F048007800F00F00EF4909780843EE4936
:1020C00008700020EB49087001F0C7FE074617F0C2
:1020D000010F08D017F0020F05D1022001F0C0FE59
:1020E000022001F001FFE5480078012809D1032012
:1020F000E3490870E3480078E34908700020DF49AD
:102100000870DF480078032841F03383DE48007808
:10211000DE490870002405E0DD48005DDD49085512
:10212000601C84B2D94800788442F5DB0020D44991
:102130000870D5490870D5480178D648FEF7C5FE25
:102140000128E1D1D348407801287CD0022807D06B
:10215000042801F08D80152841F0098301F0E9BAC7
:10216000CC48C078051100BF0DB105F00F05C94876
:10217000C078C9490870042D0ADB0F2D08D007204C
:10218000099001230A460221FEF7CAF801F0F0BACD
:10219000C2480570C2480570BE48C07800F00F0004
:1021A000012804D0022877D0082874D170E2AC4806
:1021B0000078C8B135B1012D08D0022D0AD0032D09
:1021C00010D10BE00120A54908600CE00120A549D1
:1021D000086008E00120B349086004E00120A34939
:1021E000086000E000BF02E001209C4908604FF059
:1021F000060001F0FCFE0120AB490870A54890F8EC
:1022000004A0BAF10C0F04DD03200990012008900E
:1022100036E00022A24801785046FEF745F900203A
:1022200009908D48007800F001008C4908608C48C6
:102230000078A0B188480078C0F340008949086060
:102240008548007800E0FCE3C0F380008649C1F8CF
:10225000B80181480078C0F3C000844908608E4806
:1022600080F801A04FF0000406E09048015D8A4A22
:10227000A01C1154601C84B21A2CF6DB1C200890A0
:10228000854A0221DDE90830FEF74AF8232001F0F3
:10229000AEFE29E200E0FCE30F2D1DD17D48007960
:1022A00000F00F077B480079000981490870002081
:1022B0000990384601F0BEFC022008907548C078AD
:1022C000754908707348007948700A460221DDE9B3
:1022D0000830FEF725F8DCE776480078284110F052
:1022E000010F22D00120A84072490978814371482A
:1022F00001700120A8406049097881435E4801705F
:102300001C2700240EE06C4800EB053000EB841223
:102310003B4602210020FEF703F8232001F067FE70
:10232000601C84B20C2CEEDBB3E76448405D0628E9
:1023300031DD00242CE0022040EA0510C4EBC4018A
:102340005F4A02F82100F120C4EBC40102EB8101D5
:102350004870002609E00021C4EBC400584A02EB93
:102360008002B01C1154701CC6B21A2EF3DB1C2064
:102370000890C4EBC400524901EB80020221DDE960
:102380000830FDF7CDFF232001F031FE601C84B240
:102390000C2CD0DB7DE732480078C8B135B1012D77
:1023A00008D0022D0AD0032D10D10BE001202B49BB
:1023B00008600CE001202B49086008E00120394941
:1023C000086004E001202949086000E000BF02E045
:1023D0000120224908604FF0060001F008FE304855
:1023E0000078C0EBC000374901EB400000890A28A3
:1023F0002FDD02202C49087030482949097810F84F
:10240000018000212846FEF797FC1348007800F071
:102410000100124908601248007890B10E48007817
:10242000C0F340000F4908600B480078C0F38000FB
:102430000D49C1F8B80108480078C0F3C0000B4945
:1024400008601E4816490978405C404567DD002653
:1024500063E079E0650000205A0000209481234267
:102460005B0000209C81224200802242BC812242EB
:10247000530000205D0000205C0000205602002078
:10248000CB00002058020020CA0000200C000020D1
:10249000985B0020900300200D00002063000020C6
:1024A00062000020B881224250000020D25C00204F
:1024B0006000002064000020601A002066000020F8
:1024C000D0030020B05A0020FC480078022141EAE5
:1024D0000010C1B2FA48F94A127800EB023000EB62
:1024E00086100170F121F648F44A127800EB0230B0
:1024F00000EB8610417000240BE00021F048EF4A09
:10250000127800EB023000EB8612A01C1154601C04
:1025100084B21A2CF1DB701CC6B20C2ED4DB1C2743
:1025200000240EE0E64800EB053000EB84123B4649
:1025300002210020FDF7F4FE232001F058FD601C6D
:1025400084B20C2CEEDBA2E00120DE4908700020F2
:102550000990DD48D949097810F801804FF0000A48
:1025600021E0CAF10B00C2B2D44801785046FDF711
:102570009BFFD548D1490978405C404500DD15E016
:1025800000240AE0D148015DCAEBCA00D04A02EB40
:102590008002A01C1154601C84B21A2CF2DB0AF1D8
:1025A000010000F0FF0ABAF10C0FDADB00BFC948E6
:1025B000007800F00100C8490860C848007890B170
:1025C000C4480078C0F34000C5490860C14800789D
:1025D000C0F38000C349C1F8B801BE480078C0F319
:1025E000C000C1490860B848B4490978405C40451A
:1025F00024DD00241FE0B1480078022141EA0010E8
:10260000C4EBC401B24A02F82100F120C4EBC401BA
:1026100002EB81014870002609E00021C4EBC400F0
:10262000AB4A02EB8002B01C1154701CC6B21A2EC9
:10263000F3DB601C84B20C2CDDDB14E0002410E022
:102640009E480078022141EA0010C4EBC401A04A70
:1026500002F82100C4EBC40102EB81014C70601C44
:1026600084B20C2CECDB1C2700240EE0C4EBC4006D
:10267000974901EB80023B4602210020FDF750FE06
:10268000232001F0B4FC601C84B20C2CEEDBC4E20D
:102690000020099008208B49087094480078284150
:1026A00010F0010F21D00120A84090490978814302
:1026B0008E4801700120A8408D49097881438C48DB
:1026C000017000240EE07E4800EB053000EB841220
:1026D000342302210020FDF723FE232001F087FC94
:1026E000601C84B2182CEEDB97E2774873490978B6
:1026F000405C062831DD00242CE070480078082179
:1027000041EA0010C4EBC401714A02F82100F12033
:10271000C4EBC40102EB81014870002609E00021EE
:10272000C4EBC4006A4A02EB8002B01C1154701C56
:10273000C6B2342EF3DBC4EBC400654901EB800262
:10274000342302210998FDF7EBFD232001F04FFC13
:10275000601C84B2182CD0DB5FE260480078C8B1FE
:1027600035B1012D08D0022D0AD0032D10D10BE078
:102770000120594908600CE001205949086008E02F
:1027800001205C49086004E001205749086000E02E
:1027900000BF02E00120504908604FF0060001F040
:1027A00026FC49484549097810F8018043480078DB
:1027B000C0EBC000504901EB400000890A2855DDFC
:1027C0003E4800784D4908700120FEF7C4F84148A2
:1027D000007800F00100404908604048007890B15E
:1027E0003C480078C0F340003D4908603948007813
:1027F000C0F380003B49C1F8B80136480078C0F307
:10280000C0003949086030482C490978405C40458F
:102810002BDD002627E029480078082141EA001036
:102820002749264A127801EB023101EB8611087024
:10283000F1202349214A127801EB023101EB861184
:10284000487000240BE000211D481C4A127800EB60
:10285000023000EB8612A01C1154601C84B2342C90
:10286000F1DB701CC6B2182ED5DB90E101201549B2
:10287000087000200990002769E12148C05D0C9094
:102880000E490978C1EBC1011B4A02EB41010979EC
:102890000C9860F3030109480078C0EBC00002EB1C
:1028A000400001711748017500F11403012211461F
:1028B000022001F0CFF9002610E1000062000020A4
:1028C000601A00205000002066000020D25C00202A
:1028D000D00300205A000020948123425B00002096
:1028E0009C81224200802242BC812242650000205D
:1028F0005C000020B8812242B05A00206A0000200B
:102900001BA0000868030020C6F10B00C2B2FD48FE
:1029100001783046FDF7C8FDFB48FA490978405C6C
:10292000404500DDDDE000240AE0F848015DC6EB2B
:10293000C600F74A02EB8002A01C1154601C84B24E
:102940001A2CF2DBEF4890F8009037B1012F2FD00E
:10295000022F58D0032F75D189E0002425E0C6EB63
:10296000C600EB4901EB8000022101EB4401405C11
:10297000E84901EB093101EBC611042202EB8402A4
:102980008854C6EBC600E24901EB8000032101EB4D
:102990004401405CDF4901EB093101EBC61105221E
:1029A00002EB84028854601C84B20D2CD7DB92E0C9
:1029B000002425E0C6EBC600D54901EB80000221CA
:1029C00001EB4401405CD34901EB093101EBC61135
:1029D000022202EB84028854C6EBC600CC4901EB0C
:1029E0008000032101EB4401405CCA4901EB09313D
:1029F00001EBC611032202EB84028854601C84B2EE
:102A00000D2CD7DB67E000242EE0C6EBC600C049E2
:102A100001EB8000022101EB4401405CBD4901EB68
:102A20000931012202EB460201EB8211042202EB82
:102A300084028854C6EBC600B54901EB800003212F
:102A400001E0ECE046E001EB4401405CB14901EB00
:102A50000931012202EB460201EB8211052202EB51
:102A600084028854601C84B20D2CCEDB33E0002439
:102A70002DE0C6EBC600A64901EB8000022101EB68
:102A80004401405CA34901EB0931012202EB4602FB
:102A900000E0C1E001EB8211022202EB84028854C3
:102AA000C6EBC6009A4901EB8000032101EB44010B
:102AB000405C984901EB0931012202EB460201EB2F
:102AC0008211032202EB84028854601C84B20D2C14
:102AD000CFDB00E000BF00BF701CC6B20C2EFFF6BB
:102AE00013AF00BF884887490978405C40452CDD1A
:102AF000002627E083480078082141EA0010854934
:102B0000804A127801EB023101EB86110870F12046
:102B100080497C4A127801EB023101EB8611487042
:102B200000240BE000217B48764A127800EB02304B
:102B300000EB8612A01C1154601C84B2342CF1DB13
:102B4000701CC6B2182ED5DB04E0781CC7B2042F67
:102B5000FFF693AE00BF7048007800F001006F49A7
:102B600008606F48007890B16B480078C0F340006F
:102B70006C49086068480078C0F380006A49C1F871
:102B8000B80165480078C0F3C000684908604FF09C
:102B9000000426E05B480078082141EA00105D4906
:102BA000584A127801EB023101EB84110870564843
:102BB00054490978405C404509DDF1215548514AA6
:102BC000127800EB023000EB8410417007E05149AD
:102BD0004C4A127801EB023101EB84114C70601CFD
:102BE00084B2182CD6DB002410E04A484549097805
:102BF00000EB013000EB8412342302210020FDF7AA
:102C00008FFB232001F0F3F9601C84B2182CECDB5D
:102C100000204749087000E000BF00BF27E3002004
:102C20000990012008904348C07843490870414802
:102C30008078012802DA0120099012E33D48C0782B
:102C400029285ED2DFE800F05D15294081A0BFDEB3
:102C5000F5F4F35D5D5DF2F1F05D5D5D5D5D5D5D23
:102C60005D5D5D5D5D5D5D5DEFEEEDECEBEAE95DAB
:102C7000E800002009902F48077922480078C0EB2F
:102C8000C0002E4901F810702D480770034601223C
:102C90000521022000F0DEFFE2E200200990254835
:102CA000077907F00F0017490978C1EBC101234AE2
:102CB00002EB41014870224908700B4601220421B1
:102CC000022000F0C7FFCBE20020099019480779E5
:102CD0000C480078C0EBC000184901EB4000807838
:102CE00067F3030007490978C1EBC101134A02EBFE
:102CF00041018870124908700B460122032102200D
:102D000020E0AAE26200002066000020D25C0020E1
:102D1000D0030020601A00205A0000209481234232
:102D20005B0000209C81224200802242BC81224222
:102D300050000020900300200D000020B05A002019
:102D40006803002000F086FF8AE200200990FE4818
:102D50000779FE480078C0EBC000FD4901EB400058
:102D6000C07867F30710F9490978C1EBC101F84A47
:102D700002EB4101C870F74908700B46012202219D
:102D8000084600F067FF6BE200200990EE480779E3
:102D9000EE480078C0EBC000ED4901EB4000C07880
:102DA00067F30300E9490978C1EBC101E84A02EB86
:102DB0004101C870E74908700B460122022108460C
:102DC00000F048FF4CE200200990DF480779DF4817
:102DD0000078C0EBC000DE4901EB4000807867F36B
:102DE0000710DA490978C1EBC101D94A02EB410168
:102DF0008870D84908700B4601220321022000F098
:102E000029FF2DE200200990CF480779CF480078AC
:102E1000D1490870002427E009E2F8E1E8E1CBE1BC
:102E20005EE12FE100E174E066E0BAE0C8E060E056
:102E300040E020E0C5490C70C4EBC400C44901EB7C
:102E40004000007967F30410C4EBC401C04A02EBF0
:102E500041010871BF4908700B460122114602204A
:102E600000F0F8FE601C84B2042CE3DBBA48007862
:102E7000B6490870F4E100200990B3480779B348D7
:102E80000078C0EBC000B24901EB4000007967F365
:102E90000300AE490978C1EBC101AD4A02EB410123
:102EA0000871AC4908700B4601221146022000F05F
:102EB000D1FED5E100200990A3480779A348007806
:102EC000C0EBC000A24901EB4000407967F302006B
:102ED0009E490978C1EBC1019D4A02EB410148714D
:102EE0009C4908700B4601220621022000F0B2FE28
:102EF000B6E102200990B3E10020099092480079E0
:102F000092490978C1EBC101914A02EB41018871F4
:102F1000A6E1002009900A908B4840790A908A48DF
:102F200001790A9841EA00200A90874800798B4984
:102F30000870854840794870834880798870824855
:102F4000C079C8700868002106F03EFE26D0002433
:102F50000BE08249086806F06BFEC4EBC4017C4AB2
:102F600002EB41010881601C84B2042CF1DB7B4838
:102F700001687B48006806F08FFE04D2774800683D
:102F8000774908600CE0754908684FF07E5106F0FB
:102F90001BFE05D173487249086001E006200990C4
:102FA0005EE100200990704908604FF00A0001F0CE
:102FB00003F801206D49C1F8A001FDF719FA4FE1AE
:102FC000002009906048077907F00307032F01D01C
:102FD000384600E0022066490870012F10D1012018
:102FE00064490860A1F104010860A1F104010860CE
:102FF000A1F1040108604FF00F005F49087012E072
:1030000077B900205B490860A1F104010860A1F1D3
:1030100004010860A1F1040108605749087002E04A
:103020000220534908701BE1002009900A9046488D
:1030300040790A90444801790A9841EA00200A90B0
:1030400041480079454908703F48407948703E48FA
:10305000807988703C48C079C8700868002106F003
:103060001BFF0CD23D490868444906F015FE06D204
:103070003A49086806F0DCFD4149088001E0072074
:103080000990EDE0002009900A902F4840790A90BD
:103090002D4801790A9841EA00200A902A480079CF
:1030A0002E490870284840794870274880798870F0
:1030B0002548C079C8700868002106F0EDFE0CD2E2
:1030C000264908682D4906F0E7FD06D2234908681D
:1030D00006F0AEFD2B49088001E007200990BFE013
:1030E00000200990184890F80480274880F8008054
:1030F00008F0800025490870002025490860A1F1EA
:1031000004010860234908602349C1F894011F485D
:103110000078B8B11C48007800F001001F49086031
:1031200019480078C0F340001D49C1F89C011648B9
:103130000078C0F38000C1F8B80113480078C0F3EC
:10314000C0002FE031E0000090030020620000206A
:10315000B05A00206803002063000020A000002077
:103160007800002000009643A00124420000244281
:10317000B300002098012442B20000200000FA446D
:1031800056000020580000205A0000205B0000205C
:10319000BC8122429C8122420080234294812342AE
:1031A00000802242C1F8BC0105E0F848007800F038
:1031B0000100F749086053E000200990F5480079C4
:1031C00000F00F00F44908700846007810B9FDF7C8
:1031D00008F90CE0FDF779F8EF480078FDF7E3F81F
:1031E000EE4800684FF6FF710843EC49086037E08D
:1031F00000200990E74890F80480B8F1010F02DD43
:103200000720099002E0E64880F8008028E00020CE
:103210000990E0480079042806DADE480079E1499F
:103220000870E149087001E00720099018E00020CB
:103230000990D848007900F001000790079810B174
:10324000FDF743F801E0FDF75CF80020D74908706E
:10325000D7490870D749087002E00520099000BFDF
:1032600000BFD54A0121DDE90830FDF759F87FE2BA
:103270000020099001200890C648C078CE49087007
:10328000C4488078012802DA012009904AE2C14846
:10329000C078102875D00BDC0F2873D2DFE800F05F
:1032A0007225364A5E748EA1B5C9DD727272E00075
:1032B000242868D00CDC21287AD004DC112878D0AE
:1032C00020285FD1E9E0222874D02328F9D1DAE15F
:1032D000272870D004DC25286ED02628F1D1F4E10F
:1032E00028286AD04028ECD1F8E00020099001207D
:1032F000B1490870AC480078C0EBC000AF4911F884
:103300001000AD494870022008900AE200200990A0
:103310000220A9490870A4480078C0EBC000A74962
:1033200001EB4000407800F00F00A34948700220F4
:103330000890F6E10020099003209F4908709A4800
:103340000078C0EBC0009D4901EB4000807800F0A0
:103350000F009949487002200890E2E1002009908E
:1033600004209549087090480078C0EBC00093494C
:1033700001EB4000C07800098F4948700220089096
:10338000CFE178E0CAE189E10020099005208A496F
:10339000087085480078C0EBC000884901EB400008
:1033A000C07800F00F008449487002200890B8E10E
:1033B00033E1C6E04CE193E17BE1A5E10020099017
:1033C00006207D49087078480078C0EBC0007B4932
:1033D00001EB40008078000977494870022008908E
:1033E0009FE1002009900720734908706E4800781B
:1033F000C0EBC000714901EB40000079C0F3001040
:103400006D494870022008908BE100200990082047
:103410006949087064480078C0EBC000674901EB57
:103420004000007900F00F006349487002200890C6
:1034300077E10020099009205F4908705A48007818
:10344000C0EBC0005D4901EB4000407900F007008F
:10345000594948700220089063E10220099060E118
:10346000002009900E205449087055480078487093
:103470000220089055E10020099010204E49087064
:1034800049480078C0EBC0004C4901EB400080790E
:10349000494948700220089043E10020099020200B
:1034A0004549087040490978C1EBC101434A02EB24
:1034B0004101088906F0DCFB4249086008460078B3
:1034C0003D4948703F48407888703E488078C870D1
:1034D0003C48C07808710520089022E13248007805
:1034E00030B101280AD002280ED0032818D111E0EB
:1034F0000E21012002F0B4F8834614E00F210120D0
:1035000002F0AEF883460EE00821012002F0A8F890
:10351000834608E00921012002F0A2F8834602E078
:103520004FF0000B00BF00BF00200990402022494F
:10353000087081F801B04FEA2B20887003200890B2
:10354000EFE0002009901848007830B101280AD037
:1035500002280ED0032837D111E00A21084602F0D4
:103560007FF8834633E00A210B2002F079F8834686
:103570002DE00A210C2002F073F8834627E00A218F
:103580000D2002F06DF8834621E000005A00002073
:103590009481234290030020610000201404014024
:1035A0006000002063000020620000205C0000201A
:1035B00065000020640000200D000020B05A0020AB
:1035C000B2000020A00000200720099000BF00BF2B
:1035D000584606F04DFB019006F09AF94FF066321E
:1035E000FD4BCDE9020105F0ABFFCDE9040105F08B
:1035F00061FDFA4908601120F9490870F748007820
:103600004870F64840788870F4488078C870F3486D
:10361000C07808710520089083E0002009902120DF
:10362000EF490870EF48008806F022FBEB4908607C
:1036300008460078EA494870E84840788870E748CA
:103640008078C870E548C07808710520089068E067
:10365000002009902220E2490870E348008806F023
:1036600007FBDE49086008460078DD494870DB4802
:1036700040788870D9488078C870D848C078087178
:10368000052008904DE0002009900220089023209A
:10369000D3490870D5480078487042E0002009906E
:1036A000022008902420CE490870D1480078487044
:1036B00037E00020099002200890CE480079C849E0
:1036C0000870CD48007848702BE000200990022057
:1036D00008902620C2490870C8480078487020E049
:1036E00000200990072008902720BD490870052078
:1036F0004870012088701220C870112008710620BF
:103700004871052088710CE0002009900220089083
:103710002820B34908700798487002E005200990F6
:1037200000BF00BFAE4A0421DDE90830FCF7F8FD18
:103730001EE00020099001200890AE48C078A849FA
:103740000870AC48C078012806D10870AC480078F1
:1037500048700220089002E00520099000BF00BFD9
:103760009F4A1521DDE90830FCF7DAFD00E000BFD3
:1037700000BF0D98401CC0B20D90A24800780228EE
:103780000DD1002405E0A048005DA0490855601C4B
:1037900084B206988442F6DB00209A490870FEF74E
:1037A000B4B92DE9F0478046894692461F46AA20C3
:1037B00097490870084680F8018080F80290C77029
:1037C0000425002407E01AF8040091494855601CBC
:1037D000C4B2681CC5B2BC42F5DB0026012405E07A
:1037E0008B48005D3044C6B2601CC4B2681EA04263
:1037F000F6DC172E01D1701CC6B28548465517213C
:103800000246A81C1154681C11540021E81C1154D4
:10381000002406E07E49085D7E4905F06DFB601CD2
:10382000C4B2402CF6DBBDE8F0872DE9F041044638
:103830000F4615461E4678480078012806D03346C4
:103840002A4604212046FFF7ACFF08E033462A460B
:1038500011212046FCF764FD00206F490870BDE887
:10386000F08170B56D480068C0F38314ACB10025D9
:1038700001E0681CC5B2F02DFBDB68480068C0F3AE
:10388000831467480068C0F3831634402CB1E0B25B
:1038900000F0D0F9012063490870604800684FF6D5
:1038A000FF7108435D49086070BD01205B490860F5
:1038B0005D48007840F001005B4908707047574947
:1038C000086810F4604F07D00E2101EA1031564A03
:1038D00012781143544A11705049096841F460410B
:1038E0004E4A1160704710B5012050490860504998
:1038F00008704FF00A0000F07AFB4E4B0022114690
:10390000042000F0A7F900204749087000BF46488E
:1039100000780028FBD048480078012804D0002017
:103920004249086042490870424B4FF0000211467C
:103930004FF0050000F08EF910BD10B50446284880
:1039400004700123024610210020FCF7E9FC10BDA1
:1039500070B50220394908700F20254908700024ED
:1039600023E00025364805551920C4EBC401354A2B
:1039700002EB41010881C4F10300C1B22046FDF70A
:10398000DBF92F48005DA84206DD0120A040184960
:1039900009788143164801700120C4EBC401294A0B
:1039A00002EB41010881601CC4B2042CD9DB002069
:1039B0002249087070BD2DE9F04F8BB000200490B3
:1039C0000590069007902048008820F001001E49CD
:1039D00008804FF0000ACDE066664A3FA000002054
:1039E0000D00002056000020580000205A00002042
:1039F0006100002090030020600000206200002091
:103A00005C000020DB000020D25C0020400300208E
:103A1000705A0020CC0000205602002014040140FF
:103A2000081C01405E000020080000208C01244298
:103A3000B200002068030020B300002050000020E6
:103A400066000020B05A0020100C00400A2001F04F
:103A5000E6FDADF82000BDF8200005F05DFD4FF05B
:103A60006632634BCDE9000105F06AFD0022614B2F
:103A7000CDE9020105F0F8FB06460F46049805F073
:103A800047FF804632463B4605F046FB044605F0BC
:103A900011FB04900B2001F0C2FDADF82200BDF82F
:103AA000220005F039FD4FF06632514BCDE900019F
:103AB00005F046FD064600224E4B05F0D5FB0446B8
:103AC0000D46059805F024FF804622462B4605F05A
:103AD00023FBCDE9020105F0EDFA05900C2001F081
:103AE0009EFDADF82400BDF8240005F015FD8046CC
:103AF0004FF066323E4B05F023FD00223D4BCDE9F1
:103B0000000105F0B1FB06460F46069805F000FFE0
:103B100032463B46CDE9020105F0FEFA044605F0C7
:103B2000C9FA06900D2001F07AFDADF82600BDF827
:103B3000260005F0F1FC80464FF066322C4B05F074
:103B4000FFFC064600222B4B05F08EFB04460D467B
:103B5000079805F0DDFE22462B46CDE9000105F071
:103B6000DBFACDE9020105F0A5FA07900AF10100A0
:103B70001FFA80FABAF1320FFFF668AF4FF0000A71
:103B80002FE004A951F82A001B4905F05BFF04A9A6
:103B900041F82A00194A52F82A1004AA52F82A00B9
:103BA00006F0B6F9834605F0B3FE0646144A154BF7
:103BB00005F0C6FC04460D46104951F82A0005F0F0
:103BC000A7FE804622462B4605F0A6FACDE9020163
:103BD00005F070FA094941F82A000AF101001FFABC
:103BE00080FABAF1040FCCDB0BB0BDE8F08F000017
:103BF00066660A400000B04000004842605A00205B
:103C00009A9999999999B93FC84908780021C74A62
:103C10001170C74A117070470840C44A1278824236
:103C200007D0C24A12780243C04B1A700122C04B1F
:103C30001A707047BF4909780840BC490978814229
:103C400007D0BA4909780143B84A11700121B84A2E
:103C5000117070472DE9F04180460E4615461F460B
:103C6000102D02DD0120BDE8F081B8F1020F20D057
:103C7000B8F1030F06D0B8F1040F31D0B8F1050F39
:103C80003FD134E00C2E11DA46F06000AA490870EA
:103C9000002404E0395D601CA74A1154C4B2AC4250
:103CA000F8DB691CC8B202F09BF801E00320DAE7F8
:103CB00029E0062E11DC46F040009F4908700024E0
:103CC00004E0395D601C9C4A1154C4B2AC42F8DB7C
:103CD000691CC8B202F084F801E00320C3E712E0D7
:103CE000802095490870012002F07AF80BE0FF204F
:103CF000914908701A2002F073F81A2002F0FFF8B8
:103D000001E00220AFE700BF0020ACE730B502467B
:103D10000B4600200DE0894D441C295D4FF6FF74D1
:103D200004EA01112C46245C214302F8011B841C87
:103D3000E0B29842EFDB30BD8148806940F480708A
:103D40007F4988617F4800687F4908407D49086055
:103D5000084600687D4908437A4908600846C068FB
:103D600020F07800C860704770B504460D4665B312
:103D7000012D53D10120A04075490978084223D173
:103D800034B1012C08D0022C0AD0032C10D10BE046
:103D90000120704908600CE001206F49086008E0CC
:103DA00001206E49086004E001206D49086000E0D0
:103DB00000BF00BF0A2000F01AF90120A0406449AA
:103DC000097808436249087029E00120A040604951
:103DD00009780840012820D134B1012C08D0022CE8
:103DE0000AD0032C10D10BE000205A4908600CE0E7
:103DF00000205949086008E000205849086004E0A4
:103E000000205749086000E000BF00BF0120A0402B
:103E10004F49097881434E48017000E000BF00BF60
:103E200070BD10B5044604F001004E49097888427F
:103E30000ED004F001004B49087004F00100C043AB
:103E4000494908604748007810B10A2000F0CFF8CF
:103E500010BD0020454908707047444800787047FD
:103E6000012804D0022809D0042815D10DE03F49CB
:103E7000097841F001013D4A11700EE03B49097893
:103E800041F00201394A117007E03849097841F0E0
:103E90000401364A117000E000BF00BF704710B542
:103EA00032203349087041F6FF014FF4FA6001F007
:103EB0000FF810BD10B501F01BF800202C49087058
:103EC00010BD10B500242B480068C4B254B90A20B4
:103ED00000F08DF82748006840EA0400C4B20CB92D
:103EE000012010BD0020FCE710B50446012C02D0D3
:103EF000022C0FD108E001201F4908604FF000009C
:103F00001E49C1F8BC010EE000201B490860FFF704
:103F1000C6FF08E0FFF7CEFF0020174908601749E9
:103F2000C1F8BC0100BF00BF10BD0000C0000020F0
:103F30005E00002061000020AA5C0020D25C00200E
:103F40000010024000200140FF0F00F0003033035A
:103F5000B20000208C0124429001244294012442AA
:103F600098012442C100002088812242C300002021
:103F7000C200002038012242B881234200002242C0
:103F80004FF0E021096921F004014FF0E0221161B6
:103F9000C21700EB5272C2F3C702224B1A701946C5
:103FA000097801EB4102C2EBC1114FF6FF7202EA40
:103FB000C1011D4A1180704701461A4A12784A43CE
:103FC0004FF0E0235A6100229A6101221A6100BF7A
:103FD0004FF0E022106910F0010F02D010F4803F82
:103FE000F6D000224FF0E0231A619A617047014633
:103FF0000D4A12884A434FF0E0235A6100229A6129
:1040000001221A6100BF4FF0E022106910F0010F89
:1040100002D010F4803FF6D000224FF0E0231A6166
:104020009A617047C4000020C6000020AC4A0A40D4
:104030000243AC4B1A6070470146072323EA010292
:104040001202A84B1B1D18684FF6FF031840A64B21
:1040500018431043A34B1B1D186070472DE9F04710
:104060008046894614461D462046E11704EB9171AF
:10407000C1F3870AE11704EB91718910A4EB810168
:10408000CFB2042000EBC700C7B22846FFF7D4FF29
:10409000C5F1040008FA00F60F20284100EA0900E3
:1040A000064306F00F06202C0CDA904801684FF00A
:1040B000010000FA04F041EA00014FF0E020C0F8EE
:1040C00000110DE08A480068A4F120014FF00102C0
:1040D00002FA01F240EA02004FF0E021C1F80401C7
:1040E000844850F82A0006FA07F140EA01008149A5
:1040F00041F82A00BDE8F08770B504460B46CE179C
:1041000001EB9676C6F38700CE1701EB9676B610D4
:10411000A1EB8606B606350E774B9B6943F001038B
:10412000754EB3614FEAB63353F820300F26AE40D8
:10413000B343724E46F82030334653F8203004FA29
:1041400005F61E436D4B43F820606D4B1B6801263E
:104150008E4033436A4E336012F0010F08D0684B33
:104160000C331B6801268E403343654E0C3633609A
:1041700012F0020F08D0624B08331E6801238B40F7
:104180001E435F4B08331E6070BD00B500205A49C6
:104190000861C8601520486100208861C861084630
:1041A000006840F001000860084640685549084032
:1041B0005149486008460068534908404E49086024
:1041C0000846006820F4802008600846406820F413
:1041D000FE0048600020886000214FF00060FFF77B
:1041E00025FF00BD10B53F480830006840F00400CE
:1041F0003C49083108604048C06940F080503E4961
:10420000C8614248406840F48070404948600846B0
:10421000006840F0040008600846006840F00200B2
:104220000860FCF703F810BD2F48001D2D49091D3B
:1042300008607047014649062F4A926942F0010220
:104240002D4B9A612D4A083A526822F0E0622B4BBE
:10425000083B5A601A4652680A435A60704730B5A4
:1042600004460025FFF791FF2348006840F48030A2
:104270002149086000BF20480068400CFBD04FF483
:1042800010501D494860A01EC4B20846406840EA6C
:10429000844048600846406840F4803048601C48CC
:1042A000006840F032001A4908601348006840F086
:1042B00080701149086000BF0F480068400EFBD0B5
:1042C0000D48406840F002000B49486005E00A488C
:1042D0004068C0F3870505F00305022DF7D130BD16
:1042E00080FFFF1F08ED00E00000FA0500E100E09C
:1042F00004E100E000E400E000100240080001409A
:10430000000401400000FFF8FFFFF6FE00700040CF
:1043100000200240014600BF704700BF624A128879
:1043200012F0400FFAD0C2B25F4B1B1D1A807047CB
:104330005D49098811F0200F4AD05B49091D0988A1
:10434000C8B25A49097851B90021594A1170AA28AE
:104350003ED1584908700121544A117038E0534940
:10436000097801291FD152490978402915DA5049A5
:104370000978491C4E4A11704E4912788854172802
:1043800002D10221494A11704949097805291FD1F2
:1043900047490978464A11701AE00021434A1170D2
:1043A000434A117014E041490978022910D140496B
:1043B0000978491C3E4A11703E49127888541728E2
:1043C00003D10321394A117002E00121374A1170EB
:1043D00070472DE9F05F05460E46300105F048FCB8
:1043E0008146354905FB01F005F042FC824649460D
:1043F00005F028FB0746384605F01AFC84B2204633
:1044000005F036FC8346394605F077FD82464FF0CD
:10441000834105F075FC814605F00AFC80464FF6A5
:10442000FF7000EA041404EB080084B2234880699A
:1044300040F00400214988610846806940F48040CA
:1044400088611F48006820F47F601D4908600846A5
:10445000006840F40B6008601848C06840F4804071
:104460001649C8600846C06820F48040C8600E48FD
:1044700008300480001D008842F20C0108430A49FC
:104480000C3108800846008840F480700880084697
:10449000008840F0200008800223252203210846DE
:1044A000FFF7DCFDBDE8F09F00380140CB000020A5
:1044B000CA000020985B002040420F00001002401C
:1044C0000408014010B5BC48806940F00800BA49B2
:1044D00088610846806940F010008861084680695C
:1044E00040F0040088610846806940F0400088611F
:1044F0000846806940F4807088610846806940F011
:1045000080008861AD48406820F00F00AB494860EA
:104510000846406840F0030048600846C06840F420
:104520008070C86008464068C0F3130048600846C1
:104530004068A3490843A14948600846C06820F480
:104540006040C8609C48806940F020009A498861BA
:104550009C48006820F470609A490860084600682A
:1045600040F44070086097480C30006840F0040048
:1045700094490C3108609448006820F070609249BA
:1045800008600846006840F0407008608E480830B7
:10459000006820F480408C49083108608B484068EE
:1045A00020F07040894948600846406840F040501B
:1045B00048600846C06820F40040C860084640686B
:1045C00020F0706048600846406840F00060486035
:1045D0000846C06840F48040C8607B48001F0068FF
:1045E00020F47F007849091F08600846006840F4FD
:1045F0004C10086074480830006820F030007249A0
:10460000083108606F48006820F070406D4908600C
:104610000846006840F0405008606A480C30006866
:1046200020F0800067490C3108606648001D006872
:1046300020F07F406349091D08600846006840F08B
:104640004C5008605F480C30006820F440405D49E1
:104650000C3108605B48006820F07F6059490860B1
:104660000846006840F04C70086056480C300068FE
:1046700040F0600053490C3108605348001F006847
:1046800020F07F405049091F08600846006840F04C
:10469000084008604C480830006820F0C0004A49D3
:1046A000083108604848006820F0FF00464908606B
:1046B0000846006840F088000860434808300068F9
:1046C00020F440704049083108604148006820F0FB
:1046D0000F003F4908600846006840F00800086085
:1046E0003B480C30006840F0010039490C3108604B
:1046F000022200210846FFF7FFFC022306220321C5
:104700001846FFF7ABFC33480068C0F3130031498B
:10471000086008460068304908432E4908602D4863
:104720000830006820F460402A49083108600222FD
:104730000D210420FFF7E0FC02220E210420FFF7E8
:10474000DBFC02220F210420FFF7D6FC02232822E3
:1047500003211846FFF782FC1C4800686FF30F0026
:104760001A4908601D48006820F07F401B49086016
:104770000846006840F04C50086018480C3000684B
:1047800040F0C00015490C3108601448001D006855
:1047900020F00F001149091D08600846006840F02C
:1047A000030008600D480C30006840F480700B492D
:1047B0000C31086010BD00000010024000200140D4
:1047C0000000303300140140041C0140001001407F
:1047D000000801400418014000008088000C0140DE
:1047E00010B50A20FFF703FC1748006838B91748CE
:1047F000006808B9012000E00020144908604FF06B
:1048000004001349086010BD10B50A20FFF7EFFB44
:10481000104800684FF008000D49086010BD10B541
:104820000A20FFF7E4FB0C48006838B90748006825
:1048300008B9012000E00020044908604FF0100092
:104840000349086010BD704708012342A8012442B3
:10485000140401400C0123421001234245F2555239
:104860002F4B1A601A46506091604AF6AA221A60CD
:104870004CF6CC421A6070474AF6AA2028490860D4
:10488000704770B506460C4615462648C06940F488
:1048900000602449C86124480078304022490870EB
:1048A0002248006840EAC5102049086008460068B0
:1048B0004FF6807108401D49086008460068204393
:1048C0000860081F00681849097808431749091F3C
:1048D00008600846006840F080000860022300225B
:1048E00003211846FFF7BAFB00201049091D086094
:1048F000081F006840F40070091F086070BD00F0D8
:104900007F010A4A121F1160704700B506480078FF
:10491000FFF7F5FF00200549091D086000BD0000F4
:104920000030004000100240D0000020042C004065
:10493000F948008820F00100F7490880F74800880E
:10494000002810DDF5480088401EF4490880F24830
:104950001038008840F00100EF491039088000202D
:10496000EF49087033E0EF480078022803D0ED48A3
:104970000078082828D1EA48007830B92F20E64985
:104980001C310880E44914310880E5480178012091
:104990008840E54909880843E3490880E0480078F1
:1049A000401CDF490870084600780C2808DADA480D
:1049B0001038008840F00100D7491039088006E01F
:1049C0000020D749087002E00120D74908807047CD
:1049D00070B504460D46D548C06940F00200D34981
:1049E000C861CD481C300480001F0580CA48001FE4
:1049F000008840F00100C849091F0880C6481038E7
:104A0000008840F08000C44910390880C2480088FE
:104A100020F00100C0490880BF481038008840F0ED
:104A20001000BD49103908800846008840F0080091
:104A30000880B9481430048002231D22032101207C
:104A4000FFF70CFB70BDB4491C310880B24914312A
:104A50000880704770B504460D46B448C06940F000
:104A60000400B249C861B2480480001F0580B04804
:104A70002038008840F00100AD4920390880AC485A
:104A80002C38008840F08000A9492C390880A848BB
:104A90001C38008820F00100A5491C390880A44872
:104AA0002C38008840F01000A1492C3908800846B5
:104AB000008840F0080008809D48083804800223E0
:104AC0001E2203210120FFF7C9FA70BD9849088012
:104AD000974908390880704795481C38008820F0AD
:104AE000010093491C39088092480088002810DD95
:104AF00090480088401E8F4908808D482C380088D7
:104B000040F001008A492C39088000208A49087049
:104B100032E084480078022803D0824800780828D0
:104B200027D18548007828B92F20814908808049FD
:104B30000839088080480178012088407F49098829
:104B400008437E4908807C480078401C7A490870F8
:104B5000084600780C2808DA75482C38008840F0A0
:104B6000010073492C39088006E000207249087062
:104B700002E0012071490880704770B504460D4677
:104B80006A48806940F40060684988616C48048024
:104B9000001F05806A482038008840F001006849FD
:104BA0002039088066482C38008840F0800064492D
:104BB0002C39088062481C38008820F001006049C8
:104BC0001C3908805E482C38008840F010005C4991
:104BD0002C3908800846008840F0080008805848B2
:104BE000083804800223192203210120FFF736FA36
:104BF00070BD5349088052490839088070475048B1
:104C00001C38008820F001004D491C3908804D48AF
:104C10000088002810DD4B480088401E4949088064
:104C200047482C38008840F0010045492C3908805D
:104C300000204549087032E03A480078022803D045
:104C400038480078082827D13F48007828B92F2015
:104C50003B4908803A49083908803B4801780120DF
:104C600088403A490988084338490880364800781E
:104C7000401C35490870084600780C2808DA30488E
:104C80002C38008840F001002D492C39088006E0BE
:104C900000202D49087002E001202C49088070474F
:104CA00070B504460D462148806940F400501F4904
:104CB000886127480480001F058025482038008827
:104CC00040F0010022492039088021482C38008812
:104CD00040F080001E492C3908801D481C3800888F
:104CE00020F001001A491C39088019482C38008826
:104CF00040F0100016492C3908800846008840F022
:104D00000800088012480838048002232C2203215E
:104D10000120FFF7A3F970BD10040040B800002087
:104D2000D1000020500000200000002000100240B0
:104D30002C080040BC000020D3000020040000200C
:104D40002C2C0140BA000020D200002002000020DC
:104D50002C340140A8490880A749083908807047C9
:104D6000A5481C38008820F00100A3491C390880A0
:104D7000A2480088002810DDA0480088401E9F49F6
:104D800008809D482C38008840F001009A492C3951
:104D9000088000209A49087032E09A48007802287A
:104DA00003D098480078082827D19548007828B97A
:104DB0002F2091490880904908390880904801784F
:104DC000012088409049098808438F4908808C4811
:104DD0000078401C8A490870084600780C2808DAD8
:104DE00085482C38008840F0010083492C39088020
:104DF00006E000208249087002E001208249088014
:104E0000704770B505460C468048C06940F01000F8
:104E10007E49C861681E7E498885002088840846CE
:104E20000485808940F0010088810846008840F0B0
:104E3000800008800846008A20F0010008820223D2
:104E4000362203210120FFF709F970BD70498885DA
:104E5000888470476E48008A20F001006C490882FF
:104E60006C480078401C6B490870704770B5054667
:104E70000C466648C06940F020006449C861664835
:104E80000580001F048064482038008840F001003D
:104E900061492039088060482C38008840F0800043
:104EA0005D492C3908805C481C38008820F00100DE
:104EB00059491C3908800223372203210120FFF7BA
:104EC000CDF870BD544908805349083908807047AF
:104ED00070B504460D4629462046FFF7C7FF4E48E9
:104EE0002C38008840F001004B492C39088070BDF7
:104EF00049482C38008820F0010047492C390880A7
:104F0000704710B544481C38008820F00100424921
:104F10001C39088041480078002813DD3F4800789C
:104F2000401E3E4908703E48007828B901203C499F
:104F300008703C49086015E000203949087039497B
:104F400008600FE034482C38008820F00100324916
:104F50002C3908800020324908703049087004203C
:104F6000FEF77EFF10BD70B504460D462748C069A8
:104F700040F008002549C8612B480480001F0580C7
:104F800029482038008840F001002749203908804E
:104F900025480838048024482C38008840F0100048
:104FA00021492C39088020481C38008820F0010055
:104FB0001D491C3908800223322203210120FFF7FA
:104FC0004DF819482C38008840F0010016492C395A
:104FD000088070BD1449088013490839088070475B
:104FE00010B541F61F4142F21070FFF7BCFF0020E0
:104FF0000E49087010BD00002C340140BE00002096
:10500000D4000020500000200600002000100240C4
:10501000001000407F0000202C140040C20000203F
:10502000D5000020BC0122422C0C0040D6000020FC
:10503000F0B503460C461546642093FBF0F0C6B26B
:10504000642093FBF0F700FB1730C1B2132E02DD92
:1050500001F16400C1B20846CF1701EB977701EB6D
:10506000A707BAB2072092FBF0F700FB172082B225
:105070005719601EDFF81CC41CF80000384482B2C7
:10508000CF1701EB9777BF10B1EB870703D1032C44
:1050900001DA501E82B2072092FBF0F700FB1720C6
:1050A000C0B2F0BD0146CA1701EB92729210B1EB8B
:1050B000820212D1642091FBF0F200FB121050B971
:1050C0004FF4C87091FBF0F200FB121008B90120F8
:1050D00070470020FCE70120FAE70020F8E770B5F0
:1050E000002600240025EC4806883604001D0088B0
:1050F0000644EA48B6FBF0F4E9480088A0423CD0F8
:10510000E7490C8040F2B27510E02846FFF7CAFF6D
:1051100040B1B4F5B77F02D3A4F5B77404E0681CBE
:1051200085B206E0A4F26D14681C85B2B4F5B67FB2
:10513000EBD800BFDB488580002516E0D949888878
:10514000FFF7B0FF30B1012D04D11D2C01D31D3C60
:1051500009E00CE0D448405DA04203D8D248405D4D
:10516000241A00E003E0681C85B21C2CE6D200BFC4
:10517000681CCC498871601CC871C848B6FBF0F146
:1051800000FB11644FF46160B4FBF0F0C549087096
:105190004FF46160B4FBF0F100FB11403C21B0FB27
:1051A000F1F0C04948704FF46160B4FBF0F100FBCE
:1051B00011403C21B0FBF1F201FB1200B9498870AB
:1051C0000B46DA7999799888FFF732FFB54908726A
:1051D000002070BD2DE9F04F06460F4690469946D7
:1051E000DDE909AB002440F2B270864203DB40F6F1
:1051F0003300864202DD0120BDE8F08F40F2B27537
:105200000AE02846FFF74EFF10B1A848044401E029
:10521000A7480444681C85B2B542F2DB781EC7B2C9
:10522000002510E0A048405D40F2A321484304EB74
:10523000C0143046FFF736FF18B1012D01D1974851
:105240000444681C85B2BD42ECDBA8F1010040F2C9
:10525000A321484304EBC014C9EB4910C0EB09205B
:1052600004EB0014CAEB0A1004EB80045C44914880
:10527000C06940F080508F49C8610846C06940F05D
:105280000060C8618C48006840F480708A490860FA
:1052900081481438008840F010007F491439088094
:1052A0007D49091D0C80200C091F08807A4814389C
:1052B000008820F0100078491439088000BF764833
:1052C0001438008810F0200FF9D0FFF708FF0020F5
:1052D00092E71CB5002479480088A0F5A041503918
:1052E0007ED07448C06940F080507249C861084659
:1052F000C06940F00060C8616F48006840F4807089
:105300006D4908606B48006A40F480306949086262
:105310000846006A20F4803008620846006A40F0BF
:105320000100086204E0601CC4B20A20FEF75FFEC0
:105330006048006A10F0020F01D1FA2CF3DBFA2C5E
:1053400001DB01201CBD5B48006A40F480705949B4
:1053500008620846006A40F40040086200BF4E48F8
:105360001438008810F0200FF9D000BF4A481438D4
:10537000008810F0080FF9D047481838008840F02E
:10538000010045491839088000BF43481438008897
:1053900010F0200FF9D040481438008840F0100079
:1053A0003D49143908800020091D088047F6FF7028
:1053B000091D0880372010210D230722CDE9001098
:1053C000092140F2DC70FFF705FF334814380088EC
:1053D00020F0100030491439088000BF2E4800E04A
:1053E0000CE01438008810F0200FF7D045F2500080
:1053F0003249088032A003F0F1FB18E000BF2648D4
:105400001438008810F0080FF9D0234818380088A5
:1054100040F0010020491839088000BF1E481438A8
:10542000008810F0200FF9D028A003F0D7FB02234A
:10543000032200210846FEF711FEFFF750FE002070
:1054400080E700B514481438008810F0010F01D02F
:10545000FFF745FE10481438008810F0020F07D0FF
:105460000D481438008820F002000B4914390880D8
:1054700009481438008840F6FA7108400649143982
:10548000088000BF04481438008810F0200FF9D0BD
:1054900000BD00002FA00008182800408051010026
:1054A000D8000020A05C00203BA000080085E2019D
:1054B0008033E1010010024000700040046C0040A5
:1054C00046495253542054494D450A004F4B0A0057
:1054D0006F48806940F008006D4988616D48006838
:1054E00020F0FF006B4908606948806940F01000B7
:1054F000674988616848006800F07F406649086035
:105500006348806940F40070614988610846C0685A
:1055100040F40070C8600846C06820F40070C8609D
:105520000846406820F4404048600846406840F41F
:105530008040486059480068594908405749086008
:105540000846006820F4702008600846006820F4CF
:1055500080700860081D006820F00200091D0860C6
:105560000846006820F4602008600846006840F49F
:10557000602008600846006840F480100860084613
:10558000006820F4006008600846006840F40000ED
:10559000086042482830006820F470003F492831F4
:1055A000086008460068002008603C480C3000682D
:1055B00020F0380039490C3108600846006840F096
:1055C00038000860081F006820F4E010091F086018
:1055D0000846006840F4E0100860081F006840F0CA
:1055E0000100091F08600846006840F008000860D4
:1055F00000BF2A48001D006810F0080FF9D12748A5
:10560000001D006840F004002449091D086000BF27
:105610002248001D006810F0040FF9D170470146C0
:105620001E483030006820F01F001C4A30321060E5
:1056300010460068084310601848001D006840F4D8
:105640008000164A121D106000BF1448001F006839
:1056500010F0020FF9D011484830006880B270474E
:105660002DE9F04107460C460025002608E03846A3
:10567000FFF7D5FF05440520FEF7B9FC701CC6B244
:10568000A642F4DBB5FBF4F080B2BDE8F081000087
:1056900000100240000C01400010014004240140B1
:1056A000FFFFF0002C48806940F004002A4988611F
:1056B0000846C06940F00050C8612848006820F4DE
:1056C0007020264908600846006808602448006881
:1056D00040F00100224908600846006840F00200DE
:1056E00008600846006808600846006808600846C8
:1056F000006808600846006808600846006808609E
:10570000002017490831086070472DE9F04704462A
:10571000204604F0ADFA81461249484604F092F959
:1057200081464FF08B41484604F0EAFA824604F085
:10573000EFF807464FF066320B4B03F095FD054638
:1057400003F0B8FC8146484604F072FA0449083177
:105750000860BDE8F087000000100240000801402A
:105760000074004000007A4466660A4097488069E9
:1057700040F00800954988619548006820F47F4012
:10578000934908600846006840F44C50086090480F
:105790000830006840F440608D4908310860704767
:1057A00010B58B48006820F47040894908600846AD
:1057B000006840F44050086001208649086086492E
:1057C000C1F8A8014FF00400FEF7F6FB0020814964
:1057D00008604FF00400FEF7EFFB00207E49C1F89F
:1057E000A80110BD10B57A48006820F470407849CF
:1057F00008600846006840F440500860002077497F
:1058000008607549C1F8AC014FF00400FEF7D4FB05
:105810000120724908607049C1F8AC014FF00400E2
:10582000FEF7CAFB10BD10B500246948006820F4DB
:105830007040674908600846006840F4004008600E
:10584000012064490860FEF7B7FB01206249C1F8F6
:10585000A801FEF7B1FB07E0601CC4B2FA2C03DD1F
:10586000FFF7C0FF012010BD5D4800680028F3D19C
:105870005A49086000BFF6E710B500205749086094
:105880005348006820F47040514908600846006899
:1058900040F4405008604FF000004F49C1F8AC019F
:1058A0004FF00200FEF788FB01204C4908604FF0E2
:1058B0000200FEF781FB00204749C1F8A80110BD96
:1058C00010B50020454908604148006820F4704048
:1058D0003F4908600846006840F4405008604FF0B7
:1058E00001003D49C1F8AC014FF00200FEF764FB36
:1058F00001203A4908604FF00200FEF75DFB0020EE
:105900003549C1F8A80110BD70B50446304800689B
:1059100020F470402E4908600846006840F440506A
:10592000086000202D49086005461AE0E009294971
:1059300008604FEA44604FEA10644FF00200FEF73F
:105940003BFB01202449C1F8A8010220FEF734FBEB
:105950000020224908604FF00200FEF72DFB681C72
:10596000C5B2082DE2DB70BD70B5054600241848AD
:10597000006820F47040164908600846006840F44A
:1059800000400860002616E00020144908604FF02F
:105990000200FEF711FB01200F49C1F8A8016006C3
:1059A000040E0F48006808B1601CC4B20120FEF765
:1059B00003FB701CC6B2082EE6DB15B9FFF780FFAB
:1059C00001E0FFF759FF204670BD000000100240C3
:1059D000040C0140AC81214200802142A881214277
:1059E0002C81214210B5FFF7C1FE10BD70B50446F1
:1059F0000026FFF7D5FE2546E11704EB11610912D9
:105A0000A02202EB4101C8B2FFF77EFFFFF70BFFB8
:105A1000E11704EB11610912A4EB0121C8B2FFF7F1
:105A200073FFFFF700FFFFF7BBFEA120FFF76CFF3E
:105A3000FFF7F9FE0020FFF797FF0646FFF7D2FEBB
:105A4000304670BD70B504460E46FFF7A9FE2546E8
:105A5000E11704EB11610912A02202EB4101C8B267
:105A6000FFF752FFFFF7DFFEE11704EB11610912A8
:105A7000A4EB0121C8B2FFF747FFFFF7D4FE304681
:105A8000FFF742FFFFF7CFFEFFF7ACFE0A20FEF75D
:105A9000AEFA70BD2DE9F04105460E4617460024CA
:105AA00009E0E20026FA02F2D1B22A1990B2FFF719
:105AB000C9FF601CC4B2BC42F3DBBDE8F0812DE934
:105AC000F04107460C460026002509E03602391948
:105AD000491B491E88B2FFF789FF0644681CC5B2FE
