:020000040800F2
:10000000000400203B020008490200084B020008DF
:100010004D0200084F0200085102000800000000D5
:100020000000000000000000000000005302000873
:10003000550200080000000057020008590200089D
:10004000474800085B0200085B0200082B530008C9
:100050005B0200085B0200085B0200085B0200080C
:100060001D470008454700085B4700085B02000881
:100070005B0200085B0200087F5D0008B75D0008B6
:100080005B0200085B0200085B0200085B020008DC
:10009000ED6200085B0200085B020008A939000855
:1000A0005B0200083B4B00085B0200085B02000893
:1000B000076B00086D480008154A00085B0200083D
:1000C0005B0200085B0200085B0200085B0200089C
:1000D0005B020008C94300085B0200085B020008DD
:1000E000213A00085B020008A57C00085B020008BA
:1000F0009D4C00085B0200085B0200085B020008E0
:100100005B0200085B0200086F3B00085B0200080E
:100110005B0200085B020008914D00083D4E00089C
:100120005B0200085B0200085B0200085B0200083B
:1001300000F002F800F06BF80AA090E8000C82448E
:100140008344AAF10107DA4501D100F060F8AFF26B
:10015000090EBAE80F0013F0010F18BFFB1A43F0A5
:100160000103184780910000A09100000A444FF05D
:10017000000C10F8013B13F0070408BF10F8014B06
:100180001D1108BF10F8015B641E05D010F8016B4B
:10019000641E01F8016BF9D113F0080F1EBF10F8AF
:1001A000014BAD1C0C1B09D16D1E58BF01F801CBD2
:1001B000FAD505E014F8016B01F8016B6D1EF9D555
:1001C0009142D6D37047000000230024002500266A
:1001D000103A28BF78C1FBD8520728BF30C148BFAA
:1001E0000B607047642907F0C785752907F0C4853F
:1001F000782907F0FD85632907F08187732907F0C7
:100200008687002070471FB51FBD10B510BD07F0D1
:10021000B1FF1146FFF7F7FF01F07EFB07F0CFFFBC
:1002200003B4FFF7F2FF03BC04F0C0F830BF72B6AE
:1002300062B680F30888704770470B4880470B49C7
:1002400081F308880A480047FEE7FEE7FEE7FEE77D
:10025000FEE7FEE7FEE7FEE7FEE7FEE705480649A4
:10026000044A064B7047000039020008F864002079
:1002700031010008F85C0020F8640020F85C0020E0
:10028000FE49896941F00401FC4A916138B1FC4999
:10029000096889B221F00201F94A116014E0F849B5
:1002A000096889B241F00201F54A1160F54909680F
:1002B00021F47F21F34A11601146096841F44C3161
:1002C00011600021F04A1160704710B502220D2123
:1002D000104603F05DFF02220C21104603F058FF88
:1002E00002220B21104603F053FF02220A2110467E
:1002F00003F04EFFE54800684FF6FF710843E349FD
:100300000860022328220321184603F0F3FE10BDE3
:10031000DE481438006820F47050DC491439086055
:10032000704710B5014600201CE0012282400A42BD
:100330000BD0D64A143A126800F10A0301249C40FB
:100340002243D24B143B1A600AE0D04A143A126896
:1003500000F10A0301249C40A243CC4B143B1A60D9
:10036000421CD0B20428E0DB10BDC8481438006835
:1003700020F47050C549143908607047C4490978A1
:10038000C44A117000202CE08821C0EBC002C24B8F
:1003900003F812100821C0EBC00203EB42025170B7
:1003A0008821C0EBC00203EB42029170C0EBC00297
:1003B00003EB4202D1700821C0EBC00203EB420202
:1003C00011710021C0EBC00203EB42025171012107
:1003D000C0EBC00203EB42021181B04A1180411C04
:1003E000C8B20428D0DBAB490978A94A117070471C
:1003F000AB49098821F00101A94A11800021A94ACD
:10040000117070470020A7490978042900DD0120F8
:10041000704710B504460020A249087041F61F41FC
:10042000642004F08CFC9E48008840F001009C4948
:10043000088010BD2DE9F04106460F4690469448CD
:100440000770002405E09848005D98490855601C35
:10045000C4B20B2CF7DB002432E0042C04D100BF23
:10046000934800880028FBD09048031901223146A8
:10047000032003F09FFC032C20D185490978C1EBB0
:10048000C101854A02EB4101488904F07AFA8048AB
:100490000078C0EBC000804901EB40000089401E9D
:1004A00080B27E4908808349088000208049088006
:1004B0008148008840F001007F490880601CC4B278
:1004C0000A2CCADD794B00221146042003F072FC8D
:1004D00000207A4908700320FFF79BFF002502E007
:1004E000FFF790FF05466A4801780120884073496C
:1004F0000978084201D1002DF2D00120FFF778FFE2
:1005000063480178012088406C49097808420ED080
:1005100000206A490870654B00221146052003F04F
:1005200049FC002066495A4A1278885409E045B1CE
:10053000634857490978405C401C6149544A127825
:100540008854BDE8F0812DE9F047804680205D4960
:100550000870002605E05448805D54498855701C99
:10056000C6B20B2EF7DB0027D5E05748C45D4848DC
:10057000047017B1052003F086FD0025C6E00026B3
:1005800008E04A48831901222946032003F012FC9F
:10059000701CC6B2042EF4DB002D6CD134B1012CDA
:1005A0001FD0022C38D0032C66D150E0C4EBC4011C
:1005B000394A02EB4101488904F0E3F9C4EBC40075
:1005C000354901EB40000089401E344908803A4813
:1005D000008840F001003849088000203449088034
:1005E0008DE0C4EBC4012C4A02EB4101488904F0C0
:1005F0009EFAC4EBC400284901EB40000089401E6C
:10060000324908803248008840F0010030490880B3
:1006100000203049088072E0C4EBC4011E4A02EB9E
:100620004101488904F0F0F9C4EBC4001A4901EB18
:1006300040000089401E284908802848008840F072
:1006400001002649088000202549088057E0C4EBB6
:10065000C401114A02EB4101488904F019FBC4EBC3
:10066000C4000D4901EB40000089401E1D4908806F
:100670001D4800883AE043E040E0000000100240DE
:10068000405C004004080140B001214214040140D4
:100690006200002063000020A4590020B400002064
:1006A0000010004079000020409100085C0200200A
:1006B000000000206E000020000400400800002020
:1006C00066000020740000206A000020B6000020B0
:1006D000002C014002000020B8000020000800406B
:1006E00004000020BA0000200034014040F0010066
:1006F000F94908800020F949088000E000BF00BFE8
:100700004FF4C87003F0A4FC681CC5B20C2DFFF6B2
:1007100036AF781CC7B24745FFF627AF0027E3E0A6
:10072000EF48C05DEF49087004460025D6E034B1BB
:10073000012C0CD0022C12D0032C20D117E000BFCA
:100740000120A840E84909880842F9D018E000BF14
:100750000120A840E54909880842F9D010E000BF0F
:100760000120A840E24909880842F9D008E000BF0A
:100770000120A840D94909880842F9D000E000BF0B
:1007800000BF042608E0DB48831901222946032024
:1007900003F010FB701CC6B20A2EF4DD0020D6490F
:1007A0000870D44B00222946042003F003FB0120EB
:1007B000FFF72FFE4FF0000902E0FFF723FE81460E
:1007C0000120A040CC490978084202D1B9F1000FBC
:1007D000F3D00120FFF70CFE0120A040C6490978A4
:1007E00008423BD00020C4490870C24B0022114689
:1007F000052003F0DFFA0020C0490855002610E06C
:10080000BF48815DC4EBC40000EB4000BD4A02EB71
:100810000010C5EBC50200EB8202B01C1154701C25
:10082000C6B21A2EECDB022040EA0410C4EBC4016D
:1008300001EB4101B34A02EB0111C5EBC50201F81E
:100840002200C4EBC40000EB4000AE4901EB0010F5
:10085000C5EBC50100EB810045703DE0B9F1000F2B
:100860003AD0A648005D401CA4490855002530E058
:10087000022040EA0410C4EBC40101EB4101A14A8B
:1008800002EB0111C5EBC50201F82200F120C4EB17
:10089000C40101EB41019B4A02EB0111C5EBC5020A
:1008A00001EB8201487000260FE00021C4EBC40078
:1008B00000EB4000934A02EB0010C5EBC50200EBD1
:1008C0008202B01C1154701CC6B21A2EEDDB681CDB
:1008D000C5B2182DCCDB04E0681CC5B20C2DFFF6A8
:1008E00026AF00BF781CC7B24745FFF619AFBDE879
:1008F000F0872DE9FC4780460020019000900024FD
:1009000005E08148005D7B490855601CC4B20B2C92
:10091000F7DB4FF000099BE17C4810F809A00025A7
:1009200026E06F48405D6F4908700746084600782A
:10093000C0EBC000764901EB400000796AF3030088
:1009400068490978C1EBC101714A02EB41010871A4
:100950006849087501F1140301221146022003F0D1
:1009600029FA00206549C85501A9C855681CC5B2B7
:100970004545D6DB4046FFF7E6FD002510E0584828
:10098000405D01A9085C5649495D5C4A515C88425A
:1009900004DA01205249495D0DF80100681CC5B216
:1009A0004545ECDBB9F1000F09D0B9F1010F4BD08F
:1009B000B9F1020F7ED0B9F1030F7CD1F7E0002529
:1009C0003FE04748475D002637E0002431E0C7EBB1
:1009D000C70000EB40004B4901EB0010C6EBC6011D
:1009E00000EB8100022101EB4401405C494901EB2D
:1009F000073101EBC611042202EB84028854C7EBD5
:100A0000C70000EB40003F4901EB0010C6EBC601F8
:100A100000EB8100032101EB4401405C3D4901EB07
:100A2000073101EBC611052202EB84028854601CD9
:100A3000C4B20D2CCBDB701CC6B20C2EC5DB681CFF
:100A4000C5B24545BDDBFEE0002542E02448475DD8
:100A500000263AE0002434E0C7EBC70000EB40007A
:100A6000284901EB0010C6EBC60100EB8100022112
:100A700001EB4401405C274901EB073101EBC61152
:100A8000022202EB84028854C7EBC70000EB40004F
:100A90001C4901EB0010C6EBC60100EB81000321ED
:100AA00001EB4401405C1B4901EB073101EBC6112E
:100AB000032201E030E0C5E002EB84028854601CB0
:100AC000C4B20D2CC8DB701CC6B20C2EC2DB681C75
:100AD000C5B24545BADBB6E000340140060000204F
:100AE0006A000020620000200000002002000020B8
:100AF000040000205C0200200800002066000020A6
:100B0000C65B002014140020409100084B9100089F
:100B1000A459002054190020002545E0FE48475DF7
:100B200000263DE0002437E0C7EBC70000EB4000A3
:100B3000FA4901EB0010C6EBC60100EB810002216F
:100B400001EB4401405CF64901EB0731012202EB65
:100B5000460201EB8211042202EB84028854C7EBA7
:100B6000C70000EB4000ED4901EB0010C6EBC601E9
:100B700000EB8100032101EB4401405CE84901EBFB
:100B80000731012202EB460201EB8211052202EB42
:100B900084028854601CC4B20D2CC5DB701CC6B224
:100BA0000C2EBFDB681CC5B24545B7DB4BE000250A
:100BB00045E0D948475D00263DE0002437E0C7EB1B
:100BC000C70000EB4000D54901EB0010C6EBC601A1
:100BD00000EB8100022101EB4401405CD04901EBB4
:100BE0000731012202EB460201EB8211022202EBE5
:100BF00084028854C7EBC70000EB4000C74901EBF3
:100C00000010C6EBC60100EB8100032101EB44019B
:100C1000405CC34901EB0731012202EB460201EBC4
:100C20008211032202EB84028854601CC4B20D2C92
:100C3000C5DB701CC6B20C2EBFDB681CC5B24545B7
:100C4000B7DB00E000BF00BF09F1010000F0FF09C1
:100C5000B9F1040FFFF660AE002530E0002416E085
:100C6000AD48405D082141EA0010AB49495DAC4AFE
:100C700002EB013101EB84110870A748405D114679
:100C800001EB003000EB84104470601CC4B2182CDF
:100C9000E6DBA148405D1DF8000070B100240AE0C9
:100CA000F1209D49495D9E4A02EB013101EB84111F
:100CB0004870601CC4B2182CF2DB681CC5B24545F4
:100CC000CCDBBDE8FC872DE9F04106460F46954890
:100CD0000670002405E09448005D94490855601CA6
:100CE000C4B20B2CF7DB8F490978C1EBC101904AE4
:100CF00002EB4101488903F044FE8A480078C0EBCA
:100D0000C0008B4901EB40000089401E80B2894938
:100D1000088089490880002518E0002408E08348FD
:100D2000031901222946032003F044F8601CC4B2D1
:100D3000042CF4DB45B98148008840F001007F496C
:100D4000088000207E490880681CC5B20C2DE4DBB9
:100D5000002578E000BF0120A840794909880842B1
:100D6000F9D0042408E07148031901222946032020
:100D700003F020F8601CC4B20A2CF4DD0020714995
:100D800008706A4B00222946042003F013F8012062
:100D9000FFF73FFB4FF0000802E0FFF733FB804610
:100DA000604801780120884066490978084202D1EC
:100DB000B8F1000FF1D00120FFF71AFB5948017874
:100DC000012088405F49097808422CD000205D4905
:100DD0000870564B00221146052002F0EBFF002060
:100DE0005949504A1278885400240AE05748015D56
:100DF0004B4800EB063000EB8512A01C1154601C20
:100E0000C4B21A2CF2DB022040EA0610444901EB7E
:100E1000063101EB85110870414800EB063000EB0C
:100E2000851045700DE0B8F1000F0AD046483D49E5
:100E30000978405C401CC1B243483A4A1278815458
:100E400003E0681CC5B20C2D84DB00BF17B900207D
:100E50003F490870BDE8F0812DE9F0470646894614
:100E60003048067001203A490870002726E13948C9
:100E700010F807802B480078C0EBC0002C4901EB2C
:100E80004000007968F3030026490978C1EBC101ED
:100E9000274A02EB410108712449087501F1140346
:100EA00001221146022002F085FF002501E1C5F173
:100EB0000B00C2B21B4801782846FFF7BBFA00249A
:100EC0000AE02248015DC5EBC500234A02EB80021F
:100ED000A01C1154601CC4B21A2CF2DB1148067815
:100EE00037B1012F52D0022F7DD0032F7AD1ABE042
:100EF000002448E0C5EBC500174901EB8000022142
:100F000001EB4401405C064901EB063101EBC511E0
:100F1000042202EB840221E06A0000201414002065
:100F20005419002062000020409100085C0200205B
:100F3000A4590020B40000206E00002000040040EE
:100F4000000000200800002066000020C65B002092
:100F5000500000204B910008C40200208854C5EBCB
:100F6000C500FE4901EB8000032101EB4401405C18
:100F7000FB4901EB063101EBC511052202EB8402AE
:100F80008854601CC4B20D2CB4DB8FE0002425E033
:100F9000C5EBC500F14901EB8000022101EB4401E2
:100FA000405CEF4901EB063101EBC511022202EB77
:100FB00084028854C5EBC500E84901EB8000032199
:100FC00001EB4401405CE64901EB063101EBC51140
:100FD000032202EB84028854601CC4B20D2CD7DBC0
:100FE00064E000E061E000242BE0C5EBC500DB49D4
:100FF00001EB8000022101EB4401405CD84901EB88
:101000000631012202EB450201EB8211042202EBC0
:1010100084028854C5EBC500D04901EB8000032150
:1010200001EB4401405CCE4901EB0631012202EBA9
:10103000450201EB8211052202EB84028854601CF8
:10104000C4B20D2CD1DB31E000242BE0C5EBC50090
:10105000C24901EB8000022101EB4401405CC04920
:1010600001EB0631012202EB450201EB8211022263
:1010700002EB84028854C5EBC500B84901EB80003F
:10108000032101EB4401405CB54901EB063101222B
:1010900002EB450201EB8211032202EB8402885429
:1010A000601CC4B20D2CD1DB00E000BF00BF681C87
:1010B000C5B20C2DFFF6FBAE781CC7B2042FFFF6AD
:1010C000D6AE002410E0082040EA0610A44901EB47
:1010D000063101EB84110870A14800EB063000EBEB
:1010E00084104470601CC4B2182CECDBBDE8F0879F
:1010F0002DE9F04107468846002405E09948005D47
:1011000099490855601CC4B20B2CF7DB9749097844
:10111000C1EBC101964A02EB4101488903F031FC61
:1011200092480078C0EBC000914901EB4000008973
:10113000401E80B28F4908808F49088000251CE03E
:10114000002408E08848031901222946032002F000
:1011500031FE601CC4B2042CF4DB45B9874800881A
:1011600040F00100854908800020854908804FF43F
:10117000C87002F06DFF681CC5B20C2DE0DB0025C5
:1011800076E000BF0120A8407D4909880842F9D0D7
:10119000042408E07448031901222946032002F0C0
:1011A00009FE601CC4B20A2CF4DD704801780120ED
:1011B0008840744909788143724801706A4B002263
:1011C0002946042002F0F6FD0220FFF722F900264E
:1011D00002E0FFF717F906466448017801208840CD
:1011E00068490978084201D1002EF2D00120FFF7AA
:1011F000FFF85E480178012088406249097808427A
:101200001BD00120FFF7F4F800205E490870564B10
:1012100000222946052002F0CDFD00240AE05A48AC
:10122000015DC5EBC5004D4A02EB8002A01C1154C4
:10123000601CC4B21A2CF2DB18E0BEB153484B4913
:101240000978405C401C5149484A1278885400246F
:1012500009E00021C5EBC500404A02EB8002A01C5A
:101260001154601CC4B21A2CF3DB03E0681CC5B235
:101270000C2D86DB00BFBDE8F0812DE9F047074665
:101280008A463A48077000263CE1414810F806803B
:1012900036480078C0EBC000354901EB40000079CA
:1012A00068F3030031490978C1EBC101304A02EB10
:1012B000410108712C49087501F1140301221146FE
:1012C000022002F077FD31482849097810F8019092
:1012D000C6F10300C1B225480078FFF709FF2B488B
:1012E00022490978405C484500DD0EE136B1012E07
:1012F00056D0022E7ED0032E7DD1C4E000254CE0D6
:10130000002429E0C5EBC500144901EB800002214F
:1013100001EB4401405C1249144A127801EB02319E
:1013200001EBC511042202EB84028854C5EBC50011
:101330000A4901EB8000032101EB4401405C0849AC
:101340000A4A127801EB023101EBC511052202EBCA
:1013500084028854601CC4B20D2C1BE0C40200201F
:1013600054190020409100085C0200206200002017
:10137000A4590020B40000206E00002000040040AA
:101380000000002008000020C65B0020660000204E
:101390004B910008B6DB681CC5B20C2DB0DBAEE08B
:1013A000002532E000242CE0C5EBC500F74901EB35
:1013B0008000022101EB4401405CF549F54A1278B6
:1013C00001EB023101EBC511022202EB84028854C9
:1013D000C5EBC500ED4901EB8000032101EB4401A1
:1013E000415CEB48EB4A127800EB023000EBC51091
:1013F000032201E00CE081E002EB84028154601CD6
:10140000C4B20D2CD0DB681CC5B20C2DCADB76E053
:10141000002535E000242FE0C5EBC500DB4901EBDA
:101420008000022101EB4401405CD949D94A12787D
:1014300001EB0231012202EB450201EB8211042291
:1014400002EB84028854C5EBC500D04901EB800053
:10145000032101EB4401405CCD49CE4A127801EBF7
:101460000231012202EB450201EB8211052202EB5F
:1014700084028854601CC4B20D2CCDDB681CC5B23C
:101480000C2DC7DB3BE0002535E000242FE0C5EB49
:10149000C500BE4901EB8000022101EB4401405C24
:1014A000BB49BC4A127801EB0231012202EB450232
:1014B00001EB8211022202EB84028854C5EBC500C5
:1014C000B24901EB8000032101EB4401405CB049CB
:1014D000B04A127801EB0231012202EB450201EB26
:1014E0008211032202EB84028854601CC4B20D2CCA
:1014F000CDDB681CC5B20C2DC7DB00E000BF00BF10
:10150000701CC6B2042EFFF6C0AE00BF002416E069
:10151000A0480078082141EA00109D499D4A1278B0
:1015200001EB023101EB841108709948994909785F
:1015300000EB013000EB84104470601CC4B2182C26
:10154000E6DBBDE8F0872DE9F04104460F469148FF
:101550000470012090490870002530E08F488D49C3
:10156000097810F801803A4621462846FEF762FFC6
:101570008A4888490978405C404500DD21E0022026
:1015800040EA0410824901EB043101EB8511087037
:101590007F4800EB043000EB8510457000260AE020
:1015A0007F48815D7A4800EB043000EB8512B01C67
:1015B0001154701CC6B21A2EF2DB681CC5B20C2D79
:1015C000CCDB00BFBDE8F0812DE9F04780468020EC
:1015D00074490870002605E07348805D734988559A
:1015E000701CC6B20B2EF7DB00279BE07048C45D71
:1015F0006848047017B1052002F045FD00258CE015
:10160000002608E06948831901222946032002F0D8
:10161000D1FB701CC6B2042EF4DB002D77D134B19F
:10162000012C1FD0022C38D0032C6ED150E0C4EB1B
:10163000C401604A02EB4101488903F0A2F9C4EBFE
:10164000C4005C4901EB40000089401E5A490880F3
:101650005A48008840F00100584908800020584945
:10166000088053E0C4EBC401524A02EB41014889AF
:1016700003F05DFAC4EBC4004E4901EB4000008961
:10168000401E504908805048008840F001004E49F3
:10169000088000204D49088038E0C4EBC401454A69
:1016A00002EB4101488903F0AFF9C4EBC4004149A2
:1016B00001EB40000089401E4549088045480088EC
:1016C00040F00100434908800020434908801DE0A4
:1016D000C4EBC401374A02EB4101488903F0D8FA50
:1016E000C4EBC400334901EB40000089401E3B4974
:1016F00008803B48008840F00100394908800020FC
:101700003849088002E002E0FFE700BF00BF4FF465
:10171000C87002F09DFC681CC5B20C2DFFF670AFBE
:10172000781CC7B24745FFF661AF0027EFE02048BD
:10173000C05D1849087004460025E2E034B1012C70
:101740000CD0022C12D0032C4ED117E000BF012088
:10175000A8401B4909880842F9D046E000BF012093
:10176000A8401A4909880842F9D03EE000BF01208C
:10177000A840194909880842F9D036E000BF012085
:10178000A840184909880842F9D02EE0C402002078
:101790005419002062000020500000206600002044
:1017A000C65B002074000020409100085C0200200D
:1017B0006A000020A4590020B4000020000400406A
:1017C00000000020B6000020002C01400200002094
:1017D000B80000200008004004000020BA000020EB
:1017E000003401400600002000BF00BF042608E0CE
:1017F000F948831901222946032002F0DBFA701C04
:10180000C6B20A2EF4DD0020F4490870F24B002223
:101810002946042002F0CEFA0120FEF7FAFD4FF02F
:10182000000902E0FEF7EEFD81460120A040EB49F1
:101830000978084202D1B9F1000FF3D00120FEF778
:10184000D7FD0120A040E549097808422AD00020B0
:10185000E2490870E04B00221146052002F0AAFA86
:101860000020DF49085500260AE0DE48815DDE4899
:1018700000EB043000EB8512B01C1154701CC6B292
:101880001A2EF2DB022040EA0410D74901EB0431A2
:1018900001EB85110870D44800EB043000EB851093
:1018A00045702CE0B9F1000F29D0CD48005D401CF7
:1018B000CB49085500251FE0022040EA0410CA4920
:1018C00001EB043101EB85110870F120C64901EBF1
:1018D000043101EB85114870002609E00021C2485F
:1018E00000EB043000EB8512B01C1154701CC6B222
:1018F0001A2EF3DB681CC5B2182DDDDB04E0681C72
:10190000C5B20C2DFFF61AAF00BF781CC7B2474511
:10191000FFF60DAFBDE8F0879CB00020189000BF27
:1019200015900120139012900020119010900F90AC
:1019300001200E9000BF00BF00200C900D901B9066
:10194000092002F0D8FC482002F066FB04F000F900
:10195000002414E02F20C4EBC401A44A02EB41018F
:1019600088810120C4EBC40102EB4101088164209D
:10197000C4EBC40102EB41014881601C84B2042C19
:10198000E8DB00209A4908709849488940F2CF2145
:1019900002F0BCFF9549488940F2CF2103F08BF853
:1019A0009249488940F2CF2102F0F2FF8F494889DD
:1019B00040F2CF2103F012F900208E4908808E48B2
:1019C000008840F001008C49088000BF89480088E9
:1019D0000028FBD00020874908800120FEF719FD70
:1019E00000BFFEF70FFD0028FBD00120FEF700FD31
:1019F00003F0E2FCFEF7C2FC0F9808230422114614
:101A00000090012004F024FA02F0A8FD02F044FA4C
:101A100000207A4908707A4908707A4908607A4942
:101A2000086001F104010860784908604FF0010086
:101A3000774908704FF00F00764908704FF00100A9
:101A40007549086075490860A1F10401086074498E
:101A500008604FF000007349C1F8A4014FF00A007C
:101A600002F0F6FA01207049086003F032FA002013
:101A70006E49C8608860486008600024A6E000BF26
:101A80000A2003F040FD8346584607F089F901908B
:101A900006F0D6FF4FF06632654BCDE9020106F045
:101AA000E7FD0022634BCDE9040106F075FCCDE9AA
:101AB00008015E49086806F0C3FFCDE90601DDE9CB
:101AC000082306F0C1FBCDE90A0106F08BFB57495C
:101AD00008600B2003F017FD8346584607F060F9B5
:101AE000019006F0ADFF4FF06632514BCDE9020197
:101AF00006F0BEFD00224F4BCDE9040106F04CFC80
:101B0000CDE908014949486806F09AFFCDE9060188
:101B1000DDE9082306F098FBCDE90A0106F062FB37
:101B2000424948600C2003F0EEFC8346584607F01B
:101B300037F9019006F084FF4FF066323C4BCDE957
:101B4000020106F095FD00223A4BCDE9040106F0B2
:101B500023FCCDE908013549886806F071FFCDE91D
:101B60000601DDE9082306F06FFBCDE90A0106F066
:101B700039FB2E4988600D2003F0C5FC834658468A
:101B800007F00EF9019006F05BFF4FF06632284B2C
:101B9000CDE9020106F06CFD0022264BCDE90401DF
:101BA00006F0FAFBCDE908012049C86806F048FFB5
:101BB000CDE90601DDE9082306F046FBCDE90A017F
:101BC00006F010FB1949C860601C84B2042CFFF6B3
:101BD00056AF00243CE000005C020020080000201A
:101BE00066000020C65B002054190020A459002084
:101BF000D500002000000020000400405B00002011
:101C00005A00002088012142800121428C0121429A
:101C1000AF000020AE00002098012242AC8121429A
:101C20009001214200002142A40121425459002088
:101C300066660A400000B040FC4951F824004FF0AD
:101C4000814106F097FFF94941F82400601C84B2F5
:101C5000042CF1DB01F003BEF548007803281BD00B
:101C6000F448007888B10020F249087002F08AF840
:101C70001890F148007818990843EF490870EC482B
:101C8000007810B90120EA490870E9480078012875
:101C900003D10220E64908706AE2E548007802288C
:101CA000FAD10320E2490870E348077800250024B0
:101CB00009E00120A040384203D0E0494C55681C9F
:101CC000C5B2601C84B2042CF3DB002DE4DD0020DF
:101CD000DB4908700846007800286FD0D9480078A2
:101CE000C0B117F0010F02D00120D749086017F0EA
:101CF000020F02D00120D549086017F0040F02D06E
:101D00000120D349086017F0080F06D00120D149FF
:101D1000086002E00120CC4908604FF0080002F0A2
:101D2000B2F9CD480078A8B90220CC4908702846FD
:101D3000FFF74AFC00240AE0C048015D012088400A
:101D4000C74909780843C6490870601C84B2AC4290
:101D5000F2DB14E00820C14908702846FEF7C9FDEF
:101D600000240AE0B548015D01208840BD4909789A
:101D70000843BC490870601C84B2AC42F2DBBA482C
:101D8000007800F00100B0490860AE4800780028F3
:101D900012D0B548007800F00200AC490860B248A3
:101DA000007800F00400B149C1F88401AE48007821
:101DB00000F00800A7490860CBE1FFE7A6480078DB
:101DC000002872D100250CE10120A84038426BD0D8
:101DD0009C480078C0B335B1012D10D0022D1AD027
:101DE000032D24D000BF0120974908609E48007849
:101DF00010F0010F02D1082002F045F923E0012084
:101E0000924908609848007810F0020F02D108202B
:101E100002F039F917E001208D49086092480078F6
:101E200010F0040F02D1082002F02DF90BE0012080
:101E3000884908608C48007810F0080F02D108200B
:101E400002F021F900BF07E0FFE701207E490860AA
:101E50004FF0080002F017F98548405D062825DD9F
:101E600000261FE0022040EA0510824901EB0531FF
:101E700001EB86110870F1207E4901EB053101EB81
:101E800086114870002409E000217A4800EB0530F3
:101E900000EB8612A01C1154601C84B21A2CF3DBD8
:101EA000701CC6B2182EDDDB7CE09EE002206B4980
:101EB0000870C5EBC500704901EB400000890A2895
:101EC00038DD6B4810F80580681C47FA00F1284699
:101ED000FEF7F9FE6648405D404523DD00261FE021
:101EE000022040EA0510634901EB053101EB861140
:101EF0000870F1205F4901EB053101EB8611487054
:101F0000002409E000215B4800EB053000EB86125D
:101F1000A01C1154601C84B21A2CF3DB701CC6B2D6
:101F2000182EDDDB0120A8404D49097808434C49B3
:101F3000087037E04E4810F80580681C47FA00F139
:101F40002846FFF700FB0120A840454909780843CF
:101F5000434908704648405D404523DD00261FE0A8
:101F6000022040EA0510434901EB053101EB8611DF
:101F70000870F1203F4901EB053101EB86114870F3
:101F8000002409E000213B4800EB053000EB8612FD
:101F9000A01C1154601C84B21A2CF3DB701CC6B256
:101FA000182EDDDB3048007800F00100264908607B
:101FB0002448007890B12C48007800F002002349B2
:101FC00008602948007800F004002849C1F884011D
:101FD0002548007800F008001E49086005F101005E
:101FE000C5B2042DFFF6F0AEB3E008201B4908701F
:101FF0000025ABE00120A84038427AD01148007893
:1020000098B135B1012D39D0022D43D0032D4DD0DB
:1020100000BF01200C4908601348007810F0010F40
:1020200002D1082002F02FF84CE04CE05459002077
:10203000530000205E0000205D0000206A000020A8
:10204000740000205B0000208C01214288012142A5
:1020500084012142800121426000002050000020C4
:1020600064000020650000205A000020000021428A
:102070006600002054190020A45900200120FD49C9
:102080000860FD48007810F0020F02D1082001F02E
:10209000FAFF17E00120F9490860F748007810F0CE
:1020A000040F02D1082001F0EEFF0BE00120F449FB
:1020B0000860F148007810F0080F02D1082001F004
:1020C000E2FF00BF06E00120EE4908604FF0080083
:1020D00001F0D9FFC5EBC500EB4901EB40000089D9
:1020E0000A2807DD681C47FA00F12846FFF7C5F803
:1020F00006E028E0681C47FA00F12846FEF7ACFE2F
:102100000120A840E14909780843E0490870DA480D
:10211000007800F00100DB490860DD48007890B1EC
:10212000D548007800F00200D2490860D248007813
:1021300000F00400D749C1F88401CF48007800F0CE
:102140000800CF49086005F10100C5B2042DFFF673
:1021500051AF0020D0490870D048007800F00F003F
:10216000CF4909780843CE4908700020CB49087050
:10217000119868B110980A2806DD0020109011907F
:1021800001200E90129003E01098401CC0B21090F5
:10219000C4480078A8B30020C2490870C24800783B
:1021A000C0F303101390C048007800F00F0112989C
:1021B00081423BD1002409E0BC48025D0E98411CDD
:1021C000C9B20E91BA490A54601C84B2B948007869
:1021D0008442F1DBAA20B6490870B348007800F0C9
:1021E0000F01139881420DD300201190109001200F
:1021F00012900320B0490870B0490E980870012071
:102200000E901FE0012011901298401CC0B2129055
:1022100000208DF83000A74800788DF831000222A8
:10222000A14801680CA804F090F80BE003208DF899
:10223000300012988DF8310002229B4801680CA8EA
:1022400004F083F89C480078032841F0F2829B4810
:1022500000789B49087000209749087097490870DA
:102260009348407801287DD0022807D0042801F047
:102270005680152841F0DB8201F0BBBA8C48C0784B
:10228000051100BF0DB105F00F058948C0788D49D3
:102290000870042D0BDB0F2D09D0072017900123A8
:1022A0000A460221179804F073F801F0C1BA864873
:1022B0000570864805707E48C07800F00F00012840
:1022C00004D0022877D0082874D172E270480078D0
:1022D000C8B135B1012D08D0022D0AD0032D10D17F
:1022E0000BE00120674908600CE0012061490860AB
:1022F00008E001206149086004E0012060490860AD
:1023000000E000BF02E001205E4908604FF00600D7
:1023100001F0B9FE01206E490870654890F804A0EC
:10232000BAF10C0F04DD032017900120169036E05F
:102330000022664801785046FEF77CF8002017908E
:102340004D48007800F001004E4908605048007880
:10235000A0B149480078C0F34000464908604648AB
:10236000007800E0FDE3C0F380004A49C1F8840131
:1023700041480078C0F3C00041490860514880F8E6
:1023800001A04FF0000406E05248015D4D4AA01C38
:102390001154601C84B21A2CF6DB1C201690494A9A
:1023A0000221DDE9163003F0F3FF062001F06BFE99
:1023B0002BE200E0FDE30F2D1DD13D48007900F038
:1023C0000F073B4800790009434908700020179027
:1023D000384601F0DFFC022016903548C0783949B4
:1023E00008703348007948700A460221DDE916304A
:1023F00003F0CEFFDCE739480078284110F0010FE8
:1024000022D00120A8403549097881433348017022
:102410000120A840224909788143214801701C27E6
:1024200000240EE02E4800EB053000EB84123B4602
:102430000221002003F0ACFF062001F024FE601C06
:1024400084B20C2CEEDBB3E72648405D06286DDD38
:10245000002468E0022040EA0510C4EBC401224ACF
:1024600002F82100F120C4EBC40102EB81014870A5
:10247000002645E0880121425A00002084012142C3
:10248000800121428C012142A459002065000020D6
:102490005B00002000002142530000205D0000206E
:1024A0005C000020D8000020E4000020D9000020BB
:1024B00084020020EA000020C7000020C60000209F
:1024C0000C0000200D0000206300002062000020AE
:1024D00050000020C65B0020600000206400002047
:1024E0005419002066000020C40200200021C4EB23
:1024F000C400FE4A02EB8002B01C1154701CC6B22C
:102500001A2EF3DB1C201690C4EBC400F74901EB34
:1025100080020221DDE9163003F03AFF062001F0C7
:10252000B2FD601C84B20C2C94DB41E7F0480078CB
:10253000C8B135B1012D08D0022D0AD0032D10D11C
:102540000BE00120EB4908600CE00120EA4908603B
:1025500008E00120E949086004E00120E84908603A
:1025600000E000BF02E00120E24908604FF00600F1
:1025700001F089FDE3480078C0EBC000E24901EBBF
:10258000400000890A2870DD0220E0490870E04818
:10259000DC49097810F8018000212846FEF793FBFA
:1025A000DC48007800F00100D2490860D04800788B
:1025B00090B1D8480078C0F34000CF490860D548B2
:1025C0000078C0F38000D449C1F88401D148007874
:1025D000C0F3C000CA490860CD48CA490978405CC8
:1025E00040452CDD002628E0C6480078022141EA5B
:1025F0000010C1B2C948C34A127800EB023000EBA8
:1026000086100170F120C549BE4A127801EB0231F3
:1026100001EB8611487000240BE00021BF48B94A45
:10262000127800EB023000EB8612A01C1154601CE3
:1026300084B21A2CF1DB701CC6B20C2ED4DB1C2722
:1026400000240EE0B54800EB053000EB84123B4659
:102650000221002003F09CFE062001F014FD601C06
:1026600084B20C2CEEDBA3E0FFE70120A749087041
:1026700000201790A648A349097810F801804FF070
:10268000000A21E0CAF10B00C2B29E480178504610
:10269000FDF7D0FE9E489B490978405C404500DD2F
:1026A00015E000240AE09E48015DCAEBCA008F4A8B
:1026B00002EB8002A01C1154601C84B21A2CF2DBC5
:1026C0000AF1010000F0FF0ABAF10C0FDADB00BFDB
:1026D0009048007800F0010086490860844800783E
:1026E00090B18C480078C0F3400083490860894865
:1026F0000078C0F380008849C1F8840185480078DB
:10270000C0F3C0007E49086081487E490978405C7A
:10271000404524DD00241FE07A480078022141EA88
:102720000010C4EBC401714A02F82100F120C4EB8F
:10273000C40102EB81014870002609E00021C4EBCE
:10274000C4006A4A02EB8002B01C1154701CC6B26D
:102750001A2EF3DB601C84B20C2CDDDB14E00024A9
:1027600010E068480078022141EA0010C4EBC4017F
:102770005E4A02F82100C4EBC40102EB81014C70F7
:10278000601C84B20C2CECDB1C2700240EE0C4EB94
:10279000C400564901EB80023B460221002003F0B1
:1027A000F7FD062001F06FFC601C84B20C2CEEDB00
:1027B000E2E2002017900820544908705948007838
:1027C000284110F0010F21D00120A8405549097877
:1027D0008143544801700120A8405349097881433E
:1027E0005148017000240EE04C4800EB053000EB2E
:1027F000841234230221002003F0CAFD062001F0D8
:1028000042FC601C84B2182CEEDBB5E240483D4926
:102810000978405C062831DD00242CE03948007836
:10282000082141EA0010C4EBC401304A02F821003B
:10283000F120C4EBC40102EB81014870002609E0DD
:102840000021C4EBC400294A02EB8002B01C1154E1
:10285000701CC6B2342EF3DBC4EBC400234901EB79
:10286000800234230221179803F092FD062001F024
:102870000AFC601C84B2182CD0DB7DE21C48007876
:10288000C8B135B1012D08D0022D0AD0032D10D1C9
:102890000BE00120174908600CE001201649086090
:1028A00008E001201549086004E00120144908608F
:1028B00000E000BF02E001200E4908604FF0060072
:1028C00001F0E1FB12480F49097810F801800D482A
:1028D0000078C0EBC0000C4901EB400000890A28D9
:1028E0007BDD084800781149087021E0C40200200F
:1028F0005B0000208C012142880121428401214299
:102900008001214262000020A459002050000020D4
:10291000660000205A0000200000214254190020C7
:10292000C65B0020650000205C0000206A000020DB
:102930000120FDF7DEFFFE48007800F00100FD49B0
:102940000860FD48007898B1F9480078C0F340006D
:10295000A1F104010860F6480078C0F38000F7494F
:10296000C1F88401F2480078C0F3C000F44908605F
:10297000F448F5490978405C40452CDD002628E004
:10298000F1480078082141EA0010C1B2EF48EE4A50
:10299000127800EB023000EB86100170F121EB4859
:1029A000E94A127800EB023000EB861041700024F7
:1029B0000BE00021E548E44A127800EB023000EB1E
:1029C0008612A01C1154601C84B2342CF1DB701CE4
:1029D000C6B2182ED4DB6BE1FFE70120DC4908709A
:1029E00000201790002742E1DA48C05D1A90D649CE
:1029F0000978C1EBC101D84A02EB410109791A9863
:102A000060F30301D0480078C0EBC00002EB400047
:102A10000171D248017500F1140301221146022010
:102A200001F0C8F90026E9E0C6F10B00C2B2C648C1
:102A300001783046FDF7FEFCC248C3490978405C86
:102A4000404500DDDDE000240AE0C548015DC6EB3D
:102A5000C600C44A02EB8002A01C1154601C84B260
:102A60001A2CF2DBB84890F8009037B1012F2FD024
:102A7000022F58D0032F75D189E0002425E0C6EB42
:102A8000C600B84901EB8000022101EB4401405C23
:102A9000AE4901EB093101EBC611042202EB8402BD
:102AA0008854C6EBC600AF4901EB8000032101EB5F
:102AB0004401405CA54901EB093101EBC611052237
:102AC00002EB84028854601C84B20D2CD7DB92E0A8
:102AD000002425E0C6EBC600A24901EB80000221DC
:102AE00001EB4401405C994901EB093101EBC6114E
:102AF000022202EB84028854C6EBC600994901EB1E
:102B00008000032101EB4401405C904901EB093155
:102B100001EBC611032202EB84028854601C84B2CC
:102B20000D2CD7DB67E000242EE0C6EBC6008D49F4
:102B300001EB8000022101EB4401405C834901EB81
:102B40000931012202EB460201EB8211042202EB61
:102B500084028854C6EBC600824901EB8000032141
:102B600001E00BE146E001EB4401405C774901EBF9
:102B70000931012202EB460201EB8211052202EB30
:102B800084028854601C84B20D2CCEDB33E0002418
:102B90002DE0C6EBC600734901EB8000022101EB7A
:102BA0004401405C694901EB0931012202EB460214
:102BB00000E0E0E001EB8211022202EB8402885483
:102BC000C6EBC600674901EB8000032101EB44011D
:102BD000405C5E4901EB0931012202EB460201EB48
:102BE0008211032202EB84028854601C84B20D2CF3
:102BF000CFDB00E000BF00BF701CC6B20C2EFFF69A
:102C000013AF00BF4F4850490978405C40452CDD68
:102C1000002627E04C480078082141EA00104B4983
:102C2000494A127801EB023101EB86110870F1205C
:102C30004649454A127801EB023101EB8611487092
:102C400000240BE0002141483F4A127800EB02309B
:102C500000EB8612A01C1154601C84B2342CF1DBF2
:102C6000701CC6B2182ED5DB04E0781CC7B2042F46
:102C7000FFF6BAAE00BF2E48007800F001002D49E3
:102C800008602D48007898B129480078C0F34000CA
:102C9000A1F10401086026480078C0F380002749AC
:102CA000C1F8840122480078C0F3C00024490860BC
:102CB0004FF0000427E024480078082141EA001082
:102CC000C1B22248204A127800EB023000EB841097
:102CD00001701C481C490978405C404509DDF12021
:102CE0001A49194A127801EB023101EB841148703C
:102CF00007E01649144A127801EB023101EB841106
:102D00004C70601C84B2182CD5DB00242DE00F48D9
:102D10000D49097800EB013000EB841234230221C5
:102D2000002003F035FB062001F0ADF9601C1BE02C
:102D30005A0000208C0121425B000020000021424B
:102D4000800121426600002062000020541900200A
:102D5000500000204B910008A45900205C02002084
:102D6000C65B0020C402002084B2182CCFDB0020F8
:102D7000F849087000E000BF00BFCFE200201790C4
:102D800001201690F448C078F4490870F248807821
:102D9000012802DA01201790BAE2EF48C07829280A
:102DA0007DD2DFE800F07C1529405F809FBEF3F103
:102DB000F07C7C7CEFEEED7C7C7C7C7C7C7C7C7C89
:102DC0007C7C7C7C7C7CECEBEAE9E8E7E67CE5005B
:102DD00000201790E0480779E1480078C0EBC00078
:102DE000E04901F81070E048077003460122052110
:102DF000022000F0DFFF8AE200201790D648077912
:102E000007F00F00D6490978C1EBC101D54A02EBA2
:102E100041014870D44908700B4601220421022068
:102E200000F0C8FF73E200201790CB480779CC4828
:102E30000078C0EBC000CB4901EB4000807867F31D
:102E40000300C7490978C1EBC101C64A02EB410141
:102E50008870C54908700B4601220321022000F04A
:102E6000A9FF54E200201790BB480779BC480078BE
:102E7000C0EBC000BB4901EB4000C07867F307100E
:102E8000B7490978C1EBC101B64A02EB4101C870EC
:102E9000B54908700B4601220221084600E033E2E2
:102EA00000F088FF33E200201790AB480779AC4868
:102EB0000078C0EBC000AB4901EB4000C07867F37D
:102EC0000300A7490978C1EBC101A64A02EB410101
:102ED000C870A54908700B4601220221084600F07F
:102EE00069FF14E2002017909B4807799C480078FE
:102EF000C0EBC0009B4901EB4000807867F30710EE
:102F000097490978C1EBC101964A02EB41018870EB
:102F1000954908700B4601220321022000F04AFF68
:102F2000F5E1002017908C4807798D4800788F498B
:102F300008708B480078C0EBC0008A4901EB400064
:102F4000007967F3041086490978C1EBC101854A0D
:102F500002EB41010871844908700B4601221146B9
:102F6000022000F027FF814800787D490870CEE1FB
:102F7000B4E1A3E193E176E139E10DE1BEE053E094
:102F800045E07CE08AE03FE01FE0FFE7002017908B
:102F90007148077972480078C0EBC000714901EBB5
:102FA0004000007967F303006D490978C1EBC10166
:102FB0006C4A02EB410108716B4908700B46012213
:102FC0001146022000F0F6FEA1E1002017906248B1
:102FD000077963480078C0EBC000624901EB40000C
:102FE000407967F302005E490978C1EBC1015D4A8F
:102FF00002EB410148715C4908700B460122062131
:10300000022000F0D7FE82E1022017907FE100202D
:1030100017905148007952490978C1EBC101514AD2
:1030200002EB4101887172E10020179083464A4803
:1030300090F805B0007940EA0B2B474800794C49DD
:103040000870454840794870434880798870424804
:10305000C079C8700868002105F04EFE0CD04449C4
:10306000086805F07DFE3E490978C1EBC1013D4A83
:1030700002EB4101088101E00620179047E10020A2
:1030800017903C4908604FF00A0000F0E1FF012072
:103090003949C1F8A401FDF771F938E10020179012
:1030A0002D48077907F00307032F01D0384600E0C9
:1030B000022032490870012F0ED1012030490860EA
:1030C00030490860A1F1040108602F4908604FF001
:1030D0000F002E49087010E067B9002028490860E9
:1030E00028490860A1F104010860274908602749C0
:1030F000087002E002202149087008E100201790C2
:103100008346154890F805B0007940EA0B2B124829
:103110000079174908701048407948700E48807946
:1031200088700D48C079C8700868002105F04CFF10
:103130000CD20F490868164905F046FE06D20C4924
:10314000086805F00DFE1349088001E0072017907C
:10315000DDE0000050000020840200200D0000206F
:1031600062000020A45900205C02002063000020BF
:103170009C000020A401214200002142AF00002059
:1031800098012242AC81214290012142AE000020F0
:103190000000FA4456000020002017908346FB48A8
:1031A00090F805B0007940EA0B2BF8480079F8490F
:1031B0000870F64840794870F44880798870F34880
:1031C000C079C8700868002105F0FEFE0CD2F049F5
:1031D0000868F04905F0F8FD06D2ED49086805F0E9
:1031E000BFFDED49088001E0072017908FE0002027
:1031F0001790E64890F80480E84880F8008008F0CE
:103200008000E74908700020E649086001F10401E8
:10321000086001F104010860E349C1F88C01E0484D
:103220000078C8B1DD48007800F00100DF4908608F
:10323000DA480078C0F34000DB49C1F88801D7487C
:103240000078C0F38000C1F88401D4480078C0F34E
:10325000C000C1F8800105E0D048007800F001000E
:10326000D249086053E000201790C848007900F068
:103270000F00CF4908700846007810B9FDF775F8BF
:103280000CE0FDF722F8CA480078FDF74AF8C94873
:1032900000684FF6FF710843C649086037E0002018
:1032A0001790BA4890F80480B8F1010F02DD0720AA
:1032B000179002E0C04880F8008028E000201790B6
:1032C000B2480079042806DAB0480079BB49087092
:1032D000BB49087001E00720179018E00020179004
:1032E000AA48007900F001001590159810B1FCF77C
:1032F000ECFF01E0FDF70CF80020B2490870B2497C
:103300000870B249087002E00520179000BF00BFA6
:10331000AF4A0121DDE9163003F03AF888E20020D7
:103320001790012016909948C078A94908709748CD
:103330008078012802DA0120179053E29348C07880
:10334000102875D00BDC0F2873D2DFE800F072254F
:10335000364A5E748EA1B5C9DD727272E00024280F
:1033600068D00CDC21287AD004DC112878D0202801
:103370005FD1E9E0222874D02328F9D1E4E127289D
:1033800070D004DC25286ED02628F1D1FEE1282853
:103390006AD04028ECD121E10020179001208C490F
:1033A000087087480078C0EBC0008A4911F8100007
:1033B000874948700220169013E2002017900220DF
:1033C000834908707E480078C0EBC000814901EB5A
:1033D0004000407800F00F007D49487002201690B0
:1033E000FFE10020179003207949087074480078A5
:1033F000C0EBC000774901EB4000807800F00F007F
:103400007349487002201690EBE1002017900420C9
:103410006F4908706A480078C0EBC0006D4901EB45
:103420004000C07800096A49487002201690D8E12F
:1034300078E0D3E193E100201790052064490870FB
:103440005F480078C0EBC000624901EB4000C078E3
:1034500000F00F005E49487002201690C1E13DE186
:10346000EFE056E19DE185E1AEE1002017900620F6
:103470005749087052480078C0EBC000554901EB2D
:103480004000807800095249487002201690A8E157
:103490000020179007204E49087049480078C0EB7B
:1034A000C0004C4901EB40000079C0F300104849CE
:1034B00048700220169094E100201790082044499B
:1034C00008703F480078C0EBC000424901EB400063
:1034D000007900F00F003E4948700220169080E10C
:1034E0000020179009203A49087035480078C0EB51
:1034F000C000384901EB4000407900F00700344932
:103500004870022016906CE10220179069E10020BB
:1035100017900E202E4908702F480078487002201E
:1035200016905EE100201790102029490870244869
:103530000078C0EBC000274901EB400080792449A6
:103540004870022016904CE100201790202020495E
:1035500008701B490978C1EBC1011E4A02EB410109
:10356000088905F01DFC0A490860084600781849DA
:10357000487007484078887005488078C8700448CB
:10358000C0780871052016902BE10000840200200D
:103590009C0000200000FA44580000205A0000203F
:1035A0005B00002080012142000021428C01214269
:1035B000610000201404014060000020630000202E
:1035C000620000205C0000206500002064000020F4
:1035D0000D000020A4590020AE000020FC48007817
:1035E00030B101280AD002280ED0032818D111E0EA
:1035F0000E21012001F0A8FF199014E00F210120F5
:1036000001F0A2FF19900EE00821012001F09CFFBB
:10361000199008E00921012001F096FF199002E0BD
:103620000020199000BF00BF002017904020E949FA
:103630000870199848701998001288700320169025
:10364000CFE000201790E248007830B101280AD07E
:1036500002280ED0032818D111E00A21084601F0F3
:1036600073FF199014E00A210B2001F06DFF1990EF
:103670000EE00A210C2001F067FF199008E00A21F2
:103680000D2001F061FF199002E00720179000BFA4
:1036900000BF199805F084FB079005F0D1F94FF0B1
:1036A0006632CD4BCDE9080104F0E2FFCDE90A0115
:1036B00004F098FDC94908601120C6490870C74840
:1036C00000784870C54840788870C4488078C870D1
:1036D000C248C07808710520169082E0002017903B
:1036E0002120BC490870BE48008805F059FBBB4941
:1036F000086008460078B7494870B8484078887034
:10370000B6488078C870B548C07808710520169012
:1037100067E0002017902220AE490870B148008869
:1037200005F03EFBAD49086008460078A94948709D
:10373000AA4840788870A9488078C870A748C0789F
:103740000871052016904CE000201790022016907A
:103750002320A0490870A4480078487041E0002068
:1037600017900220169024209A4908709F480078EC
:10377000487036E000201790022016909C4800798F
:10378000944908709B48007848702AE00020179000
:103790000220169026208F4908708D4800784870C6
:1037A0001FE00020179007201690272089490870F5
:1037B00016204870012088701120C87008710620FA
:1037C0004871042088710CE00020179002201690A8
:1037D0002820804908701598487002E0052017904D
:1037E00000BF00BF7B4A0421DDE9163002F0D0FDA6
:1037F0001EE000201790012016907D48C078754982
:1038000008707B48C078012806D108707A48007893
:1038100048700220169002E00520179000BF00BFFC
:103820006C4A1521DDE9163002F0B2FD00E000BF60
:1038300000BF1B98401CC0B21B9070480078022843
:103840000DD1002405E06E48005D6E490855601CEE
:1038500084B214988442F6DB002068490870FEF7B1
:10386000FBB92DE9F0478046894692461F46AA20BB
:1038700065490870084680F8018080F80290C7709A
:103880000425002407E01AF804005F494855601C2D
:1038900084B2681C85B2BC42F5DB0026012405E039
:1038A0005948005D304486B2601C84B2681EA04254
:1038B000F6DC172E01D1701C86B253494E551721E4
:1038C000514AA81C1154681C115440224FF48C71A9
:1038D0004D4803F013FE4021022004F015F80220A9
:1038E00003F0DEFEBDE8F0872DE9F047804689460B
:1038F00092461F46AA2045490870084680F8018074
:1039000080F80290C7700425002407E01AF804002C
:103910003E494855601CC4B2681CC5B2BC42F5DBC8
:103920000026012405E03948005D3044C6B2601C21
:10393000C4B2681EA042F6DC172E01D1701CC6B2BC
:103940003248465517210246A81C1154681C1154D0
:103950000021E81C1154002406E02C49085D2C4984
:1039600004F03AFB601CC4B2402CF6DBBDE8F087E3
:103970002DE9F04104460F4615461E4625480078BD
:10398000012806D033462A4604212046FFF7ACFF23
:1039900008E033462A4611212046FFF762FF002047
:1039A0001C490870BDE8F0811B49086810F4F07FDD
:1039B00006D01A490978C0F343121143174A11700F
:1039C000154909684FF6FF721143134A1160704799
:1039D000620000200D00002066664A3F9C00002027
:1039E00056000020580000205A00002061000020EE
:1039F00084020020600000205C000020D500002030
:103A0000C65B002034020020565C00206459002070
:103A1000C8000020300200201404014008000020EB
:103A200070B5C4480068C0F38324ACB1002501E040
:103A3000681CC5B2642DFBDBBE480068C0F383245C
:103A4000BD488068C0F3832634402CB1E0B200F05A
:103A5000A1F90120B9490870B64800684FF6FF7116
:103A60000843B449086070BD10B502460B460021FA
:103A7000012404E0105D0844C1B2601CC4B2981E69
:103A8000A042F7DC172901D1481CC1B2D01810F8A8
:103A9000020C884201D1012010BD0020FCE710B5C6
:103AA0000120A7490860A74908704FF00A0000F0FC
:103AB000EAFAA54B00221146042000F07BF9002011
:103AC000A249087000BFA14800780028FBD0A04898
:103AD0000078012804D000209949086099490870AD
:103AE000994B4FF0000211464FF0050000F062F9CB
:103AF00010BD10B5044697480470012302461021FA
:103B0000002002F045FC10BD70B5022092490870FB
:103B10000F2092490870002423E0002590480555A5
:103B20001920C4EBC4018F4A02EB41010881C4F1A2
:103B30000300C1B22046FDF7C6F88948005DA842DF
:103B400006DD0120A0408549097881438348017042
:103B50000120C4EBC401834A02EB41010881601CCF
:103B6000C4B2042CD9DB00207B49087070BD2DE95C
:103B7000F04F8BB0002004900590069007907A4893
:103B8000008820F00100784908804FF0000A93E097
:103B90000A2001F0B8FCADF82000BDF8200004F0C8
:103BA00053FD4FF06632714BCDE9000104F060FD2A
:103BB00000226F4BCDE9020104F0EEFB06460F46F2
:103BC000049804F03DFF804632463B4604F03CFB3F
:103BD000044604F007FB04900B2001F094FCADF8C0
:103BE0002200BDF8220004F02FFD4FF066325F4B3B
:103BF000CDE9000104F03CFD064600225C4B04F0D8
:103C0000CBFB04460D46059804F01AFF8046224679
:103C10002B4604F019FBCDE9020104F0E3FA05900C
:103C20000C2001F070FCADF82400BDF8240004F075
:103C30000BFD80464FF066324C4B04F019FD00221C
:103C40004B4BCDE9000104F0A7FB06460F46069852
:103C500004F0F6FE32463B46CDE9020104F0F4FAE8
:103C6000044604F0BFFA06900D2001F04CFCADF8BC
:103C70002600BDF8260004F0E7FC80464FF06632CF
:103C80003A4B04F0F5FC06460022394B04F084FB65
:103C900004460D46079804F0D3FE22462B46CDE994
:103CA000000104F0D1FACDE9020104F09BFA07907B
:103CB0000AF101001FFA80FABAF1320FFFF668AF7D
:103CC0004FF0000A2FE004A951F82A00294904F016
:103CD00051FF04A941F82A00274A52F82A1004AAE1
:103CE00052F82A0005F0ACF9834604F0A9FE064616
:103CF000224A234B04F0BCFC04460D461E4951F8F1
:103D00002A0004F09DFE804622462B4604F09CFAD1
:103D1000CDE9020104F066FA174941F82A000AF1D8
:103D200001001FFA80FABAF1040FCCDB0BB0BDE83A
:103D3000F08F000014040140001001405E000020DC
:103D400090012142AE0000205C020020080000200B
:103D5000AF0000200D000020500000206100002076
:103D600066000020A4590020100C004066660A403E
:103D70000000B04000004842545900209A99999997
:103D80009999B93F964908780021954A1170954A4A
:103D90001170704794490978084091490978814227
:103DA00007D08F49097801438D4A117001218D4A4E
:103DB000117070472DE9F04180460E4615461F46AA
:103DC000102D02DD0120BDE8F081B8F1020F20D0F6
:103DD000B8F1030F06D0B8F1040F31D0B8F1050FD8
:103DE0003FD134E00C2E11DA46F060007F490870B4
:103DF000002404E0395D601C7C4A1154C4B2AC421A
:103E0000F8DB691CC8B201F05FFF01E00320DAE7CC
:103E100029E0062E11DC46F04000744908700024A9
:103E200004E0395D601C714A1154C4B2AC42F8DB45
:103E3000691CC8B201F048FF01E00320C3E712E0AB
:103E400080206A490870012001F03EFF0BE0FF204E
:103E5000664908701A2001F037FF1A2001F0C3FFED
:103E600001E00220AFE700BF0020ACE730B502461A
:103E70000B4600200DE05E4D441C295D4FF6FF749B
:103E800004EA01112C46245C214302F8011B841C26
:103E9000E0B29842EFDB30BD5648806940F0080040
:103EA000544988610846806940F0100088610846DE
:103EB000806940F0040088614F48006820F4702059
:103EC0004D4908600846006840F4403008604A48A0
:103ED0000C30006820F0100047490C31086047485A
:103EE000006820F47F40454908600846006840F4B7
:103EF0004C50086041480830006820F440603F4959
:103F0000083108603E48006820F070603C49086055
:103F10000846006840F0407008600846C06820F01D
:103F20004000C860704770B504460D4665B3012D6A
:103F300053D10120A04033490978084223D134B13C
:103F4000012C08D0022C0AD0032C10D10BE0012048
:103F50002D4908600CE001202C49086008E0012090
:103F60002B49086004E001202A49086000E000BFF6
:103F700000BF0A2000F087F80120A04021490978FD
:103F800008432049087029E00120A0401D49097814
:103F90000840012820D134B1012C08D0022C0AD0CD
:103FA000032C10D10BE00020174908600CE0002022
:103FB0001649086008E000201549086004E0002068
:103FC0001449086000E000BF00BF0120A0400D4977
:103FD000097881430B48017000E000BF00BF70BD4D
:103FE000BC0000205E000020610000209E5B0020DD
:103FF000C65B00200010024000080140040C014094
:1040000000100140AE00002090012142A881214211
:10401000AC812142980122424FF0E021096921F050
:1040200004014FF0E0221161C21700EB5272C2F39B
:10403000C702224B1A701946097801EB4102C2EB04
:10404000C1114FF6FF7202EAC1011D4A118070478B
:1040500001461A4A12784A434FF0E0235A6100227F
:104060009A6101221A6100BF4FF0E022106910F03E
:10407000010F02D010F4803FF6D000224FF0E02371
:104080001A619A61704701460D4A12884A434FF0FF
:10409000E0235A6100229A6101221A6100BF4FF0A9
:1040A000E022106910F0010F02D010F4803FF6D02A
:1040B00000224FF0E0231A619A617047BE00002091
:1040C000C0000020AC4A0A400243AC4B1A60704763
:1040D0000146072323EA01021202A84B1B1D1868A0
:1040E0004FF6FF031840A64B18431043A34B1B1D6C
:1040F000186070472DE9F0478046894614461D46F2
:104100002046E11704EB9171C1F3870AE11704EB34
:1041100091718910A4EB8101CFB2042000EBC7009C
:10412000C7B22846FFF7D4FFC5F1040008FA00F62D
:104130000F20284100EA0900064306F00F06202C54
:104140000CDA904801684FF0010000FA04F041EAEF
:1041500000014FF0E020C0F800110DE08A4800682F
:10416000A4F120014FF0010202FA01F240EA02003C
:104170004FF0E021C1F80401844850F82A0006FA03
:1041800007F140EA0100814941F82A00BDE8F087C3
:1041900070B504460B46CE1701EB9676C6F3870042
:1041A000CE1701EB9676B610A1EB8606B606350E55
:1041B000774B9B6943F00103754EB3614FEAB63309
:1041C00053F820300F26AE40B343724E46F82030ED
:1041D000334653F8203004FA05F61E436D4B43F87E
:1041E00020606D4B1B6801268E4033436A4E33605E
:1041F00012F0010F08D0684B0C331B6801268E406B
:104200003343654E0C36336012F0020F08D0624B18
:1042100008331E6801238B401E435F4B08331E602A
:1042200070BD00B500205A490861C860152048617A
:1042300000208861C8610846006840F001000860FD
:10424000084640685549084051494860084600689A
:10425000534908404E4908600846006820F4802011
:1042600008600846406820F4FE004860002088602E
:1042700000214FF00060FFF725FF00BD10B53F485B
:104280000830006840F004003C49083108604048AC
:10429000C06940F080503E49C8614248406840F4DF
:1042A0008070404948600846006840F0040008609B
:1042B0000846006840F002000860FBF7B7FF10BD39
:1042C0002F48001D2D49091D086070470146490609
:1042D0002F4A926942F001022D4B9A612D4A083A09
:1042E000526822F0E0622B4B083B5A601A46526833
:1042F0000A435A60704730B504460025FFF791FF26
:104300002348006840F480302149086000BF2048FD
:104310000068400CFBD04FF410501D494860A01EAF
:10432000C4B20846406840EA844048600846406895
:1043300040F4803048601C48006840F032001A4960
:1043400008601348006840F080701149086000BFA1
:104350000F480068400EFBD00D48406840F0020056
:104360000B49486005E00A484068C0F3870505F03E
:104370000305022DF7D130BD80FFFF1F08ED00E0DF
:104380000000FA0500E100E004E100E000E400E0E4
:104390000010024008000140000401400000FFF846
:1043A000FFFFF6FE0070004000200240014600BF03
:1043B000704700BF624A128812F0400FFAD0C2B2B2
:1043C0005F4B1B1D1A8070475D49098811F0200F53
:1043D0004AD05B49091D0988C8B25A49097851B9C0
:1043E0000021594A1170AA283ED15849087001216C
:1043F000544A117038E05349097801291FD15249B4
:104400000978402915DA50490978491C4E4A11703B
:104410004E4912788854172802D10221494A117056
:104420004949097805291FD147490978464A117039
:104430001AE00021434A1170434A117014E04149C7
:104440000978022910D140490978491C3E4A117067
:104450003E4912788854172803D10321394A117034
:1044600002E00121374A117070472DE9F05F0546DF
:104470000E46300104F094FC8146354905FB01F0FD
:1044800004F08EFC8246494604F074FB0746384629
:1044900004F066FC84B2204604F082FC8346394670
:1044A00004F0C3FD82464FF0834104F0C1FC814615
:1044B00004F056FC80464FF6FF7000EA041404EB4B
:1044C000080084B22348806940F0040021498861D3
:1044D0000846806940F4804088611F48006820F4E5
:1044E0007F601D4908600846006840F40B60086062
:1044F0001848C06840F480401649C8600846C06843
:1045000020F48040C8600E4808300480001D0088F8
:1045100042F20C0108430A490C3108800846008821
:1045200040F4807008800846008840F02000088031
:104530000223252203210846FFF7DCFDBDE8F09F9A
:1045400000380140C7000020C60000208C5A00201F
:1045500040420F00001002400408014010B56848B6
:10456000806940F00800664988610846806940F02B
:10457000100088610846806940F0040088610846A0
:10458000806940F0400088610846806940F480708E
:1045900088610846806940F0800088615948006859
:1045A00020F0F000574908600846006840F03000ED
:1045B000086054480830006840F4007051490831E0
:1045C00008605048001F00686FF30F004D49091F35
:1045D00008600846006843F2333108434949091F1F
:1045E000086048480830006820F00F00454908314D
:1045F00008604548406845490840434948600846C6
:10460000406843490843404948600846C06820F470
:104610007050C8603B48001F0068C0F31300394960
:10462000091F0860084600683A4908433549091FD0
:104630000860081D006820F00F00091D086008468A
:10464000006840F0080008602E480830006840F418
:10465000F0702C4908310860022205210020FFF784
:1046600097FD022206210020FFF792FD022207217A
:104670000020FFF78DFD022208210020FFF788FDB2
:104680000223172203211846FFF734FD1E48006855
:104690006FF30F001C4908601F48006820F07F403E
:1046A0001D4908600846006840F04C5008601A48F0
:1046B0000C30006840F0C00017490C310860164803
:1046C000001D006820F00F101349091D08600846FE
:1046D000006840F0030008600846006840F440307D
:1046E00008600D480C30006840F480700A490C31B5
:1046F00008600846006840F48050086010BD000063
:10470000001002400408014000100140FF0000FFBB
:104710000088880000008088000C014010B50A2045
:10472000FFF7B1FC1748006838B91748006808B9A6
:10473000012000E00020144908604FF004001349F4
:10474000086010BD10B50A20FFF79DFC10480068F6
:104750004FF008000D49086010BD10B50A20FFF7A2
:1047600092FC0C48006838B90748006808B9012075
:1047700000E00020044908604FF010000349086081
:1047800010BD704708012342A801244214040140CF
:104790000C0123421001234245F255522F4B1A605F
:1047A0001A46506091604AF6AA221A604CF6CC4232
:1047B0001A6070474AF6AA2028490860704770B509
:1047C00006460C4615462648C06940F40060244958
:1047D000C8612448007830402249087022480068A7
:1047E00040EAC51020490860084600684FF680710D
:1047F00008401D4908600846006820430860081FFB
:1048000000681849097808431749091F08600846D5
:10481000006840F08000086002230022032118464F
:10482000FFF768FC00201049091D0860081F006898
:1048300040F40070091F086070BD00F07F010A4A53
:10484000121F1160704700B506480078FFF7F5FFAA
:1048500000200549091D086000BD0000003000402F
:1048600000100240CC000020042C0040F9480088D1
:1048700020F00100F7490880F7480088002810DD83
:10488000F5480088401EF4490880F2481038008836
:1048900040F00100EF49103908800020EF4908700E
:1048A00033E0EF480078022803D0ED48007808286C
:1048B00028D1EA48007830B92F20E6491C31088019
:1048C000E44914310880E548017801208840E54931
:1048D00009880843E3490880E0480078401CDF4924
:1048E0000870084600780C2808DADA481038008882
:1048F00040F00100D7491039088006E00020D74970
:10490000087002E00120D7490880704770B504465E
:104910000D46D548C06940F00200D349C861CD4872
:104920001C300480001F0580CA48001F008840F02A
:104930000100C849091F0880C6481038008840F0A7
:104940008000C44910390880C248008820F0010066
:10495000C0490880BF481038008840F01000BD49A9
:10496000103908800846008840F008000880B948DF
:104970001430048002231D2203210120FFF7BAFB1B
:1049800070BDB4491C310880B249143108807047A9
:1049900070B504460D46B448C06940F00400B24901
:1049A000C861B2480480001F0580B04820380088E4
:1049B00040F00100AD4920390880AC482C3800880F
:1049C00040F08000A9492C390880A8481C3800888C
:1049D00020F00100A5491C390880A4482C38008823
:1049E00040F01000A1492C3908800846008840F0AA
:1049F000080008809D480838048002231E220321F5
:104A00000120FFF777FB70BD984908809749083966
:104A10000880704795481C38008820F001009349B1
:104A20001C39088092480088002810DD90480088D2
:104A3000401E8F4908808D482C38008840F00100C6
:104A40008A492C39088000208A49087032E084485D
:104A50000078022803D082480078082827D18548AA
:104A6000007828B92F2081490880804908390880BA
:104A700080480178012088407F49098808437E49A1
:104A800008807C480078401C7A4908700846007805
:104A90000C2808DA75482C38008840F0010073496A
:104AA0002C39088006E000207249087002E00120DD
:104AB00071490880704770B504460D466A488069A0
:104AC00040F40060684988616C480480001F0580DC
:104AD0006A482038008840F0010068492039088081
:104AE00066482C38008840F0800064492C390880E2
:104AF00062481C38008820F0010060491C39088099
:104B00005E482C38008840F010005C492C39088041
:104B10000846008840F0080008805848083804809B
:104B20000223192203210120FFF7E4FA70BD534943
:104B30000880524908390880704750481C3800885E
:104B400020F001004D491C3908804D48008800289C
:104B500010DD4B480088401E4949088047482C38E2
:104B6000008840F0010045492C3908800020454963
:104B7000087032E03A480078022803D038480078BC
:104B8000082827D13F48007828B92F203B490880C2
:104B90003A49083908803B480178012088403A4961
:104BA000098808433849088036480078401C354950
:104BB0000870084600780C2808DA30482C3800883D
:104BC00040F001002D492C39088006E000202D49D5
:104BD000087002E001202C490880704770B5044637
:104BE0000D462148806940F400501F4988612748DC
:104BF0000480001F058025482038008840F001000F
:104C000022492039088021482C38008840F0800053
:104C10001E492C3908801D481C38008820F00100EE
:104C20001A491C39088019482C38008840F01000B7
:104C300016492C3908800846008840F00800088092
:104C400012480838048002232C2203210120FFF798
:104C500051FA70BD10040040B4000020CD000020C7
:104C60005000002000000020001002402C080040EE
:104C7000B8000020CF000020040000202C2C0140B0
:104C8000B6000020CE000020020000202C3401409D
:104C900095490880944908390880704792481C3823
:104CA000008820F0010090491C3908808F48008856
:104CB000002810DD8D480088401E8C4908808A48F5
:104CC0002C38008840F0010087492C3908800020EA
:104CD0008749087032E087480078022803D0854869
:104CE0000078082827D18248007828B92F207E49EB
:104CF00008807D49083908807D4801780120884076
:104D00007D49098808437C49088079480078401C1F
:104D100077490870084600780C2808DA72482C3861
:104D2000008840F0010070492C39088006E000201E
:104D30006F49087002E001206F490880704770B524
:104D400005460C466D48C06940F010006B49C861CB
:104D5000681E6B4988850020888408460485808900
:104D600040F0010088810846008840F080000880FB
:104D70000846008A20F0010008820223362203211F
:104D80000120FFF7B7F970BD5D49888588847047B9
:104D90005B48008A20F00100594908825948007890
:104DA000401C58490870704770B505460C4653487A
:104DB000C06940F020005149C86153480580001F78
:104DC000048051482038008840F001004E492039C5
:104DD00008804D482C38008840F080004A492C3922
:104DE000088049481C38008820F0010046491C39D9
:104DF00008800223372203210120FFF77BF970BDD1
:104E000041490880404908390880704710B540F290
:104E10007F216420FFF7C8FF3B482C38008840F012
:104E2000010039492C39088010BD37482C380088DA
:104E300020F0010034492C390880704732481C3872
:104E4000008820F0010030491C3908802F48008874
:104E5000401C2E490880704770B504460D4627480F
:104E6000C06940F008002549C86129480480001F36
:104E7000058027482038008840F001002449203967
:104E8000088023480838048021482C38008840F0E6
:104E900010001F492C3908801D481C38008820F05C
:104EA00001001B491C390880022332220321012002
:104EB000FFF720F916482C38008840F0010014490B
:104EC0002C39088070BD12490880114908390880C2
:104ED000704710B541F61F4142F21070FFF7BCFF5A
:104EE00000200C49087010BD2C340140BA0000208D
:104EF000D0000020500000200600002000100240DA
:104F000000100040790000202C14004054000020C4
:104F10002C0C0040D1000020F0B503460C4615468D
:104F2000642093FBF0F0C6B2642093FBF0F700FB23
:104F30001730C1B2132E02DD01F16400C1B2084680
:104F4000CF1701EB977701EBA707BAB2072092FBC7
:104F5000F0F700FB172082B25719601EDFF81CC45F
:104F60001CF80000384482B2CF1701EB9777BF10CE
:104F7000B1EB870703D1032C01DA501E82B2072060
:104F800092FBF0F700FB1720C0B2F0BD0146CA1734
:104F900001EB92729210B1EB820212D1642091FB6C
:104FA000F0F200FB121050B94FF4C87091FBF0F210
:104FB00000FB121008B9012070470020FCE7012017
:104FC000FAE70020F8E770B5002600240025EC4839
:104FD00006883604001D00880644EA48B6FBF0F453
:104FE000E9480088A0423CD0E7490C8040F2B27505
:104FF00010E02846FFF7CAFF40B1B4F5B77F02D3EF
:10500000A4F5B77404E0681C85B206E0A4F26D1440
:10501000681C85B2B4F5B67FEBD800BFDB4885804D
:10502000002516E0D9498888FFF7B0FF30B1012D7F
:1050300004D11D2C01D31D3C09E00CE0D448405D97
:10504000A04203D8D248405D241A00E003E0681C67
:1050500085B21C2CE6D200BF681CCC498871601C4C
:10506000C871C848B6FBF0F100FB11644FF46160F1
:10507000B4FBF0F0C54908704FF46160B4FBF0F187
:1050800000FB11403C21B0FBF1F0C04948704FF4E7
:105090006160B4FBF0F100FB11403C21B0FBF1F288
:1050A00001FB1200B94988700B46DA799979988822
:1050B000FFF732FFB5490872002070BD2DE9F04FAF
:1050C00006460F4690469946DDE909AB002440F2BA
:1050D000B270864203DB40F63300864202DD0120D7
:1050E000BDE8F08F40F2B2750AE02846FFF74EFFA8
:1050F00010B1A848044401E0A7480444681C85B2E4
:10510000B542F2DB781EC7B2002510E0A048405D32
:1051100040F2A321484304EBC0143046FFF736FFAA
:1051200018B1012D01D197480444681C85B2BD42D5
:10513000ECDBA8F1010040F2A321484304EBC014CA
:10514000C9EB4910C0EB092004EB0014CAEB0A10AC
:1051500004EB80045C449148C06940F080508F4962
:10516000C8610846C06940F00060C8618C480068AA
:1051700040F480708A49086081481438008840F003
:1051800010007F49143908807D49091D0C80200CCE
:10519000091F08807A481438008820F010007849E8
:1051A0001439088000BF76481438008810F0200FAA
:1051B000F9D0FFF708FF002092E71CB500247948DA
:1051C0000088A0F5A04150397ED07448C06940F0F5
:1051D00080507249C8610846C06940F00060C861EB
:1051E0006F48006840F480706D4908606B48006A41
:1051F00040F48030694908620846006A20F4803033
:1052000008620846006A40F00100086204E0601C81
:10521000C4B20A20FEF737FF6048006A10F0020FA0
:1052200001D1FA2CF3DBFA2C01DB01201CBD5B4819
:10523000006A40F48070594908620846006A40F4E8
:105240000040086200BF4E481438008810F0200F5C
:10525000F9D000BF4A481438008810F0080FF9D080
:1052600047481838008840F001004549183908803F
:1052700000BF43481438008810F0200FF9D0404890
:105280001438008840F010003D491439088000208F
:10529000091D088047F6FF70091D0880372010217E
:1052A0000D230722CDE90010092140F2DC70FFF741
:1052B00005FF33481438008820F0100030491439B5
:1052C000088000BF2E4800E00CE01438008810F081
:1052D000200FF7D045F250003249088032A002F08A
:1052E000EDFC18E000BF26481438008810F0080FC5
:1052F000F9D023481838008840F0010020491839B7
:10530000088000BF1E481438008810F0200FF9D024
:1053100028A002F0D3FC0223032200210846FEF756
:10532000E9FEFFF750FE002080E700B5144814386E
:10533000008810F0010F01D0FFF745FE1048143827
:10534000008810F0020F07D00D481438008820F0B4
:1053500002000B491439088009481438008840F6C7
:10536000FA71084006491439088000BF044814380F
:10537000008810F0200FF9D000BD00005F910008F8
:105380001828004080510100D2000020945B0020CA
:105390006B9100080085E2018033E10100100240BA
:1053A00000700040046C0040464952535420544958
:1053B0004D450A004F4B0A006F48806940F00800D5
:1053C0006D4988616D48006820F0FF006B490860F6
:1053D0006948806940F01000674988616848006842
:1053E00000F07F40664908606348806940F40070BF
:1053F000614988610846C06840F40070C86008468A
:10540000C06820F40070C8600846406820F440403E
:1054100048600846406840F4804048605948006849
:1054200059490840574908600846006820F4702030
:1054300008600846006820F480700860081D006855
:1054400020F00200091D08600846006820F4602072
:1054500008600846006840F460200860084600685C
:1054600040F4801008600846006820F4006008607E
:105470000846006840F40000086042482830006890
:1054800020F470003F492831086008460068002079
:1054900008603C480C30006820F0380039490C3175
:1054A00008600846006840F038000860081F00687F
:1054B00020F4E010091F08600846006840F4E0107E
:1054C0000860081F006840F00100091F08600846D6
:1054D000006840F00800086000BF2A48001D00680E
:1054E00010F0080FF9D12748001D006840F00400B3
:1054F0002449091D086000BF2248001D006810F003
:10550000040FF9D1704701461E483030006820F082
:105510001F001C4A303210601046006808431060BB
:105520001848001D006840F48000164A121D1060E3
:1055300000BF1448001F006810F0020FF9D0114896
:105540004830006880B270472DE9F04107460C46AC
:105550000025002608E03846FFF7D5FF0544052062
:10556000FEF791FD701CC6B2A642F4DBB5FBF4F069
:1055700080B2BDE8F081000000100240000C014044
:105580000010014004240140FFFFF0002C48806916
:1055900040F004002A4988610846C06940F0005084
:1055A000C8612848006820F4702026490860084631
:1055B000006808602448006840F001002249086043
:1055C0000846006840F0020008600846006808606D
:1055D00008460068086008460068086008460068D9
:1055E0000860084600680860002017490831086014
:1055F00070472DE9F0470446204603F0D1FB814671
:105600001249484603F0B6FA81464FF08B414846AE
:1056100003F00EFC824603F013FA07464FF06632A1
:105620000B4B02F0B9FE054602F0DCFD8146484610
:1056300003F096FB044908310860BDE8F0870000DC
:1056400000100240000801400074004000007A444D
:1056500066660A409748806940F00800954988616D
:105660009548006820F47F40934908600846006828
:1056700040F44C50086090480830006840F44060A6
:105680008D4908310860704710B58B48006820F4D8
:105690007040894908600846006840F4405008603E
:1056A0000120864908608649C1F8A8014FF004002E
:1056B000FEF7CEFC0020814908604FF00400FEF7A1
:1056C000C7FC00207E49C1F8A80110BD10B57A487A
:1056D000006820F47040784908600846006840F48B
:1056E000405008600020774908607549C1F8AC0156
:1056F0004FF00400FEF7ACFC0120724908607049CD
:10570000C1F8AC014FF00400FEF7A2FC10BD10B5CB
:1057100000246948006820F4704067490860084622
:10572000006840F400400860012064490860FEF70A
:105730008FFC01206249C1F8A801FEF789FC07E04F
:10574000601CC4B2FA2C03DDFFF7C0FF012010BDBE
:105750005D4800680028F3D15A49086000BFF6E7A9
:1057600010B50020574908605348006820F4704085
:10577000514908600846006840F4405008604FF006
:1057800000004F49C1F8AC014FF00200FEF760FC89
:1057900001204C4908604FF00200FEF759FC002040
:1057A0004749C1F8A80110BD10B50020454908605F
:1057B0004148006820F470403F490860084600688E
:1057C00040F4405008604FF001003D49C1F8AC0181
:1057D0004FF00200FEF73CFC01203A4908604FF010
:1057E0000200FEF735FC00203549C1F8A80110BDC4
:1057F00070B504463048006820F470402E490860B7
:105800000846006840F44050086000202D490860B8
:1058100005461AE0E009294908604FEA44604FEA6A
:1058200010644FF00200FEF713FC01202449C1F878
:10583000A8010220FEF70CFC0020224908604FF06E
:105840000200FEF705FC681CC5B2082DE2DB70BD46
:1058500070B5054600241848006820F470401649C9
:1058600008600846006840F400400860002616E022
:105870000020144908604FF00200FEF7E9FB012008
:105880000F49C1F8A8016006040E0F48006808B16E
:10589000601CC4B20120FEF7DBFB701CC6B2082EF0
:1058A000E6DB15B9FFF780FF01E0FFF759FF20465F
:1058B00070BD000000100240040C0140AC81214288
:1058C00000802142A88121422C81214210B5FFF79E
:1058D000C1FE10BD70B504460026FFF7D5FE254673
:1058E000E11704EB11610912A02202EB4101C8B2D9
:1058F000FFF77EFFFFF70BFFE11704EB11610912C1
:10590000A4EB0121C8B2FFF773FFFFF700FFFFF719
:10591000BBFEA120FFF76CFFFFF7F9FE0020FFF7A9
:1059200097FF0646FFF7D2FE304670BD70B50446BD
:105930000E46FFF7A9FE2546E11704EB1161091297
:10594000A02202EB4101C8B2FFF752FFFFF7DFFED2
:10595000E11704EB11610912A4EB0121C8B2FFF7B2
:1059600047FFFFF7D4FE3046FFF742FFFFF7CFFEB9
:10597000FFF7ACFE0A20FEF786FB70BD2DE9F04173
:1059800005460E461746002409E0E20026FA02F218
:10599000D1B22A1990B2FFF7C9FF601CC4B2BC4251
:1059A000F3DBBDE8F0812DE9F04107460C46002607
:1059B000002509E036023919491B491E88B2FFF754
:1059C00089FF0644681CC5B2A542F3DB3046BDE83A
:1059D000F08110B5FF20FFF77DFF0446552C01D163
:1059E000002010BD5521FF20FFF7A0FFFF20FFF78B
:1059F00071FF0446552C01D10020F2E70120F0E7A9
:105A000070B506460C46154608E03046721C96B244
:105A1000FFF760FF04F8010B681E85B2002DF4D17A
:105A200070BD70B505460C46164606E0217828463E
:105A3000FFF77CFF681C85B2641C3000A6F10101F1
:105A40008EB2F3D170BD000010B50020EC49087093
:105A5000EC48406940F00100EA4948610520FEF742
:105A600012FBE848406940F00100E6494861E64819
:105A7000406C20F48040E44948640846406C40F49F
:105A8000005048640846406C20F440604864084672
:105A9000406C20F4407048640846406C40F0800040
:105AA00048640846406C20F0400048640846406C5A
:105AB00020F0200048640846406C20F01000486444
:105AC0000846806C00208864CD4800788864CF4800
:105AD000C864CF4808650846806D20F4804088651A
