:020000040800F2
:10000000000400203B020008490200084B020008DF
:100010004D0200084F0200085102000800000000D5
:100020000000000000000000000000005302000873
:10003000550200080000000057020008590200089D
:10004000E34A00085B0200085B0200081B56000838
:100050005B0200085B020008B33A00085B0200087C
:10006000B9490008E1490008F74900085B020008A7
:100070005B0200085B0200086F600008A7600008D0
:100080005B0200085B0200085B020008758800083C
:10009000778800085B0200085B0200086B3A0008E2
:1000A0005B020008D74D00085B0200085B020008F5
:1000B00063670008094B0008B14C00085B020008A8
:1000C0005B0200085B0200085B0200085B0200089C
:1000D0005B020008094500085B0200085B0200089B
:1000E000C73A00085B0200087F8800085B0200082E
:1000F000394F00085B0200085B0200085B02000841
:100100005B0200085B020008BF3B00085B020008BE
:100110005B0200085B0200082D500008DB5000085D
:100120005B0200085B0200085B0200085B0200083B
:1001300000F002F800F06BF80AA090E8000C82448E
:100140008344AAF10107DA4501D100F060F8AFF26B
:10015000090EBAE80F0013F0010F18BFFB1A43F0A5
:1001600001031847B0A20000D0A200000A444FF0DB
:10017000000C10F8013B13F0070408BF10F8014B06
:100180001D1108BF10F8015B641E05D010F8016B4B
:10019000641E01F8016BF9D113F0080F1EBF10F8AF
:1001A000014BAD1C0C1B09D16D1E58BF01F801CBD2
:1001B000FAD505E014F8016B01F8016B6D1EF9D555
:1001C0009142D6D37047000000230024002500266A
:1001D000103A28BF78C1FBD8520728BF30C148BFAA
:1001E0000B607047642908F04386752908F0408643
:1001F000782908F07986632908F0D687732908F0F2
:10020000DB87002070471FB51FBD10B510BD09F07A
:1002100005F81146FFF7F7FF01F0C7FB09F023F8D7
:1002200003B4FFF7F2FF03BC04F060F930BF72B60D
:1002300062B680F30888704770470B4880470B49C7
:1002400081F308880A480047FEE7FEE7FEE7FEE77D
:10025000FEE7FEE7FEE7FEE7FEE7FEE705480649A4
:10026000044A064B7047000039020008206600204F
:1002700031010008205E002020660020205E002062
:10028000FE49896941F00401FC4A916138B1FC4999
:10029000096889B221F00201F94A116014E0F849B5
:1002A000096889B241F00201F54A1160F54909680F
:1002B00021F47F21F34A11601146096841F44C3161
:1002C00011600021F04A1160704710B5022206212A
:1002D000052003F0FDFF02220721052003F0F8FFAF
:1002E00002220821052003F0F3FF02220921052044
:1002F00003F0EEFF022317220321184603F09AFFB2
:1003000010BDE248006820F400004FF0E021C1F881
:100310000001DF48006820F47070DD490860704714
:100320002DE9F0478046894692461F46AA20D949C2
:100330000870084680F8018080F80290C770042594
:10034000002407E01AF80400D2494855601C84B222
:10035000681C85B2BC42F5DB0026012405E0CD48CF
:10036000005D304486B2601C84B2681EA042F6DC98
:10037000172E01D1701C86B2C6494E551721C54AA9
:10038000A81C1154681C115440224FF48C71C148B0
:1003900007F03AFE4021022008F03CF8022007F066
:1003A00005FFBDE8F08710B50146002016E00122E8
:1003B00082400A4208D0B64A1268831D01249C403C
:1003C0002243B34B1A6007E0B14A1268831D01242F
:1003D0009C40A243AE4B1A60421CD0B20428E6DB1C
:1003E00010BDAB48006820F47070A94908607047E0
:1003F000A9490978A94A117000202CE08821C0EB96
:10040000C002A74B03F812100821C0EBC00203EB97
:10041000420251708821C0EBC00203EB420291708E
:10042000C0EBC00203EB4202D1700821C0EBC00256
:1004300003EB420211710021C0EBC00203EB420248
:1004400051710121C0EBC00203EB42021181954AB8
:100450001180411CC8B20428D0DB904909788E4A2B
:10046000117070479049098821F001018E4A11806E
:1004700000218E4A1170704700208C4909780429A8
:1004800000DD0120704710B5044600208749087040
:1004900041F61F41642004F0A0FD8348008840F02D
:1004A00001008149088010BD2DE9F04106460F4644
:1004B000904679480770002405E07D48005D7D493D
:1004C0000855601CC4B20B2CF7DB002432E0042C6E
:1004D00004D100BF784800880028FBD07548031974
:1004E00001223146032003F0A1FC032C20D16A49EC
:1004F0000978C1EBC1016A4A02EB4101488904F065
:100500008EFB65480078C0EBC000654901EB4000F8
:100510000089401E80B26349088068490880002035
:10052000654908806648008840F0010064490880F9
:10053000601CC4B20A2CCADD5E4B002211460420A6
:1005400003F074FC00205F4908700320FFF79BFF55
:10055000002502E0FFF790FF05464F480178012093
:10056000884058490978084201D1002DF2D0012075
:10057000FFF778FF48480178012088405149097801
:1005800008420ED000204F4908704A4B0022114605
:10059000052003F04BFC00204B493F4A1278885459
:1005A00009E045B148483C490978405C401C46494F
:1005B000394A12788854BDE8F0812DE9F047804629
:1005C000802042490870002605E03948805D39499D
:1005D0008855701CC6B20B2EF7DB0027CDE03C48D7
:1005E000C45D2D48047017B1052003F0ECFD002513
:1005F000BEE0002608E02F48831901222946032087
:1006000003F014FC701CC6B2042EF4DB002D6ED176
:1006100034B1012C1FD0022C6CD0032C69D184E0A2
:10062000C4EBC4011E4A02EB4101488904F0F7FA09
:10063000C4EBC4001A4901EB40000089401E19496F
:1006400008801F48008840F001001D4908800020F4
:100650001949088085E0C4EBC401114A02EB41014D
:10066000488904F0B2FBC4EBC4000D4901EB400023
:100670000089401E1749088017482FE000100240EB
:10068000405C004004080140B001214200E100E06C
:10069000000401407C5D0020620000206300002017
:1006A000AC5A0020B4000020001000407900002067
:1006B000E8A1000864030020000000206E00002074
:1006C00000040040080000206600002074000020A4
:1006D0006A000020B6000020002C0140008840F095
:1006E0000100F64908800020F549088039E039E02A
:1006F00000E035E0C4EBC401F24A02EB4101488955
:1007000004F0D0FAC4EBC400EE4901EB40000089CC
:10071000401EED490880ED48008840F00100EB499B
:1007200008800020EA4908801BE0C4EBC401E54AC8
:1007300002EB4101488904F0F9FBC4EBC400E14934
:1007400001EB40000089401EE2490880E248008831
:1007500040F00100E04908800020E049088000E006
:1007600000BF00BF4FF4C87003F012FD681CC5B293
:100770000C2DFFF63EAF781CC7B24745FFF62FAFF2
:100780000027E3E0D648C05DD6490870044600253E
:10079000D6E034B1012C0CD0022C12D0032C20D185
:1007A00017E000BF0120A840CF4909880842F9D0CE
:1007B00018E000BF0120A840C14909880842F9D0CB
:1007C00010E000BF0120A840C14909880842F9D0C3
:1007D00008E000BF0120A840C04909880842F9D0BC
:1007E00000E000BF00BF042608E0C04883190122D2
:1007F0002946032003F01AFB701CC6B20A2EF4DD52
:100800000020BB490870B94B00222946042003F0A0
:100810000DFB0120FFF737FE4FF0000902E0FFF764
:100820002BFE81460120A040B1490978084202D13F
:10083000B9F1000FF3D00120FFF714FE0120A04012
:10084000AB49097808423BD00020A9490870A74B62
:1008500000221146052003F0E9FA0020A5490855B9
:10086000002610E0A448815DC4EBC40000EB40000A
:10087000A24A02EB0010C5EBC50200EB8202B01CDD
:100880001154701CC6B21A2EECDB022040EA041090
:10089000C4EBC40101EB4101984A02EB0111C5EB25
:1008A000C50201F82200C4EBC40000EB40009349EC
:1008B00001EB0010C5EBC50100EB810045703DE088
:1008C000B9F1000F3AD08B48005D401C89490855AA
:1008D000002530E0022040EA0410C4EBC40101EB23
:1008E0004101864A02EB0111C5EBC50201F8220065
:1008F000F120C4EBC40101EB4101804A02EB01117C
:10090000C5EBC50201EB8201487000260FE0002113
:10091000C4EBC40000EB4000784A02EB0010C5EBCA
:10092000C50200EB8202B01C1154701CC6B21A2E14
:10093000EDDB681CC5B2182DCCDB04E0681CC5B229
:100940000C2DFFF626AF00BF781CC7B24745FFF657
:1009500019AFBDE8F0872DE9FC47804600200190E3
:100960000090002405E06648005D60490855601C61
:10097000C4B20B2CF7DB4FF00009A2E1614810F87C
:1009800009A0002526E05648405D564908700746F4
:1009900008460078C0EBC0004A4901EB40000079EE
:1009A0006AF303004F490978C1EBC101454A02EBE4
:1009B000410108714D49087501F1140301221146E6
:1009C000022003F033FA00204A49C85501A9C8554E
:1009D000681CC5B24545D6DB4046FFF7EEFD002555
:1009E00010E03F48405D01A9085C3D49495D414A2E
:1009F000515C884204DA01203949495D0DF8010053
:100A0000681CC5B24545ECDBB9F1000F09D0B9F15E
:100A1000010F4BD0B9F1020F78D0B9F1030F76D1A5
:100A2000FEE000253FE02E48475D002637E0002429
:100A300031E0C7EBC70000EB4000304901EB00108C
:100A4000C6EBC60100EB8100022101EB4401405CD2
:100A50002D4901EB073101EBC611042202EB8402A0
:100A60008854C7EBC70000EB4000244901EB00109D
:100A7000C6EBC60100EB8100032101EB4401405CA1
:100A8000214901EB073101EBC611052202EB84027B
:100A90008854601CC4B20D2CCBDB701CC6B20C2E6B
:100AA000C5DB681CC5B24545BDDB05E1002569E035
:100AB0000B48475D002661E000245BE0002C01400C
:100AC00002000020AC5A0020B800002000080040BE
:100AD00004000020BA00002000340140060000207D
:100AE0006A00002062000020000000206403002053
:100AF0000800002066000020CE5C00201C150020AD
:100B0000E8A10008F3A100085C1A00203DE0D2E053
:100B1000C7EBC70000EB4000F84901EB0010C6EB43
:100B2000C60100EB8100022101EB4401405CF44965
:100B300001EB073101EBC611022202EB840288545B
:100B4000C7EBC70000EB4000EC4901EB0010C6EB1F
:100B5000C60100EB8100032101EB4401405CE84940
:100B600001EB073101EBC611032202EB840288542A
:100B7000601CC4B20D2CCBDB701CC6B20C2E9BDBF0
:100B8000681CC5B2454593DB96E0002545E0DD488D
:100B9000475D00263DE0002437E0C7EBC70000EBCF
:100BA0004000D64901EB0010C6EBC60100EB810006
:100BB000022101EB4401405CD14901EB07310122E4
:100BC00002EB460201EB8211042202EB84028854FC
:100BD000C7EBC70000EB4000C84901EB0010C6EBB3
:100BE000C60100EB8100032101EB4401405CC449D4
:100BF00001EB0731012202EB460201EB82110522D3
:100C000002EB84028854601CC4B20D2CC5DB701C3E
:100C1000C6B20C2EBFDB681CC5B24545B7DB4BE046
:100C2000002545E0B748475D00263DE0002437E059
:100C3000C7EBC70000EB4000B04901EB0010C6EB6A
:100C4000C60100EB8100022101EB4401405CAC498C
:100C500001EB0731012202EB460201EB8211022275
:100C600002EB84028854C7EBC70000EB4000A349A5
:100C700001EB0010C6EBC60100EB8100032101EB84
:100C80004401405C9E4901EB0731012202EB460220
:100C900001EB8211032202EB84028854601CC4B26F
:100CA0000D2CC5DB701CC6B20C2EBFDB681CC5B298
:100CB0004545B7DB00E000BF00BF09F1010000F0CF
:100CC000FF09B9F1040FFFF659AE002530E000240A
:100CD00016E08C48405D082141EA00108949495DD1
:100CE000874A02EB013101EB841108708548405DB1
:100CF000114601EB003000EB84104470601CC4B25C
:100D0000182CE6DB7F48405D1DF8000070B1002420
:100D10000AE0F1207B49495D794A02EB013101EBA0
:100D200084114870601CC4B2182CF2DB681CC5B278
:100D30004545CCDBBDE8FC872DE9F04106460F4672
:100D400071480670002405E07048005D7049085540
:100D5000601CC4B20B2CF7DB6B490978C1EBC101F5
:100D60006C4A02EB4101488903F059FF664800785C
:100D7000C0EBC000674901EB40000089401E80B213
:100D80006549088065490880002518E0002408E0CE
:100D90005F48031901222946032003F047F8601C2D
:100DA000C4B2042CF4DB45B95D48008840F0010072
:100DB0005B49088000205B490880681CC5B20C2D87
:100DC000E4DB002578E000BF0120A84055490988F0
:100DD0000842F9D0042408E04D48031901222946AD
:100DE000032003F023F8601CC4B20A2CF4DD0020B9
:100DF0004D490870464B00222946042003F016F89E
:100E00000120FFF740FB4FF0000802E0FFF734FB42
:100E100080463D48017801208840434909780842CE
:100E200002D1B8F1000FF1D00120FFF71BFB3648CB
:100E30000178012088403C49097808422CD00020E4
:100E400039490870324B00221146052002F0EEFFAE
:100E5000002036492C4A1278885400240AE034488D
:100E6000015D274800EB063000EB8512A01C1154F1
:100E7000601CC4B21A2CF2DB022040EA06102049A2
:100E800001EB063101EB851108701D4800EB0630BF
:100E900000EB851045700DE0B8F1000F0AD0234833
:100EA00019490978405C401CC1B22048164A1278A2
:100EB000815403E0681CC5B20C2D84DB00BF17B958
:100EC00000201C490870BDE8F08110B502460B46B1
:100ED0000021012404E0105D0844C1B2601CC4B2CA
:100EE000981EA042F7DC172901D1481CC1B2D018C6
:100EF00010F8020C88421FD1012010BD1C150020E3
:100F00005C1A00206A00002062000020E8A10008AE
:100F100064030020AC5A0020B40000206E000020C2
:100F200000040040000000200800002066000020AF
:100F3000CE5C002050000020002010BD2DE9F047BD
:100F400006468946F84806700120F84908700027CF
:100F500003E1F74810F80780F3480078C0EBC000C1
:100F6000F44901EB4000007968F30300EE49097889
:100F7000C1EBC101EF4A02EB41010871EE4908756E
:100F800001F1140301221146022002F04FFF002557
:100F9000DEE0C5F10B00C2B2E34801782846FFF756
:100FA00083FA00240AE0E548015DC5EBC500E44A88
:100FB00002EB8002A01C1154601CC4B21A2CF2DB9C
:100FC000D948067837B1012F2FD0022F58D0032FE0
:100FD0007DD188E0002425E0C5EBC500D84901EBB0
:100FE0008000022101EB4401405CD64901EB06314F
:100FF00001EBC511042202EB84028854C5EBC50045
:10100000CF4901EB8000032101EB4401405CCD4955
:1010100001EB063101EBC511052202EB8402885475
:10102000601CC4B20D2CD7DB8FE0002425E0C5EB9B
:10103000C500C34901EB8000022101EB4401405C83
:10104000C04901EB063101EBC511022202EB84021B
:101050008854C5EBC500BA4901EB8000032101EBC0
:101060004401405CB74901EB063101EBC511032295
:1010700002EB84028854601CC4B20D2CD7DB64E000
:1010800000242DE0C5EBC500AD4901EB8000022135
:1010900001EB4401405CAB4901EB0631012202EB5C
:1010A000450201EB8211042202EB84028854C5EB55
:1010B000C500A34901EB8000032101EB4401405C22
:1010C000A04901EB0631012202EB450200E03BE0C2
:1010D00001EB8211052202EB84028854601CC4B229
:1010E0000D2CCFDB31E000242BE0C5EBC50094498B
:1010F00001EB8000022101EB4401405C914901EBCE
:101100000631012202EB450201EB8211022202EBC1
:1011100084028854C5EBC500894901EB8000032196
:1011200001EB4401405C874901EB0631012202EBEF
:10113000450201EB8211032202EB84028854601CF9
:10114000C4B20D2CD1DB00E000BF00BF681CC5B2EB
:101150000C2DFFF61EAF781CC7B2042FFFF6F9AEB8
:10116000002410E0082040EA0610764901EB063121
:1011700001EB84110870734800EB063000EB84101B
:101180004470601CC4B2182CECDBBDE8F0872DE97C
:10119000F04107468846002405E06B48005D66493B
:1011A0000855601CC4B20B2CF7DB5F490978C1EB12
:1011B000C101604A02EB4101488903F030FD5A4801
:1011C0000078C0EBC0005B4901EB40000089401E85
:1011D00080B25E4908805E49088000251CE000243A
:1011E00008E05548031901222946032002F01EFE9B
:1011F000601CC4B2042CF4DB45B95648008840F0AA
:101200000100544908800020534908804FF4C870F9
:1012100002F0BEFF681CC5B20C2DE0DB002576E0B5
:1012200000BF0120A8404C4909880842F9D0042495
:1012300008E04148031901222946032002F0F6FD87
:10124000601CC4B20A2CF4DD3748017801208840C4
:1012500042490978814341480170374B00222946B1
:10126000042002F0E3FD0220FFF70DF9002602E062
:10127000FFF702F906462C480178012088403749DB
:101280000978084201D1002EF2D00120FFF7EAF8D8
:1012900025480178012088403049097808421BD050
:1012A0000120FFF7DFF800202C490870224B0022B4
:1012B0002946052002F0BAFD00240AE01F48015D1E
:1012C000C5EBC5001E4A02EB8002A01C1154601C35
:1012D000C4B21A2CF2DB18E0BEB1214812490978D9
:1012E000405C401C1E49104A12788854002409E0D2
:1012F0000021C5EBC500124A02EB8002A01C11546C
:10130000601CC4B21A2CF3DB03E0681CC5B20C2DC0
:1013100086DB00BFBDE8F0812DE9F04707468A462D
:101320000148077000263BE16200002050000020C9
:10133000F3A10008AC5A002064030020CE5C00201A
:10134000CC0300205C1A0020E8A10008B4000020B3
:101350006E00002000040040000000200800002073
:1013600066000020FE4810F80680FE480078C0EBBA
:10137000C000FD4901EB4000007968F30300F94922
:101380000978C1EBC101F84A02EB41010871F74944
:10139000087501F1140301221146022002F046FDF6
:1013A000F348F049097810F80190C6F10300C1B282
:1013B000EC480078FFF7EBFEED48EA490978405C1D
:1013C000484500DDEFE036B1012E39D0022E6CD059
:1013D000032E6ED1A5E000252FE0002429E0C5EB07
:1013E000C500E44901EB8000022101EB4401405CAF
:1013F000E149DC4A127801EB023101EBC51104220C
:1014000002EB84028854C5EBC500DA4901EB800089
:10141000032101EB4401405CD749D24A127801EB29
:10142000023101EBC511052202EB84028854601CD5
:10143000C4B20D2CD3DB681CC5B20C2DCDDBACE0E7
:1014400000252FE0002429E0C5EBC500C94901EBC8
:101450008000022101EB4401405CC749C14A127877
:1014600001EB023101EBC511022202EB8402885428
:10147000C5EBC500BF4901EB8000032101EB44012E
:10148000415CBD48B74A127800EB023000EBC51052
:10149000032202EB84028154601CC4B20D2CD3DB06
:1014A000681CC5B20C2DCDDB77E0002536E00024AA
:1014B00030E071E0C5EBC500AE4901EB80000221D0
:1014C00001EB4401405CAC49A64A127801EB0231C1
:1014D000012202EB450201EB8211042202EB84029D
:1014E0008854C5EBC500A34901EB8000032101EB43
:1014F0004401405CA0499B4A127801EB0231012271
:1015000002EB450201EB8211052202EB84028854B2
:10151000601CC4B20D2CCDDB681CC5B20C2DC6DB23
:101520003BE0002535E000242FE0C5EBC5009149E4
:1015300001EB8000022101EB4401405C8E49894AA5
:10154000127801EB0231012202EB450201EB82111C
:10155000022202EB84028854C5EBC500854901EBE9
:101560008000032101EB4401405C83497D4A1278ED
:1015700001EB0231012202EB450201EB8211032251
:1015800002EB84028854601CC4B20D2CCDDB681CB5
:10159000C5B20C2DC7DB00E000BF00BF701CC6B297
:1015A000042EFFF6DFAE00BF002416E06D48007881
:1015B000082141EA001070496A4A127801EB0231B1
:1015C00001EB841108706C486649097800EB013022
:1015D00000EB84104470601CC4B2182CE6DBBDE83C
:1015E000F0872DE9F04104460F465E480470012063
:1015F00062490870002530E05D485A49097810F8C2
:1016000001803A4621462846FEF74EFF5848554984
:101610000978405C404500DD21E0022040EA0410EA
:10162000554901EB043101EB85110870524800EB7C
:10163000043000EB8510457000260AE05048815DBB
:101640004D4800EB043000EB8512B01C1154701CA7
:10165000C6B21A2EF2DB681CC5B20C2DCCDB00BF63
:10166000BDE8F0812DE9F0478046802045490870AB
:10167000002605E04448805D3C498855701CC6B290
:101680000B2EF7DB0027C4E04048C45D35480470EA
:1016900017B1052002F097FD0025B5E0002608E00F
:1016A0003248831901222946032002F0BFFB701C37
:1016B000C6B2042EF4DB002D51D134B1012C1FD061
:1016C000022C38D0032C73D17BE0C4EBC401264A32
:1016D00002EB4101488903F0A2FAC4EBC40022499D
:1016E00001EB40000089401E2949088029480088F4
:1016F00040F00100274908800020274908807CE04D
:10170000C4EBC401184A02EB4101488903F05DFBB8
:10171000C4EBC400144901EB40000089401E1F497E
:1017200008801F48008840F001001D490880002003
:101730001C49088061E0C4EBC4010B4A02EB410183
:10174000488903F0AFFAC4EBC400074901EB40003D
:101750000089401E144908801448008829E04DE0A3
:10176000F3A1000862000020AC5A002064030020AE
:1017700066000020CC0300205C1A002050000020EE
:10178000CE5C002074000020E8A100086A00002060
:10179000B40000200004004000000020B60000203B
:1017A000002C014002000020B8000020000800408A
:1017B00022E040F00100FE4908800020FD49088039
:1017C0001BE0C4EBC401FC4A02EB4101488903F071
:1017D000ADFBC4EBC400F84901EB40000089401E9A
:1017E000F6490880F648008840F00100F449088076
:1017F0000020F449088000E000BF00BF4FF4C8702B
:1018000002F0C6FC681CC5B20C2DFFF647AF781C71
:10181000C7B24745FFF638AF0027C1E0EA48C05DD0
:10182000EA49087004460025B4E034B1012C0CD01C
:10183000022C12D0032C20D117E000BF0120A840B9
:10184000E34909880842F9D018E000BF0120A84008
:10185000E04909880842F9D010E000BF0120A84003
:10186000D44909880842F9D008E000BF0120A84007
:10187000D44909880842F9D000E000BF00BF04261F
:1018800008E0D548831901222946032002F0CEFA48
:10189000701CC6B20A2EF4DD0020D0490870CE4B71
:1018A00000222946042002F0C1FA0120FEF7EBFDD8
:1018B0004FF0000902E0FEF7DFFD81460120A04065
:1018C000C6490978084202D1B9F1000FF3D00120CE
:1018D000FEF7C8FD0120A040C049097808422AD07F
:1018E0000020BE490870BC4B00221146052002F0C2
:1018F0009DFA0020BA49085500260AE0B948815DE2
:10190000B94800EB043000EB8512B01C1154701C78
:10191000C6B21A2EF2DB022040EA0410B24901EBF3
:10192000043101EB85110870AF4800EB043000EB87
:10193000851045702CE0B9F1000F29D0A848005D52
:10194000401CA749085500251FE0022040EA04106A
:10195000A54901EB043101EB85110870F120A24982
:1019600001EB043101EB85114870002609E00021EC
:101970009D4800EB043000EB8512B01C1154701C24
:10198000C6B21A2EF3DB681CC5B2182DDDDB04E0ED
:10199000681CC5B20C2DFFF648AF00BF781CC7B25B
:1019A0004745FFF63BAFBDE8F08794B000201090AC
:1019B00000BF0D901390092002F03DFD482002F079
:1019C000CBFB04F03DFA002414E02F20C4EBC4014B
:1019D000794A02EB410188810120C4EBC40102EB8A
:1019E000410108816420C4EBC40102EB410148813C
:1019F000601C84B2042CE8DB00207C4908706E492E
:101A0000488940F2CF2103F0CFF86B49488940F272
:101A1000CF2103F09EF96849488940F2CF2103F0B5
:101A200005F96549488940F2CF2103F025FA0020E5
:101A3000674908806E48008840F001006C490880C2
:101A400000BF634800880028FBD000206049088060
:101A50000120FEF718FD00BFFEF70EFD0028FBD0A9
:101A60000120FEF7FFFC03F01FFEFEF7C1FC002083
:101A7000FEF706FC4FF4967002F0A5FB0120FEF77E
:101A8000FFFB06F0B0FE06F093FE06F0C9F802F088
:101A900005FE02F03DFA00205649087056490870CC
:101AA0005649086056490860A1F10401086055498B
:101AB00008604FF00100544908704FF00F0053497F
:101AC00008704FF0010052490860A1F1040108605C
:101AD000A1F104010860A1F1040108604FF00000C9
:101AE0004C49C1F8A0014FF00A0002F051FB01205F
:101AF0004849C1F8A001042002F0E2FA02F095FA88
:101B000003F05AFB00204449C860886048600860C0
:101B10000024E1E000BF0A2003F06DFE8346584632
:101B200008F092F9019007F0DFFF4FF066323B4B6F
:101B3000CDE9020107F0F0FD0022394BCDE90401A7
:101B400007F07EFCCDE908013349086807F0CCFFB7
:101B5000CDE90601DDE9082307F0CAFBCDE90A015A
:101B600007F094FB2C4908600B2003F044FE8346E9
:101B7000584608F069F9019007F0B6FF4FF0663259
:101B8000264BCDE9020107F0C7FD0022244BCDE929
:101B9000040107F055FCCDE908011F49486807F02A
:101BA000A3FFCDE90601DDE9082307F0A1FB39E039
:101BB0000008004004000020AC5A0020BA000020B9
:101BC00000340140060000206A000020620000206E
:101BD0000000002002000020640300200800002014
:101BE00066000020CE5C00205C1A0020D700002098
:101BF000000400405B0000205A0000209C8122422B
:101C0000BC81224294812342AF000020AE0000201C
:101C100098012442000024425C5A002066660A4073
:101C20000000B040CDE90A0107F030FBFE494860F2
:101C30000C2003F0E0FD8346584608F005F90190BA
:101C400007F052FF4FF06632F84BCDE9020107F082
:101C500063FD0022F64BCDE9040107F0F1FBCDE96D
:101C60000801F149886807F03FFFCDE90601DDE989
:101C7000082307F03DFBCDE90A0107F007FBEA491D
:101C800088600D2003F0B7FD8346584608F0DCF865
:101C9000019007F029FF4FF06632E44BCDE90201D5
:101CA00007F03AFD0022E24BCDE9040107F0C8FB42
:101CB000CDE90801DC49C86807F016FFCDE9060147
:101CC000DDE9082307F014FBCDE90A0107F0DEFA8D
:101CD000D549C860601C84B2042CFFF61BAF0024F9
:101CE0000BE0D14951F824004FF0814107F096FFF5
:101CF000CD4941F82400601C84B2042CF1DB01F0D2
:101D00002FBE02F096F9074617F0010F0DD102F031
:101D1000C4F9A8B1012002F08FF90321084602F0AE
:101D200067F8012002F0CCF90AE017F0020F07D0A3
:101D300017F0040F04D002F078F9042002F0C0F983
:101D4000BC48007803281BD0BB48007888B100202D
:101D5000B949087002F044F81090B848007810991A
:101D60000843B6490870B348007810B90120B1495A
:101D70000870B0480078012803D10220AD490870EE
:101D80008DE2AC4800780228FAD10320A9490870F6
:101D9000AA4807780025002409E00120A040384225
:101DA00003D0A7494C55681CC5B2601C84B2042CF2
:101DB000F3DB002D78DD0020A2490870084600788A
:101DC000002873D0A0480078C0B117F0010F02D0EE
:101DD00001209E49086017F0020F02D001209C49A3
:101DE000086017F0040F02D001209A49086017F02C
:101DF000080F06D001209849086002E001209349AD
:101E000008604FF0080002F0DEF994480078A8B9A5
:101E10000220934908702846FFF724FC00240AE0BA
:101E20008748015D012088408E49097808438D4923
:101E30000870601C84B2AC42F2DB14E008208849D0
:101E400008702846FEF787FD00240AE07C48015D03
:101E50000120884084490978084383490870601C40
:101E600084B2AC42F2DB8148007800F0010077498F
:101E700008607548007890B17C48007800F0020056
:101E8000734908607948007800F004007849C1F887
:101E9000B8017648007800F008006F4908604FF0FC
:101EA000000002F0AAF8DCE1EAE1FFE76B48007805
:101EB000002875D1002540E10120A840384270D0AB
:101EC000012002F09AF860480078C0B335B1012DC6
:101ED00010D0022D1AD0032D24D000BF01205B4961
:101EE00008606248007810F0010F02D1082002F06B
:101EF0006AF923E00120564908605C48007810F038
:101F0000020F02D1082002F05EF917E001205149CA
:101F100008605648007810F0040F02D1082002F043
:101F200052F90BE001204C4908605048007810F04D
:101F3000080F02D1082002F046F900BF07E0FFE7D2
:101F40000120424908604FF0080002F03CF949487E
:101F5000405D062826DD00261FE0022040EA05102D
:101F6000454901EB053101EB86110870F12042492A
:101F700001EB053101EB86114870002409E00021D6
:101F80003D4800EB053000EB8612A01C1154601C8C
:101F900084B21A2CF3DB701CC6B2182EDDDBAAE06B
:101FA000CFE0ABE002202E490870C5EBC5003349F5
:101FB00001EB400000890A2865DD2E4810F80580F5
:101FC000681C47FA00F12846FEF7B6FE2948405D36
:101FD000404523DD00261FE0022040EA0510264987
:101FE00001EB053101EB86110870F120224901EB6C
:101FF000053101EB86114870002409E000211E48DC
:1020000000EB053000EB8612A01C1154601C84B25A
:102010001A2CF3DB701CC6B2182EDDDB0120A840A1
:102020001049097808432BE05C5A002066660A4094
:102030000000B040530000205E0000205D00002042
:102040006A000020740000205B000020948123427D
:102050009C812242B8812242BC8122426000002041
:102060005000002064000020650000205A0000207D
:1020700000802242660000205C1A0020AC5A00203A
:10208000F649087037E0F64810F80580681C47FAF2
:1020900000F12846FFF7A5FA0120A840EF4909788A
:1020A0000843EE490870EE48405D404523DD0026B8
:1020B0001FE0022040EA0510EA4901EB053101EB7F
:1020C00086110870F120E74901EB053101EB86111B
:1020D0004870002409E00021E24800EB053000EBE5
:1020E0008612A01C1154601C84B21A2CF3DB701CE5
:1020F000C6B2182EDDDB002001F07FFFDA48007841
:1021000000F00100D9490860D948007890B1D6485C
:10211000007800F00200D7490860D348007800F04A
:102120000400D549C1F8B801CF48007800F0080094
:10213000D249086005F10100C5B2042DFFF6BCAE1E
:102140008FE00820CE490870002587E00120A840D4
:1021500038427DD0012001F050FFC5480078C0B35F
:1021600035B1012D10D0022D1AD0032D24D000BF7F
:102170000120BE490860BC48007810F0010F02D170
:10218000082002F020F823E00120BA490860B64890
:10219000007810F0020F02D1082002F014F817E0C6
:1021A0000120B8490860B048007810F0040F02D14F
:1021B000082002F008F80BE00120B0490860AA48A6
:1021C000007810F0080F02D1082001F0FCFF00BFDA
:1021D00007E0FFE70120A54908604FF0080001F083
:1021E000F2FFC5EBC500A84901EB400000890A28B1
:1021F00006DD681C47FA00F12846FFF78DF805E078
:10220000681C47FA00F12846FEF798FE0120A84016
:102210009E49097808439D4908709348007800F06A
:102220000100924908609248007888B18E48007891
:1022300000F002008F4908608B48007800F004002D
:102240008D49C1F8B8018848007800F0080000E026
:1022500001E08A49086005F10100C5B2042DFFF6CE
:1022600075AF00208A4908708A48007800F00F0096
:102270008949097808438849087000208549087011
:1022800001F0D7FE074617F0010F08D017F0020F34
:1022900005D1022001F0D0FE022001F011FF7F489D
:1022A0000078012809D103207D4908707D48007815
:1022B0007D49087000207949087079480078032822
:1022C00041F038837848007878490870002405E0A8
:1022D0007748005D77490855601C84B273480078E0
:1022E0008442F5DB00206E4908706F4908706F4822
:1022F00001787048FEF7E9FD0128E1D16D4840788A
:1023000001287DD0022807D0042801F0718015280B
:1023100041F00E8301F0EEBA6648C078051100BFA7
:102320000DB105F00F056348C07863490870042DAE
:102330000ADB0F2D08D007200F9001230A46022147
:10234000FDF7EEFF01F0F5BA5C4805705C480570DA
:102350005848C07800F00F00012804D002287BD034
:1023600008287AD178E242480078C8B135B1012D09
:1023700008D0022D0AD0032D10D10BE001203B49DB
:1023800008600CE001203B49086008E001203D495D
:10239000086004E001203949086000E000BF02E065
:1023A0000120324908604FF0010001F026FE0620AE
:1023B00001F009FF0120324908703E4890F804A05E
:1023C000BAF10C0F04DD03200F9001200E9036E0CF
:1023D00000223B4801785046FEF766F800200F9037
:1023E0002148007800F0010020490860204800786A
:1023F000A0B11D480078C0F340001E49086000E00D
:10240000FEE319480078C0F380001B49C1F8B80109
:1024100015480078C0F3C00018490860264880F8C5
:1024200001A04FF0000406E02648015D224AA01CEE
:102430001154601C84B21A2CF6DB1C200E90002074
:1024400001F0DBFD1C4A0221DDE90E30FDF768FFDB
:10245000232001F0B8FE2BE236E0F1E36400002017
:10246000660000205C1A00205A000020948123425C
:102470005B0000209C81224200802242BC812242DB
:1024800050000020B8812242AC5A00206500002094
:10249000530000205D0000205C000020520200205C
:1024A000C700002054020020C60000200C000020BD
:1024B000945B00208C0300200D00002063000020AE
:1024C00062000020CE5C00200F2D1DD1F94800795C
:1024D00000F00F07F74800790009F749087000205D
:1024E0000F90384601F092FC02200E90F148C0781F
:1024F000F2490870EF48007948700A460221DDE988
:102500000E30FDF70DFFA6E7ED480078284110F0EA
:10251000010F22D00120A840E94909788143E84809
:1025200001700120A840E74909788143E54801701E
:102530001C2700240EE0E44800EB053000EB841279
:102540003B4602210020FDF7EBFE232001F03BFE7D
:10255000601C84B20C2CEEDB7DE7DC48405D062875
:1025600031DD00242CE0022040EA0510C4EBC40158
:10257000D74A02F82100F120C4EBC40102EB81012B
:102580004870002609E00021C4EBC400D04A02EBE9
:102590008002B01C1154701CC6B21A2EF3DB1C2032
:1025A0000E90C4EBC400CA4901EB80020221DDE9B0
:1025B0000E30FDF7B5FE232001F005FE601C84B24D
:1025C0000C2CD0DB47E7C3480078C8B135B1012DEA
:1025D00008D0022D0AD0032D10D10BE00120BE49F6
:1025E00008600CE00120BD49086008E00120BC49FA
:1025F000086004E00120BB49086000E000BF02E081
:102600000120B54908604FF0010001F0F6FC0620FA
:1026100001F0D9FDB4480078C0EBC000B34901EB2C
:10262000400000890A2870DD0220B1490870A748DF
:10263000AD49097810F8018000212846FEF77CFB9F
:10264000AC48007800F00100A3490860A148007878
:1026500090B1A8480078C0F34000A0490860A548A0
:102660000078C0F38000A449C1F8B801A1480078FF
:10267000C0F3C0009B49086094489B490978405CBE
:1026800040452CDD002628E097480078022141EAE9
:102690000010C1B28C48944A127800EB023000EB73
:1026A00086100170F12088498F4A127801EB0231BF
:1026B00001EB8611487000240BE0002182488A4A11
:1026C000127800EB023000EB8612A01C1154601C43
:1026D00084B21A2CF1DB701CC6B20C2ED4DB1C2782
:1026E00000240EE0784800EB053000EB84123B46F6
:1026F00002210020FDF714FE232001F064FD601C80
:1027000084B20C2CEEDBA3E0FFE7012078490870CF
:1027100000200F906D487449097810F801804FF03F
:10272000000A21E0CAF10B00C2B26F48017850469E
:10273000FDF7BAFE65486C490978405C404500DD0C
:1027400015E000240AE06D48015DCAEBCA00604A4A
:1027500002EB8002A01C1154601C84B21A2CF2DB24
:102760000AF1010000F0FF0ABAF10C0FDADB00BF3A
:102770006048007800F0010057490860554800782B
:1027800090B15C480078C0F3400054490860594853
:102790000078C0F380005849C1F8B8015548007866
:1027A000C0F3C0004F49086048484F490978405C71
:1027B000404524DD00241FE04B480078022141EA17
:1027C0000010C4EBC401424A02F82100F120C4EB1E
:1027D000C40102EB81014870002609E00021C4EB2E
:1027E000C4003B4A02EB8002B01C1154701CC6B2FC
:1027F0001A2EF3DB601C84B20C2CDDDB14E0002409
:1028000010E039480078022141EA0010C4EBC4010D
:102810002F4A02F82100C4EBC40102EB81014C7085
:10282000601C84B20C2CECDB1C2700240EE0C4EBF3
:10283000C400274901EB80023B4602210020FDF73E
:102840006FFD232001F0BFFC601C84B20C2CEEDB7A
:10285000002001F0D2FBEFE200200F900820244975
:10286000087027480078284110F0010F4AD0012055
:10287000A840234909788143214801700120A840DC
:102880001049097881430F48017000240EE00E487A
:1028900000EB053000EB8412342302210020FDF709
:1028A0003FFD232001F08FFC601C84B2182CEEDB6E
:1028B000C2E200008C030020600000200D00002018
:1028C000640000205C0000205C1A002066000020EC
:1028D000CC0300205B000020948123429C81224293
:1028E000B8812242BC81224262000020AC5A002002
:1028F000500000205A00002000802242CE5C0020C0
:1029000065000020FC48FD490978405C062831DD5F
:1029100000242CE0F9480078082141EA0010C4EBBB
:10292000C401F74A02F82100F120C4EBC40102EB14
:1029300081014870002609E00021C4EBC400F04A80
:1029400002EB8002B01C1154701CC6B2342EF3DBB3
:10295000C4EBC400EA4901EB8002342302210F9842
:10296000FDF7DEFC232001F02EFC601C84B2182C45
:10297000D0DB61E2E3480078C8B135B1012D08D061
:10298000022D0AD0032D10D10BE00120DE49086092
:102990000CE00120DD49086008E00120DC49086006
:1029A00004E00120DB49086000E000BF02E00120F4
:1029B000D54908604FF0010001F01FFB062001F02F
:1029C00002FCCD48CD49097810F80180CB48007849
:1029D000C0EBC000D04901EB400000890A2855DD5A
:1029E000C6480078CD4908700120FDF7B4FFCC48F7
:1029F000007800F00100C4490860C248007890B136
:102A0000C7480078C0F34000C0490860C448007857
:102A1000C0F38000C349C1F8B801C1480078C0F3D1
:102A2000C000BC490860B448B4490978405C4045DE
:102A30002BDD002627E0B1480078082141EA00108C
:102A4000B949AE4A127801EB023101EB86110870E8
:102A5000F121B548A94A127800EB023000EB86104C
:102A6000417000240BE00021AF48A44A127800EB2B
:102A7000023000EB8612A01C1154601C84B2342C6E
:102A8000F1DB701CC6B2182ED5DB8CE10120A74902
:102A9000087000200F90002765E1A548C05D1290E6
:102AA00096490978C1EBC1019B4A02EB41010979C2
:102AB000129860F3030191480078C0EBC00002EB6C
:102AC000400001719B48017500F114030122114679
:102AD000022001F0ABF90026E8E0C6F10B00C2B21B
:102AE000864801783046FDF7DFFC83488349097842
:102AF000405C404500DDDCE000240AE08E48015DDA
:102B0000C6EBC6007E4A02EB8002A01C1154601C7A
:102B100084B21A2CF2DB794890F8009037B1012F7B
:102B20002FD0022F58D0032F6BD18AE0002425E04C
:102B3000C6EBC600724901EB8000022101EB4401A3
:102B4000405C794901EB093101EBC611042202EB2B
:102B500084028854C6EBC600694901EB800003215A
:102B600001EB4401405C704901EB093101EBC611F6
:102B7000052202EB84028854601C84B20D2CD7DB42
:102B800091E0002425E0C6EBC6005D4901EB800022
:102B9000022101EB4401405C634901EB093101EB87
:102BA000C611022202EB84028854C6EBC6005449C7
:102BB00001EB8000032101EB4401405C5A4901EB29
:102BC000093101EBC611032202EB84028854601C18
:102BD00084B20D2CD7DB66E000242EE0C6EBC600E5
:102BE000474901EB8000022101EB4401405C4E4962
:102BF00001EB0931012202EB460201EB821101E0F7
:102C00001CE14FE0042202EB84028854C6EBC600AC
:102C10003B4901EB8000032101EB4401405C424948
:102C200001EB0931012202EB460201EB8211052280
:102C300002EB84028854601C84B20D2CCEDB32E09F
:102C4000F9E000242BE0C6EBC6002D4901EB800023
:102C5000022101EB4401405C334901EB09310122BF
:102C600002EB460201EB8211022202EB840288543D
:102C7000C6EBC600224901EB8000032101EB4401B1
:102C8000405C294901EB0931012202EB460201EBCC
:102C90008211032202EB84028854601C84B20D2C42
:102CA000D1DB00E000BF00BF701CC6B20C2EFFF6E7
:102CB00014AF00BF104811490978405C404550DD11
:102CC00000264BE00D480078082141EA0010C1B20F
:102CD00015480A4A127800EB023000EB86100170AA
:102CE000F1211148054A127800EB023000EB861002
:102CF000417000242EE000006600002062000020E9
:102D0000CC0300205B000020948123429C8122425E
:102D1000B8812242BC812242AC5A00206A000020C5
:102D20005A000020008022425C1A0020500000203F
:102D3000F3A1000864030020CE5C00200021FB48C2
:102D4000FB4A127800EB023000EB8612A01C1154F3
:102D5000601C84B2342CF1DB701CC6B2182EB1DBBF
:102D600004E0781CC7B2042FFFF697AE00BFF1480D
:102D7000007800F00100F0490860F048007890B158
:102D8000EC480078C0F34000ED490860E94800785D
:102D9000C0F38000EB49C1F8B801E6480078C0F301
:102DA000C000E94908604FF0000001F026F9002456
:102DB00026E0DF480078082141EA0010DB49DC4AC0
:102DC000127801EB023101EB84110870DF48D84919
:102DD0000978405C404509DDF120D449D44A127895
:102DE00001EB023101EB8411487007E0CF49D04A72
:102DF000127801EB023101EB84114C70601C84B23B
:102E0000182CD6DB002410E0C848C949097800EB2B
:102E1000013000EB8412342302210020FDF780FAF8
:102E2000232001F0D0F9601C84B2182CECDB0020C8
:102E3000C749087000E000BF00BFD8E200200F9033
:102E400001200E90C348C078C3490870C1488078FB
:102E5000012802DA01200F90C3E2BE48C078292879
:102E60007DD2DFE800F07C1529405F809FBEF7F53A
:102E7000F47C7C7CF3F2F17C7C7C7C7C7C7C7C7CB8
:102E80007C7C7C7C7C7CF0EFEEEDECEBEA7CE9007A
:102E900000200F90AF480779A5480078C0EBC0002C
:102EA000AE4901F81070AE480770034601220521B3
:102EB000022000F0BBFF93E200200F90A5480779A5
:102EC00007F00F009A490978C1EBC101A34A02EB50
:102ED00041014870A24908700B46012204210220DA
:102EE00000F0A4FF7CE200200F909A4807799048F8
:102EF0000078C0EBC000994901EB4000807867F38F
:102F000003008B490978C1EBC101944A02EB4101EE
:102F10008870934908700B4601220321022000F0BB
:102F200085FF5DE200200F908A480779804800788D
:102F3000C0EBC000894901EB4000C07867F307107F
:102F40007B490978C1EBC101844A02EB4101C87099
:102F5000834908700B4601220221084600E03CE24A
:102F600000F064FF3CE200200F907A480779704837
:102F70000078C0EBC000794901EB4000C07867F3EE
:102F800003006B490978C1EBC101744A02EB4101AE
:102F9000C870734908700B4601220221084600F0F0
:102FA00045FF1DE200200F906A48077960480078CD
:102FB000C0EBC000694901EB4000807867F307105F
:102FC0005B490978C1EBC101644A02EB4101887099
:102FD000634908700B4601220321022000F026FFFE
:102FE000FEE100200F905B480779514800785D4969
:102FF0000870002419E04E490C70C4EBC400574916
:1030000001EB4000007967F30410C4EBC401534A9C
:1030100002EB41010871524908700B46012211462A
:10302000022000F003FF601C84B2042CE3DB4D4857
:1030300000783F490870D3E1B9E1A8E198E17BE16C
:103040003FE113E1E7E053E045E0A1E0AFE03FE01E
:103050001FE0FFE700200F903E48077934480078D2
:10306000C0EBC0003D4901EB4000007967F303006D
:103070002F490978C1EBC101384A02EB41010871BF
:10308000374908700B4601221146022000F0CEFE9F
:10309000A6E100200F902F48077925480078C0EB63
:1030A000C0002E4901EB4000407967F3020020493F
:1030B0000978C1EBC101294A02EB41014871284955
:1030C00008700B4601220621022000F0AFFE87E1C6
:1030D00002200F9084E100200F901E4800791449CF
:1030E0000978C1EBC1011D4A02EB4101887177E10A
:1030F00000200F908346174890F805B0007940EA09
:103100000B2B144800791849087012484079487010
:103110001048807988700F48C079C870086800210D
:1031200006F03EFE31D000242CE000005C1A0020A6
:10313000620000205A000020948123425B0000209E
:103140009C81224200802242BC81224266000020F3
:10315000500000208C0300200D000020AC5A0020FD
:1031600064030020630000209C000020F3490868ED
:1031700006F04AFEC4EBC401F14A02EB41010881AA
:10318000601C84B2042CF1DB01E006200F9027E1E3
:1031900000200F90EB4908604FF00A0000F0F8FFA4
:1031A0000120E949C1F8A001FDF722F918E100204A
:1031B0000F90E648077907F00307032F01D0384640
:1031C00000E00220E2490870012F10D10120E149FE
:1031D0000860A1F104010860A1F104010860A1F1F7
:1031E000040108604FF00F00DB49087012E077B966
:1031F0000020D8490860A1F104010860A1F1040190
:103200000860A1F104010860D349087002E00220BF
:10321000CF490870E4E000200F908346CB4890F837
:1032200005B0007940EA0B2BC8480079C349087003
:10323000C64840794870C54880798870C348C079CD
:10324000C8700868002106F013FF0CD2BB4908685B
:10325000C24906F00DFE06D2B849086806F0D4FD52
:10326000BF49088001E007200F90B9E000200F90CF
:103270008346B64890F805B0007940EA0B2BB34876
:103280000079AE490870B14840794870AF488079FC
:103290008870AE48C079C8700868002106F0E8FE62
:1032A0000CD2A6490868AD4906F0E2FD06D2A34952
:1032B000086806F0A9FDAB49088001E007200F90DF
:1032C0008EE000200F90A14890F80480A64880F876
:1032D000008008F08000A54908700020A44908601B
:1032E000A1F104010860A3490860A349C1F8940151
:1032F0009E480078C8B19C48007800F001009F49C2
:10330000086099480078C0F340009D49C1F89C01CD
:1033100095480078C0F38000C1F8B8019248007861
:10332000C0F3C000C1F8BC0105E08F48007800F090
:1033300001009249086053E000200F908348007913
:1033400000F00F008F4908700846007810B9FDF7AB
:1033500048F80CE0FCF7B9FF8A480078FDF723F83D
:10336000894800684FF6FF7108438749086037E0D5
:1033700000200F90754890F80480B8F1010F02DD2D
:1033800007200F9002E0814880F8008028E00020AC
:103390000F906E480079042806DA6C4800797C4961
:1033A00008707C49087001E007200F9018E00020A9
:1033B0000F906648007900F001000D900D9810B153
:1033C000FCF783FF01E0FCF79CFF002072490870C6
:1033D000724908707249087002E005200F9000BF22
:1033E00000BF704A0121DDE90E30FCF799FFA0E231
:1033F00000200F9001200E905448C0786949087051
:1034000052488078012802DA01200F906BE24F4881
:10341000C078102875D00BDC0F2873D2DFE800F0DD
:103420007225364A5E74C4D7EFEDEC727272EB000F
:10343000242868D00CDC21287AD004DC112878D02C
:1034400020285FD123E1222874D02328F9D1FBE181
:10345000272870D004DC25286ED02628F1D115E26B
:1034600028286AD04028ECD132E100200F900120BA
:103470004C49087047480078C0EBC000304911F84B
:1034800010004849487002200E902BE200200F9057
:103490000220444908703F480078C0EBC00028492A
:1034A00001EB4000407800F00F003E4948700220D8
:1034B0000E9017E200200F9003203A49087035481B
:1034C0000078C0EBC0001E4901EB4000807800F09E
:1034D0000F003449487002200E9003E200200F9044
:1034E0000420304908702B480078C0EBC000144914
:1034F00001EB4000C07800092A49487002200E9074
:10350000F0E1B2E0EBE1AAE100200F9005202549AF
:10351000087020480078C0EBC000094901EB40006A
:10352000C07800F00F001F49487002200E90D9E1CA
:1035300054E100E16DE1B4E19CE1C6E19C000020B2
:10354000AC5A0020A0012442000024428C03002039
:10355000AF00002098012442AE0000200000FA4491
:1035600056000020580000205A0000205B00002078
:10357000BC8122429C8122420080234294812342CA
:1035800000802242610000201404014060000020FD
:1035900063000020620000205C0000206500002025
:1035A000640000200D00002000200F900620FD493F
:1035B0000870FD480078C0EBC000FC4901EB4000FA
:1035C00080780009F749487002200E908AE10020B7
:1035D0000F900720F3490870F3480078C0EBC00053
:1035E000F24901EB40000079C0F30010ED4948704A
:1035F00002200E9076E12DE029E014E0FFE70020A4
:103600000F900820E7490870E7480078C0EBC00039
:10361000E64901EB4000007900F00F00E1494870F5
:1036200002200E905EE100200F900920DD49087015
:10363000DD480078C0EBC000DC4901EB4000407978
:1036400000F00700D749487002200E904AE102209E
:103650000F9047E100200F900E20D2490870D44807
:103660000078487002200E903CE100200F9010205E
:10367000CC490870CC480078C0EBC000CB4901EBC6
:1036800040008079C749487002200E902AE100204E
:103690000F902020C3490870C3490978C1EBC101CC
:1036A000C24A02EB4101088906F0CEFBC14908601D
:1036B00008460078BB494870BE4840788870BD48CD
:1036C0008078C870BB48C078087105200E9009E169
:1036D000B548007830B101280AD002280ED003285E
:1036E00018D111E00E21012002F0A6F8119014E08B
:1036F0000F21012002F0A0F811900EE00821012016
:1037000002F09AF8119008E00921012002F094F8E3
:10371000119002E00020119000BF00BF00200F9028
:103720004020A049087011984870119800128870C4
:1037300003200E90D6E000200F90012000F05DFCE9
:103740009948007830B101280AD002280ED0032809
:1037500018D111E00A21084602F06EF8119014E029
:103760000A210B2002F068F811900EE00A210C20CB
:1037700002F062F8119008E00A210D2002F05CF8D6
:10378000119002E007200F9000BF00BF002000F062
:1037900034FC119806F058FB079006F0A5F94FF09D
:1037A0006632854BCDE9080105F0B6FFCDE90A0187
:1037B00005F06CFD7F49086011207A4908707D484A
:1037C000007848707B48407888707A488078C87064
:1037D0007848C078087105200E9083E000200F9093
:1037E0002120704908707548008806F02DFB71494A
:1037F0000860084600786B4948706E4840788870C9
:103800006C488078C8706B48C078087105200E90AD
:1038100068E000200F902220624908706848008804
:1038200006F012FB63490860084600785D4948705D
:103830006048407888705F488078C8705D48C0787C
:10384000087105200E904DE000200F9002200E9090
:103850002320544908705B480078487042E00020FB
:103860000F9002200E9024204E4908705648007890
:10387000487037E000200F9002200E9053480079E6
:10388000484908705248007848702BE000200F909B
:1038900002200E9026204349087043480078487063
:1038A00020E000200F9007200E9027203D4908704F
:1038B00005204870012088701020C8701120087100
:1038C00006204871032088710CE000200F90022030
:1038D0000E902820334908700D98487002E00520AA
:1038E0000F9000BF00BF2F4A0421DDE90E30FCF726
:1038F00017FD1EE000200F9001200E903348C07885
:10390000284908703148C078012806D1087031482C
:103910000078487002200E9002E005200F9000BF52
:1039200000BF204A1521DDE90E30FCF7F9FC00E06C
:1039300000BF00BF1398401CC0B213902648007807
:1039400002280DD1002405E02448005D24490855D3
:10395000601C84B20C988442F6DB00201E4908707B
:10396000FEF7CFB92DE9F0478046894692461F46BB
:10397000AA201C490870084680F8018080F802904F
:10398000C7700425002407E01AF8040015494855BB
:10399000601CC4B2681CC5B2BC42F5DB0026012421
:1039A00028E000000D00002062000020AC5A00203A
:1039B000AE0000209C00002066664A3F56000020B2
:1039C000580000205A000020610000208C030020D5
:1039D000600000205C000020D7000020CE5C0020AA
:1039E0003C0300206C5A0020E648005D3044C6B21B
:1039F000601CC4B2681EA042F6DC172E01D1701CF8
:103A0000C6B2E048465517210246A81C1154681C4E
:103A100011540021E81C1154002406E0D949085D26
:103A2000D94905F055FB601CC4B2402CF6DBBDE85B
:103A3000F0872DE9F04104460F4615461E46D3484F
:103A40000078012806D033462A4604212046FFF795
:103A500089FF08E033462A4611212046FCF760FC26
:103A60000020CA490870BDE8F08170B5C8480068F8
:103A7000C0F38314ACB1002501E0681CC5B2F02D81
:103A8000FBDBC3480068C0F38314C2480068C0F37E
:103A9000831634402CB1E0B200F0B8F90120BE49E1
:103AA0000870BB4800684FF6FF710843B8490860CA
:103AB00070BD0120B6490860B848007840F00100A8
:103AC000B64908707047B249086810F4604F07D0D3
:103AD0000E2101EA1031B14A12781143AF4A117038
:103AE000AB49096841F46041A94A1160704710B5BB
:103AF0000120AB490860AB4908704FF00A0000F0A4
:103B000062FBA94B00221146042000F08FF900202F
:103B1000A249087000BFA14800780028FBD0A34844
:103B20000078012804D000209D4908609D49087054
:103B30009D4B4FF0000211464FF0050000F076F962
:103B400010BD10B504469A480470012302461021A6
:103B50000020FCF7E5FB10BD70B502209549087008
:103B60000F2095490870002423E00025934805554F
:103B70001920C4EBC401924A02EB41010881C4F14F
:103B80000300C1B22046FDF7D7F88C48005DA8427B
:103B900006DD0120A04088490978814386480170EC
:103BA0000120C4EBC401864A02EB41010881601C7C
:103BB000C4B2042CD9DB00207E49087070BD2DE909
:103BC000F04F8BB0002004900590069007907D4840
:103BD000008820F001007B4908804FF0000A93E044
:103BE0000A2001F008FEADF82000BDF8200005F025
:103BF0007FFD4FF06632744BCDE9000105F08CFD7E
:103C00000022724BCDE9020105F01AFC06460F4670
:103C1000049805F069FF804632463B4605F068FB94
:103C2000044605F033FB04900B2001F0E4FDADF8F1
:103C30002200BDF8220005F05BFD4FF06632624BBA
:103C4000CDE9000105F068FD064600225F4B05F056
:103C5000F7FB04460D46059805F046FF80462246D0
:103C60002B4605F045FBCDE9020105F00FFB059061
:103C70000C2001F0C0FDADF82400BDF8240005F0D3
:103C800037FD80464FF066324F4B05F045FD002270
:103C90004E4BCDE9000105F0D3FB06460F460698D2
:103CA00005F022FF32463B46CDE9020105F020FB3C
:103CB000044605F0EBFA06900D2001F09CFDADF8EE
:103CC0002600BDF8260005F013FD80464FF0663251
:103CD0003D4B05F021FD064600223C4B05F0B0FBB4
:103CE00004460D46079805F0FFFE22462B46CDE917
:103CF000000105F0FDFACDE9020105F0C7FA0790D1
:103D00000AF101001FFA80FABAF1320FFFF668AF2C
:103D10004FF0000A2FE004A951F82A002C4905F0C1
:103D20007DFF04A941F82A002A4A52F82A1004AA61
:103D300052F82A0006F0D8F9834605F0D5FE06466B
:103D4000254A264B05F0E8FC04460D46214951F86A
:103D50002A0005F0C9FE804622462B4605F0C8FA27
:103D6000CDE9020105F092FA1A4941F82A000AF158
:103D700001001FFA80FABAF1040FCCDB0BB0BDE8EA
:103D8000F08F00006C5A0020C80000205202002072
:103D900014040140081C01405E00002008000020BF
:103DA0008C012442AE00002064030020AF000020FC
:103DB0000D0000205000002061000020660000205F
:103DC000AC5A0020100C004066660A400000B0406B
:103DD000000048425C5A00209A9999999999B93FF4
:103DE000C84908780021C74A1170C74A1170704746
:103DF0000840C44A1278824207D0C24A127802436D
:103E0000C04B1A700122C04B1A707047BF49097825
:103E10000840BC490978814207D0BA490978014372
:103E2000B84A11700121B84A117070472DE9F0416C
:103E300080460E4615461F46102D02DD0120BDE8C6
:103E4000F081B8F1020F20D0B8F1030F06D0B8F11D
:103E5000040F31D0B8F1050F3FD134E00C2E11DA48
:103E600046F06000AA490870002404E0395D601C37
:103E7000A74A1154C4B2AC42F8DB691CC8B202F0C4
:103E80009BF801E00320DAE729E0062E11DC46F07A
:103E900040009F490870002404E0395D601C9C4A82
:103EA0001154C4B2AC42F8DB691CC8B202F084F809
:103EB00001E00320C3E712E080209549087001204B
:103EC00002F07AF80BE0FF20914908701A2002F006
:103ED00073F81A2002F0FFF801E00220AFE700BFFC
:103EE0000020ACE730B502460B4600200DE0894DBE
:103EF000441C295D4FF6FF7404EA01112C46245C32
:103F0000214302F8011B841CE0B29842EFDB30BD74
:103F10008148806940F480707F4988617F480068EB
:103F20007F4908407D490860084600687D4908438C
:103F30007A4908600846C06820F07800C860704779
:103F400070B504460D4665B3012D53D10120A04044
:103F500075490978084223D134B1012C08D0022CCC
:103F60000AD0032C10D10BE00120704908600CE04E
:103F700001206F49086008E001206E49086004E0F4
:103F800001206D49086000E000BF00BF0A2000F07A
:103F90001AF90120A0406449097808436249087071
:103FA00029E00120A040604909780840012820D17B
:103FB00034B1012C08D0022C0AD0032C10D10BE014
:103FC00000205A4908600CE000205949086008E0C8
:103FD00000205849086004E000205749086000E0CC
:103FE00000BF00BF0120A0404F49097881434E48DF
:103FF000017000E000BF00BF70BD10B5044604F0C2
:1040000001004E49097888420ED004F001004B4966
:10401000087004F00100C04349490860474800782F
:1040200010B10A2000F0CFF810BD002045490870FB
:104030007047444800787047012804D0022809D00E
:10404000042815D10DE03F49097841F001013D4AAE
:1040500011700EE03B49097841F00201394A1170B4
:1040600007E03849097841F00401364A117000E050
:1040700000BF00BF704710B532203349087041F6C9
:10408000FF014FF4FA6001F00FF810BD10B501F018
:104090001BF800202C49087010BD10B500242B48D7
:1040A0000068C4B254B90A2000F08DF827480068AF
:1040B00040EA0400C4B20CB9012010BD0020FCE7A6
:1040C00010B50446012C02D0022C0FD108E00120CB
:1040D0001F4908604FF000001E49C1F8BC010EE006
:1040E00000201B490860FFF7C6FF08E0FFF7CEFF7E
:1040F0000020174908601749C1F8BC0100BF00BF84
:1041000010BD0000BC0000205E0000206100002007
:10411000A65C0020CE5C0020001002400020014080
:10412000FF0F00F000303303AE0000208C0124426A
:10413000900124429401244298012442BD000020B1
:1041400088812242BF000020BE00002038012242A8
:10415000B8812342000022424FF0E021096921F09A
:1041600004014FF0E0221161C21700EB5272C2F35A
:10417000C702224B1A701946097801EB4102C2EBC3
:10418000C1114FF6FF7202EAC1011D4A118070474A
:1041900001461A4A12784A434FF0E0235A6100223E
:1041A0009A6101221A6100BF4FF0E022106910F0FD
:1041B000010F02D010F4803FF6D000224FF0E02330
:1041C0001A619A61704701460D4A12884A434FF0BE
:1041D000E0235A6100229A6101221A6100BF4FF068
:1041E000E022106910F0010F02D010F4803FF6D0E9
:1041F00000224FF0E0231A619A617047C00000204E
:10420000C2000020AC4A0A400243AC4B1A6070471F
:104210000146072323EA01021202A84B1B1D18685E
:104220004FF6FF031840A64B18431043A34B1B1D2A
:10423000186070472DE9F0478046894614461D46B0
:104240002046E11704EB9171C1F3870AE11704EBF3
:1042500091718910A4EB8101CFB2042000EBC7005B
:10426000C7B22846FFF7D4FFC5F1040008FA00F6EC
:104270000F20284100EA0900064306F00F06202C13
:104280000CDA904801684FF0010000FA04F041EAAE
:1042900000014FF0E020C0F800110DE08A480068EE
:1042A000A4F120014FF0010202FA01F240EA0200FB
:1042B0004FF0E021C1F80401844850F82A0006FAC2
:1042C00007F140EA0100814941F82A00BDE8F08782
:1042D00070B504460B46CE1701EB9676C6F3870001
:1042E000CE1701EB9676B610A1EB8606B606350E14
:1042F000774B9B6943F00103754EB3614FEAB633C8
:1043000053F820300F26AE40B343724E46F82030AB
:10431000334653F8203004FA05F61E436D4B43F83C
:1043200020606D4B1B6801268E4033436A4E33601C
:1043300012F0010F08D0684B0C331B6801268E4029
:104340003343654E0C36336012F0020F08D0624BD7
:1043500008331E6801238B401E435F4B08331E60E9
:1043600070BD00B500205A490861C8601520486139
:1043700000208861C8610846006840F001000860BC
:104380000846406855490840514948600846006859
:10439000534908404E4908600846006820F48020D0
:1043A00008600846406820F4FE00486000208860ED
:1043B00000214FF00060FFF725FF00BD10B53F481A
:1043C0000830006840F004003C490831086040486B
:1043D000C06940F080503E49C8614248406840F49E
:1043E0008070404948600846006840F0040008605A
:1043F0000846006840F002000860FBF717FF10BD98
:104400002F48001D2D49091D0860704701464906C7
:104410002F4A926942F001022D4B9A612D4A083AC7
:10442000526822F0E0622B4B083B5A601A465268F1
:104430000A435A60704730B504460025FFF791FFE4
:104440002348006840F480302149086000BF2048BC
:104450000068400CFBD04FF410501D494860A01E6E
:10446000C4B20846406840EA844048600846406854
:1044700040F4803048601C48006840F032001A491F
:1044800008601348006840F080701149086000BF60
:104490000F480068400EFBD00D48406840F0020015
:1044A0000B49486005E00A484068C0F3870505F0FD
:1044B0000305022DF7D130BD80FFFF1F08ED00E09E
:1044C0000000FA0500E100E004E100E000E400E0A3
:1044D0000010024008000140000401400000FFF805
:1044E000FFFFF6FE0070004000200240014600BFC2
:1044F000704700BF624A128812F0400FFAD0C2B271
:104500005F4B1B1D1A8070475D49098811F0200F11
:104510004AD05B49091D0988C8B25A49097851B97E
:104520000021594A1170AA283ED15849087001212A
:10453000544A117038E05349097801291FD1524972
:104540000978402915DA50490978491C4E4A1170FA
:104550004E4912788854172802D10221494A117015
:104560004949097805291FD147490978464A1170F8
:104570001AE00021434A1170434A117014E0414986
:104580000978022910D140490978491C3E4A117026
:104590003E4912788854172803D10321394A1170F3
:1045A00002E00121374A117070472DE9F05F05469E
:1045B0000E46300105F048FC8146354905FB01F007
:1045C00005F042FC8246494605F028FB074638467E
:1045D00005F01AFC84B2204605F036FC83463946C5
:1045E00005F077FD82464FF0834105F075FC81466A
:1045F00005F00AFC80464FF6FF7000EA041404EB55
:10460000080084B22348806940F004002149886191
:104610000846806940F4804088611F48006820F4A3
:104620007F601D4908600846006840F40B60086020
:104630001848C06840F480401649C8600846C06801
:1046400020F48040C8600E4808300480001D0088B7
:1046500042F20C0108430A490C31088008460088E0
:1046600040F4807008800846008840F020000880F0
:104670000223252203210846FFF7DCFDBDE8F09F59
:1046800000380140C7000020C6000020945B0020D5
:1046900040420F00001002400408014010B5BC4821
:1046A000806940F00800BA4988610846806940F096
:1046B000100088610846806940F00400886108465F
:1046C000806940F0400088610846806940F480704D
:1046D00088610846806940F080008861AD48406884
:1046E00020F00F00AB4948600846406840F00300E6
:1046F00048600846C06840F48070C860084640685A
:10470000C0F31300486008464068A3490843A14924
:1047100048600846C06820F46040C8609C488069D2
:1047200040F020009A4988619C48006820F470603D
:104730009A4908600846006840F44070086097484D
:104740000C30006840F0040094490C310860944833
:10475000006820F07060924908600846006840F0E8
:10476000407008608E480830006820F480408C4912
:10477000083108608B48406820F0704089494860E3
:104780000846406840F0405048600846C06820F441
:104790000040C8600846406820F0706048600846E5
:1047A000406840F0006048600846C06840F48040BF
:1047B000C8607B48001F006820F47F007849091F0B
:1047C00008600846006840F44C10086074480830DF
:1047D000006820F030007249083108606F480068B6
:1047E00020F070406D4908600846006840F0405075
:1047F00008606A480C30006820F0800067490C317E
:1048000008606648001D006820F07F406349091D6C
:1048100008600846006840F04C5008605F480C3063
:10482000006820F440405D490C3108605B48006836
:1048300020F07F60594908600846006840F04C70DD
:10484000086056480C30006840F0600053490C3155
:1048500008605348001F006820F07F405049091F3E
:1048600008600846006840F0084008604C4808307E
:10487000006820F0C0004A490831086048480068D4
:1048800020F0FF00464908600846006840F08800B4
:10489000086043480830006820F4407040490831FF
:1048A00008604148006820F00F003F490860084652
:1048B000006840F0080008603B480C30006840F099
:1048C000010039490C310860022200210846FFF737
:1048D000FFFC0223062203211846FFF7ABFC3348F6
:1048E0000068C0F313003149086008460068304989
:1048F00008432E4908602D480830006820F46040C5
:104900002A490831086002220D210420FFF7E0FC4B
:1049100002220E210420FFF7DBFC02220F210420DB
:10492000FFF7D6FC0223282203211846FFF782FC5A
:104930001C4800686FF30F001A4908601D480068A2
:1049400020F07F401B4908600846006840F04C504A
:10495000086018480C30006840F0C00015490C3160
:1049600008601448001D006820F00F001149091D5F
:1049700008600846006840F0030008600D480C30ED
:10498000006840F480700B490C31086010BD0000D5
:1049900000100240002001400000303300140140AC
:1049A000041C0140001001400008014004180140AF
:1049B00000008088000C014010B50A20FFF703FCBE
:1049C0001748006838B91748006808B9012000E0A6
:1049D0000020144908604FF004001349086010BD1E
:1049E00010B50A20FFF7EFFB104800684FF00800F1
:1049F0000D49086010BD10B50A20FFF7E4FB0C4814
:104A0000006838B90748006808B9012000E00020B4
:104A1000044908604FF010000349086010BD70475A
:104A200008012342A8012442140401400C0123423E
:104A30001001234245F255522F4B1A601A4650601E
:104A400091604AF6AA221A604CF6CC421A6070476E
:104A50004AF6AA2028490860704770B506460C46F9
:104A600015462648C06940F400602449C8612448BE
:104A700000783040224908702248006840EAC5109A
:104A800020490860084600684FF6807108401D49BB
:104A900008600846006820430860081F006818493D
:104AA000097808431749091F08600846006840F064
:104AB000800008600223002203211846FFF7BAFB9A
:104AC00000201049091D0860081F006840F40070AC
:104AD000091F086070BD00F07F010A4A121F1160B3
:104AE000704700B506480078FFF7F5FF002005493C
:104AF000091D086000BD00000030004000100240A9
:104B0000CC000020042C0040F948008820F001006F
:104B1000F7490880F7480088002810DDF54800882C
:104B2000401EF4490880F2481038008840F0010027
:104B3000EF49103908800020EF49087033E0EF4852
:104B40000078022803D0ED480078082828D1EA48E8
:104B5000007830B92F20E6491C310880E44914312F
:104B60000880E548017801208840E5490988084324
:104B7000E3490880E0480078401CDF490870084697
:104B800000780C2808DADA481038008840F0010074
:104B9000D7491039088006E00020D749087002E0A4
:104BA0000120D7490880704770B504460D46D548A6
:104BB000C06940F00200D349C861CD481C30048070
:104BC000001F0580CA48001F008840F00100C84946
:104BD000091F0880C6481038008840F08000C4498A
:104BE00010390880C248008820F00100C0490880C0
:104BF000BF481038008840F01000BD4910390880C7
:104C00000846008840F008000880B9481430048045
:104C100002231D2203210120FFF70CFB70BDB449C4
:104C20001C310880B24914310880704770B50446C1
:104C30000D46B448C06940F00400B249C861B248AA
:104C40000480001F0580B0482038008840F0010033
:104C5000AD4920390880AC482C38008840F08000ED
:104C6000A9492C390880A8481C38008820F0010088
:104C7000A5491C390880A4482C38008840F0100051
:104C8000A1492C3908800846008840F008000880B7
:104C90009D480838048002231E2203210120FFF7CB
:104CA000C9FA70BD9849088097490839088070474B
:104CB00095481C38008820F0010093491C39088071
:104CC00092480088002810DD90480088401E8F49D7
:104CD00008808D482C38008840F001008A492C3922
:104CE000088000208A49087032E084480078022851
:104CF00003D082480078082827D18548007828B951
:104D00002F2081490880804908390880804801782F
:104D1000012088407F49098808437E4908807C48F3
:104D20000078401C7A490870084600780C2808DA98
:104D300075482C38008840F0010073492C390880F0
:104D400006E000207249087002E0012071490880E5
:104D5000704770B504460D466A48806940F40060AB
:104D6000684988616C480480001F05806A482038C3
:104D7000008840F0010068492039088066482C38D6
:104D8000008840F0800064492C39088062481C3853
:104D9000008820F0010060491C3908805E482C38EA
:104DA000008840F010005C492C39088008460088D3
:104DB00040F008000880584808380480022319226F
:104DC00003210120FFF736FA70BD5349088052498C
:104DD00008390880704750481C38008820F00100CE
:104DE0004D491C3908804D480088002810DD4B488B
:104DF0000088401E4949088047482C38008840F008
:104E0000010045492C39088000204549087032E0EE
:104E10003A480078022803D038480078082827D17B
:104E20003F48007828B92F203B4908803A49083983
:104E300008803B480178012088403A4909880843A6
:104E40003849088036480078401C354908700846C3
:104E500000780C2808DA30482C38008840F001002F
:104E60002D492C39088006E000202D49087002E009
:104E700001202C490880704770B504460D46214832
:104E8000806940F400501F49886127480480001F52
:104E9000058025482038008840F00100224920394B
:104EA000088021482C38008840F080001E492C39A9
:104EB00008801D481C38008820F001001A491C3960
:104EC000088019482C38008840F0100016492C3909
:104ED00008800846008840F008000880124808381A
:104EE000048002232C2203210120FFF7A3F970BDC7
:104EF00010040040B4000020CD000020500000202D
:104F000000000020001002402C080040B8000020E3
:104F1000CF000020040000202C2C0140B60000200F
:104F2000CE000020020000202C340140A849088057
:104F3000A749083908807047A5481C38008820F028
:104F40000100A3491C390880A2480088002810DD10
:104F5000A0480088401E9F4908809D482C38008842
:104F600040F001009A492C39088000209A490870C5
:104F700032E09A480078022803D098480078082840
:104F800027D19548007828B92F2091490880904969
:104F900008390880904801780120884090490988A4
:104FA00008438F4908808C480078401C8A49087063
:104FB000084600780C2808DA85482C38008840F02C
:104FC000010083492C39088006E0002082490870DE
:104FD00002E0012082490880704770B505460C4602
:104FE0008048C06940F010007E49C861681E7E4953
:104FF00088850020888408460485808940F0010067
:1050000088810846008840F0800008800846008AB1
:1050100020F0010008820223362203210120FFF73D
:1050200009F970BD70498885888470476E48008A88
:1050300020F001006C4908826C480078401C6B49E4
:105040000870704770B505460C466648C06940F068
:1050500020006449C86166480580001F04806448D8
:105060002038008840F001006149203908806048FC
:105070002C38008840F080005D492C3908805C485D
:105080001C38008820F0010059491C39088002238F
:10509000372203210120FFF7CDF870BD5449088065
:1050A000534908390880704770B504460D462946B3
:1050B0002046FFF7C7FF4E482C38008840F001001B
:1050C0004B492C39088070BD49482C38008820F0A5
:1050D000010047492C390880704710B544481C38F6
:1050E000008820F0010042491C39088041480078BE
:1050F000002813DD3F480078401E3E4908703E48B6
:10510000007828B901203C4908703C49086015E046
:10511000002039490870394908600FE034482C38BC
:10512000008820F0010032492C39088000203249E3
:105130000870304908700420FEF77EFF10BD70B57E
:1051400004460D462748C06940F008002549C8615B
:105150002B480480001F058029482038008840F033
:105160000100274920390880254808380480244850
:105170002C38008840F0100021492C390880204844
:105180001C38008820F001001D491C3908800223CA
:10519000322203210120FFF74DF819482C380088EE
:1051A00040F0010016492C39088070BD1449088070
:1051B000134908390880704710B541F61F4142F283
:1051C0001070FFF7BCFF00200E49087010BD0000F2
:1051D0002C340140BA000020D000002050000020F4
:1051E000060000200010024000100040790000205E
:1051F0002C140040BE000020D1000020BC0122423F
:105200002C0C0040D2000020F0B503460C46154699
:10521000642093FBF0F0C6B2642093FBF0F700FB30
:105220001730C1B2132E02DD01F16400C1B208468D
:10523000CF1701EB977701EBA707BAB2072092FBD4
:10524000F0F700FB172082B25719601EDFF81CC46C
:105250001CF80000384482B2CF1701EB9777BF10DB
:10526000B1EB870703D1032C01DA501E82B207206D
:1052700092FBF0F700FB1720C0B2F0BD0146CA1741
:1052800001EB92729210B1EB820212D1642091FB79
:10529000F0F200FB121050B94FF4C87091FBF0F21D
:1052A00000FB121008B9012070470020FCE7012024
:1052B000FAE70020F8E770B5002600240025EC4846
:1052C00006883604001D00880644EA48B6FBF0F460
:1052D000E9480088A0423CD0E7490C8040F2B27512
:1052E00010E02846FFF7CAFF40B1B4F5B77F02D3FC
:1052F000A4F5B77404E0681C85B206E0A4F26D144E
:10530000681C85B2B4F5B67FEBD800BFDB4885805A
:10531000002516E0D9498888FFF7B0FF30B1012D8C
:1053200004D11D2C01D31D3C09E00CE0D448405DA4
:10533000A04203D8D248405D241A00E003E0681C74
:1053400085B21C2CE6D200BF681CCC498871601C59
:10535000C871C848B6FBF0F100FB11644FF46160FE
:10536000B4FBF0F0C54908704FF46160B4FBF0F194
:1053700000FB11403C21B0FBF1F0C04948704FF4F4
:105380006160B4FBF0F100FB11403C21B0FBF1F295
:1053900001FB1200B94988700B46DA79997998882F
:1053A000FFF732FFB5490872002070BD2DE9F04FBC
:1053B00006460F4690469946DDE909AB002440F2C7
:1053C000B270864203DB40F63300864202DD0120E4
:1053D000BDE8F08F40F2B2750AE02846FFF74EFFB5
:1053E00010B1A848044401E0A7480444681C85B2F1
:1053F000B542F2DB781EC7B2002510E0A048405D40
:1054000040F2A321484304EBC0143046FFF736FFB7
:1054100018B1012D01D197480444681C85B2BD42E2
:10542000ECDBA8F1010040F2A321484304EBC014D7
:10543000C9EB4910C0EB092004EB0014CAEB0A10B9
:1054400004EB80045C449148C06940F080508F496F
:10545000C8610846C06940F00060C8618C480068B7
:1054600040F480708A49086081481438008840F010
:1054700010007F49143908807D49091D0C80200CDB
:10548000091F08807A481438008820F010007849F5
:105490001439088000BF76481438008810F0200FB7
:1054A000F9D0FFF708FF002092E71CB500247948E7
:1054B0000088A0F5A04150397ED07448C06940F002
:1054C00080507249C8610846C06940F00060C861F8
:1054D0006F48006840F480706D4908606B48006A4E
:1054E00040F48030694908620846006A20F4803040
:1054F00008620846006A40F00100086204E0601C8F
:10550000C4B20A20FEF75FFE6048006A10F0020F86
:1055100001D1FA2CF3DBFA2C01DB01201CBD5B4826
:10552000006A40F48070594908620846006A40F4F5
:105530000040086200BF4E481438008810F0200F69
:10554000F9D000BF4A481438008810F0080FF9D08D
:1055500047481838008840F001004549183908804C
:1055600000BF43481438008810F0200FF9D040489D
:105570001438008840F010003D491439088000209C
:10558000091D088047F6FF70091D0880372010218B
:105590000D230722CDE90010092140F2DC70FFF74E
:1055A00005FF33481438008820F0100030491439C2
:1055B000088000BF2E4800E00CE01438008810F08E
:1055C000200FF7D045F250003249088032A003F096
:1055D000F1FB18E000BF26481438008810F0080FCF
:1055E000F9D023481838008840F0010020491839C4
:1055F000088000BF1E481438008810F0200FF9D032
:1056000028A003F0D7FB0223032200210846FEF75F
:1056100011FEFFF750FE002080E700B51448143853
:10562000008810F0010F01D0FFF745FE1048143834
:10563000008810F0020F07D00D481438008820F0C1
:1056400002000B491439088009481438008840F6D4
:10565000FA71084006491439088000BF044814381C
:10566000008810F0200FF9D000BD000007A200084C
:105670001828004080510100D40000209C5C0020CC
:1056800013A200080085E2018033E101001002400E
:1056900000700040046C0040464952535420544965
:1056A0004D450A004F4B0A006F48806940F00800E2
:1056B0006D4988616D48006820F0FF006B49086003
:1056C0006948806940F0100067498861684800684F
:1056D00000F07F40664908606348806940F40070CC
:1056E000614988610846C06840F40070C860084697
:1056F000C06820F40070C8600846406820F440404C
:1057000048600846406840F4804048605948006856
:1057100059490840574908600846006820F470203D
:1057200008600846006820F480700860081D006862
:1057300020F00200091D08600846006820F460207F
:1057400008600846006840F4602008600846006869
:1057500040F4801008600846006820F4006008608B
:105760000846006840F4000008604248283000689D
:1057700020F470003F492831086008460068002086
:1057800008603C480C30006820F0380039490C3182
:1057900008600846006840F038000860081F00688C
:1057A00020F4E010091F08600846006840F4E0108B
:1057B0000860081F006840F00100091F08600846E3
:1057C000006840F00800086000BF2A48001D00681B
:1057D00010F0080FF9D12748001D006840F00400C0
:1057E0002449091D086000BF2248001D006810F010
:1057F000040FF9D1704701461E483030006820F090
:105800001F001C4A303210601046006808431060C8
:105810001848001D006840F48000164A121D1060F0
:1058200000BF1448001F006810F0020FF9D01148A3
:105830004830006880B270472DE9F04107460C46B9
:105840000025002608E03846FFF7D5FF054405206F
:10585000FEF7B9FC701CC6B2A642F4DBB5FBF4F04F
:1058600080B2BDE8F081000000100240000C014051
:105870000010014004240140FFFFF0002C48806923
:1058800040F004002A4988610846C06940F0005091
:10589000C8612848006820F470202649086008463E
:1058A000006808602448006840F001002249086050
:1058B0000846006840F0020008600846006808607A
:1058C00008460068086008460068086008460068E6
:1058D0000860084600680860002017490831086021
:1058E00070472DE9F0470446204604F0ADFA8146A2
:1058F0001249484604F092F981464FF08B414846E0
:1059000004F0EAFA824604F0EFF807464FF06632F8
:105910000B4B03F095FD054603F0B8FC8146484665
:1059200004F072FA044908310860BDE8F08700000D
:1059300000100240000801400074004000007A445A
:1059400066660A409748806940F00800954988617A
:105950009548006820F47F40934908600846006835
:1059600040F44C50086090480830006840F44060B3
:105970008D4908310860704710B58B48006820F4E5
:105980007040894908600846006840F4405008604B
:105990000120864908608649C1F8A8014FF004003B
:1059A000FEF7F6FB0020814908604FF00400FEF787
:1059B000EFFB00207E49C1F8A80110BD10B57A4860
:1059C000006820F47040784908600846006840F498
:1059D000405008600020774908607549C1F8AC0163
:1059E0004FF00400FEF7D4FB0120724908607049B3
:1059F000C1F8AC014FF00400FEF7CAFB10BD10B5B2
:105A000000246948006820F470406749086008462F
:105A1000006840F400400860012064490860FEF717
:105A2000B7FB01206249C1F8A801FEF7B1FB07E00E
:105A3000601CC4B2FA2C03DDFFF7C0FF012010BDCB
:105A40005D4800680028F3D15A49086000BFF6E7B6
:105A500010B50020574908605348006820F4704092
:105A6000514908600846006840F4405008604FF013
:105A700000004F49C1F8AC014FF00200FEF788FB6F
:105A800001204C4908604FF00200FEF781FB002026
:105A90004749C1F8A80110BD10B50020454908606C
:105AA0004148006820F470403F490860084600689B
:105AB00040F4405008604FF001003D49C1F8AC018E
:105AC0004FF00200FEF764FB01203A4908604FF0F6
:105AD0000200FEF75DFB00203549C1F8A80110BDAA
