:020000040800F2
:10000000489A00200920000829480008B148000843
:10001000B5480008CB490008CF490008000000009F
:10002000000000000000000000000000D3490008AC
:10003000D5490008000000008F740008D749000867
:100040002320000823200008232000082320000884
:100050002320000823200008232000082320000874
:100060002320000823200008232000082320000864
:100070002320000823200008232000082320000854
:100080002320000823200008232000082D49000811
:10009000B948000823200008232000082320000876
:1000A0002320000823200008232000082320000824
:1000B000232000089149000823200008232000087D
:1000C0002320000823200008232000082320000804
:1000D000232000082B4800082320000823200008C4
:1000E000232000082320000823200008000000002F
:1000F0000000000000000000000000000000000000
:100100000000000000000000232000082320000859
:1001100023200008232000082320000823200008B3
:1001200023200008232000082320000823200008A3
:100130002320000823200008232000085F4900082E
:1001400023200008F348000823200008F94900088C
:1001500000F002F800F05FF80AA090E8000C82447A
:100160008344AAF10107DA4501D100F054F8AFF257
:10017000090EBAE80F0013F0010F18BFFB1A43F085
:100180000103184778A4000098A400000A444FF027
:10019000000C10F8013B13F0070408BF10F8014BE6
:1001A0001D1108BF10F8015B641E05D010F8016B2B
:1001B000641E01F8016BF9D113F0080F1EBF10F88F
:1001C000014BAD1C0C1B09D16D1E58BF01F801CBB2
:1001D000FAD505E014F8016B01F8016B6D1EF9D535
:1001E0009142D6D37047000000230024002500264A
:1001F000103A28BF78C1FBD8520728BF30C148BF8A
:100200000B607047642909F01586002070471FB500
:100210001FBD10B510BD09F0D7FE1146FFF7F7FF5F
:1002200004F0C6FA09F0F5FE03B4FFF7F2FF03BCD1
:1002300004F02CFC31490143314A1160704770B51C
:10024000002100230F22C4780CB32D4C246804F441
:10025000E064C4F5E064210AC1F10403CA404478B3
:1002600004FA03F18478144021430901254C0678EF
:10027000A155047804F01F050124AC4005786D11E8
:100280004FF0E02606EB8505C5F8004109E004784B
:1002900004F01F050124AC401B4D0678761145F88B
:1002A000264070BD194A0A400243154B1B1F1A60B5
:1002B000704739B1124A121D12680243104B1B1DC0
:1002C0001A6006E00E4A121D126882430C4B1B1D79
:1002D0001A607047042808D14FF0E021096941F005
:1002E00004014FF0E022116107E04FF0E0210969BD
:1002F00021F004014FF0E022116170470000FA057F
:100300000CED00E000E400E080E100E080FFFF1F72
:10031000F948006840F00100F74908600846406865
:10032000F6490840F449486008460068F449084026
:10033000F14908600846006820F4802008600846FB
:10034000406820F4FE0048600846006820F0A05095
:1003500008604FF47F0088600020C8627047E6495B
:10036000096821F48031E44A11601146096821F4DA
:1003700080211160B0F5803F03D0B0F5802F0ED101
:1003800006E0DD49096841F48031DB4A116007E08D
:10039000D949096841F4A021D74A116000E000BFA3
:1003A00000BF704710B501460022002300204A110B
:1003B000012A02D1D04C236806E0022A02D1CE4C99
:1003C000236A01E0CC4C636A01F01F0201249440CF
:1003D0001C4201D0012000E0002010BD38B50020F3
:1003E00000900024002500BF3120FFF7DBFF054609
:1003F0000098401C00900098B0F5A06F01D0002D2F
:10040000F2D03120FFF7CEFF08B1012400E0002434
:10041000204638BD01460020B74A106820F0F80099
:1004200040EAC10010607047B64908607047024654
:100430000020B14B586820F4741042EA01031843BD
:10044000AD4B58607047AF490866704702460020C0
:10045000A94BD86AAC4B184042EA01031843A64B9B
:10046000D862704701460020A34AD06A20F0F0000D
:100470000843D0627047014600209F4AD06A20F4AA
:1004800070600843D06270479E4988667047014695
:100490000020994AD06A20F470400843D062704727
:1004A00098490867704701460020934A506820F039
:1004B00003000843506070478F48406800F00C000C
:1004C0007047014600208C4A506820F0F000084335
:1004D0005060704701460020874A506820F4E06071
:1004E00008435060704701460020834A506820F45A
:1004F000605040EAC1005060704729B17E4A527A8C
:1005000002437D4B5A7204E07B4A527A82437A4B13
:100510005A7270477D490860704701460020764A4C
:10052000506820F4404008435060704778490860A4
:1005300070477749091D086070470021754A11709E
:100540006D4A82F82010012802D0042808D103E067
:100550000121704A117004E005216E4A117000E01B
:1005600000BF00BF70476C49086070476249096A64
:100570000143614A11627047674944390860704716
:100580002DE9F0410021002200250023002600244F
:1005900000278C46DFF86081D8F8048008F00C0151
:1005A00021B1042907D0082959D109E0DFF86C816D
:1005B000C0F8008058E0DFF86481C0F8008053E0A4
:1005C000DFF83481D8F8048008F47012DFF828814D
:1005D000D8F8048008F48035920C0D2A01D0921CC2
:1005E00000E0062235B9DFF8388102FB08F8C0F8D0
:1005F000008033E0DFF80081D8F82C8008F48036E2
:10060000DFF8F480D8F82C8008F00F0808F1010416
:1006100046B9DFF80881B8FBF4F808FB02F8C0F827
:1006200000801BE0DFF8D080D8F82C80C8F30318D6
:1006300008F10107DFF8C080D8F82C80C8F3032840
:1006400008F1020CDFF8D480B8FBF7F808FB0CF8CF
:10065000B8FBF4F808FB02F8C0F8008004E0DFF80B
:10066000BC80C0F8008000BF00BFDFF88C80D8F8E5
:10067000048008F0F0010909DFF8A88018F80130BB
:10068000D0F8008028FA03F8C0F80480DFF868800A
:10069000D8F8048008F4E061090ADFF8888018F8C7
:1006A0000130D0F8048028FA03F8C0F80880DFF899
:1006B0004880D8F8048008F46051C90ADFF86480E3
:1006C00018F80130D0F8048028FA03F8C0F80C803C
:1006D000DFF82480D8F8048008F44041890BDFF863
:1006E000488018F80130D0F80C80B8FBF3F8C0F857
:1006F0001080BDE8F0810000001002400000FFF013
:10070000FFFFF6FE00004242F0FFFEFFD80042422B
:10071000C4054242201002408004424200127A0086
:1007200000093D00000000201000002029B1354ADA
:1007300052690243334B5A6104E0324A52698243A0
:10074000304B5A61704729B12E4A926902432D4BB2
:100750009A6104E02B4A926982432A4B9A6170475E
:1007600029B1284AD2690243264BDA6104E0254ABE
:10077000D2698243234BDA61704729B1214A926AD8
:100780000243204B9A6204E01E4A926A82431D4B48
:100790009A62704729B11B4AD2680243194BDA604A
:1007A00004E0184AD2688243164BDA60704729B1D8
:1007B000144A12690243134B1A6104E0114A126988
:1007C0008243104B1A6170470F49086070470F4908
:1007D000C86470470B49C87170470A48406A40F0C6
:1007E000807008494862704701460020054A9268B7
:1007F0000A4201D0012000E00020704701498872C0
:100800007047000000100240400442420000424293
:1008100010B50446CA48844208D101210420FFF7DC
:10082000B9FF00210420FFF7B5FF46E0C548844228
:1008300008D101210820FFF7ADFF00210820FFF7B4
:10084000A9FF3AE0C048844208D101211020FFF7F7
:10085000A1FF00211020FFF79DFF2EE0BB4884423E
:1008600008D101212020FFF795FF00212020FFF76C
:1008700091FF22E0B648844208D101214020FFF7D1
:1008800089FF00214020FFF785FF16E0B148844230
:1008900008D101218020FFF77DFF00218020FFF794
:1008A00079FF0AE0AC48844207D101218015FFF7A7
:1008B00071FF0021A015FFF76DFF10BD10B50121DC
:1008C0000846FFF767FF00210120FFF763FF10BD17
:1008D0002DE9F041024600250026002000230024D7
:1008E000002791F803C00CF00F0591F803C01CF02D
:1008F000100F03D091F802C04CEA050591F800C032
:10090000BCF1000F31D0146800202BE04FF0010C37
:100910000CFA00F3B1F800C00CEA03069E4220D1A5
:1009200083004FF00F0C0CFA03F7BC4305FA03FCED
:100930004CEA040491F803C0BCF1280F06D14FF033
:10094000010C0CFA00FCC2F814C00AE091F803C0D4
:10095000BCF1480F05D14FF0010C0CFA00FCC2F8B5
:1009600010C0401C0828D1D31460B1F800C0BCF1FD
:10097000FF0F34DD546800202EE000F1080C4FF02A
:10098000010808FA0CF3B1F800C00CEA03069E4215
:1009900021D183004FF00F0C0CFA03F7BC4305FA8A
:1009A00003FC4CEA040491F803C0BCF1280F05D104
:1009B00000F1080C08FA0CF8C2F8148091F803C092
:1009C000BCF1480F07D100F1080C4FF0010808FAFC
:1009D0000CF8C2F81080401C0828CED35460BDE843
:1009E000F0814FF6FF710180022181700421C170F6
:1009F00070470246002093680B4201D0012000E0BE
:100A0000002070470146886880B270470246002087
:100A1000D3680B4201D0012000E00020704701465E
:100A2000C86880B2704701617047416170470AB180
:100A3000016100E041617047C16070474FF480324E
:100A40000A438261816182618269826970470246DC
:100A50000020424B18684FF68073184040EA02109D
:100A600008433E4B186070473D49C8617047F0B578
:100A70000A46002300240021002500F00046B6F1BC
:100A8000004F02D1354EF16901E0344E7168C0F378
:100A9000034583B200F44016B6F5401F08D121F09B
:100AA00070612E4E766826F070662C4F7E6012E0E4
:100AB00000F48016B6F5801F06D1032606FA05F469
:100AC000A14341F0706106E0460D360103FA06F6D7
:100AD000B14341F0706122B1460D360103FA06F6CA
:100AE000314300F00046B6F1004F02D11B4EF161D8
:100AF00001E01A4E7160F0BD30B500228B071C0F6B
:100B00000F2303FA04F2154B08338C1053F82430EA
:100B10009343124C08348D1044F8253023468C1032
:100B200053F824308C07240F00FA04F423430B4CB1
:100B300008348D1044F8253030BD0A4908607047EC
:100B400000080140000C0140001001400014014069
:100B500000180140001C014000200140000001403D
:100B600000002042DC00204210B50446FE488442CA
:100B700008D10121C014FFF70DFE0021E014FFF79A
:100B800009FEC4E0B4F1804F08D101210846FFF707
:100B90000EFE00210120FFF70AFEB8E0F348844270
:100BA00008D101210220FFF702FE00210220FFF7F9
:100BB000FEFDACE0EE48844208D101210420FFF79D
:100BC000F6FD00210420FFF7F2FDA0E0E948844291
:100BD00008D101210820FFF7EAFD00210820FFF7D6
:100BE000E6FD94E0E448844208D101211020FFF79B
:100BF000DEFD00211020FFF7DAFD88E0DF488442A7
:100C000008D101212020FFF7D2FD00212020FFF78D
:100C1000CEFD7CE0DA48844208D101214014FFF780
:100C2000B9FD00216014FFF7B5FD70E0D54884429E
:100C300009D10121C804FFF7ADFD00214FF40020C8
:100C4000FFF7A8FD63E0D048844209D101210805DF
:100C5000FFF7A0FD00214FF48010FFF79BFD56E049
:100C6000CA48844209D101214805FFF793FD0021BC
:100C70004FF40010FFF78EFD49E0C548844208D1CB
:100C800001214020FFF793FD00214020FFF78FFD59
:100C90003DE0C048844208D101218020FFF787FD54
:100CA00000218020FFF783FD31E0BB48844208D15A
:100CB00001218015FFF77BFD0021A015FFF777FDCF
:100CC00025E0B648844209D101210804FFF762FDFE
:100CD00000214FF48030FFF75DFD18E0B0488442FA
:100CE00009D101214804FFF755FD00214FF40030E0
:100CF000FFF750FD0BE0AB48844208D10121880486
:100D0000FFF748FD00214FF48020FFF743FD10BDA1
:100D100000220288944B98420ED0994B98420BD0F7
:100D2000B0F1804F08D0914B984205D0904B98423B
:100D300002D0904B984204D14FF68F731A404B88E3
:100D40001A438D4B984207D08C4B984204D04FF6F3
:100D5000FF431A40CB881A4302808B8883850B8817
:100D60000385814B98420BD0854B984208D08B4B22
:100D7000984205D08A4B984202D08A4B984201D1C2
:100D80000B7A038601238382704770B5002400220A
:100D90000023058C4FF6FE7635400584028C83884F
:100DA000048B4FF68F752C40B51E2C400D882C43BC
:100DB000751E2A400D892A434D882A436A4DA84250
:100DC0000BD06F4DA84208D0744DA84205D0744D89
:100DD000A84202D0734DA84213D14FF6F7752A40AE
:100DE0004D892A434FF6FB752A408D882A434FF6DA
:100DF000FF652B404FF6FF552B408D892B43CD8946
:100E00002B4383800483CD888586028470BD70B5B2
:100E1000002400220023058C4FF6EF763540058430
:100E2000028C8388048B48F6FF752C404FF6FF45F3
:100E30002C400D884FF6FF7606EA05252C434FF629
:100E4000DF752A400D8906EA05152A434D8806EA12
:100E500005152A43444DA84202D0494DA8421DD150
:100E60004FF67F752A404D894FF6FF7606EA051545
:100E70002A434FF6BF752A408D8806EA05152A4396
:100E80004FF6FF352B404FF2FF752B408D8906EA58
:100E900085052B43CD8906EA85052B438380048392
:100EA000CD880587028470BD70B500240022002320
:100EB000058C4FF6FF6635400584028C8388848B51
:100EC0004FF68F752C404FF6FC752C400D882C4347
:100ED0004FF6FF552A400D894FF6FF7606EA0525A5
:100EE0002A434D8806EA05252A431F4DA84202D011
:100EF000234DA8421DD14FF2FF752A404D894FF670
:100F0000FF7606EA05252A434FF6FF352A408D88ED
:100F100006EA05252A434EF6FF752B404DF6FF7570
:100F20002B408D8906EA05152B43CD8906EA051568
:100F30002B4383808483CD888587028470BD70B500
:100F4000002200230024058C4EF6FF7635400584F0
:100F5000038C8488828B48F6FF752A404FF6FF4544
:100F60002A400D8820E00000002C014000040040D1
:100F700000080040000C0040001000400014004039
:100F800000340140004C0140005001400054014039
:100F900000180040001C00400020004000400140BC
:100FA00000440140004801404FF6FF7606EA05255F
:100FB0002A434DF6FF752B400D8906EA05352B4374
:100FC0004D8806EA05352B43FA4DA84202D0FA4D6A
:100FD000A84208D14BF6FF752C408D894FF6FF765D
:100FE00006EA85152C4384808283CD88A0F8405082
:100FF000038470BD828B4FF2FF331A408283828B51
:101000004FF6FF7303EA01231A4382837047F0B55A
:101010000C461546002200210026078C4EF6FF7C68
:1010200007EA0C070784828B018C4FF6FF7707EAEB
:10103000043640F6FF473A404FF6FF7707EA0527A8
:101040003A434FF6FF7707EA03373A43D94FB8429E
:101050000ED0D94FB8420BD0B0F1804F08D0D74F47
:10106000B84205D0D64FB84202D0D64FB84206D1CA
:101070004DF6FF77394046F48057394305E047F68F
:10108000FF57394044F48057394382830184F0BDCF
:10109000828B4FF6F3731A408283828B0A438283DA
:1010A0007047F0B50C461546002200210026078C3B
:1010B0004FF6FF6C07EA0C070784828B018C4FF612
:1010C000FF7707EA04264FF60C773A404FF6FF7792
:1010D00007EA03172F433A43B64FB8420ED0B64F34
:1010E000B8420BD0B0F1804F08D0B44FB84205D011
:1010F000B34FB84202D0B34FB84206D14FF6FF57B4
:10110000394046F48077394305E04FF2FF573940C4
:1011100044F48077394382830184F0BD028B4FF21F
:10112000FF331A400283028B4FF6FF7303EA012359
:101130001A4302837047F0B50C4615460022002181
:101140000026078C4FF6EF7C07EA0C070784028B1A
:10115000018C4FF6FF7707EA041640F6FF473A4046
:101160004FF6FF7707EA03373A434FF6FF7707EA70
:1011700005273A438F4FB8420ED08F4FB8420BD05D
:10118000B0F1804F08D08D4FB84205D08C4FB84297
:1011900002D08C4FB84206D14FF6DF77394046F087
:1011A0001007394305E04FF65F77394044F01007E8
:1011B000394302830184F0BD028B4FF6F3731A406A
:1011C0000283028B0A4302837047F0B50C46154632
:1011D00000220021068C4FF6FE773E400684028BEB
:1011E000018C4FF60C7632407E1C06EA03162E4325
:1011F0003243704EB0420ED06F4EB0420BD0B0F1C1
:10120000804F08D06D4EB04205D06D4EB04202D036
:101210006C4EB04206D14FF6FD76314044F00106E7
:10122000314305E04FF6F576314044F00106314395
:1012300002830184F0BD70B505460C465D488542C9
:101240000ED05D4885420BD0B5F1804F08D05B4889
:10125000854205D05A48854202D05A48854200D17D
:1012600000E000BF208850B92389A2886188284601
:10127000FFF7ABFFE1882846FFF79EFF25E02088B7
:1012800004280AD12389A28861882846FFF753FFE2
:10129000E1882846FFF742FF17E0208808280AD196
:1012A0002389A28861882846FFF7FBFEE18828464B
:1012B000FFF7EEFE09E02389A28861882846FFF740
:1012C000A6FEE1882846FFF795FE70BD2DE9F041A6
:1012D00005460C4600260127608808B9022600E072
:1012E0000026A088012801D1022700E001272088DC
:1012F000A0B92389A28861882846FFF766FFE188A4
:101300002846FFF759FF23893A4631462846FFF71A
:1013100012FFE1882846FFF701FF13E02389A28826
:1013200061882846FFF707FFE1882846FFF7F6FEA9
:1013300023893A4631462846FFF747FFE188284689
:10134000FFF73AFFBDE8F0810A884B881A438B8883
:101350001A43CB881A430B891A434B891A438B894A
:101360001A43A0F8442070474FF6FF718180002196
:101370000180C1804180017270470021018041805D
:101380008180C180018141818181C18170470021BB
:1013900001804180012181800021C180018170474D
:1013A0000021018041808180C18001814181818152
:1013B00070470000002C0140003401400004004050
:1013C00000080040000C004021B1028842F00102F8
:1013D000028004E002884FF6FE731A4002807047D4
:1013E00031B1B0F8442042F40042A0F8442005E0B6
:1013F000B0F84420C2F30E02A0F8442070471AB19E
:1014000083890B43838102E083898B438381704707
:101410008182704741EA0203A0F8483070471AB150
:1014200083890B43838102E083898B4383817047E7
:1014300001894FF6F8721140018170470A46002178
:1014400001894FF68F73194011430181704730B500
:1014500004460D4629462046FFF7F0FF208940F05C
:101460000700208130BD2DE9F04104460D461646A7
:101470001F46602D06D13B46012231462046FFF72C
:101480005AFE05E03B46012231462046FFF79DFE0D
:1014900029462046FFF7D2FF208940F0070020812F
:1014A000BDE8F08130B50C4600210189C9B24FF684
:1014B000FF7505EA0325154325432943018130BD06
:1014C0002DE9F04105460E4617469846002443464E
:1014D0003A4631462846FFF7E5FF2C894FF6F8706B
:1014E000044044F007044FF68F70044044F0700449
:1014F0002C81BDE8F081F0B504460D4616461F4626
:101500003B46324629462046FFF7CCFF208940F46F
:1015100080402081F0BD0185828270470A4600210B
:1015200001884FF68F731940114301807047F0B561
:101530000C4615461E460021002200230189028B1D
:10154000038C4FF6F877394021434FF6FC473A4079
:1015500040F201173A434FF6DD773B404FF6FF77F5
:1015600007EA06172F433B43018102830384F0BD42
:101570000A460021018B4FF68F73194011430183F6
:1015800070470A460021018B48F6FF7319404FF659
:10159000FF7303EA02231943018370470A460021BF
:1015A000818B4FF68F7319401143818370470A4630
:1015B0000021818B48F6FF7319404FF6FF7303EA51
:1015C000022319438183704721B1028842F08002CF
:1015D000028004E002884FF67F731A400280704751
:1015E00021B1828842F00402828004E082884FF6B2
:1015F000FB731A408280704721B1828842F0080252
:10160000828004E082884FF6F7731A408280704728
:1016100021B1828842F00102828004E082884FF684
:10162000FE731A40828070470A460021018B4FF6F4
:10163000F77319401143018370470A460021018B5B
:101640004FF2FF7319404FF6FF7303EA0223194369
:10165000018370470A460021818B4FF6F7731940CA
:101660001143818370470A460021818B4FF2FF733B
:1016700019404FF6FF7303EA022319438183704731
:101680000A460021018B4FF6FB7319401143018379
:1016900070470A460021018B4FF6FF3319404FF681
:1016A000FF7303EA02231943018370470A460021AE
:1016B000818B4FF6FB7319401143818370470A46B3
:1016C0000021818B4FF6FF3319404FF6FF7303EA79
:1016D00002231943818370470A460021018B4FF68C
:1016E0007F7319401143018370470A460021018B23
:1016F000C1F30E014FF6FF7303EA0223194301837E
:1017000070470A460021818B4FF67F7319401143C1
:10171000818370470A460021818BC1F30E014FF689
:10172000FF7303EA02231943818370470A460021AD
:10173000018C4FF6FD7319401143018470470A462E
:101740000021018C4FF6F773194011430184704753
:101750000A460021018C4FF6DF7319404FF6FF73E4
:1017600003EA02131943018470470A460021018CE1
:101770004FF67F7319404FF6FF7303EA02131943C4
:10178000018470470A460021018C4FF6FF5319402F
:101790004FF6FF7303EA02231943018470470A4698
:1017A0000021018C4FF2FF7319404FF6FF7303EADB
:1017B00002231943018470470A460021018C4DF62B
:1017C000FF7319404FF6FF7303EA02331943018494
:1017D000704730B5002301248C40A3B2048C9C4395
:1017E0000484048C02FA01F5ADB22C43048430BDAC
:1017F00030B5002304248C40A3B2048C9C430484A1
:10180000048C02FA01F5ADB22C43048430BD70B5EE
:101810000346002000241846183001258D40ACB244
:101820001D8CA5431D8409B1082909D100EB610075
:10183000056825F0700505600568154305600EE034
:101840000D1FC5F34E052844056825F4E0450560E5
:1018500005684FF6FF7606EA02263543056070BD3F
:1018600021B1028842F00202028004E002884FF6B1
:10187000FD731A400280704721B1028842F00402D1
:10188000028004E002884FF6FB731A400280704722
:1018900021B1828842F08002828004E082884FF683
:1018A0007F731A408280704702884FF6F7731A40A0
:1018B000028002880A430280704782884FF68F7345
:1018C0001A40828082880A438280704702894FF6DC
:1018D000F8731A40028102890A4302817047028923
:1018E0004FF67F731A40028102890A4302817047D2
:1018F0008184704781857047818670470187704772
:1019000081877047A0F84010704702884FF6FF4368
:101910001A40028002880A43028070470146888E7E
:1019200070470146088F70470146888F704701460F
:10193000B1F8400070470146888C70470146088D19
:10194000704702460020138A0B4201D0012000E0BC
:1019500000207047CA430282704730B5024600201B
:1019600000230024158A05EA0103958905EA01048C
:1019700013B10CB1012000E0002030BDCA43028247
:101980007047000010B50446FB48844209D101218C
:101990008803FEF7FFFE00214FF48040FEF7FAFEB9
:1019A00032E0F648844209D101214804FEF7FFFEE7
:1019B00000214FF40030FEF7FAFE25E0F0488442A3
:1019C00009D101218804FEF7F2FE00214FF48020A6
:1019D000FEF7EDFE18E0EB48844209D10121C8046E
:1019E000FEF7E5FE00214FF40020FEF7E0FE0BE0DD
:1019F000E548844208D101210805FEF7D8FE002100
:101A00004FF48010FEF7D3FE10BD2DE9F04786B0ED
:101A100005460E460024A24600BFA1460027B08915
:101A200000B100BF2F462C8A4CF6FF700440F088AE
:101A300004432C82AC894EF6F3100440B0883189FF
:101A40000843718908430443AC81AC8A4FF6FF40D8
:101A50000440B0890443AC8201A8FEF791FDC6485A
:101A6000874202D1DDF810A001E0DDF80CA0A889C2
:101A700010F4004F08D00AEBCA0000EB0A103168DE
:101A80004900B0FBF1F807E00AEBCA0000EB0A10CE
:101A900031688900B0FBF1F86420B8FBF0F0040174
:101AA0002009642101FB1089A88910F4004F08D097
:101AB000322000EBC900B0FBF1F000F00700044356
:101AC00008E0322000EB09106421B0FBF1F000F0D7
:101AD0000F0004432C8106B0BDE8F0874FF4165187
:101AE000016000218180C18001810C2141810021A0
:101AF0008181704710B502460020108A4FF2FF0323
:101B000018400B884C8823438C882343CC8823437C
:101B10001843108210BD0021018041808180C18066
:101B2000704721B1828942F40052828104E08289A7
:101B30004DF6FF731A4082817047F0B503460024CA
:101B4000002600250020A1F510676A3F00D100BFE4
:101B50001846C1F3421401F01F06012707FA06F5E3
:101B6000012C01D10C3004E0022C01D1103000E036
:101B700014301AB107682F43076002E00768AF43CB
:101B80000760F0BD1AB1838A0B43838202E0838A27
:101B90008B4383827047028A4FF6F0731A400282A9
:101BA000028A0A430282704782894FF2FF731A4009
:101BB000828182890A438281704721B1828942F001
:101BC0000202828104E082894FF6FD731A4082810D
:101BD0007047028A4FF6DF731A400282028A0A4374
:101BE0000282704721B1028A42F48042028204E0FC
:101BF000028A4BF6FF731A4002827047C1F3080253
:101C00008280704701468888C0F308007047818948
:101C100041F0010181817047028BD2B20283028BB5
:101C200042EA012202837047028B02F47F42028360
:101C3000028B0A430283704721B1828A42F020025C
:101C4000828204E0828A4FF6DF731A4082827047F4
:101C500021B1828A42F01002828204E0828A4FF629
:101C6000EF731A408282704721B1828A42F00802E3
:101C7000828204E0828A4FF6F7731A4082827047AC
:101C800021B1828942F40042828103E08289C2F359
:101C90000E028281704721B1828A42F40062828200
:101CA00004E0828A4FF2FF731A4082827047828A70
:101CB0004FF6FB731A408282828A0A4382827047FF
:101CC00021B1828A42F00202828204E0828A4FF6C7
:101CD000FD731A408282704702460020B1F5007FF2
:101CE00000D100BF13880B4201D0012000E000208A
:101CF000704701F40072B2F5007F00D100BFCA4303
:101D00000280704770B502460024002300250020A1
:101D1000A1F510666A3E00D100BFC1F3421501F083
:101D20001F03012606FA03F3012D02D196893340E1
:101D300006E0022D02D1168A334001E0968A334034
:101D40000C12012606FA04F41688344013B10CB1C3
:101D5000012000E0002070BD10B500220023A1F595
:101D600010646A3C00D100BF0A1201249440A3B25F
:101D7000DC43048010BD00000038014000440040F6
:101D800000480040004C0040005000400CB50020CE
:101D9000019000909148006840F480308F490860BD
:101DA00000BF8E48006800F4003000900198401C8D
:101DB0000190009818B90198B0F5A06FF1D187484B
:101DC000006810F4003F02D00120009001E00020E4
:101DD0000090009801285AD18148006840F0100016
:101DE0007F4908600846006820F003000860084644
:101DF000006840F002000860784840687749486011
:101E00000846406848600846406840F48060486082
:101E10000846C06A734908407049C8620846C06AEB
:101E2000714908436D49C8620846006840F0806007
:101E3000086000BF6948006810F0006FFAD067487A
:101E4000406820F47C10654948600846406840F4CA
:101E5000E81048600846006840F08070086000BFE5
:101E60005E48006810F0007FFAD05C48406820F0BF
:101E700003005A4948600846406840F00200486044
:101E800000BF5648406800F00C000828F9D10CBD8E
:101E900010B5FFF77BFF10BD10B55048006840F04B
:101EA00001004E49086008464068504908404B49C7
:101EB0004860084600684E4908404849086008469E
:101EC000006820F4802008600846406820F4FE0086
:101ED00048600846006820F0A05008604FF47F007A
:101EE00088600020C862FFF7D3FF4FF000604149CF
:101EF000086010BDF0B5002100200023002400225E
:101F000000250026354F7F6807F00C0121B1042918
:101F100008D008294BD10BE0374FDFF8E0C0CCF8F0
:101F200000704AE0344FDFF8D4C0CCF8007044E0D1
:101F30002A4F7F6807F47010284F7F6807F48033BA
:101F4000800C0D2801D0801C00E0062033B92C4FF6
:101F50004743DFF8A8C0CCF8007027E01F4FFF6AA6
:101F600007F480341D4FFF6A07F00F077A1C44B94D
:101F7000214FB7FBF2F74743DFF880C0CCF8007081
:101F800014E0164FFF6AC7F303177D1C134FFF6A57
:101F9000C7F30327BE1C184FB7FBF5F77743B7FB12
:101FA000F2F74743DFF854C0CCF8007005E0124F59
:101FB000DFF848C0CCF8007000BF00BF074F7F6853
:101FC000C7F30317DFF83CC01CF807100B4F3F683E
:101FD000CF40DFF828C0CCF80070F0BD0010024000
:101FE0000020024000F0FEFF140801000000FFF096
:101FF000FFFFF6FE08ED00E000127A00140000205A
:1020000000093D00180000200948804709480047A2
:10201000FEE7FEE7FEE7FEE7FEE7FEE7FEE7FEE798
:10202000FEE7FEE704480549054A064B70470000F5
:10203000991E00085101000848940020489A002089
:10204000489600204896002010B50446FE48844279
:1020500009D101214806FEF7AAFB00214FF00070CC
:10206000FEF7A5FB08E001218806FEF7A0FB002192
:102070004FF08060FEF79BFB10BD30B5024600209C
:102080000023146824F002041460146844F001046E
:10209000146000E05B1C546814F0010F03D1A3F539
:1020A0007F44FF3CF6D1546814F0010F01D10020A9
:1020B0006CE08C79012C04D1146844F08004146025
:1020C00003E0146824F080041460CC79012C04D15E
:1020D000146844F04004146003E0146824F04004E1
:1020E00014600C7A012C04D1146844F020041460AC
:1020F00003E0146824F0200414604C7A012C04D10D
:10210000146844F01004146003E0146824F0100410
:1021100014608C7A012C04D1146844F00804146013
:1021200003E0146824F008041460CC7A012C04D174
:10213000146844F00404146003E0146824F00404F8
:1021400014608C78A407CD7844EA05640D7944EADC
:1021500005444D7944EA05540D886D1E2C43D46125
:10216000146824F001041460002300E05B1C546830
:1021700014F0010F03D0A3F57F44FF3CF6D154685F
:1021800014F0010F01D0002000E0012030BD10B597
:102190000021837A012202FA03F1AC4A126842F06C
:1021A0000102AA4B1A60A94A1C3212688A43A74B43
:1021B0001C331A60027BCAB9A44A0C3212688A43E3
:1021C000A24B0C331A604288C38842EA03439F4AF9
:1021D0004032847A42F834300288838842EA0343EA
:1021E0009A4A4032847A02EBC4025360027B012A8D
:1021F00019D1964A0C3212680A43944B0C331A6078
:102200004288038842EA0343904A4032847A42F883
:102210003430C288838842EA03438C4A4032847A4D
:1022200002EBC4025360C27A3AB9884A121D12689E
:102230008A43864B1B1D1A6006E0844A121D1268F1
:102240000A43824B1B1D1A60028932B97F4A14323D
:1022500012688A437D4B14331A600289012A06D121
:102260007A4A143212680A43784B14331A60427B5C
:10227000012A06D1754A1C3212680A43734B1C337B
:102280001A60724A126822F00102704B1A6010BD87
:1022900000218171C171017241728172C1728170BC
:1022A000C170032101710221417101210180704738
:1022B0006649096841F00101644A116011460968E4
:1022C00043F60E729143614A11601146096841EA72
:1022D000002111601146096821F001011160704769
:1022E00021B1026842F48032026003E0026822F405
:1022F000803202607047E1B1026842F08002026001
:102300004FF4C272125842F480734FF4C2721350E9
:102310004FF4CA72125842F480734FF4CA721350C9
:102320004FF4D272125842F480734FF4D2721350A9
:102330001BE0026822F0800202604FF4C272125861
:1023400022F480734FF4C27213504FF4CA721258C1
:1023500022F480734FF4CA7213504FF4D2721258A1
:1023600022F480734FF4D2721350704710B50246B6
:102370000020936803F08063B3F1806F00D110E018
:10238000936803F00063B3F1006F01D1012008E00E
:10239000936803F08053B3F1805F01D1022000E025
:1023A0000420042879D002F5C07303EB00131B68E6
:1023B00003F0010402F5C07303EB00131C600B7AF9
:1023C0007BB94B7A0C8843EA445302F5C07404EBA2
:1023D00000142468234302F5C07404EB0014236046
:1023E00010E00B7A4C6843EAC4034C7A234302F5AD
:1023F000C07404EB00142468234302F5C07404EB9A
:10240000001423608B7A03F00F038B7202F5C07304
:1024100003EB00135B6823F00F0402F5C07303EBBA
:1024200000135C6002F5C07303EB00135B688C7AE9
:10243000234302F5C07404EB001463608B7B1C061D
:102440004B7B44EA034403E0006400400066004024
:102450000B7B44EA0323CC7A234302F5C07404EBDC
:102460000014A3608B7C1C064B7C44EA03440B7C69
:1024700044EA0323CC7B234302F5C07404EB00142D
:10248000E36002F5C07303EB00131B6843F0010423
:1024900002F5C07303EB00131C6010BD10B50246BB
:1024A000002321B1012907D002290FD109E090684A
:1024B000F84C00EA04030BE09068F74C00EA0403D0
:1024C00006E09068F54C00EA040301E0002300BF39
:1024D00000BFF34C181BA34216D007DC83B16FF08A
:1024E000806018180ED0022818D111E0B0F5007FD6
:1024F00010D0EC4C001909D0B0F5003F0ED10BE024
:1025000002230DE000230BE0002309E0002307E095
:10251000012305E0012303E0012301E0002300BFC4
:1025200000BFD8B210BD21B1012907D002290FD1B7
:1025300009E0826842F0800282600AE0826842F428
:102540000042826005E0826842F40002826000E09E
:1025500000BF00BF704710B500F5D87303EB01133F
:102560001B6803F004031372137A53B900F5D87390
:1025700003EB01131B6840F2FF7404EA535313602A
:1025800009E000F5D87303EB01131B686FF060449A
:1025900004EAD303536000F5D87303EB01131B68FF
:1025A00003F00203537200F5D87303EB01135B6869
:1025B00003F00F03937200F5D87303EB01135B680C
:1025C0001B0AD37400F5D87303EB01139B68D37215
:1025D00000F5D87303EB01139B681C0A147300F514
:1025E000D87303EB01139B681C0C547300F5D8736C
:1025F00003EB01139B681B0E937300F5D87303EB79
:102600000113DB68D37300F5D87303EB0113DB68A8
:102610001C0A147400F5D87303EB0113DB681C0C5F
:10262000547400F5D87303EB0113DB681B0E93742D
:1026300021B9C36843F02003C36003E0036943F09A
:102640002003036110BD21B9C26842F02002C260BC
:1026500003E0026942F02002026170470246002056
:1026600019B9D36803F0030006E0012903D1136907
:1026700003F0030000E00020704710B502460B464F
:1026800000204FF6FF71BBB9146824F0020444F037
:102690000104146000E0491E546804F00304012C96
:1026A00001D00029F7D1546804F00304012C01D0B3
:1026B000002032E0012030E0012B13D1146824F017
:1026C0000304146000E0491E546814F0030F01D0A5
:1026D0000029F8D1546814F0030F01D000201CE049
:1026E00001201AE0022B17D1146824F0010444F0F1
:1026F0000204146000E0491E546804F00304022C34
:1027000001D00029F7D1546804F00304022C01D051
:10271000002002E0012000E0002010BD0146002062
:102720000A6822F0010242F002020A604A6802F0DE
:102730000302022A00D10120704701464FF6FF72C2
:1027400000200B6823F002030B6000E0521E4B6870
:1027500003F00203022B01D1002AF7D14B6803F0EA
:102760000203022B00D001207047014600208A6935
:1027700002F070007047014600208A69100E704711
:10278000014600208A69C2F3074070471AB14369C5
:102790000B43436102E043698B434361704710B5CB
:1027A0000246002011F4700F08D09369C1F313049E
:1027B000234201D001202DE000202BE011F0807F8A
:1027C00008D05368C1F31304234201D0012021E053
:1027D00000201FE011F0006F08D09368C1F31304CC
:1027E000234201D0012015E0002013E011F0007F0A
:1027F00008D0D368C1F31304234201D0012009E0BB
:10280000002007E01369C1F31304234201D0012023
:1028100000E0002010BD0022234B994202D100238A
:10282000836111E0C1F3130211F0007F01D0C26097
:102830000AE011F0806F01D0026105E011F0006F35
:1028400001D0826000E042607047024600200A42E8
:1028500001D0012000E00020704770B504460D460D
:1028600000266069284272D0B5F5807F69D01DDCF2
:10287000082D42D006DC012D2DD0022D31D0042DA3
:102880007FD134E0102D3ED0202D42D0402D78D184
:1028900045E00000030000040003000800000310EE
:1028A000000100080001FFF77000F030B5F5004F9F
:1028B00061D009DCB5F5007F4AD0B5F5806F4DD009
:1028C000B5F5006F5DD150E0B5F5803F2DD0B5F581
:1028D000003F56D12FE0A0685549FFF7B6FF0646E6
:1028E00051E0E0680321FFF7B0FF06464BE0E068E7
:1028F0000821FFF7AAFF064645E0E0681021FFF730
:10290000A4FF06463FE020690321FFF79EFF06462D
:1029100039E020690821FFF798FF064633E0206977
:102920001021FFF792FF06462DE060680821FFF7AF
:102930008CFF064627E060681021FFF786FF0646F9
:1029400021E0A0690121FFF780FF06461BE01BE0A4
:10295000A0690221FFF779FF064614E0A06904216F
:10296000FFF773FF06460EE00BE0A0697021FFF74A
:102970006CFF064607E060680421FFF766FF064625
:1029800001E0002600BF00E00026304670BDB1F532
:10299000007F3AD00FDC202928D006DC01291CD08A
:1029A00004291DD0082940D11DE0402921D0B1F5CE
:1029B000807F3AD126E0B1F5004F31D006DCB1F589
:1029C000806F25D0B1F5006F2FD124E0B1F5803FA5
:1029D00012D0B1F5003F28D111E0154A826025E000
:1029E0000822C26022E01022C2601FE008220261B9
:1029F0001CE01022026119E00822426016E0102259
:102A0000426013E00422426010E0042242600DE0C4
:102A1000042242600AE0002282610422426005E052
:102A2000002282610422426000E000BF00BF7047C4
:102A30000101010030B585B06846FDF7A1FD4FF4F6
:102A40007A720198B0FBF2F1B1F1807F00D31DE002
:102A500021F07F40401E4FF0E022506150170F22BE
:102A6000002807DA13071D0EFA4B00F00F04241F8D
:102A70001D5503E013071C0EF74B1C5400BF00202C
:102A80004FF0E02290610720106100BF05B030BD1B
:102A900000BF11E0032002F0C9F90023012219460A
:102AA000184604F021FC032002F075F900230122EE
:102AB0001946184604F018FCECE7F0B589B0074653
:102AC0000C4615461E4601210920FDF73CFE01215A
:102AD0004806FDF745FE4FF48070ADF82000482011
:102AE0008DF8230003208DF8220008A9DB48FDF7AC
:102AF000EFFE4FF40070ADF8200018208DF8230091
:102B000003208DF8220008A9D448FDF7E1FE012139
:102B10004FF4EA10FDF7ABFF14208DF80000002001
:102B20008DF801008DF8020001208DF80300684641
:102B3000FDF785FBCA48FFF787FA05A8FFF7A8FB52
:102B400000208DF81A008DF81B008DF81C008DF800
:102B50001D008DF81E008DF81F008DF816008DF8F1
:102B600017708DF818408DF81950ADF8146005A94C
:102B7000BB48FFF782FA00208DF80E008DF80F0099
:102B800001208DF810000020ADF80400ADF806001B
:102B9000ADF80800ADF80A00ADF80C0001208DF882
:102BA000110001A8FFF7F3FA01220221AC48FFF758
:102BB000EDFD09B0F0BDF0B589B007460C461546ED
:102BC0001E4601210920FDF7BEFD01218806FDF703
:102BD000C7FD4FF48050ADF8200048208DF8230049
:102BE00003208DF8220008A99C48FDF771FE4FF4E0
:102BF0000050ADF8200018208DF8230003208DF838
:102C0000220008A99548FDF763FE41208DF80000D9
:102C100000208DF8010001208DF802008DF80300DE
:102C20006846FDF70CFB8F48FFF70EFA05A8FFF783
:102C30002FFB00208DF81A008DF81B008DF81C006A
:102C40008DF81D008DF81E008DF81F008DF8160000
:102C50008DF817708DF818408DF81950ADF8146084
:102C600005A98048FFF709FA0E208DF80E00002014
:102C70008DF80F0001208DF810000020ADF8040041
:102C8000ADF80600ADF80800ADF80A000120ADF877
:102C90000C008DF8110001A8FFF779FA012210212C
:102CA0007048FFF773FD09B0F0BD2DE9F04105460E
:102CB0000E460024002700BF31462846FFF756FB8A
:102CC0000746601CC4B2042F01D1FE2CF4DB0024A3
:102CD000BDE8F08170472DE9F04F87B00C464FF406
:102CE0008070029000208DF811008DF810000120F6
:102CF0008DF812004FF000092046E11704EB5171E6
:102D0000C1F3C7072046E11704EB5171C910B4EBBA
:102D1000C10101D0791C00E03946CFB22146E2174B
:102D200004EB5272D210B4EBC20207D02046C21795
:102D300000EB5272D210A0EBC20200E00822D2B225
:102D400000924FF4807040EA0710029000265BE08A
:102D5000781EB04202D1DDF800A001E04FF0080A71
:102D6000012000EBC60000F0FF0B00250AE00BEB92
:102D700005003D49095C3D4841550DF113004155A1
:102D8000681CC5B25545F2DB711C029808430290DD
:102D90008DF812A002A93248FFF787FF00BF01AAF1
:102DA0001E213348006803F051FA90F80090B9F101
:102DB000000F0FD09DF8040060B94FF00008002507
:102DC00005E02C48405D2C494855681CC5B24D456E
:102DD000F7DB0AE008F1010000F0FF08B8F10A0F84
:102DE00002DD4FF0000900E0D9E700BFB8F1000FA5
:102DF00003D0002007B0BDE8F08F1F48007808B16D
:102E00004846F7E7701CC6B2BE42A1DB4846F1E770
:102E10002DE9F04F89B00F461C4640F21110049086
:102E200000208DF819008DF8180001208DF81A0087
:102E30004FF0000A2046E11704EB5171C1F3C70BB4
:102E4000E11704EB5171C910B4EBC10116D00BF1BD
:102E5000010114E018ED00E000E400E0000C014086
:102E6000006400400068004038450020A8020020AF
:102E70006000002053810020E8020020594601F044
:102E8000FF0B002509E0681CFE49095CFE4841551E
:102E90000DF11B004155681CC5B2BD42F3DB40F289
:102EA000111004908DF81A7004A9F848FFF7FDFE80
:102EB000002602960196B1464BE000BF03AA1E21F0
:102EC000F348006803F0C2F990F800A0BAF1000FCF
:102ED0002ED09DF80C0058BB4FF00008002508E0EC
:102EE000EC48425D3046711CCEB2EB490A54681C76
:102EF000C5B25545F4DBE7480B38007800F00F0009
:102F00000190E4480B38007800F00F000290E1488F
:102F10000B38007840F48070049000208DF81B007E
:102F200001208DF81A0004A9D848FFF7BEFE0BE077
:102F300008F1010000F0FF08B8F10A0F02DD4FF0C0
:102F4000000A01E0A642B9DB00BF09F1010000F070
:102F5000FF09D945B1DBB8F1000F03D0002009B05B
:102F6000BDE8F08FCC48007808B13046F7E730462E
:102F7000F5E72DE9FE4F81468A461546012001906E
:102F800083460090002400200290287000BF02AA0F
:102F90000521BF48006803F059F907787FB39DF811
:102FA000080060BB0026BB480B380078C0F3031054
:102FB0000090B8480B38007800F00F00019001989D
:102FC000834502D00420BDE8FE8F0BF1010000F024
:102FD000FF0B4FF000080FE0544507DAAD4810F83A
:102FE000080009F80400601CC4B201E0022002904D
:102FF00008F1010000F0FF08B845EDDB05E0FFE750
:10300000701CC6B20A2E00DD03E0DDE90010884224
:10301000BDDB00BF16B10120029000E02C709DF8CE
:103020000800D0E72DE9F04F87B080460C461CB968
:10303000002007B0BDE8F08F2046E11704EB517186
:10304000C1F3C706E11704EB5171C910A4EBC1012C
:10305000CFB2002F01DD701C00E03046C0B2064642
:10306000012E01D1214606E02046C11700EB517127
:10307000C910A0EBC10101F0FF0A4FF0010B0020C5
:1030800001904FF48070029000208DF811008DF8AF
:10309000100001AA1E217E48006803F0D7F80078CE
:1030A0000090012E18D140F211100290012507E086
:1030B00018F80520681E0DF113010A54681CC5B2EA
:1030C000A542F5DB601EC0B28DF8120002A96F4860
:1030D000FFF7EBFD0020ACE70020074670E0701E14
:1030E000B84247DD00250AE05846411C01F0FF0BBD
:1030F00018F800100DF113004155681CC5B2082DD9
:10310000F2DB08208DF81200400140EA0610791C1D
:103110000843029000208DF811008DF8100000BFC8
:1031200002A95A48FFF7C1FD01AA0A2158480068C0
:1031300003F08CF800780090009870B19DF80400BE
:1031400058B954480B38C07A10B94FF000090BE059
:1031500009F1010000F0FF0903E009F1010000F0AE
:10316000FF09B9F10A0FDBDB00BFB9F1000F24D072
:1031700001205EE700250AE05846411C01F0FF0BE4
:1031800018F800100DF113004155681CC5B25545E3
:10319000F2DB4FF4807040EA0610791C084302907D
:1031A00000208DF811008DF810008DF812A002A9F2
:1031B0003648FFF77AFD00203BE7781CC0B207468F
:1031C000B7428CDB00BF34E71CB500BF08230322E5
:1031D00011460020FFF771FC002000902DE001AAAD
:1031E0000A212E48006803F031F804782CB39DF8CA
:1031F000040010BB23484578C6782146FFF712FF2C
:1032000001909DF8040028B96A4640212248FFF742
:10321000B0FE01909DF8040050B109201E490870CD
:1032200008464570012088700846C670042000904A
:1032300069461B48006803F0C6F8D0E77047194894
:103240000068401C17490860174800784006000EC7
:103250001549087008460078002801DC0120087034
:1032600011480078114908700E48007848700D48E0
:103270000088000A88700B480068000CC870094874
:10328000006815E038450020A802002000640040D6
:103290006000002053810020E80200206C00002024
:1032A000680000208400002055000020B85D002048
:1032B000000E08710846704710B502460B46002103
:1032C000012404E0105D0844C1B2601CC4B2981E21
:1032D000A042F7DC172901D1481CC1B2D01810F860
:1032E000020C884201D1012010BD0020FCE72DE92D
:1032F000F04790B08046894692461F46AA208DF836
:1033000000008DF801808DF802908DF8037004257F
:10331000002407E01AF804000DF80500601C84B2D0
:10332000681C85B2BC42F5DB0026012405E01DF8CF
:103330000400304486B2601C84B2681EA042F6DCF1
:10334000172E01D1701C86B2F0B20DF805001721BE
:10335000A81C0DF80010681C0DF8001040226946EA
:10336000FB4804F01EFF10B0BDE8F0872DE9F041E6
:1033700090B007468846AA208DF800000125002459
:1033800006E0385D0DF80500601C84B2681C85B24B
:103390004445F6DB0026012405E01DF80400304416
:1033A00086B2601C84B2AC42F7DB172E01D1701CD0
:1033B00086B2F0B20DF805001721A81C0DF8001018
:1033C000681C0DF8001040226946E14804F0E9FE4F
:1033D00010B0BDE8F0817FB505460C460121022002
:1033E000FDF7BEF9DB48FDF7BFFBADF80850ADF8BF
:1033F00004400020ADF80A00ADF8060001A9D54848
:10340000FDF786FC0121D348FEF7A4FA01221146FC
:10341000D048FDF7F4FF1D208DF8000000208DF846
:10342000010003208DF8020001208DF8030068469A
:10343000FCF705FF0121C748FDF7C6FF7FBD08B5B2
:10344000C448FDF791FB00220121C248FDF7D7FFD8
:103450001D208DF8000000208DF8010003208DF85C
:10346000020000208DF803006846FCF7E8FE08BD66
:10347000D8B04FF07E503790002036903590349081
:10348000339083463290B4A103C9CDE92E01B4A193
:1034900003C9CDE92C01B4A000682B90B3A000684B
:1034A0002A90B3A000682990B2A00068289000205C
:1034B000279026900F202590002024902390AE483E
:1034C000AE4BAF4A01210090A14804F06AF800F029
:1034D0006BBF3598012810D157AA0521A94800686B
:1034E00002F0B4FE00783690369830B19DF85C0159
:1034F00018B93498401CC0B23490349800287CDD50
:103500004FF000090020329027903498012840D0D5
:1035100002282AD0032814D0042851D1279006204D
:1035200050904FF0010900BF002405E02CA8005D79
:1035300095490855601CC4B29DF840018442F5DBF2
:1035400041E003202790062050904FF0010900BF72
:10355000002405E02EA8005D8B490855601CC4B20C
:103560009DF840018442F5DB2DE0022027900420E5
:1035700050904FF0010900BF002405E029A8005D2C
:1035800081490855601CC4B29DF840018442F5DBB6
:1035900019E0BBF1000F12D10120279004204F90B9
:1035A0004FF0020900BF002405E028A8005D77491C
:1035B0000855601CC4B29DF83C018442F5DB02E072
:1035C0000020349000BF00BF19F0010F5ED050A959
:1035D0006F48006802F0F7FE062003F055FE57AA78
:1035E00005216C48006802F031FE90F800A000262A
:1035F00000BFBAF1000F3AD000E005E19DF85C0190
:1036000080BB00266448007868BB279802281BD03E
:1036100003280DD0042827D1002406E05E49601D50
:10362000085C8DF8C400601CC4B2042CF6DB1CE0FE
:10363000002406E05849601D085C8DF8C000601C3D
:10364000C4B2042CF6DB10E0534800793390339871
:1036500038B9359828B100203590FFF7F0FE0020EA
:10366000349002E003E001E000BF00BF0DE0701CF9
:10367000C6B20A2E07DA57AA05214648006802F0AA
:10368000E5FD90F800A00A2EB3DB3CE019F0020F34
:1036900039D04FA94148006802F095FE062003F09A
:1036A000F3FD57AA0A213E48006802F0CFFD90F8CA
:1036B00000A0002600BFBAF1000F17D09DF85C01F2
:1036C000A0B900263748007878B9279801280AD190
:1036D000344890F804B0BBF1000F01D0012000E0A5
:1036E0000020329000E000BF00BF0BE0701CC6B2AB
:1036F00057AA0A212A48006802F0A8FD90F800A005
:103700000A2ED8DB00BF329800287DD000203290EE
:103710005590E0E0012155988140CFB207EA0B00B7
:103720002599084271D004204F90269870B91E49FF
:10373000379806F06FFD1D49019006F075FC029068
:1037400006F014FD1A490860002439E03DE000004D
:103750007081002000040040AA1002020100000055
:10376000AA10020202000000AA020102AA02010835
:10377000AA140115AA150101CC0000206401002043
:10378000900000205C000020384500207845002093
:103790006C00002068000020E8020020800000206B
:1037A0007C000020A8030020000040410000A04051
:1037B000280000202BA8005DFB490855601CC4B2FE
:1037C0009DF83C018442F5DB18E0F849379806F093
:1037D00021FDF749019006F027FC029006F0C6FC97
:1037E000F4490860002405E02AA8005DEE49085568
:1037F000601CC4B29DF83C018442F5DBEA48C17804
:10380000559841EA001001E069E060E0E649C870BF
:103810004FA9E948006802F0D6FD052003F034FD09
:10382000E448008881B257AAE448006802F00EFD1F
:1038300090F800A0002600BFBAF1000F38D09DF824
:103840005C0180BB269808B90C2000E01820804657
:10385000269808B9022000E00820064600241AE055
:103860000020569012E0D64800EB84115698095C6F
:10387000559800EB4000D34A02EB402000EB841245
:10388000569811545698401CC0B2569056984028ED
:10389000E9DB601CC4B24445E2DB269820B92498D9
:1038A0003843249003E003E02398384323900DE04D
:1038B000701CC6B2BF48008881B257AABF480068D2
:1038C00002F0C4FC90F800A00A2EB5DB00BF5598AA
:1038D000401CC0B2559055980428FFF61BAF57AA5C
:1038E0003C21B948006802F0B1FC0078549054982B
:1038F00000287CD09DF85C01002878D100BFB34837
:103900005499FFF7D9FC0128F7D1002408E0AF480B
:10391000005D13A908550020AC490855601CC4B2CD
:1039200054988442F3DB002053909DF84D00529050
:103930009DF84F0051908DF80C004FF000094FF0AA
:10394000010A9DF84D0011287ED00CDC04287CD0A3
:1039500004DC01287AD0022879D10DE0082877D03C
:103960001028F9D1B1E1122873D0132872D014288D
:1039700071D01528F0D1EEE39DF84F0000F00F0054
:10398000012804D0022803D008287DD101E000BF1F
:1039900000BF9DF84F0000F00F089DF84F00070989
:1039A000B8F1020F27D10120B8402499084253D022
:1039B0000121B9402498884324900120B8402BEA83
:1039C000000B4FF0200A00240EE007EB47017D4A70
:1039D00002EB412101EB84105146FFF7C7FC202088
:1039E00003F052FC601CC4B20C2CEEDB00E0EFE3F1
:1039F0004FF004096EE0B8F1080F2DD10120B84056
:103A00002399084228D00121B94023988843239064
:103A10000120B8402BEA000B4FF03A0A00240EE0D8
:103A200007EB4701674A02EB412101EB8410514645
:103A3000FFF79CFC202003F027FC601CC4B2182C6C
:103A4000EEDB4FF0040945E0E7E1C8E044E0D4E3F1
:103A50003AE13AE241E260E39DF84F0000F00F00E6
:103A6000082801D1012000E00020269004204F907A
:103A700049F0020900BFB8F1010F0BD14C4937984A
:103A800006F0D2FA029000E023E006F06FFB49490D
:103A900008601DE0B8F1020F0DD14D49379806F0CE
:103AA000B9FB4349019006F0BFFA029006F05EFBB5
:103AB000404908600CE03D49379806F0ABFB3C49B3
:103AC000019006F0B1FA029006F050FB3949086007
:103AD00000E000BF00BF93E39DF84E00012802DA2A
:103AE000012053907AE09DF84F00292872D2DFE838
:103AF00000F07115161718191A1B1C1D1E71717113
:103B000021201F7171717171717171717171717198
:103B10007171322B2C2250232471250000BF00BF6D
:103B200000BF00BF00BF00BF00BF00BF00BF00BF9D
:103B300000BF00BF00BF00BF00BF00BF05204F9007
:103B400049F0020900BF48E000BF08204F9049F04B
:103B5000020900BF41E008204F9050904FF0030948
:103B600000BF9DF850008DF838019DF851008DF888
:103B700039019DF852008DF83A019DF853008DF8F7
:103B80003B0100214E9806F0BDFA01D04E983790C7
:103B900023E09DF85000259005204F9050904FF065
:103BA000030900BF19E015E0784500200000C0417E
:103BB0000000A04028000020800000207C000020A1
:103BC000E8030020B8450020700000200881002094
:103BD000000040410520539000BF00BF10E39DF856
:103BE0004E00012802DA012053906CE09DF84F004E
:103BF000292862D2DFE800F0614A4B4C4D4E4F500D
:103C00005152536161615655543F61616161616117
:103C10006161616161616161154041491D575825CC
:103C200059004FF0050A042050904FF0010900BFE1
:103C300048E04FF0020A042050904FF0010900BF05
:103C400040E0002053904FF0070A27208DF80C0029
:103C500010208DF80D0001208DF80E0007208DF842
:103C60000F0011208DF8100004208DF811001E2087
:103C70008DF8120026E000BF00BF4FF0020A0420BA
:103C80004F904FF0020900BF1CE000BF00BF00BF13
:103C900000BF00BF00BF00BF00BF00BF00BF00BF2C
:103CA00000BF00BF00BF00BF00BF4FF0020A0420EA
:103CB0004F904FF0020900BF04E0052053904FF0F1
:103CC000010A00BF00BF9BE29AE29DF84F000B285B
:103CD00070D2DFE800F03C06516670959D9D9D9D79
:103CE00067009DF850609DF851008DF838019DF8EF
:103CF00052008DF839019DF853008DF83A019DF876
:103D000054008DF83B014E984D9000214D9806F0DF
:103D10004DFB19D2FB494D9806F048FA14D29DF894
:103D200055509DF85680012E02D0022E08D100BFBA
:103D30004FF0010A092050904FF0010900BF02E046
:103D40000620539000BF01E00620539063E09DF8E9
:103D50005060012E02D0022E09D100E000BF4FF0CA
:103D6000010A052050904FF0010900BF02E0062033
:103D7000539000BF00BF4EE09DF85060012E02D06E
:103D8000022E09D100E000BF4FF0050A0520509037
:103D90004FF0010900BF02E00620539000BF00BFB2
:103DA00039E000BF4FF0020A042050904FF00109A3
:103DB00000BF30E02CE09DF850008DF838019DF8F0
:103DC00051008DF839019DF852008DF83A019DF8A7
:103DD00053008DF83B0100214E9806F0E7FA0CD80D
:103DE0004FF082414E9806F0E1F906D24FF0010AF9
:103DF000082050904FF0010901E0072053900AE09D
:103E00004FF0050A042050904FF0010900BF02E076
:103E10000520539000BF00BFF2E19DF84F0006114E
:103E2000022E02DB072053904EE09DF84F0000F079
:103E30000F089DF84E50B8F10A0F41D2DFE808F0A4
:103E40004016172618404033190516B10720539025
:103E50000BE0042D02DA0120539006E04FF0010A36
:103E6000082050904FF0010900BF2CE000BF00BFB8
:103E700000BF042D02DA0120539006E04FF0010A42
:103E8000082050904FF0010900BF1CE0082D02DA15
:103E90000120539006E04FF0010A0C2050904FF0A3
:103EA000010900BF0FE00C2D02DA0120539006E05B
:103EB0004FF0010A102050904FF0010900BF02E0BE
:103EC0000520539000BF00BF9AE14FF0260A04205E
:103ED00050904FF0010900BF92E19DF84F809DF88E
:103EE0004E50A8F1030005287ED2DFE800F00363FE
:103EF000C3E4FC009DF85100012803DB9DF852004B
:103F0000012802DA0720539053E09DF85270781E82
:103F1000C0B28DF83301002433E004EB44004006C6
:103F2000050EE81D13A9085C38A901F8340005F155
:103F3000080013A9085C38A901EBC401487005F119
:103F4000090013A9085C38A901EBC401887005F1C8
:103F50000A0013A9085C38A901EBC401C87005F177
:103F60000B0013A9095C38A800EBC400417105F1EE
:103F70000C0013A9085C38A901EBC4010871601C8E
:103F8000C4B2BC42C9DB38A9384600F0F3FD0128B1
:103F900002D0072053900CE04FF0010A07EB4700D6
:103FA000042101EB4000C01CC0B250904FF0010949
:103FB00000BFB0E000205390002435E004EB440043
:103FC0004006050EE81D13A9085C38A901F8340065
:103FD00005F1080013A9085C38A901EBC401487079
:103FE00005F1090013A900E092E0085C38A901EB93
:103FF000C401887005F10A0013A9085C38A901EB17
:10400000C401C87005F10B0013A9095C38A800EBC6
:10401000C400417105F10C0013A9085C38A901EB3B
:10402000C4010871601CC4B2022CC7DB38A902208D
:1040300000F0A0FD012802D00720539019E04FF0B6
:10404000010A132050904FF0010900BF9DF8500065
:10405000012808D1359041F61F419620FFF7BBF9A2
:104060000020349005E000203590FFF7E8F90020AB
:10407000349050E0002053909DF850008DF83801A6
:104080009DF851008DF839019DF852008DF83A01E4
:104090009DF853008DF83B0100214E9806F086F9FB
:1040A00006D84FF0010A082050904FF0010901E0B6
:1040B000072053902FE0002053909DF850008DF87A
:1040C00038019DF851008DF839019DF852008DF8A6
:1040D0003A019DF853008DF83B0100214E9806F0FF
:1040E00065F911D800E012E04FF082414E9806F0D9
:1040F0005DF809D24FF0010A082050904FF00109F5
:1041000004E00000000016430720539003E002E0A3
:104110000520539000BF00BF72E0002053909DF82F
:104120004F0080468DF80C004FF0010AB8F1060FE1
:1041300023D009DCB8F1010F0ED0B8F1020F13D073
:10414000B8F1050F3FD117E0B8F1070F3AD0B8F139
:10415000150F38D119E03CE04FF0030A04205090CD
:104160004FF0010900BF31E04FF0070A04205090E2
:104170004FF0010900BF29E000BF4FF0050A0420FD
:1041800050904FF0010900BF20E04FF0020A35982F
:10419000012811D115208DF80C0033988DF80D00F1
:1041A000534603AA00205299FFF7A1F8202003F0FC
:1041B0006BF84FF0040904E0042050904FF001091F
:1041C00000BF03E002E00520539000BF00BF17E0EE
:1041D000E9E0002053904FF0020A359838B1519829
:1041E0008DF80C008DF80DB04FF0000B08E00420A6
:1041F0004F904FF0020900BF02E00220539000BF31
:1042000000BF00BFB9F1000F09D1534603AA52996C
:104210005398FFF76CF8202003F036F8C3E019F04C
:10422000010F4BD0002405E013A8005DFA490855A2
:10423000601CC4B29DF840018442F5DB50A9F748E8
:10424000006802F0C0F80A2003F01EF857AA1E21E9
:10425000F348006801F0FAFF90F800A0002600BFC4
:10426000BAF1000F0BD09DF85C0140B919F0020FB4
:1042700003D15146EB48FFF779F800260BE0701C9C
:10428000C6B257AA1E21E648006801F0DFFF90F889
:1042900000A00A2EE4DB00BF86B10920539051989C
:1042A0008DF80C004FF0010A534603AA5299539817
:1042B000FFF71DF8202002F0E7FF75E019F0020F6C
:1042C00071D0002405E013A8005DD7490855601C93
:1042D000C4B29DF83C018442F5DB4FA9D348006885
:1042E00002F071F80A2002F0CFFFD148008881B2B5
:1042F00057AAD048006801F0A9FF90F800A0002656
:10430000519800F00F0800BFBAF1000F28D09DF8B7
:104310005C0128BB529802281CD1B8F1020F02D0D0
:10432000B8F1080F16D1B8F1020F01D10C2000E04E
:104330001820074600240AE0BF4901EB84105146CB
:10434000FFF714F8202002F09FFF601CC4B2BC42AB
:10435000F2DB03E05146B948FFF708F800260DE00C
:10436000701CC6B2B248008881B257AAB148006832
:1043700001F06CFF90F800A00A2EC5DB00BF7EB1F3
:104380000A20539051988DF80C004FF0010A5346C3
:1043900003AA52995398FEF7AAFF202002F074FF57
:1043A0000A20A349086000BFFFF793B82DE9FF4F2B
:1043B00083B081468A4615460120834601900090CD
:1043C000002400200290287000BF02AA9C48069991
:1043D000006801F03BFF077877B39DF8080058BBF1
:1043E000002698480078C0F30310019095480078A3
:1043F00000F00F0B0098584503D0042007B0BDE82B
:10440000F08F0098401CC0B200904FF0000810E000
:10441000544508DA8B480B3010F8080009F80400FE
:10442000601CC4B201E00220029008F1010000F01B
:10443000FF08B845ECDB04E0701CC6B20A2E00DDB4
:1044400002E001988345C0DB00BF16B10120029055
:1044500000E02C709DF80800D0E72DE9F04F87B000
:1044600080460C461CB9002007B0BDE8F08F2046FE
:10447000E11704EB5171C1F3C706E11704EB517169
:10448000C910A4EBC101CFB2002F01DD701C00E008
:104490003046C0B20646012E01D1214606E0204634
:1044A000C11700EB5171C910A0EBC10101F0FF0A67
:1044B0004FF0010B002001904FF40070029000209B
:1044C0008DF811008DF8100001AA0A215C480068DF
:1044D00001F0BCFE00780090012E18D140F21120AE
:1044E0000290012507E018F80520681E0DF1130160
:1044F0000A54681CC5B2A542F5DB601EC0B28DF837
:10450000120002A95048FEF7D0FB0020ACE70020C3
:1045100007466FE0701EB84246DD00250AE05846A7
:10452000411C01F0FF0B18F800100DF1130041556C
:10453000681CC5B2082DF2DB08208DF8120080013E
:1045400040EA0610791C0843029000208DF8110003
:104550008DF8100000BF02A93B48FEF7A6FB01AA98
:104560000A213748006801F071FE00780090009839
:1045700068B19DF8040050B93248C07A10B94FF0C4
:1045800000090BE009F1010000F0FF0903E009F167
:10459000010000F0FF09B9F10A0FDCDB00BFB9F13F
:1045A000000F24D001205FE700250AE05846411C97
:1045B00001F0FF0B18F800100DF113004155681CB5
:1045C000C5B25545F2DB4FF4007040EA0610791C85
:1045D0000843029000208DF811008DF810008DF82E
:1045E00012A002A91848FEF760FB00203CE7781CE7
:1045F000C0B20746B7428DDB00BF35E71CB500BF30
:1046000000BF0823032211460020FEF7D4FA002041
:10461000009000BF75E00000384500206C000020CD
:1046200068000020E802002078450020800000207B
:10463000280000207C000020E8030020A8030020C0
:10464000740000205C8100200068004001AA0A215B
:104650005F48006801F0FAFD0678002E51D09DF801
:10466000040000284DD15B48477890F8038008F09B
:104670000F043146FFF7F1FE01909DF80400002879
:104680003FD1022F20D1022C01D0082C1CD1022CAA
:1046900001D10C2000E018208146002511E04E4990
:1046A00009888BB24D4901EB85106A464021FFF71E
:1046B0007DFE01909DF8040008B14FF00009681CD0
:1046C000C5B24D45EBDB08E04348008883B26A463B
:1046D00040214348FFF76AFE01909DF8040058B15D
:1046E0000A203F4908700846477001208870084634
:1046F00080F803800420009069463A48006801F081
:1047000062FEA3E7FEF796F91421374801F01BFF7C
:1047100036490860002001F004FD3549086000209A
:1047200001F0FFFC33490860002001F0FAFC324937
:104730000860002001F0F5FC2A490860002001F023
:10474000F0FC2E490860002001F0EBFC20490860D5
:10475000002001F0E6FC2A490860002001F0E1FC9D
:10476000284908600523284A0021284802F094FBC4
:104770000923274A0021274802F08EFB0823264AF6
:104780000021264802F088FB11E0002000F04EFBDB
:10479000052300221146104602F0A6FD002000F07D
:1047A000FAFA052300221146104602F09DFDECE7BF
:1047B00010B500F025FB00F0E3FD0423184A0021AA
:1047C000184802F069FB00F042FE002010BD000016
:1047D000800000207845002028000020E803002009
:1047E000A80300207C000020F85D00205800002075
:1047F0006000002074000020680000206C00002091
:10480000700000205C000020C4680020C93100084E
:10481000C4780020FD450008C470002071340008F1
:10482000845F002005470008704770B5002502F03E
:104830000DFE064679480078401C784908703046DD
:1048400002F008FE40F225517548FDF75BFA00289A
:104850001FD07348FDF7D6F9C4B2312C09D1012518
:1048600070A005F0A7FA29467248006802F012F815
:104870000FE0322C09D102256FA005F09BFA2946E2
:104880006C48006802F006F803E021466EA005F0CF
:1048900091FA40F227716248FDF734FA28B10022FC
:1048A00040F227715E48FDF748F900F098FD70BDB1
:1048B00000BFFEE700BFFEE710B502F0C7FD0446EB
:1048C00056480078401C55490870204602F0C2FD49
:1048D000624A00216248FDF73EFE6048807A28B1B6
:1048E0005E490A315F48006801F06DFD00F077FD18
:1048F00010BD10B502F0AAFD044648480078401CDF
:1049000046490870204602F0A5FD574A0121574844
:10491000FDF721FE5448807A28B153490A315448A2
:10492000006801F050FD00F05AFD10BD10B502F016
:104930008DFD044639480078401C384908702046EF
:1049400002F088FD46480830006810F0407F03D030
:104950004848006802F021FA00F041FD10BD10B592
:1049600002F074FD04462D480078401C2B49087065
:10497000204602F06FFD3D480830006810F0407F8F
:1049800003D03D48006802F008FA00F028FD10BD91
:1049900010B502F05BFD044620480078401C1F491A
:1049A0000870204602F056FD01213448FCF7D5FF7F
:1049B00040B101213148FCF7E1FF3149314800683D
:1049C00001F001FD00F00BFD10BD00BFFEE700BFD0
:1049D000FEE77047704710B502F038FD04460F48F7
:1049E0000078401C0D490870204602F033FD00F0AD
:1049F00046FD00F0F4FC10BD10B502F027FD0446A2
:104A000006480078401C05490870204602F022FD47
:104A10001D4805F04AF900F0E2FC10BDF40000204A
:104A20000038014072656365697665642031200D48
:104A30000A000000580000207265636569766564AD
:104A40002032200D0A000000726563656976656496
:104A5000206E756D20697320256400004881002058
:104A600000640040600000205C810020006800407D
:104A70007400002064000020780000200004004042
:104A8000880000205C00002070810020014600BFEB
:104A9000704700BF344A128812F0400FFAD0C2B2F9
:104AA000314B1B1D1A8070471FB504460121880336
:104AB000FBF749FE00940020ADF80400ADF80600B5
:104AC000ADF80800ADF80C000C20ADF80A006946FE
:104AD0002548FCF79AFF012240F225512248FDF7B4
:104AE0002CF801212048FDF71CF81FBD10B586B039
:104AF000044601214804FBF733FE0820ADF81400FA
:104B000004208DF8170005A91848FBF7E1FE2620C0
:104B10008DF8000001208DF8010003208DF80200BF
:104B200001208DF803006846FBF789FB0194002003
:104B3000ADF80800ADF80A00ADF80C00ADF81000B3
:104B40000420ADF80E0001A90948FCF75EFF012220
:104B500040F225510648FCF7F0FF01210448FCF71C
:104B6000E0FF06B010BD0000003801400008014021
:104B70000044004070B506460D46002416E055F886
:104B80003400174905F012FB05D355F834001549D8
:104B900005F00CFC01D2002070BD05EBC40080883C
:104BA000012801DA0020F7E7601CC4B2B442E6DB5A
:104BB0000120F1E730B50346002B0FDD00200BE0AC
:104BC00051F8304042F8304001EBC004A48802EBB9
:104BD000C005AC80441CE0B29842F1DB30BD00005F
:104BE000000010410000F04208B54FF4C060FBF730
:104BF00021FB14208DF8000000208DF801008DF8B5
:104C0000020001208DF803006846FBF718FB4020E6
:104C10008DF8000001208DF801008DF80300684632
:104C2000FBF70DFB08BD10B501212920FBF78BFD1B
:104C300001214FF0C060FBF793FDC348FDF704FA74
:104C4000C248FDF701FAC248FDF722FB0020C04927
:104C50008871C871087248728872C8728870C8708A
:104C600002200871042048710C200880B648FDF726
:104C700004FAB749B548FDF700FA0120B549887232
:104C80000020C8720120087346F2204008800020EE
:104C900048808880C8800881012048730846FDF755
:104CA00076FA0E20AB4988720846FDF770FA10BDFF
:104CB00038B501216C20FBF746FD0120ADF800005E
:104CC00048208DF803006946A348FBF701FE202029
:104CD000ADF800006946A148FBF7FAFD0220ADF8E7
:104CE000000018208DF8030003208DF802006946AB
:104CF0009948FBF7EDFD4020ADF800006946974864
:104D0000FBF7E6FD01214FF4EB10FBF7B0FE0121AC
:104D10009348FBF7ACFE0120ADF8000002208DF8AF
:104D2000020010208DF8030069468E48FBF7D0FD85
:104D30000220ADF800008DF8020010208DF803006D
:104D400069468848FBF7C4FD02218648FBF76BFEE5
:104D500001218448FBF767FE002401E0601C84B257
:104D6000C82CFBDB02217F48FBF75FFE01217D4859
:104D7000FBF75BFE002401E0601C84B244F6206077
:104D80008442F9DB02217748FBF74DFE012175488B
:104D9000FBF749FE38BD10B5044614B1012C0CD107
:104DA00005E04FF400716F48FBF73DFE06E04FF45D
:104DB00080716C48FBF737FE00E000BF00BF10BDFC
:104DC00008B501211020FBF7BEFC4FF44070ADF890
:104DD000000010208DF8030002208DF802006946C3
:104DE0006048FBF775FD0020FFF7D5FF0120FFF7B6
:104DF000D2FF0220FFF7CFFF0320FFF7CCFF08BD53
:104E000010B5FDF749F8FFF7DBFFFFF751FFFFF79C
:104E10000AFF012202214C48FDF7B8FC01220221C1
:104E20004A48FDF7B3FCFFF7DFFE10BD10B504469E
:104E300014B1012C0CD105E04FF400714948FBF787
:104E4000F4FD06E04FF480714648FBF7EEFD00E00C
:104E500000BF00BF10BD70B58AB04FF47F7501264A
:104E6000681002904FF47A70019000240121022012
:104E7000FBF776FC01210420FBF765FCC020ADF8B0
:104E8000000018208DF8030003208DF80200694609
:104E90003548FBF71DFD354800683549B0FBF1F09A
:104EA000401E84B22846ADF82000ADF81C4000201A
:104EB000ADF82200ADF81E0007A92E48FBF728FF29
:104EC0007020ADF80C000120ADF80E00C820ADF840
:104ED00012000020ADF8140003A92648FBF755FF87
:104EE00008212448FCF7A0FB0120ADF80E00C820E3
:104EF000ADF8120003A91F48FBF789FF08211D48E0
:104F0000FCF79BFB002206211A48FCF778FA0121E6
:104F10001848FCF759FA01211648FCF761FA0AB063
:104F200070BD002100220260426002728272C2746F
:104F300000BF05E0002300F10B0253544A1CD1B21C
:104F40000829F7DB7047000000640040006800405B
:104F5000648700207087002000140140000C01408D
:104F60004000200000100140000801401400002013
:104F700000366E010004004010B504460020FBF727
:104F8000C9FA01210803FBF7D1FB01210807FBF750
:104F90000EFC10BD38B504464FF4C060FBF74AF96B
:104FA00043208DF8000001208DF8010003208DF8CA
:104FB000020001208DF803006846FBF740F938BD78
:104FC00010B50022C0EB0013DB000724B3FBF4F1A3
:104FD00000BF531C1A468B4200D910BDF9E710B52B
:104FE00004464FF47A7104FB01F0FFF7E9FF10BDAE
:104FF0000246122008802A48704702460420088092
:105000002848704770B505460C462DB922462649FA
:1050100026A003F00CF804E02246234928A003F060
:1050200006F8214870BD70B505460C4622461E495B
:1050300025A002F0FCFF1C4870BD70B505460C466B
:105040002DB92246184924A002F0F1FF04E02246BF
:10505000154925A002F0EBFF134870BD70B5054659
:105060000C462DB92246104923A002F0E0FF04E0CF
:1050700022460D4920A002F0DAFF0B4870BD70B542
:1050800005460C462DB9224607491EA002F0CFFF67
:1050900004E0224604491BA002F0C9FF024870BD8B
:1050A000AC000020C8000020649300204A6F797390
:1050B0007469636B20696E204853206D6F646500CE
:1050C0004D7920484944000053544D333220555304
:1050D000422054657374000030303030303030304E
:1050E000303131420000000030303030303030306C
:1050F000303132430000000048494420436F6E665F
:105100006967000048494420496E746572666163AE
:1051100065000000704770477047704770477047E0
:10512000704700000246002005E011F8013B02F83C
:10513000013B431CD8B20B78002BF6D1137070479B
:105140002DE9F04105460E4614460027FE4800783A
:10515000002804DD112020700020BDE8F0812878AF
:10516000012808D0022807D0032802D0042804D13F
:1051700000E000BF00BF00BF03E00120207000205E
:10518000EBE700BF02F062F9074605F10F01304678
:10519000FFF7C8FF8046384602F05CF90020207017
:1051A0004046DAE70146002002E0491C421CD0B22A
:1051B0000A78002AF9D170472DE9F04105460F46DB
:1051C00014464FF00008E0480078002803DD122064
:1051D0002070BDE8F0812878012808D0022807D087
:1051E000032802D0042804D100E000BF00BF00BFA4
:1051F00002E001202070ECE700BF02F027F98046B2
:105200003846FFF7CFFF06460F2E05DD404602F079
:1052100021F90B202070DCE7394605F10F00FFF77C
:1052200081FF404602F016F90020207000BFD0E751
:10523000002400BF02F00AF90446C4480068401C7C
:10524000C2490860204602F005F902F055F9F1E77D
:1052500000B587B0032000218022BD4BCDE901328B
:10526000CDE903104FF6FF701F23BA4A0090AFF24A
:105270003F0001F05CFE06AAB7A11F2001F0ADFFC0
:1052800007B000BD04E0002200F8012B4A1E91B2D5
:105290000029F8DC704730B54FF4A071B248FFF731
:1052A000F1FFB14B03F1200500240AE00020187043
:1052B0005D603F20D8730021197420332035601CB5
:1052C00084B2092CF2DB0020187058603F20D8739C
:1052D00000211974A448A549086030BD30B54FF4C9
:1052E000E761A348FFF7CEFF8021A248FFF7CAFF7E
:1052F0009F4B03F1580500240AE05D613F2083F8CD
:10530000480000214920C15458335835601CC4B2AC
:10531000142CF2D3002058613F2083F8480000216C
:105320004920C1540020944908609148934908607D
:1053300030BD0022924B1A709249002004E00022F6
:1053400001F8012B421CD0B20428F8DB00228E4B5E
:105350001A708E4B1A708E4B1A608E4B1A60704703
:1053600000208D490860784908708C4908708C4984
:1053700008708C4908708C4908607449086070474F
:1053800010B502F0B5F8FFF7EBFFFFF7D2FFFFF71C
:10539000A5FFFFF780FF00F089FE01F085FBFFF716
:1053A00057FF02F0A6F810BD7E480078012808D10A
:1053B00065480078FF2804D263480078401C6249A1
:1053C0000870704779496E4A1278885C6D49095CAB
:1053D000764A515C01EBC0016C4A1170704710B500
:1053E000002470480078012830D102F02FF80446DC
:1053F00055480078002804DD53480078401E524983
:10540000087051480078F0B964480078D8B9FFF7BF
:10541000D9FF5E4800785C490978884213D0554826
:105420005A49097850F8210059490860084600682F
:10543000406B401C096848635B480068401C5A493F
:10544000086002F01FF8204602F004F810BD10B505
:105450005448007890B9FFF7B5FF4C4800784A49A6
:10546000087044484949097850F8210048490860C3
:10547000084600684749086001F0EFFF10BD70B5AD
:10548000002602F08AF801F0E1FF06464248006873
:10549000401C41490860304601F0DCFF414800787B
:1054A000012850D14248007820B1012804D00228B8
:1054B00009D103E001250BE0002509E001250120C9
:1054C0003B49087004E0012500203949087000BFFD
:1054D00000BF05B970BD2848046871E001F0B6FF4F
:1054E0000646608D70B3608D401E0004000C608520
:1054F00062D194F82C0010F0370F09D014F82C0F5B
:1055000020F03700207001206070A4F12C0402E02C
:10551000002084F82D0094F82C0010F0080F4BD1D7
:1055200004F13004A0781649097840EA01001449D2
:10553000087020781349085C617840EA010014F88B
:10554000301937E038E03FE0F4000020000100208F
:105550004C890020488B002075432F4F532D49491B
:105560002049646C6500000080870020EC0000206A
:10557000CC8B00204C8B0020100100200801002063
:10558000F8000020F9000020F6000020F7000020BD
:105590000C010020040100201C010020F500002067
:1055A000FE000020FD000020E8000020FAA4000812
:1055B00014010020B24A50546469304601F04AFF99
:1055C00094F82E001F2889D100BF83E74FF48F7015
:1055D0007047704710B590F8302001F10B039B5CC9
:1055E00090F83140A34301F10B04A35423469B5C84
:1055F00023B98B7A90F83240A3438B7210BD2DE90A
:10560000F04F05460F4690469946A87A9D490E5C94
:1056100005F10B00805D11F800B00BEBC60000F047
:10562000FF0A994850F82A40002004F120046081C4
:105630002760207B20EA0800207384F80D90207BEF
:10564000A4F1200410F0080F0DD194F832008F4916
:10565000097808438D4908708948805D94F83110B5
:1056600008438749885529462046FFF7B3FF50462F
:10567000BDE8F08F10B5864A1268D061844A12687E
:1056800092F8303000F10B02D25C814B1B6893F82A
:1056900031301A437E4B1B6893F8304000F10B0306
:1056A0001A55827A7A4B1B6893F832301A43827209
:1056B000774A126892F83010714A525C744B1B683A
:1056C00093F831309A436E4B5A541A46525C42B9A1
:1056D0006F4A126892F832306C4A12789A436B4BD8
:1056E0001A7010BD0023837200F10B01002204E048
:1056F000002301F8013B531CDAB2042AF8DB70479F
:1057000005E011F8013B00F8013B531E9AB2002A54
:10571000F7DC704710B5002401F098FE04465D48A0
:105720000078F0B95C480078D8B9FFF74BFE5B48C9
:1057300000785B490978884213D053485749097863
:1057400050F821005749086008460068406B401C2B
:105750000968486354480068401C5349086001F0D8
:105760008CFE204601F076FE10BD2DE9F84F05466F
:105770000E4617469846DDE90BABDDF82890002071
:10578000009001F063FE009048480468002C71D03E
:1057900054F8140F45490860009801F05BFE44F886
:1057A000146CA576002020766076E08244F810AC78
:1057B00044F8089C44F80C7C24F804BC24F8028CBF
:1057C000E077E810207705F00700E076217F0120E0
:1057D0008840A077E17E0120884060770020A060AB
:1057E0002061E0602062A0626062E06220633F208E
:1057F00084F83400A4F114044FF000014FF0490084
:105800000155204601F0C8FE204601F073FE01F06C
:105810001DFE00901C4840F8254025480068606146
:105820000020A0612248006810B12148006884610E
:105830001F48046004F13004A0781449097840EA54
:1058400001001249087020780D49085C617840EA2F
:10585000010014F830190A4A50541648007800F133
:10586000010014490870009801F0F4FD0020BDE823
:10587000F88FFFE7009801F0EDFD4220F7E7000008
:10588000F9000020FAA400084C8B0020F80000204A
:1058900004010020F4000020F5000020F7000020A3
:1058A000F60000200C010020E80000200801002084
:1058B00010010020FE0000202DE9F05F04460F4695
:1058C00091461E464FF0000B2078052804D0012099
:1058D00030700020BDE8F09F09F0800ABAF1000F97
:1058E00004D029F080094FF0010801E04FF00008D2
:1058F0000020307001F0AAFD8346B9F1000F2CD0D2
:10590000B9F1010F3BD0B9F1020F03D0B9F1030F88
:1059100046D111E0208900EA0705BD4206D1B8F161
:10592000010F05D12089A843208101E0702030704B
:10593000584601F08FFD3AE0208900EA070535B1AD
:10594000B8F1010F05D12089A843208101E0702022
:105950003070584601F07EFD29E0208927EA0005D5
:10596000BD4206D1B8F1010F05D12089284320811D
:1059700001E070203070584601F06CFD17E020897E
:1059800027EA000535B1B8F1010F05D12089284378
:10599000208101E070203070584601F05BFD06E088
:1059A000584601F057FD00256F20307000BF00BF42
:1059B00028468FE72DE9F04106460D460027FB48B3
:1059C0000078002804DD102028700020BDE8F08158
:1059D00001F03CFD0746F648046894B10068406851
:1059E000F3490860052020702681002060603F2078
:1059F000A0720021E172384601F02CFD00202870D1
:105A000004E0384601F026FD722028702046DDE7CC
:105A100030B501464A6808682AB9CC68606028B188
:105A20000025456002E0106000B142608B680025EF
:105A30005D6230BDF0B506460F46B468002004F143
:105A4000280460802780207920F0200020714FF00A
:105A5000000060712079A4F12804A8B904F1300491
:105A6000A078D449097840EA0100D249087020782A
:105A7000D149085C617840EA010014F83019CE4A37
:105A800050544FF0010500E000253046FFF7C0FFFD
:105A90002846F0BD2DE9F0470446894615464FF0EB
:105AA000000AC2480078002804DD0F202870204634
:105AB000BDE8F0872078052803D001202870204613
:105AC000F6E701F0C3FC8246606808B1012700E0F8
:105AD0000027B9F1000F03D0B9F1010F40D11BE04D
